{"abi":[{"type":"constructor","inputs":[{"name":"_sprToken","type":"address","internalType":"address"},{"name":"_publicStaking","type":"address","internalType":"address"},{"name":"_treasuryVesting","type":"address","internalType":"address"}],"stateMutability":"nonpayable"},{"type":"receive","stateMutability":"payable"},{"type":"function","name":"SPR","inputs":[],"outputs":[{"name":"","type":"address","internalType":"contract ERC20"}],"stateMutability":"view"},{"type":"function","name":"SuperDuperNFT","inputs":[],"outputs":[{"name":"","type":"address","internalType":"contract ERC721"}],"stateMutability":"view"},{"type":"function","name":"allTimeRevenue","inputs":[],"outputs":[{"name":"","type":"uint256","internalType":"uint256"}],"stateMutability":"view"},{"type":"function","name":"collectNFTJackpot","inputs":[{"name":"_tokenId","type":"uint256","internalType":"uint256"}],"outputs":[],"stateMutability":"nonpayable"},{"type":"function","name":"distributeRevenue","inputs":[],"outputs":[],"stateMutability":"nonpayable"},{"type":"function","name":"lockDuration","inputs":[],"outputs":[{"name":"","type":"uint256","internalType":"uint256"}],"stateMutability":"view"},{"type":"function","name":"nftLocks","inputs":[{"name":"","type":"uint256","internalType":"uint256"}],"outputs":[{"name":"","type":"uint256","internalType":"uint256"}],"stateMutability":"view"},{"type":"function","name":"nftShare","inputs":[],"outputs":[{"name":"","type":"uint256","internalType":"uint256"}],"stateMutability":"view"},{"type":"function","name":"owner","inputs":[],"outputs":[{"name":"","type":"address","internalType":"address"}],"stateMutability":"view"},{"type":"function","name":"publicStaking","inputs":[],"outputs":[{"name":"","type":"address","internalType":"contract SuperMemePublicStaking"}],"stateMutability":"view"},{"type":"function","name":"remainingLockTime","inputs":[{"name":"_tokenId","type":"uint256","internalType":"uint256"}],"outputs":[{"name":"","type":"uint256","internalType":"uint256"}],"stateMutability":"view"},{"type":"function","name":"renounceOwnership","inputs":[],"outputs":[],"stateMutability":"nonpayable"},{"type":"function","name":"setLockDuration","inputs":[{"name":"_lockDuration","type":"uint256","internalType":"uint256"}],"outputs":[],"stateMutability":"nonpayable"},{"type":"function","name":"setNFT","inputs":[{"name":"_superduperNFT","type":"address","internalType":"address"}],"outputs":[],"stateMutability":"nonpayable"},{"type":"function","name":"setSPRToken","inputs":[{"name":"_sprToken","type":"address","internalType":"address"}],"outputs":[],"stateMutability":"nonpayable"},{"type":"function","name":"totalEtherCollected","inputs":[],"outputs":[{"name":"","type":"uint256","internalType":"uint256"}],"stateMutability":"view"},{"type":"function","name":"transferOwnership","inputs":[{"name":"newOwner","type":"address","internalType":"address"}],"outputs":[],"stateMutability":"nonpayable"},{"type":"function","name":"treasuryVesting","inputs":[],"outputs":[{"name":"","type":"address","internalType":"contract SuperMemeTreasuryVesting"}],"stateMutability":"view"},{"type":"event","name":"OwnershipTransferred","inputs":[{"name":"previousOwner","type":"address","indexed":true,"internalType":"address"},{"name":"newOwner","type":"address","indexed":true,"internalType":"address"}],"anonymous":false},{"type":"error","name":"OwnableInvalidOwner","inputs":[{"name":"owner","type":"address","internalType":"address"}]},{"type":"error","name":"OwnableUnauthorizedAccount","inputs":[{"name":"account","type":"address","internalType":"address"}]},{"type":"error","name":"ReentrancyGuardReentrantCall","inputs":[]}],"bytecode":{"object":"0x608060405262093a8060085534801561001757600080fd5b50604051610bed380380610bed8339810160408190526100369161011b565b338061005c57604051631e4fbdf760e01b81526000600482015260240160405180910390fd5b610065816100af565b5060018055600480546001600160a01b039384166001600160a01b03199182161790915560058054928416928216929092179091556002805493909216921691909117905561015e565b600080546001600160a01b038381166001600160a01b0319831681178455604051919092169283917f8be0079c531659141344cd1fd0a4f28419497f9722a3daafe3b4186f6b6457e09190a35050565b80516001600160a01b038116811461011657600080fd5b919050565b60008060006060848603121561013057600080fd5b610139846100ff565b9250610147602085016100ff565b9150610155604085016100ff565b90509250925092565b610a808061016d6000396000f3fe60806040526004361061010d5760003560e01c8063715018a611610095578063c7a0206111610064578063c7a020611461036c578063e4658d1f14610382578063f2fde38b146103af578063f56e9c66146103cf578063fd0af317146103ef57600080fd5b8063715018a6146102f95780638da5cb5b1461030e578063b3b3fe2c1461032c578063c16027801461034c57600080fd5b80634d12e2bf116100dc5780634d12e2bf1461026d5780634e279f8f146102835780634eb665af146102a357806360a96b7d146102c35780636c6dedcb146102e357600080fd5b806304554443146101d557806304decf2e146101fe57806326530617146102365780632d07953a1461025857600080fd5b366101d057606434116101675760405162461bcd60e51b815260206004820152601b60248201527f56616c75652073686f756c64206265206d6f7265207468616e2030000000000060448201526064015b60405180910390fd5b610172606434610963565b61017c9034610985565b6006600082825461018d9190610998565b9091555061019e9050606434610963565b600760008282546101af9190610998565b9250508190555034600960008282546101c89190610998565b925050819055005b600080fd5b3480156101e157600080fd5b506101eb60085481565b6040519081526020015b60405180910390f35b34801561020a57600080fd5b5060045461021e906001600160a01b031681565b6040516001600160a01b0390911681526020016101f5565b34801561024257600080fd5b506102566102513660046109ab565b61040f565b005b34801561026457600080fd5b5061025661059f565b34801561027957600080fd5b506101eb60075481565b34801561028f57600080fd5b5060025461021e906001600160a01b031681565b3480156102af57600080fd5b506102566102be3660046109ab565b6107ae565b3480156102cf57600080fd5b506102566102de3660046109d9565b6107bb565b3480156102ef57600080fd5b506101eb60095481565b34801561030557600080fd5b506102566107e5565b34801561031a57600080fd5b506000546001600160a01b031661021e565b34801561033857600080fd5b5060055461021e906001600160a01b031681565b34801561035857600080fd5b506101eb6103673660046109ab565b6107f9565b34801561037857600080fd5b506101eb60065481565b34801561038e57600080fd5b506101eb61039d3660046109ab565b600a6020526000908152604090205481565b3480156103bb57600080fd5b506102566103ca3660046109d9565b610841565b3480156103db57600080fd5b506102566103ea3660046109d9565b61087c565b3480156103fb57600080fd5b5060035461021e906001600160a01b031681565b6104176108a6565b6003546040516331a9108f60e11b81526004810183905233916001600160a01b031690636352211e90602401602060405180830381865afa158015610460573d6000803e3d6000fd5b505050506040513d601f19601f8201168201806040525081019061048491906109fd565b6001600160a01b0316146104da5760405162461bcd60e51b815260206004820152601760248201527f4e4654206e6f74206f776e65642062792073656e646572000000000000000000604482015260640161015e565b6000818152600a602052604090205442118061050257506000818152600a6020526040902054155b61053e5760405162461bcd60e51b815260206004820152600d60248201526c139195081a5cc81b1bd8dad959609a1b604482015260640161015e565b6007805460009091556008546105549042610998565b6000838152600a6020526040808220929092559051339183156108fc02918491818181858888f19350505050158015610591573d6000803e3d6000fd5b505061059c60018055565b50565b6002546005546040516370a0823160e01b81526001600160a01b03918216600482015260009291909116906370a0823190602401602060405180830381865afa1580156105f0573d6000803e3d6000fd5b505050506040513d601f19601f820116820180604052508101906106149190610a1a565b600254600480546040516370a0823160e01b81526001600160a01b0391821692810192909252929350600092909116906370a0823190602401602060405180830381865afa15801561066a573d6000803e3d6000fd5b505050506040513d601f19601f8201168201806040525081019061068e9190610a1a565b9050600061069c8284610998565b9050600081846006546106af9190610a33565b6106b99190610963565b90506000816006546106cb9190610985565b9050811561073d57600560009054906101000a90046001600160a01b03166001600160a01b031663ed14d17e836040518263ffffffff1660e01b81526004016000604051808303818588803b15801561072357600080fd5b505af1158015610737573d6000803e3d6000fd5b50505050505b80156107a257600480546040805163768a68bf60e11b815290516001600160a01b039092169263ed14d17e928592808301926000929182900301818588803b15801561078857600080fd5b505af115801561079c573d6000803e3d6000fd5b50505050505b50506000600655505050565b6107b66108d0565b600855565b6107c36108d0565b600280546001600160a01b0319166001600160a01b0392909216919091179055565b6107ed6108d0565b6107f760006108fd565b565b6000818152600a60205260408120548190610815904290610985565b1161082157600061083b565b6000828152600a602052604090205461083b904290610985565b92915050565b6108496108d0565b6001600160a01b03811661087357604051631e4fbdf760e01b81526000600482015260240161015e565b61059c816108fd565b6108846108d0565b600380546001600160a01b0319166001600160a01b0392909216919091179055565b6002600154036108c957604051633ee5aeb560e01b815260040160405180910390fd5b6002600155565b6000546001600160a01b031633146107f75760405163118cdaa760e01b815233600482015260240161015e565b600080546001600160a01b038381166001600160a01b0319831681178455604051919092169283917f8be0079c531659141344cd1fd0a4f28419497f9722a3daafe3b4186f6b6457e09190a35050565b634e487b7160e01b600052601160045260246000fd5b60008261098057634e487b7160e01b600052601260045260246000fd5b500490565b8181038181111561083b5761083b61094d565b8082018082111561083b5761083b61094d565b6000602082840312156109bd57600080fd5b5035919050565b6001600160a01b038116811461059c57600080fd5b6000602082840312156109eb57600080fd5b81356109f6816109c4565b9392505050565b600060208284031215610a0f57600080fd5b81516109f6816109c4565b600060208284031215610a2c57600080fd5b5051919050565b808202811582820484141761083b5761083b61094d56fea2646970667358221220be0afe3fc39f7deebdc1dc67be8a2120328690a31e67b06bffa02b6e1d0a574964736f6c63430008140033","linkReferences":{}},"methodIdentifiers":{"SPR()":"4e279f8f","SuperDuperNFT()":"fd0af317","allTimeRevenue()":"6c6dedcb","collectNFTJackpot(uint256)":"26530617","distributeRevenue()":"2d07953a","lockDuration()":"04554443","nftLocks(uint256)":"e4658d1f","nftShare()":"4d12e2bf","owner()":"8da5cb5b","publicStaking()":"04decf2e","remainingLockTime(uint256)":"c1602780","renounceOwnership()":"715018a6","setLockDuration(uint256)":"4eb665af","setNFT(address)":"f56e9c66","setSPRToken(address)":"60a96b7d","totalEtherCollected()":"c7a02061","transferOwnership(address)":"f2fde38b","treasuryVesting()":"b3b3fe2c"},"id":57}