{"abi":[{"type":"constructor","inputs":[{"name":"_sprToken","type":"address","internalType":"address"},{"name":"_publicStaking","type":"address","internalType":"address"},{"name":"_treasuryVesting","type":"address","internalType":"address"}],"stateMutability":"nonpayable"},{"type":"receive","stateMutability":"payable"},{"type":"function","name":"SPR","inputs":[],"outputs":[{"name":"","type":"address","internalType":"contract ERC20"}],"stateMutability":"view"},{"type":"function","name":"SuperDuperNFT","inputs":[],"outputs":[{"name":"","type":"address","internalType":"contract ERC721"}],"stateMutability":"view"},{"type":"function","name":"allTimeRevenue","inputs":[],"outputs":[{"name":"","type":"uint256","internalType":"uint256"}],"stateMutability":"view"},{"type":"function","name":"collectNFTJackpot","inputs":[{"name":"_tokenId","type":"uint256","internalType":"uint256"}],"outputs":[],"stateMutability":"nonpayable"},{"type":"function","name":"distributeRevenue","inputs":[],"outputs":[],"stateMutability":"nonpayable"},{"type":"function","name":"lockDuration","inputs":[],"outputs":[{"name":"","type":"uint256","internalType":"uint256"}],"stateMutability":"view"},{"type":"function","name":"nftLocks","inputs":[{"name":"","type":"uint256","internalType":"uint256"}],"outputs":[{"name":"","type":"uint256","internalType":"uint256"}],"stateMutability":"view"},{"type":"function","name":"nftShare","inputs":[],"outputs":[{"name":"","type":"uint256","internalType":"uint256"}],"stateMutability":"view"},{"type":"function","name":"owner","inputs":[],"outputs":[{"name":"","type":"address","internalType":"address"}],"stateMutability":"view"},{"type":"function","name":"publicStaking","inputs":[],"outputs":[{"name":"","type":"address","internalType":"contract SuperMemePublicStaking"}],"stateMutability":"view"},{"type":"function","name":"remainingLockTime","inputs":[{"name":"_tokenId","type":"uint256","internalType":"uint256"}],"outputs":[{"name":"","type":"uint256","internalType":"uint256"}],"stateMutability":"view"},{"type":"function","name":"renounceOwnership","inputs":[],"outputs":[],"stateMutability":"nonpayable"},{"type":"function","name":"setLockDuration","inputs":[{"name":"_lockDuration","type":"uint256","internalType":"uint256"}],"outputs":[],"stateMutability":"nonpayable"},{"type":"function","name":"setNFT","inputs":[{"name":"_superduperNFT","type":"address","internalType":"address"}],"outputs":[],"stateMutability":"nonpayable"},{"type":"function","name":"setSPRToken","inputs":[{"name":"_sprToken","type":"address","internalType":"address"}],"outputs":[],"stateMutability":"nonpayable"},{"type":"function","name":"totalEtherCollected","inputs":[],"outputs":[{"name":"","type":"uint256","internalType":"uint256"}],"stateMutability":"view"},{"type":"function","name":"transferOwnership","inputs":[{"name":"newOwner","type":"address","internalType":"address"}],"outputs":[],"stateMutability":"nonpayable"},{"type":"function","name":"treasuryVesting","inputs":[],"outputs":[{"name":"","type":"address","internalType":"contract SuperMemeTreasuryVesting"}],"stateMutability":"view"},{"type":"event","name":"OwnershipTransferred","inputs":[{"name":"previousOwner","type":"address","indexed":true,"internalType":"address"},{"name":"newOwner","type":"address","indexed":true,"internalType":"address"}],"anonymous":false},{"type":"error","name":"OwnableInvalidOwner","inputs":[{"name":"owner","type":"address","internalType":"address"}]},{"type":"error","name":"OwnableUnauthorizedAccount","inputs":[{"name":"account","type":"address","internalType":"address"}]},{"type":"error","name":"ReentrancyGuardReentrantCall","inputs":[]}],"bytecode":{"object":"0x60803461010857601f610a9f38819003918201601f19168301916001600160401b0383118484101761010d578084926060946040528339810103126101085761004781610123565b61005f604061005860208501610123565b9301610123565b9133156100ef57600080546001600160a01b03198082163390811784556040519691956001600160a01b039590948694859391908416907f8be0079c531659141344cd1fd0a4f28419497f9722a3daafe3b4186f6b6457e09080a36001805562093a8060085516856004541617600455168360055416176005551690600254161760025561096790816101388239f35b604051631e4fbdf760e01b815260006004820152602490fd5b600080fd5b634e487b7160e01b600052604160045260246000fd5b51906001600160a01b03821682036101085756fe6080604090808252600490813610156100a5575b50361561001f57600080fd5b60643411156100635761004f6064340461004461003c82346108b5565b6006546108d8565b6006556007546108d8565b60075561005e346009546108d8565b600955005b6020606492519162461bcd60e51b8352820152601b60248201527f56616c75652073686f756c64206265206d6f7265207468616e203000000000006044820152fd5b600090813560e01c908163045544431461086d5750806304decf2e1461084457806326530617146106965780632d07953a146104955780634d12e2bf146104765780634e279f8f1461044d5780634eb665af1461042b57806360a96b7d146103e75780636c6dedcb146103c8578063715018a61461036b5780638da5cb5b14610343578063b3b3fe2c1461031a578063c1602780146102c3578063c7a02061146102a4578063e4658d1f1461027b578063f2fde38b146101e4578063f56e9c66146101a05763fd0af3170361001357823461019c578160031936011261019c5760035490516001600160a01b039091168152602090f35b5080fd5b50903461019c57602036600319011261019c57356001600160a01b0381169081900361019c576101ce610889565b6001600160601b0360a01b600354161760035580f35b509134610277576020366003190112610277576001600160a01b0382358181169391929084900361027357610217610889565b831561025d575050600054826001600160601b0360a01b821617600055167f8be0079c531659141344cd1fd0a4f28419497f9722a3daafe3b4186f6b6457e0600080a380f35b51631e4fbdf760e01b8152908101849052602490fd5b8480fd5b8280fd5b50919034610277576020366003190112610277576020928291358152600a845220549051908152f35b50823461019c578160031936011261019c576020906006549051908152f35b50919034610277576020366003190112610277579160209235808252600a84526102f18383205442906108b5565b15610313579061030b918152600a845282429120546108b5565b905b51908152f35b509061030d565b50823461019c578160031936011261019c5760055490516001600160a01b039091168152602090f35b50823461019c578160031936011261019c57905490516001600160a01b039091168152602090f35b50346103c557806003193601126103c557610384610889565b600080546001600160a01b0319811682556001600160a01b03167f8be0079c531659141344cd1fd0a4f28419497f9722a3daafe3b4186f6b6457e08280a380f35b80fd5b50823461019c578160031936011261019c576020906009549051908152f35b50903461019c57602036600319011261019c57356001600160a01b0381169081900361019c57610415610889565b6001600160601b0360a01b600254161760025580f35b50903461019c57602036600319011261019c57610446610889565b3560085580f35b50823461019c578160031936011261019c5760025490516001600160a01b039091168152602090f35b50823461019c578160031936011261019c576020906007549051908152f35b50823461019c578160031936011261019c5760018060a01b03908160025416938260055416928251956370a0823160e01b80885285848901526020908189602481865afa98891561068c578899610659575b50819060248587541691885195869384928352898301525afa90811561064f57879161061f575b5061051a9150876108d8565b6006549680880290888204148815171561060c5781156105f95790610541910480976108b5565b93866105aa575b508495508361055a575b848060065580f35b815416803b1561027357849183518095819363768a68bf60e11b83525af19081156105a1575061058d575b808080610552565b610596906108e5565b6103c5578082610585565b513d84823e3d90fd5b803b156105f55785908385518099819363768a68bf60e11b83525af180156105eb576105d7575b85610548565b9390946105e3906108e5565b9284906105d1565b83513d87823e3d90fd5b8580fd5b634e487b7160e01b875260128452602487fd5b634e487b7160e01b875260118452602487fd5b905081813d8311610648575b610635818361090f565b810103126105f55761051a90518861050e565b503d61062b565b85513d89823e3d90fd5b9098508181813d8311610685575b610671818361090f565b81010312610681575197816104e7565b8780fd5b503d610667565b86513d8a823e3d90fd5b5091903461027757602090816003193601126108405780359060026001541461083257600260015560035484516331a9108f60e11b8152828101849052906001600160a01b039085908390602490829085165afa9182156108285787926107ec575b50339116036107a957818552600a8352838520544281109081156107a0575b501561076d5750838080938193600a600754928460075561073a600854426108d8565b9285525286832055818115610764575b3390f11561075a57506001805580f35b51903d90823e3d90fd5b506108fc61074a565b835162461bcd60e51b8152908101839052600d60248201526c139195081a5cc81b1bd8dad959609a1b6044820152606490fd5b90501538610717565b835162461bcd60e51b8152908101839052601760248201527f4e4654206e6f74206f776e65642062792073656e6465720000000000000000006044820152606490fd5b9091508481813d8311610821575b610804818361090f565b8101031261081d5751818116810361081d5790386106f8565b8680fd5b503d6107fa565b86513d89823e3d90fd5b8351633ee5aeb560e01b8152fd5b8380fd5b509190346102775782600319360112610277575490516001600160a01b03909116815260209150f35b90503461019c578160031936011261019c576020906008548152f35b6000546001600160a01b0316330361089d57565b60405163118cdaa760e01b8152336004820152602490fd5b919082039182116108c257565b634e487b7160e01b600052601160045260246000fd5b919082018092116108c257565b67ffffffffffffffff81116108f957604052565b634e487b7160e01b600052604160045260246000fd5b90601f8019910116810190811067ffffffffffffffff8211176108f95760405256fea2646970667358221220d8ad7d8f87ad52770f154626fc3f5b1323f41d04a9a069b2bab2180abe5f7bfc64736f6c63430008140033","linkReferences":{}},"methodIdentifiers":{"SPR()":"4e279f8f","SuperDuperNFT()":"fd0af317","allTimeRevenue()":"6c6dedcb","collectNFTJackpot(uint256)":"26530617","distributeRevenue()":"2d07953a","lockDuration()":"04554443","nftLocks(uint256)":"e4658d1f","nftShare()":"4d12e2bf","owner()":"8da5cb5b","publicStaking()":"04decf2e","remainingLockTime(uint256)":"c1602780","renounceOwnership()":"715018a6","setLockDuration(uint256)":"4eb665af","setNFT(address)":"f56e9c66","setSPRToken(address)":"60a96b7d","totalEtherCollected()":"c7a02061","transferOwnership(address)":"f2fde38b","treasuryVesting()":"b3b3fe2c"},"id":57}