{"abi":[{"type":"constructor","inputs":[{"name":"_name","type":"string","internalType":"string"},{"name":"_symbol","type":"string","internalType":"string"},{"name":"_amount","type":"uint256","internalType":"uint256"},{"name":"_devAdress","type":"address","internalType":"address"},{"name":"_revenueCollector","type":"address","internalType":"address"},{"name":"_ethBuy","type":"uint256","internalType":"uint256"}],"stateMutability":"payable"},{"type":"function","name":"A","inputs":[],"outputs":[{"name":"","type":"uint256","internalType":"uint256"}],"stateMutability":"view"},{"type":"function","name":"MAXIMUM_TOTAL_ETHER","inputs":[],"outputs":[{"name":"","type":"uint256","internalType":"uint256"}],"stateMutability":"view"},{"type":"function","name":"MAX_SALE_SUPPLY","inputs":[],"outputs":[{"name":"","type":"uint256","internalType":"uint256"}],"stateMutability":"view"},{"type":"function","name":"SCALE","inputs":[],"outputs":[{"name":"","type":"uint256","internalType":"uint256"}],"stateMutability":"view"},{"type":"function","name":"TOTAL_ETHER","inputs":[],"outputs":[{"name":"","type":"uint256","internalType":"uint256"}],"stateMutability":"view"},{"type":"function","name":"allowance","inputs":[{"name":"owner","type":"address","internalType":"address"},{"name":"spender","type":"address","internalType":"address"}],"outputs":[{"name":"","type":"uint256","internalType":"uint256"}],"stateMutability":"view"},{"type":"function","name":"approve","inputs":[{"name":"spender","type":"address","internalType":"address"},{"name":"value","type":"uint256","internalType":"uint256"}],"outputs":[{"name":"","type":"bool","internalType":"bool"}],"stateMutability":"nonpayable"},{"type":"function","name":"balanceOf","inputs":[{"name":"account","type":"address","internalType":"address"}],"outputs":[{"name":"","type":"uint256","internalType":"uint256"}],"stateMutability":"view"},{"type":"function","name":"bondingCurveCompleted","inputs":[],"outputs":[{"name":"","type":"bool","internalType":"bool"}],"stateMutability":"view"},{"type":"function","name":"buyCost","inputs":[{"name":"","type":"uint256","internalType":"uint256"}],"outputs":[{"name":"","type":"uint256","internalType":"uint256"}],"stateMutability":"view"},{"type":"function","name":"buyCount","inputs":[],"outputs":[{"name":"","type":"uint256","internalType":"uint256"}],"stateMutability":"view"},{"type":"function","name":"buyIndex","inputs":[{"name":"","type":"uint256","internalType":"uint256"}],"outputs":[{"name":"","type":"address","internalType":"address"}],"stateMutability":"view"},{"type":"function","name":"buyPointScale","inputs":[],"outputs":[{"name":"","type":"uint256","internalType":"uint256"}],"stateMutability":"view"},{"type":"function","name":"buyTokens","inputs":[{"name":"_amount","type":"uint256","internalType":"uint256"}],"outputs":[],"stateMutability":"payable"},{"type":"function","name":"calculateCost","inputs":[{"name":"amount","type":"uint256","internalType":"uint256"}],"outputs":[{"name":"","type":"uint256","internalType":"uint256"}],"stateMutability":"view"},{"type":"function","name":"calculateTokensRefund","inputs":[],"outputs":[{"name":"","type":"uint256","internalType":"uint256"},{"name":"","type":"uint256","internalType":"uint256"}],"stateMutability":"view"},{"type":"function","name":"cumulativeEthCollected","inputs":[{"name":"","type":"uint256","internalType":"uint256"}],"outputs":[{"name":"","type":"uint256","internalType":"uint256"}],"stateMutability":"view"},{"type":"function","name":"decimals","inputs":[],"outputs":[{"name":"","type":"uint8","internalType":"uint8"}],"stateMutability":"view"},{"type":"function","name":"devAddress","inputs":[],"outputs":[{"name":"","type":"address","internalType":"address"}],"stateMutability":"view"},{"type":"function","name":"devLockDuration","inputs":[],"outputs":[{"name":"","type":"uint256","internalType":"uint256"}],"stateMutability":"view"},{"type":"function","name":"factoryContract","inputs":[],"outputs":[{"name":"","type":"address","internalType":"address"}],"stateMutability":"view"},{"type":"function","name":"isRefund","inputs":[{"name":"","type":"uint256","internalType":"uint256"}],"outputs":[{"name":"","type":"bool","internalType":"bool"}],"stateMutability":"view"},{"type":"function","name":"minBuyAmount","inputs":[],"outputs":[{"name":"","type":"uint256","internalType":"uint256"}],"stateMutability":"view"},{"type":"function","name":"name","inputs":[],"outputs":[{"name":"","type":"string","internalType":"string"}],"stateMutability":"view"},{"type":"function","name":"refund","inputs":[],"outputs":[],"stateMutability":"nonpayable"},{"type":"function","name":"refundOnly","inputs":[],"outputs":[{"name":"","type":"bool","internalType":"bool"}],"stateMutability":"view"},{"type":"function","name":"remainingTokens","inputs":[],"outputs":[{"name":"","type":"uint256","internalType":"uint256"}],"stateMutability":"view"},{"type":"function","name":"revenueCollector","inputs":[],"outputs":[{"name":"","type":"address","internalType":"address"}],"stateMutability":"view"},{"type":"function","name":"scaledLiquidityThreshold","inputs":[],"outputs":[{"name":"","type":"uint256","internalType":"uint256"}],"stateMutability":"view"},{"type":"function","name":"scaledSupply","inputs":[],"outputs":[{"name":"","type":"uint256","internalType":"uint256"}],"stateMutability":"view"},{"type":"function","name":"sendDexRevenue","inputs":[],"outputs":[{"name":"","type":"uint256","internalType":"uint256"}],"stateMutability":"view"},{"type":"function","name":"sendToDex","inputs":[],"outputs":[],"stateMutability":"payable"},{"type":"function","name":"symbol","inputs":[],"outputs":[{"name":"","type":"string","internalType":"string"}],"stateMutability":"view"},{"type":"function","name":"totalEthPaidUser","inputs":[{"name":"","type":"address","internalType":"address"}],"outputs":[{"name":"","type":"uint256","internalType":"uint256"}],"stateMutability":"view"},{"type":"function","name":"totalEtherCollected","inputs":[],"outputs":[{"name":"","type":"uint256","internalType":"uint256"}],"stateMutability":"view"},{"type":"function","name":"totalRefundedTokens","inputs":[],"outputs":[{"name":"","type":"uint256","internalType":"uint256"}],"stateMutability":"view"},{"type":"function","name":"totalRevenueCollected","inputs":[],"outputs":[{"name":"","type":"uint256","internalType":"uint256"}],"stateMutability":"view"},{"type":"function","name":"totalSupply","inputs":[],"outputs":[{"name":"","type":"uint256","internalType":"uint256"}],"stateMutability":"view"},{"type":"function","name":"tradeTax","inputs":[],"outputs":[{"name":"","type":"uint256","internalType":"uint256"}],"stateMutability":"view"},{"type":"function","name":"tradeTaxDivisor","inputs":[],"outputs":[{"name":"","type":"uint256","internalType":"uint256"}],"stateMutability":"view"},{"type":"function","name":"transfer","inputs":[{"name":"to","type":"address","internalType":"address"},{"name":"value","type":"uint256","internalType":"uint256"}],"outputs":[{"name":"","type":"bool","internalType":"bool"}],"stateMutability":"nonpayable"},{"type":"function","name":"transferFrom","inputs":[{"name":"from","type":"address","internalType":"address"},{"name":"to","type":"address","internalType":"address"},{"name":"value","type":"uint256","internalType":"uint256"}],"outputs":[{"name":"","type":"bool","internalType":"bool"}],"stateMutability":"nonpayable"},{"type":"function","name":"uniswapV2Pair","inputs":[],"outputs":[{"name":"","type":"address","internalType":"contract IUniswapV2Pair"}],"stateMutability":"view"},{"type":"function","name":"uniswapV2Router","inputs":[],"outputs":[{"name":"","type":"address","internalType":"contract IUniswapV2Router02"}],"stateMutability":"view"},{"type":"function","name":"userBalanceScaled","inputs":[{"name":"","type":"address","internalType":"address"}],"outputs":[{"name":"","type":"uint256","internalType":"uint256"}],"stateMutability":"view"},{"type":"function","name":"userBuyPointPercentages","inputs":[{"name":"","type":"address","internalType":"address"},{"name":"","type":"uint256","internalType":"uint256"}],"outputs":[{"name":"","type":"uint256","internalType":"uint256"}],"stateMutability":"view"},{"type":"function","name":"userBuyPointsEthPaid","inputs":[{"name":"","type":"address","internalType":"address"},{"name":"","type":"uint256","internalType":"uint256"}],"outputs":[{"name":"","type":"uint256","internalType":"uint256"}],"stateMutability":"view"},{"type":"function","name":"userBuysPoints","inputs":[{"name":"","type":"address","internalType":"address"},{"name":"","type":"uint256","internalType":"uint256"}],"outputs":[{"name":"","type":"uint256","internalType":"uint256"}],"stateMutability":"view"},{"type":"function","name":"userRefunded","inputs":[{"name":"","type":"address","internalType":"address"}],"outputs":[{"name":"","type":"bool","internalType":"bool"}],"stateMutability":"view"},{"type":"event","name":"Approval","inputs":[{"name":"owner","type":"address","indexed":true,"internalType":"address"},{"name":"spender","type":"address","indexed":true,"internalType":"address"},{"name":"value","type":"uint256","indexed":false,"internalType":"uint256"}],"anonymous":false},{"type":"event","name":"Price","inputs":[{"name":"_price","type":"uint256","indexed":true,"internalType":"uint256"},{"name":"_totalSupply","type":"uint256","indexed":true,"internalType":"uint256"},{"name":"_tokenAddress","type":"address","indexed":true,"internalType":"address"},{"name":"_amount","type":"uint256","indexed":false,"internalType":"uint256"}],"anonymous":false},{"type":"event","name":"SentToDex","inputs":[{"name":"ethAmount","type":"uint256","indexed":false,"internalType":"uint256"},{"name":"tokenAmount","type":"uint256","indexed":false,"internalType":"uint256"},{"name":"timestamp","type":"uint256","indexed":false,"internalType":"uint256"}],"anonymous":false},{"type":"event","name":"Transfer","inputs":[{"name":"from","type":"address","indexed":true,"internalType":"address"},{"name":"to","type":"address","indexed":true,"internalType":"address"},{"name":"value","type":"uint256","indexed":false,"internalType":"uint256"}],"anonymous":false},{"type":"event","name":"tokensBought","inputs":[{"name":"amount","type":"uint256","indexed":true,"internalType":"uint256"},{"name":"cost","type":"uint256","indexed":false,"internalType":"uint256"},{"name":"tokenAddress","type":"address","indexed":true,"internalType":"address"},{"name":"buyer","type":"address","indexed":true,"internalType":"address"},{"name":"totalSupply","type":"uint256","indexed":false,"internalType":"uint256"}],"anonymous":false},{"type":"event","name":"tokensRefunded","inputs":[{"name":"amount","type":"uint256","indexed":true,"internalType":"uint256"},{"name":"refund","type":"uint256","indexed":false,"internalType":"uint256"},{"name":"_tokenAddress","type":"address","indexed":true,"internalType":"address"},{"name":"_refunder","type":"address","indexed":true,"internalType":"address"},{"name":"_price","type":"uint256","indexed":false,"internalType":"uint256"}],"anonymous":false},{"type":"error","name":"ERC20InsufficientAllowance","inputs":[{"name":"spender","type":"address","internalType":"address"},{"name":"allowance","type":"uint256","internalType":"uint256"},{"name":"needed","type":"uint256","internalType":"uint256"}]},{"type":"error","name":"ERC20InsufficientBalance","inputs":[{"name":"sender","type":"address","internalType":"address"},{"name":"balance","type":"uint256","internalType":"uint256"},{"name":"needed","type":"uint256","internalType":"uint256"}]},{"type":"error","name":"ERC20InvalidApprover","inputs":[{"name":"approver","type":"address","internalType":"address"}]},{"type":"error","name":"ERC20InvalidReceiver","inputs":[{"name":"receiver","type":"address","internalType":"address"}]},{"type":"error","name":"ERC20InvalidSender","inputs":[{"name":"sender","type":"address","internalType":"address"}]},{"type":"error","name":"ERC20InvalidSpender","inputs":[{"name":"spender","type":"address","internalType":"address"}]},{"type":"error","name":"ReentrancyGuardReentrantCall","inputs":[]}],"bytecode":{"object":"0x608080604052620030ac80380380916200001a828562000be8565b833981019060c081830312620008ba5780516001600160401b0390818111620008ba57836200004b91840162000c28565b92602083015190828211620008ba576200006791840162000c28565b926040830151926200007c6060820162000c92565b9260a06200008d6080840162000c92565b9201519583519382851162000b1d57600394855491600183811c9316801562000bdd575b602084101462000afc578190601f9384811162000ba9575b5060209084831160011462000b3f5760009262000b33575b50508160011b9160001990881b1c19161785555b815192831162000b1d5760045491600183811c9316801562000b12575b602084101462000afc57828285941162000abc575b50602091831160011462000a325760009262000a26575b50508160011b9160001990851b1c1916176004555b6001600555633b9aca00600655673782dace9d9000006007556aa56fa5b99019a5c80000006008556103e8600e55620186a0600f55670214e8348c4f0000601055602080546001600160a01b03199081163317909155600a80549091166001600160a01b03929092169190911790553015620009495760115460ff161562000a1557620001e03062000d0e565b630bebc20060098190556011805462010000600160b01b031916754752ba5dbc23f44d87826276bf6fd6b1c372ad240000179055601e80546001600160a01b0319166001600160a01b0390941693909317909255826200024b575b604051612113908162000f798239f35b620002598434101562000ca7565b60026005541462000a03576002600555828201808311620005b4576200027f9062000e49565b90600192905b60018111620009d6575080600019048311620005b457620002a892029062000df5565b806203938702906203938782048103620005b457640574fbde600290808204620186a01490151715620005b4576729a2241af62c0000900491619c40830292808404619c401490151715620005b457600e5462012ebc8404808202819004821490151715620005b457600f54620003269162012ebc86040262000dd4565b90620003388262012ebc860462000d00565b620003468183101562000ca7565b620003518362000edf565b60009080831115620009cf576200036a91508262000df5565b801580156200099b575b5050601354600181018111620005b4576001016013819055601e5460009182526014602052604090912080546001600160a01b0319166001600160a01b0392909216919091179055620003c8828262000df5565b601354600052601560205260406000205560018060a01b03601e54166000526018602052620003ff60406000206013549062000e03565b601e546001600160a01b0316600090815260196020526040902062000431906200042a848462000df5565b9062000e03565b60018060a01b03601e5416600052601b60205260406000206200045b62012ebc8604825462000d00565b90556200047062012ebc8504600d5462000d00565b600d556013549182600019810111620005b457620004a5620004ab926000198501600052601760205260406000205462000d00565b62000df5565b906000526017602052620004c6604060002091825462000d00565b905560018060a01b03601e5416908160005260186020526040600020906040518083602082955493848152019060005260206000209260005b81811062000981575050620005179250038362000be8565b82600052601a60205260406000208054600082558062000962575b505060005b8251811015620005ca5760208160051b8401015160005260156020526040600020546127108181810204811482151715620005b457620005a1916200058d9187600052601b602052604060002054910262000dd4565b85600052601a602052604060002062000e03565b6000198114620005b45760010162000537565b634e487b7160e01b600052601160045260246000fd5b509291505060018060a01b03601e5416600052601c6020526040600020620005f483825462000d00565b9055620006048260095462000d00565b600955601e54670de0b6b3a7640000906001600160a01b0316831584830285900483141715620005b4578015620009495760115460ff161562000935576200064f9184029062000d8a565b6002546009549260018401808511620005b45762000671620006839162000e49565b6200067c8662000e49565b9062000df5565b806203938702906203938782048103620005b457640574fbde600290808204620186a01490151715620005b4576729a2241af62c0000900492619c40840293808504619c401490151715620005b45760018060a01b03601e54169062012ebc60405191048152836020820152827f23b8a9f7d1252cf262e22214b242cc92ed7ed7df9228726be4d037a26e08389460403093a46040519081527ecdd112a5bab661c199cefe1b6b407daede4238a9f24d764373bed654d7c22b602062012ebc30950492a4600654111562000922575b60ff60115416806200076f575b506001600555388080806200023b565b15620008ec576200078260105462000edf565b62000792601054600d5462000df5565b600d81905560085460115460101c6001600160a01b03168015620008d357306000526001602052604060002081600052602052816040600020556040518281527f8c5be1e5ebec7d5bd14f71427d1e84f3dd0314c0f7b2291e5b200ac8c7c3b92560203092a381606060018060a01b0360115460101c1660c46040518094819363f305d71960e01b83523060048401528760248401526000604484015260006064840152600060848401524260a48401525af18015620008c75762000891575b507faf60794da385ef41a5f66c38529ba4f0581b8bca348871688b118d212b265881916060916040519182526020820152426040820152a1386200075f565b606090813d8311620008bf575b620008aa818362000be8565b81010312620008ba573862000852565b600080fd5b503d6200089e565b6040513d6000823e3d90fd5b604051634a1406b160e11b815260006004820152602490fd5b60405162461bcd60e51b815260206004820152600e60248201526d4375727665206e6f7420646f6e6560901b6044820152606490fd5b600160ff19601154161760115562000752565b620009439184029062000d8a565b6200064f565b60405163ec442f0560e01b815260006004820152602490fd5b620009799160005260206000209081019062000ce7565b388062000532565b8454835260019485019487945060209093019201620004ff565b6000808093819360018060a01b03601e5416908390620009c5575bf115620008c757388062000374565b506108fc620009b6565b506200036a565b9080600019048111620005b45760018216620009f9575b80029060011c62000285565b80930292620009ed565b604051633ee5aeb560e01b8152600490fd5b62000a203062000d0e565b620001e0565b0151905038806200013e565b600460009081527f8a35acfbc15ff81a39ae7d344fd709f28e8600b4aa8c65c6b64bfe7fe36bd19b9350601f198516905b81811062000aa3575090846001959493921062000a8a575b505050811b0160045562000153565b015160001983871b60f8161c1916905538808062000a7b565b9293602060018192878601518155019501930162000a63565b62000aeb90600460005260206000208480870160051c8201926020881062000af2575b0160051c019062000ce7565b3862000127565b9250819262000adf565b634e487b7160e01b600052602260045260246000fd5b92607f169262000112565b634e487b7160e01b600052604160045260246000fd5b015190503880620000e1565b6000898152602081209350601f198516905b81811062000b90575090846001959493921062000b77575b505050811b018555620000f5565b0151600019838a1b60f8161c1916905538808062000b69565b9293602060018192878601518155019501930162000b51565b62000bd6908960005260206000208680860160051c8201926020871062000af2570160051c019062000ce7565b38620000c9565b92607f1692620000b1565b601f909101601f19168101906001600160401b0382119082101762000b1d57604052565b6001600160401b03811162000b1d57601f01601f191660200190565b919080601f84011215620008ba5782519062000c448262000c0c565b9162000c54604051938462000be8565b808352602091828287010111620008ba5760005b81811062000c7e57508260009394955001015290565b858101830151848201840152820162000c68565b51906001600160a01b0382168203620008ba57565b1562000caf57565b60405162461bcd60e51b815260206004820152601060248201526f092dce6eaccccd2c6d2cadce8408aa8960831b6044820152606490fd5b81811062000cf3575050565b6000815560010162000ce7565b91908201809211620005b457565b6002546aa56fa5b99019a5c800000091828201809211620005b4576002919091556001600160a01b0316906000906000805160206200308c833981519152906020908462000d74576aa56fa5b99019a5c7ffffff19600254016002555b604051908152a3565b8484528382526040842081815401905562000d6b565b6000805160206200308c833981519152602060009262000dad8560025462000d00565b6002556001600160a01b0316938415841462000d74578060025403600255604051908152a3565b811562000ddf570490565b634e487b7160e01b600052601260045260246000fd5b91908203918211620005b457565b8054906801000000000000000082101562000b1d576001820180825582101562000e335760005260206000200155565b634e487b7160e01b600052603260045260246000fd5b801562000ed957808060011462000ed25760021462000ecc576001908161013382101682600b8310161762000ec457906003815b80821162000e9757505081600019048111620005b4570290565b909280600019048111620005b45781841662000eba575b800292811c9062000e7d565b8092029162000eae565b600391500a90565b50600890565b5050600190565b50600090565b60008080808460018060a01b03600a541661c350f13d1562000f72573d62000f078162000c0c565b9062000f17604051928362000be8565b8152600060203d92013e5b1562000f3b5762000f3690600b5462000d00565b600b55565b60405162461bcd60e51b815260206004820152600f60248201526e151c985b9cd9995c8819985a5b1959608a1b6044820152606490fd5b62000f2256fe608080604052600436101561001357600080fd5b60003560e01c90816305202a6f146117005750806306fdde0314611642578063095ea7b31461161c5780631694505e146115ef57806318160ddd146115d157806323b872dd146114df57806329b4f751146114a5578063313ce5671461148957806333d06de91461146b5780633610724e14610ed05780633ad10ef614610ea757806349bd5a5e14610e7e5780634af18f4f14610e60578063571fe01614610e42578063590e1ae3146108cf5780636ac4daf6146108855780636d0ef93c1461086757806370a082311461082d5780638078e6b01461080a578063858381af146107e457806387b3686b1461079a57806395d89b4114610695578063973566c21461066457806399c4dd5b1461063d5780639c08c0a2146106275780639e835b02146106095780639ff8a55c146105dd578063a9059cbb146105ac578063a929eef11461058e578063ad91be261461054f578063ae5213ce1461051b578063b1dfc95f146104fc578063b317435c146104de578063b6a1b6a5146104b5578063bdf862391461045d578063bf58390314610433578063c7a0206114610415578063c8ad5a39146103f7578063ca703075146103d9578063dbd8c057146103bb578063dcbaf9b81461039e578063dd62ed3e1461034d578063de11c94a14610326578063eced552614610303578063ee7a8317146102e5578063f36bdef6146102b9578063f446c1d01461029b578063f66bf229146102795763f66f8aa91461023a57600080fd5b34610274576020366003190112610274576001600160a01b0361025b611769565b16600052601b6020526020604060002054604051908152f35b600080fd5b34610274576000366003190112610274576020604051662386f26fc100008152f35b34610274576000366003190112610274576020604051620393878152f35b346102745760203660031901126102745760043560005260176020526020604060002054604051908152f35b34610274576000366003190112610274576020600754604051908152f35b34610274576000366003190112610274576020604051670de0b6b3a76400008152f35b3461027457600036600319011261027457602080546040516001600160a01b039091168152f35b3461027457604036600319011261027457610366611769565b61036e61177f565b9060018060a01b038091166000526001602052604060002091166000526020526020604060002054604051908152f35b346102745760003660031901126102745760206040516127108152f35b34610274576000366003190112610274576020600b54604051908152f35b34610274576000366003190112610274576020601354604051908152f35b34610274576000366003190112610274576020601f54604051908152f35b34610274576000366003190112610274576020600d54604051908152f35b3461027457600036600319011261027457602061045560065460095490611980565b604051908152f35b3461027457604036600319011261027457610476611769565b6001600160a01b03166000908152601a6020526040902080546024359190821015610274576020916104a791611795565b90546040519160031b1c8152f35b3461027457600036600319011261027457600a546040516001600160a01b039091168152602090f35b34610274576000366003190112610274576020600f54604051908152f35b34610274576000366003190112610274576020604051630bebc2008152f35b34610274576020366003190112610274576004356000526014602052602060018060a01b0360406000205416604051908152f35b34610274576020366003190112610274576001600160a01b03610570611769565b16600052601d602052602060ff604060002054166040519015158152f35b34610274576000366003190112610274576020600c54604051908152f35b34610274576040366003190112610274576105d26105c8611769565b60243590336117fb565b602060405160018152f35b346102745760203660031901126102745760043560005260156020526020604060002054604051908152f35b34610274576000366003190112610274576020600e54604051908152f35b60003660031901126102745761063b611be6565b005b34610274576000366003190112610274576040610658611d23565b82519182526020820152f35b34610274576020366003190112610274576004356000526016602052602060ff604060002054166040519015158152f35b3461027457600036600319011261027457604051600090600454600181811c90808316928315610790575b602093848410811461077a5783865290811561075a57506001146106ff575b6106fb846106ef818803826117c3565b60405191829182611720565b0390f35b600460009081529294507f8a35acfbc15ff81a39ae7d344fd709f28e8600b4aa8c65c6b64bfe7fe36bd19b5b82841061074757505050816106fb936106ef92820101936106df565b805485850187015292850192810161072b565b60ff1916858501525050151560051b82010191506106ef816106fb6106df565b634e487b7160e01b600052602260045260246000fd5b91607f16916106c0565b34610274576040366003190112610274576107b3611769565b6001600160a01b0316600090815260196020526040902080546024359190821015610274576020916104a791611795565b3461027457600036600319011261027457602060ff60115460081c166040519015158152f35b34610274576000366003190112610274576020604051673782dace9d9000008152f35b34610274576020366003190112610274576001600160a01b0361084e611769565b1660005260006020526020604060002054604051908152f35b34610274576000366003190112610274576020600954604051908152f35b346102745760403660031901126102745761089e611769565b6001600160a01b0316600090815260186020526040902080546024359190821015610274576020916104a791611795565b34610274576000366003190112610274576108e86119c7565b33600052601860205260406000205415610e145733600052601d60205261091760ff60406000205416156118d0565b61092660ff6011541615611907565b61092e611d23565b903360005260006020526040600020546109488383611973565b11610de15733600052601b60205260406000205490814710610db25761097c610973600e5484611940565b600f5490611953565b906109878482611973565b33600052600060205260406000205490808211600014610da9576109aa91611980565b6109b383611b30565b3315610d905760115460ff1615610d09576109db6109e2916109d58433611f29565b86611973565b30336117fb565b3360005260186020526040600020916040518084602082965493848152019060005260206000209260005b818110610cf0575050610a22925003846117c3565b60005b8351811015610bb357610a3881856119f9565b51601354806000526017602052610a5e6040600020548360005260406000205490611980565b905b82811015610a7a575b505050610a75906119ea565b610a25565b60008181526014602052604090205489906001600160a01b031680610aa0575050610a69565b828503610aae575050610a69565b908391338114908115610b96575b5015610aea5750505b8015610ad45760001901610a60565b634e487b7160e01b600052601160045260246000fd5b610b9191610b33612710610b1e610b389433600052601a602052610b128b6040600020611795565b90549060031b1c611940565b04856000526015602052604060002054611940565b611953565b82600052601460205260018060a01b0360406000205416600052601c6020526040600020610b71670de0b6b3a764000083048254611973565b90556000838152601460205260409020546001600160a01b0316306117fb565b610ac5565b92505050600052601d602052818960ff604060002054168c610abc565b50848433600052601d6020526040600020600160ff19825416179055601c60205260006040812055610c0c670de0b6b3a7640000936326be3680610bfb868604600654611980565b806006551115610cdc575b82611980565b928360008115610cd3575b600080809381933390f115610cc757610c35610c5192600d54611980565b600d55610c4485600c54611973565b600c558404600954611980565b60095560025491610c60611a99565b9160405191825260208201523390847f128ae0c4639a89c99f68205faaca05d6676db3d20d9019de94292e9088c9a58b60403093a46040519283527ecdd112a5bab661c199cefe1b6b407daede4238a9f24d764373bed654d7c22b60203094a46001600555005b6040513d6000823e3d90fd5b506108fc610c17565b61010061ff00196011541617601155610c06565b8454835260019485019488945060209093019201610a0d565b3033148015610d88575b15610d2e576109db6109e291610d298433611f29565b6109d5565b30158015610d80575b15610d4d576109db6109e291610d298433611f29565b60405162461bcd60e51b815260206004820152600b60248201526a2737903a3930b739b332b960a91b6044820152606490fd5b506001610d37565b506000610d13565b604051634b637e8f60e11b815260006004820152602490fd5b505060006109aa565b60405162461bcd60e51b8152602060048201526007602482015266098deee408aa8960cb1b6044820152606490fd5b60405162461bcd60e51b815260206004820152600b60248201526a4c6f772062616c616e636560a81b6044820152606490fd5b60405162461bcd60e51b81526020600482015260066024820152654e6f2062757960d01b6044820152606490fd5b34610274576000366003190112610274576020600654604051908152f35b34610274576020366003190112610274576020610455600435611b14565b34610274576000366003190112610274576012546040516001600160a01b039091168152602090f35b3461027457600036600319011261027457601e546040516001600160a01b039091168152602090f35b60208060031936011261027457600435610ee86119c7565b33600052601d8252610f0260ff60406000205416156118d0565b60118054610f1360ff821615611907565b821561143b5760081c60ff16611408576013916103e8835410156113c357610f3a81611b14565b93610f4a610973600e5487611940565b610f548187611973565b80341061138b57610f6482611b30565b80341160001461138557610f789034611980565b505b84549460019586810180911161137057808255600052601483526040600020336bffffffffffffffffffffffff60a01b825416179055610fba8234611980565b9181546000526015928385526040600020553360005260188452610fe4604060002083549061198d565b33600052601984526110046040600020610ffe8334611980565b9061198d565b33600052601b91828552604060002061101e8a8254611973565b905561102c89600d54611973565b600d555490600019820182811161135b578894939291611061916000526017875261105c34604060002054611973565b611980565b90600052601785526110796040600020918254611973565b905533600052601884526040600020916040519283868254918281520191600052866000209060005b888282106113485750505050836110ba9103846117c3565b33600052601a9283865260406000208054906000815581611328575b5050909192936000905b611297575b505050505033600052601c81526040600020611102838254611973565b905561111082600954611973565b600955670de0b6b3a7640000820294670de0b6b3a763ffff198387040161128257331561126957835460ff16156111eb5761114e60ff959633611ecd565b7ecdd112a5bab661c199cefe1b6b407daede4238a9f24d764373bed654d7c22b6002549261117a611a99565b9260405190815284828201523390867f23b8a9f7d1252cf262e22214b242cc92ed7ed7df9228726be4d037a26e08389460403093a46040519485523094a460095460065411156111dd575b54166111d057600555005b6111d8611be6565b600555005b8282198254161781556111c5565b30158015611262575b1561120b5761120660ff959633611ecd565b61114e565b303314801561125a575b156112275761120660ff959633611ecd565b60405162461bcd60e51b815260048101839052600b60248201526a2737903a3930b739b332b960a91b6044820152606490fd5b506000611215565b50846111f4565b60405163ec442f0560e01b815260006004820152602490fd5b83634e487b7160e01b60005260045260246000fd5b8151811015611323576112aa81836119f9565b516000528286526040600020546127109081810291818304149015171561130e578995949392916112ff6112ee6113049333600052878b5260406000205490611953565b33600052878a52604060002061198d565b6119ea565b90919293946110e0565b88634e487b7160e01b60005260045260246000fd5b6110e5565b60005286600020908101905b818110156110d657600081558a9601611334565b835485528c9894019392830192016110a2565b87634e487b7160e01b60005260045260246000fd5b85634e487b7160e01b60005260045260246000fd5b50610f7a565b60405162461bcd60e51b815260048101849052601060248201526f092dce6eaccccd2c6d2cadce8408aa8960831b6044820152606490fd5b60405162461bcd60e51b815260048101859052601760248201527f42757920636f756e74206c696d697420726561636865640000000000000000006044820152606490fd5b60405162461bcd60e51b815260048101849052600b60248201526a526566756e64206f6e6c7960a81b6044820152606490fd5b60405162461bcd60e51b81526004810185905260086024820152670c08185b5bdd5b9d60c21b6044820152606490fd5b34610274576000366003190112610274576020601054604051908152f35b3461027457600036600319011261027457602060405160128152f35b34610274576020366003190112610274576001600160a01b036114c6611769565b16600052601c6020526020604060002054604051908152f35b34610274576060366003190112610274576114f8611769565b61150061177f565b6044359060018060a01b0383169283600052600160205260406000203360005260205260406000205493600019850361153f575b506105d293506117fb565b8385106115ab578015611592573315611579576105d294849160005260016020526040600020336000526020520360406000205584611534565b604051634a1406b160e11b815260006004820152602490fd5b60405163e602df0560e01b815260006004820152602490fd5b604051637dc7a0d960e11b81523360048201526024810186905260448101859052606490fd5b34610274576000366003190112610274576020600254604051908152f35b346102745760003660031901126102745760115460405160109190911c6001600160a01b03168152602090f35b34610274576040366003190112610274576105d2611638611769565b602435903361186f565b3461027457600036600319011261027457604051600090600354600181811c908083169283156116f6575b602093848410811461077a5783865290811561075a575060011461169b576106fb846106ef818803826117c3565b600360009081529294507fc2575a0e9e593c00f959f8c92f12db2869c3395a3b0502d05e2516446f71f85b5b8284106116e357505050816106fb936106ef92820101936106df565b80548585018701529285019281016116c7565b91607f169161166d565b346102745760003660031901126102745760209060ff6011541615158152f35b6020808252825181830181905290939260005b82811061175557505060409293506000838284010152601f8019910116010190565b818101860151848201604001528501611733565b600435906001600160a01b038216820361027457565b602435906001600160a01b038216820361027457565b80548210156117ad5760005260206000200190600090565b634e487b7160e01b600052603260045260246000fd5b90601f8019910116810190811067ffffffffffffffff8211176117e557604052565b634e487b7160e01b600052604160045260246000fd5b91906001600160a01b03808416908115610d905782169081156112695760115460ff161561183057505061182e92611fe5565b565b30148015611867575b15611848575061182e92611fe5565b3014801561185f575b15610d4d5761182e92611fe5565b506000611851565b506000611839565b6001600160a01b0390811691821561159257169182156115795760207f8c5be1e5ebec7d5bd14f71427d1e84f3dd0314c0f7b2291e5b200ac8c7c3b925918360005260018252604060002085600052825280604060002055604051908152a3565b156118d757565b60405162461bcd60e51b81526020600482015260086024820152671499599d5b99195960c21b6044820152606490fd5b1561190e57565b60405162461bcd60e51b815260206004820152600a602482015269437572766520646f6e6560b01b6044820152606490fd5b81810292918115918404141715610ad457565b811561195d570490565b634e487b7160e01b600052601260045260246000fd5b91908201809211610ad457565b91908203918211610ad457565b8054680100000000000000008110156117e5576119af91600182018155611795565b819291549060031b91821b91600019901b1916179055565b6002600554146119d8576002600555565b604051633ee5aeb560e01b8152600490fd5b6000198114610ad45760010190565b80518210156117ad5760209160051b010190565b8015611a93578080600114611a8c57600214611a86576001908161013382101682600b83101617611a7e57906003815b808211611a5557505081600019048111610ad4570290565b909280600019048111610ad457818416611a75575b800292811c90611a3d565b80920291611a6a565b600391500a90565b50600890565b5050600190565b50600090565b6009546001810190818111610ad457611abd611ab7611ac393611a0d565b91611a0d565b90611980565b62039387908082029182048103610ad457640574fbde600290808204620186a01490151715610ad4576729a2241af62c00009004619c4090818102918183041490151715610ad45762012ebc900490565b611ac390611abd611ab7611b2b6009549384611973565b611a0d565b6000808080808560018060a01b03600a541661c350f1903d15611be0573d9067ffffffffffffffff8211611bcc5760405191611b76601f8201601f1916602001846117c3565b825260203d92013e5b15611b9557611b9090600b54611973565b600b55565b60405162461bcd60e51b815260206004820152600f60248201526e151c985b9cd9995c8819985a5b1959608a1b6044820152606490fd5b634e487b7160e01b81526041600452602490fd5b50611b7f565b60ff6011541615611ced57611bfc601054611b30565b611c0a601054600d54611980565b80600d5560085460018060a01b03611c2a828260115460101c163061186f565b60115460101c1660405163f305d71960e01b815230600482015282602482015260608160c481876000968760448401528760648401528760848401524260a48401525af18015611ce257611cb4575b50507faf60794da385ef41a5f66c38529ba4f0581b8bca348871688b118d212b265881916060916040519182526020820152426040820152a1565b606090813d8111611cdb575b611cca81836117c3565b81010312611cd85780611c79565b80fd5b503d611cc0565b6040513d84823e3d90fd5b60405162461bcd60e51b815260206004820152600e60248201526d4375727665206e6f7420646f6e6560901b6044820152606490fd5b600090338252601c602052604082205460095492601b60205260408120549362012ebc90818602918683041486151715611eb95762038c34860295600392808804841490151715611ea55769313bd9aa5234b050000002670de0b6b3a764000096808204881490151715611ea557660354a6ba7a1800611da7910461105c83611a0d565b916001808401808511611e915782900493929190835b848610611e3a57505050611dd19250611980565b91808311611e32575b82611de491611980565b84830292808404861490151715611e1e57848102948186041490151715611e0a57509190565b634e487b7160e01b81526011600452602490fd5b634e487b7160e01b82526011600452602482fd5b915081611dda565b909192935084611e53611e4d8280611940565b83611953565b906001600160ff1b0381168103611e7d578491611e7291851b90611973565b049493929190611dbd565b634e487b7160e01b88526011600452602488fd5b634e487b7160e01b86526011600452602486fd5b634e487b7160e01b84526011600452602484fd5b634e487b7160e01b83526011600452602483fd5b6000805160206120be8339815191526020600092611eed85600254611973565b6002556001600160a01b03169384158414611f145780600254036002555b604051908152a3565b84845283825260408420818154019055611f0b565b9091906001600160a01b0381169081611f7357506000805160206120be833981519152602084611f5e60009596600254611973565b6002555b8060025403600255604051908152a3565b92600082815280602052604081205494828610611fb45750818160406000805160206120be8339815191529460009798876020965283865203912055611f62565b60405163391434e360e21b81526001600160a01b039190911660048201526024810186905260448101839052606490fd5b6001600160a01b038082169290918361204c57506000805160206120be8339815191529160209161201886600254611973565b6002555b169384612034578060025403600255604051908152a3565b84600052600082526040600020818154019055611f0b565b6000908482528160205260408220549086821061208b57509181604087602095886000805160206120be8339815191529896528387520391205561201c565b60405163391434e360e21b81526001600160a01b03919091166004820152602481019190915260448101869052606490fdfeddf252ad1be2c89b69c2b068fc378daa952ba7f163c4a11628f55a4df523b3efa26469706673582212200ea1bc7efa32e67e13b4c699120624115e5f5c946581fc64de8afd7d9d88301464736f6c63430008140033ddf252ad1be2c89b69c2b068fc378daa952ba7f163c4a11628f55a4df523b3ef","linkReferences":{}},"methodIdentifiers":{"A()":"f446c1d0","MAXIMUM_TOTAL_ETHER()":"ee7a8317","MAX_SALE_SUPPLY()":"571fe016","SCALE()":"eced5526","TOTAL_ETHER()":"8078e6b0","allowance(address,address)":"dd62ed3e","approve(address,uint256)":"095ea7b3","balanceOf(address)":"70a08231","bondingCurveCompleted()":"05202a6f","buyCost(uint256)":"9ff8a55c","buyCount()":"ca703075","buyIndex(uint256)":"ae5213ce","buyPointScale()":"dcbaf9b8","buyTokens(uint256)":"3610724e","calculateCost(uint256)":"4af18f4f","calculateTokensRefund()":"99c4dd5b","cumulativeEthCollected(uint256)":"f36bdef6","decimals()":"313ce567","devAddress()":"3ad10ef6","devLockDuration()":"c8ad5a39","factoryContract()":"de11c94a","isRefund(uint256)":"973566c2","minBuyAmount()":"f66bf229","name()":"06fdde03","refund()":"590e1ae3","refundOnly()":"858381af","remainingTokens()":"bf583903","revenueCollector()":"b6a1b6a5","scaledLiquidityThreshold()":"b1dfc95f","scaledSupply()":"6d0ef93c","sendDexRevenue()":"33d06de9","sendToDex()":"9c08c0a2","symbol()":"95d89b41","totalEthPaidUser(address)":"f66f8aa9","totalEtherCollected()":"c7a02061","totalRefundedTokens()":"a929eef1","totalRevenueCollected()":"dbd8c057","totalSupply()":"18160ddd","tradeTax()":"9e835b02","tradeTaxDivisor()":"b317435c","transfer(address,uint256)":"a9059cbb","transferFrom(address,address,uint256)":"23b872dd","uniswapV2Pair()":"49bd5a5e","uniswapV2Router()":"1694505e","userBalanceScaled(address)":"29b4f751","userBuyPointPercentages(address,uint256)":"bdf86239","userBuyPointsEthPaid(address,uint256)":"87b3686b","userBuysPoints(address,uint256)":"6ac4daf6","userRefunded(address)":"ad91be26"},"id":56}