{"abi":[{"type":"constructor","inputs":[{"name":"_stakingToken","type":"address","internalType":"address"}],"stateMutability":"nonpayable"},{"type":"function","name":"BONUS_SIX_MONTHS","inputs":[],"outputs":[{"name":"","type":"uint256","internalType":"uint256"}],"stateMutability":"view"},{"type":"function","name":"BONUS_THREE_MONTHS","inputs":[],"outputs":[{"name":"","type":"uint256","internalType":"uint256"}],"stateMutability":"view"},{"type":"function","name":"ONE_MONTH","inputs":[],"outputs":[{"name":"","type":"uint256","internalType":"uint256"}],"stateMutability":"view"},{"type":"function","name":"SIX_MONTHS","inputs":[],"outputs":[{"name":"","type":"uint256","internalType":"uint256"}],"stateMutability":"view"},{"type":"function","name":"THREE_MONTHS","inputs":[],"outputs":[{"name":"","type":"uint256","internalType":"uint256"}],"stateMutability":"view"},{"type":"function","name":"TREASURY_AMOUNT","inputs":[],"outputs":[{"name":"","type":"uint256","internalType":"uint256"}],"stateMutability":"view"},{"type":"function","name":"approve","inputs":[{"name":"to","type":"address","internalType":"address"},{"name":"tokenId","type":"uint256","internalType":"uint256"}],"outputs":[],"stateMutability":"nonpayable"},{"type":"function","name":"balanceOf","inputs":[{"name":"owner","type":"address","internalType":"address"}],"outputs":[{"name":"","type":"uint256","internalType":"uint256"}],"stateMutability":"view"},{"type":"function","name":"claimReward","inputs":[{"name":"_tokenId","type":"uint256","internalType":"uint256"}],"outputs":[{"name":"","type":"uint256","internalType":"uint256"}],"stateMutability":"nonpayable"},{"type":"function","name":"collectRevenue","inputs":[],"outputs":[],"stateMutability":"payable"},{"type":"function","name":"getApproved","inputs":[{"name":"tokenId","type":"uint256","internalType":"uint256"}],"outputs":[{"name":"","type":"address","internalType":"address"}],"stateMutability":"view"},{"type":"function","name":"isApprovedForAll","inputs":[{"name":"owner","type":"address","internalType":"address"},{"name":"operator","type":"address","internalType":"address"}],"outputs":[{"name":"","type":"bool","internalType":"bool"}],"stateMutability":"view"},{"type":"function","name":"name","inputs":[],"outputs":[{"name":"","type":"string","internalType":"string"}],"stateMutability":"view"},{"type":"function","name":"nextTokenId","inputs":[],"outputs":[{"name":"","type":"uint256","internalType":"uint256"}],"stateMutability":"view"},{"type":"function","name":"owner","inputs":[],"outputs":[{"name":"","type":"address","internalType":"address"}],"stateMutability":"view"},{"type":"function","name":"ownerOf","inputs":[{"name":"tokenId","type":"uint256","internalType":"uint256"}],"outputs":[{"name":"","type":"address","internalType":"address"}],"stateMutability":"view"},{"type":"function","name":"renounceOwnership","inputs":[],"outputs":[],"stateMutability":"nonpayable"},{"type":"function","name":"rewardIndex","inputs":[],"outputs":[{"name":"","type":"uint256","internalType":"uint256"}],"stateMutability":"view"},{"type":"function","name":"safeTransferFrom","inputs":[{"name":"from","type":"address","internalType":"address"},{"name":"to","type":"address","internalType":"address"},{"name":"tokenId","type":"uint256","internalType":"uint256"}],"outputs":[],"stateMutability":"nonpayable"},{"type":"function","name":"safeTransferFrom","inputs":[{"name":"from","type":"address","internalType":"address"},{"name":"to","type":"address","internalType":"address"},{"name":"tokenId","type":"uint256","internalType":"uint256"},{"name":"data","type":"bytes","internalType":"bytes"}],"outputs":[],"stateMutability":"nonpayable"},{"type":"function","name":"setApprovalForAll","inputs":[{"name":"operator","type":"address","internalType":"address"},{"name":"approved","type":"bool","internalType":"bool"}],"outputs":[],"stateMutability":"nonpayable"},{"type":"function","name":"stake","inputs":[{"name":"amount","type":"uint256","internalType":"uint256"},{"name":"lockPeriod","type":"uint256","internalType":"uint256"}],"outputs":[{"name":"","type":"uint256","internalType":"uint256"}],"stateMutability":"nonpayable"},{"type":"function","name":"stakeInfo","inputs":[{"name":"","type":"uint256","internalType":"uint256"}],"outputs":[{"name":"amount","type":"uint256","internalType":"uint256"},{"name":"lockEnd","type":"uint256","internalType":"uint256"},{"name":"revenueShareBonus","type":"uint256","internalType":"uint256"},{"name":"sharesAmount","type":"uint256","internalType":"uint256"},{"name":"rewardIndex","type":"uint256","internalType":"uint256"},{"name":"earned","type":"uint256","internalType":"uint256"}],"stateMutability":"view"},{"type":"function","name":"stakingToken","inputs":[],"outputs":[{"name":"","type":"address","internalType":"contract IERC20"}],"stateMutability":"view"},{"type":"function","name":"supportsInterface","inputs":[{"name":"interfaceId","type":"bytes4","internalType":"bytes4"}],"outputs":[{"name":"","type":"bool","internalType":"bool"}],"stateMutability":"view"},{"type":"function","name":"symbol","inputs":[],"outputs":[{"name":"","type":"string","internalType":"string"}],"stateMutability":"view"},{"type":"function","name":"tokenURI","inputs":[{"name":"tokenId","type":"uint256","internalType":"uint256"}],"outputs":[{"name":"","type":"string","internalType":"string"}],"stateMutability":"view"},{"type":"function","name":"totalStaked","inputs":[],"outputs":[{"name":"","type":"uint256","internalType":"uint256"}],"stateMutability":"view"},{"type":"function","name":"transferFrom","inputs":[{"name":"from","type":"address","internalType":"address"},{"name":"to","type":"address","internalType":"address"},{"name":"tokenId","type":"uint256","internalType":"uint256"}],"outputs":[],"stateMutability":"nonpayable"},{"type":"function","name":"transferOwnership","inputs":[{"name":"newOwner","type":"address","internalType":"address"}],"outputs":[],"stateMutability":"nonpayable"},{"type":"function","name":"unstake","inputs":[{"name":"tokenId","type":"uint256","internalType":"uint256"}],"outputs":[],"stateMutability":"nonpayable"},{"type":"event","name":"Approval","inputs":[{"name":"owner","type":"address","indexed":true,"internalType":"address"},{"name":"approved","type":"address","indexed":true,"internalType":"address"},{"name":"tokenId","type":"uint256","indexed":true,"internalType":"uint256"}],"anonymous":false},{"type":"event","name":"ApprovalForAll","inputs":[{"name":"owner","type":"address","indexed":true,"internalType":"address"},{"name":"operator","type":"address","indexed":true,"internalType":"address"},{"name":"approved","type":"bool","indexed":false,"internalType":"bool"}],"anonymous":false},{"type":"event","name":"OwnershipTransferred","inputs":[{"name":"previousOwner","type":"address","indexed":true,"internalType":"address"},{"name":"newOwner","type":"address","indexed":true,"internalType":"address"}],"anonymous":false},{"type":"event","name":"Transfer","inputs":[{"name":"from","type":"address","indexed":true,"internalType":"address"},{"name":"to","type":"address","indexed":true,"internalType":"address"},{"name":"tokenId","type":"uint256","indexed":true,"internalType":"uint256"}],"anonymous":false},{"type":"error","name":"ERC721IncorrectOwner","inputs":[{"name":"sender","type":"address","internalType":"address"},{"name":"tokenId","type":"uint256","internalType":"uint256"},{"name":"owner","type":"address","internalType":"address"}]},{"type":"error","name":"ERC721InsufficientApproval","inputs":[{"name":"operator","type":"address","internalType":"address"},{"name":"tokenId","type":"uint256","internalType":"uint256"}]},{"type":"error","name":"ERC721InvalidApprover","inputs":[{"name":"approver","type":"address","internalType":"address"}]},{"type":"error","name":"ERC721InvalidOperator","inputs":[{"name":"operator","type":"address","internalType":"address"}]},{"type":"error","name":"ERC721InvalidOwner","inputs":[{"name":"owner","type":"address","internalType":"address"}]},{"type":"error","name":"ERC721InvalidReceiver","inputs":[{"name":"receiver","type":"address","internalType":"address"}]},{"type":"error","name":"ERC721InvalidSender","inputs":[{"name":"sender","type":"address","internalType":"address"}]},{"type":"error","name":"ERC721NonexistentToken","inputs":[{"name":"tokenId","type":"uint256","internalType":"uint256"}]},{"type":"error","name":"OwnableInvalidOwner","inputs":[{"name":"owner","type":"address","internalType":"address"}]},{"type":"error","name":"OwnableUnauthorizedAccount","inputs":[{"name":"account","type":"address","internalType":"address"}]}],"bytecode":{"object":"0x60a034620003de57601f906001600160401b0390601f199062001b22388190038581018416830185811184821017620003c857839282916040528339602092839181010312620003de57516001600160a01b03948582169491859003620003de576200006a620003e3565b92601184527014dd5c195c93595b5954dd185ad9539195607a1b8185015262000092620003e3565b90600582526414d353919560da1b81830152845195848711620003c8576000968754966001978881811c91168015620003bd575b85821014620003a95790818784931162000356575b508490878311600114620002f5578a92620002e9575b5050600019600383901b1c191690871b1787555b8251948511620002d55785548681811c91168015620002ca575b83821014620002b6579081858796959493116200025d575b5081938511600114620001f85750508592620001ec575b5050600019600383901b1c191690821b1790555b3315620001d457600654903360018060a01b03198316176006557f8be0079c531659141344cd1fd0a4f28419497f9722a3daafe3b4186f6b6457e0604051943393169180a361271060095560805261171e908162000404823960805181818161071401528181610a050152610d0f0152f35b60249060405190631e4fbdf760e01b82526004820152fd5b0151905038806200014e565b869593929193168588528388209388905b82821062000243575050841162000229575b505050811b01905562000162565b015160001960f88460031b161c191690553880806200021b565b848401518655889790950194938401939081019062000209565b9091929394508688528288208580880160051c820192858910620002ac575b9188978a9297969594930160051c01915b8281106200029d57505062000137565b8a81558897508991016200028d565b925081926200027c565b634e487b7160e01b88526022600452602488fd5b90607f16906200011f565b634e487b7160e01b87526041600452602487fd5b015190503880620000f1565b90848a9416918b8052868c20928c5b888282106200033f575050841162000325575b505050811b01875562000105565b015160001960f88460031b161c1916905538808062000317565b8385015186558d9790950194938401930162000304565b909150898052848a208780850160051c8201928786106200039f575b918b91869594930160051c01915b82811062000390575050620000db565b8c81558594508b910162000380565b9250819262000372565b634e487b7160e01b8a52602260045260248afd5b90607f1690620000c6565b634e487b7160e01b600052604160045260246000fd5b600080fd5b60408051919082016001600160401b03811183821017620003c85760405256fe6080604081815260048036101561001557600080fd5b600092833560e01c90816301ffc9a7146110235750806306fdde0314610f58578063081812fc14610f1d578063095ea7b314610e4157806320988cef14610e2357806323b872dd14610e0b57806325537fbe14610dee5780632e17de7814610b9d57806342842e0e14610b745780634e53357214610b175780636352211e14610ae657806370a0823114610a91578063715018a614610a3457806372f702f3146109f057806375794a3c146109d15780637b0472f0146106975780637fbd1b5a14610671578063817b1cd2146106525780638da5cb5b1461062957806395d89b4114610513578063a22cb46514610472578063ae169a5014610448578063b88d4fde146103bf578063ba579c74146103a1578063c87b56dd1461034e578063d8a987cf14610331578063e985e9c5146102e3578063e9ee2fa9146102c4578063ecbefab7146102a2578063ed14d17e1461020a5763f2fde38b1461017857600080fd5b34610206576020366003190112610206576101916110cf565b9061019a6111c1565b6001600160a01b039182169283156101f0575050600654826bffffffffffffffffffffffff60a01b821617600655167f8be0079c531659141344cd1fd0a4f28419497f9722a3daafe3b4186f6b6457e08380a380f35b51631e4fbdf760e01b8152908101849052602490fd5b8280fd5b50908260031936011261020657600b541561026c5750670de0b6b3a764000090813402913483041434151715610259575061024b61025391600c5490611519565b600a5461157a565b600a5580f35b634e487b7160e01b835260119052602482fd5b906020606492519162461bcd60e51b8352820152601060248201526f4e6f207374616b656420746f6b656e7360801b6044820152fd5b5050346102c057816003193601126102c057602090516276a7008152f35b5080fd5b5050346102c057816003193601126102c057602090600a549051908152f35b5050346102c057806003193601126102c05760ff816020936103036110cf565b61030b6110ea565b6001600160a01b0391821683526005875283832091168252855220549151911615158152f35b5050346102c057816003193601126102c057602090516105dc8152f35b509190346102c05760203660031901126102c05761036f61039d93356114de565b5081815161037c81611167565b5280519161038983611167565b82525191829160208352602083019061108f565b0390f35b5050346102c057816003193601126102c0576020905162ed4e008152f35b509034610206576080366003190112610206576103da6110cf565b6103e26110ea565b846064359467ffffffffffffffff86116102c057366023870112156102c0578501359461041a610411876111a5565b95519586611183565b85855236602487830101116102c057856104459660246020930183880137850101526044359161138f565b80f35b50913461046f57602036600319011261046f5750610468602092356115e0565b9051908152f35b80fd5b50903461020657806003193601126102065761048c6110cf565b906024359182151580930361050f576001600160a01b03169283156104fa5750338452600560205280842083855260205280842060ff1981541660ff8416179055519081527f17307eab39ab6107e8899845ad3d59bd9653f200f220920489ca2b5937696c3160203392a380f35b836024925191630b61174360e31b8352820152fd5b8480fd5b50913461046f578060031936011261046f578151918160019283549384811c9181861695861561061f575b602096878510811461060c578899509688969785829a5291826000146105e557505060011461058a575b50505061039d929161057b910385611183565b5192828493845283019061108f565b91908693508083527fb10e2d527612073b26eecdfd717e6a320cf44b4afac2b0732d9fcbe2b7fa0cf65b8284106105cd575050508201018161057b61039d610568565b8054848a0186015288955087949093019281016105b4565b60ff19168782015293151560051b8601909301935084925061057b915061039d9050610568565b634e487b7160e01b835260228a52602483fd5b92607f169261053e565b5050346102c057816003193601126102c05760065490516001600160a01b039091168152602090f35b5050346102c057816003193601126102c057602090600b549051908152f35b5050346102c057816003193601126102c057602090516aa56fa5b99019a5c80000008152f35b503461020657816003193601126102065780359160249283359481156109805762278d0086148015610974575b8015610968575b156109305760016276a700870361091b57506101f4935b83516323b872dd60e01b815233828201523087820152604481018490526020966001600160a01b0396918881606481887f00000000000000000000000000000000000000000000000000000000000000008d165af18015610911576108e4575b506107596107508387611551565b60095490611519565b9061076682600c5461157a565b600c5561077586600b5461157a565b600b556007549760001990818a146108d25760018a0160075533156108bc57899081885260028c528988205416801515928361088a575b503380895260038d528a89208054600101905582895260028d528a892080546001600160a01b03191682179055907fddf252ad1be2c89b69c2b068fc378daa952ba7f163c4a11628f55a4df523b3ef8980a46108765750610813600595969798994261157a565b91600a549288519761082489611135565b88528a880190815288880191825260608801928352608088019384528860a08901968088528b815260088d52209751885551600188015551600287015551600386015551908401555191015551908152f35b86516339e3563760e11b8152808501869052fd5b600083815260046020526040902080546001600160a01b031916905581895260038d528a8920908154019055386107ac565b8851633250574960e11b81528087018890528390fd5b634e487b7160e01b8752601186528287fd5b61090390893d8b1161090a575b6108fb8183611183565b810190611539565b5038610742565b503d6108f1565b87513d87823e3d90fd5b9362ed4e0087036106e2576105dc94506106e2565b825162461bcd60e51b815260208186015260138187015272125b9d985b1a59081b1bd8dac81c195c9a5bd9606a1b6044820152606490fd5b5062ed4e0086146106cb565b506276a70086146106c4565b825162461bcd60e51b81526020818601526026818701527f5374616b6520616d6f756e74206d7573742062652067726561746572207468616044820152656e207a65726f60d01b6064820152608490fd5b5050346102c057816003193601126102c0576020906007549051908152f35b5050346102c057816003193601126102c057517f00000000000000000000000000000000000000000000000000000000000000006001600160a01b03168152602090f35b833461046f578060031936011261046f57610a4d6111c1565b600680546001600160a01b0319811690915581906001600160a01b03167f8be0079c531659141344cd1fd0a4f28419497f9722a3daafe3b4186f6b6457e08280a380f35b50913461046f57602036600319011261046f576001600160a01b03610ab46110cf565b16928315610ad15750806020938392526003845220549051908152f35b91516322718ad960e21b815291820152602490fd5b50913461046f57602036600319011261046f5750610b06602092356114de565b90516001600160a01b039091168152f35b509034610206576020366003190112610206578060c09383358152600860205220805492600182015492600283015490600560038501549385015494015494815196875260208701528501526060840152608083015260a0820152f35b5050346102c05761044590610b8836611100565b91925192610b9584611167565b85845261138f565b5090346102065760209182600319360112610dea578035610bbd816114de565b6001600160a01b039190610bd49083163314611587565b8086526008855283862090845191610beb83611135565b8054835260018101548088850152600282015487850152600560038301549260608601938452878101546080870152015460a08501524210610db057610c4790610c3483611661565b610c3d836115e0565b5051600c546115d3565b600c55610c578251600b546115d3565b600b558087526002865282858820541681888215928315610d7d575b82825260028a5288822080546001600160a01b03191690557fddf252ad1be2c89b69c2b068fc378daa952ba7f163c4a11628f55a4df523b3ef8280a4610d675786526008855283862086815560018101879055600281018790556003810187905580840187905560050186905551835163a9059cbb60e01b815233938101938452602084019190915292918491849182908890829060400103927f0000000000000000000000000000000000000000000000000000000000000000165af1908115610d5e5750610d41578280f35b81610d5792903d1061090a576108fb8183611183565b5038808280f35b513d85823e3d90fd5b83602491865191637e27328960e01b8352820152fd5b600083815260046020526040902080546001600160a01b031916905580825260038a528882208054600019019055610c73565b855162461bcd60e51b815280860188905260146024820152732637b1b5903832b934b7b2103737ba1037bb32b960611b6044820152606490fd5b8380fd5b5050346102c057816003193601126102c057602090516101f48152f35b833461046f57610445610e1d36611100565b916111ed565b5050346102c057816003193601126102c0576020905162278d008152f35b509034610206578060031936011261020657610e5b6110cf565b91602435610e68816114de565b33151580610f0a575b80610ee1575b610ecb576001600160a01b039485169482918691167f8c5be1e5ebec7d5bd14f71427d1e84f3dd0314c0f7b2291e5b200ac8c7c3b9258880a48452602052822080546001600160a01b031916909117905580f35b835163a9fbf51f60e01b81523381850152602490fd5b506001600160a01b03811686526005602090815284872033885290528386205460ff1615610e77565b506001600160a01b038116331415610e71565b503461020657602036600319011261020657918260209335610f3e816114de565b50825283528190205490516001600160a01b039091168152f35b50913461046f578060031936011261046f5781519181825492600184811c91818616958615611019575b602096878510811461060c578899509688969785829a5291826000146105e5575050600114610fbe5750505061039d929161057b910385611183565b91908693508280527f290decd9548b62a8d60345a988386fc84ba6bc95484008f6362f93160ef3e5635b828410611001575050508201018161057b61039d610568565b8054848a018601528895508794909301928101610fe8565b92607f1692610f82565b92505034610206576020366003190112610206573563ffffffff60e01b811680910361020657602092506380ac58cd60e01b811490811561107e575b811561106d575b5015158152f35b6301ffc9a760e01b14905038611066565b635b5e139f60e01b8114915061105f565b919082519283825260005b8481106110bb575050826000602080949584010152601f8019910116010190565b60208183018101518483018201520161109a565b600435906001600160a01b03821682036110e557565b600080fd5b602435906001600160a01b03821682036110e557565b60609060031901126110e5576001600160a01b039060043582811681036110e5579160243590811681036110e5579060443590565b60c0810190811067ffffffffffffffff82111761115157604052565b634e487b7160e01b600052604160045260246000fd5b6020810190811067ffffffffffffffff82111761115157604052565b90601f8019910116810190811067ffffffffffffffff82111761115157604052565b67ffffffffffffffff811161115157601f01601f191660200190565b6006546001600160a01b031633036111d557565b60405163118cdaa760e01b8152336004820152602490fd5b6001600160a01b039182169290918315611376576000928284528260209560028752604096848888205416968791331515806112dd575b509060027fddf252ad1be2c89b69c2b068fc378daa952ba7f163c4a11628f55a4df523b3ef92846112aa575b858352600381528b8320805460010190558683525289812080546001600160a01b0319168517905580a416928383036112895750505050565b6064945051926364283d7b60e01b8452600484015260248301526044820152fd5b600087815260046020526040902080546001600160a01b0319169055848352600381528b83208054600019019055611250565b91939450915080611335575b156112f957859291879138611224565b878688611316576024915190637e27328960e01b82526004820152fd5b905163177e802f60e01b81523360048201526024810191909152604490fd5b50338714801561135a575b806112e957508582526004815233858984205416146112e9565b5086825260058152878220338352815260ff8883205416611340565b604051633250574960e11b815260006004820152602490fd5b61139a8383836111ed565b813b6113a7575b50505050565b604051630a85bd0160e11b8082523360048301526001600160a01b039283166024830152604482019490945260806064820152602095929091169390929083906113f590608483019061108f565b039285816000958187895af184918161149e575b50611469575050503d600014611461573d611423816111a5565b906114316040519283611183565b81528091843d92013e5b8051928361145c57604051633250574960e11b815260048101849052602490fd5b019050fd5b50606061143b565b919450915063ffffffff60e01b16036114865750388080806113a1565b60249060405190633250574960e11b82526004820152fd5b9091508681813d83116114d7575b6114b68183611183565b8101031261050f57516001600160e01b03198116810361050f579038611409565b503d6114ac565b6000818152600260205260409020546001600160a01b0316908115611501575090565b60249060405190637e27328960e01b82526004820152fd5b8115611523570490565b634e487b7160e01b600052601260045260246000fd5b908160209103126110e5575180151581036110e55790565b8181029291811591840414171561156457565b634e487b7160e01b600052601160045260246000fd5b9190820180921161156457565b1561158e57565b60405162461bcd60e51b815260206004820152601b60248201527f4e6f7420746865206f776e6572206f662074686973207374616b6500000000006044820152606490fd5b9190820391821161156457565b6115fc6115ec826114de565b6001600160a01b03163314611587565b600560009180835260086020526116166040842091611661565b01908154918215801561162a575b50505090565b82809255838291611657575b8280929181923390f11561164b578080611624565b604051903d90823e3d90fd5b6108fc9150611636565b6000526008602052604060002060405161167a81611135565b8154815260018201546020820152600282015460408201526116df60a0670de0b6b3a76400006116d860038601548060608701526116d2600488019760058954918260808b0152019788549687910152600a546115d3565b90611551565b049061157a565b9055600a54905556fea2646970667358221220d9ac1f8d709a64b2d61c4bd4e404a90239613085d9d04f06539aa5ce498bfb5864736f6c63430008140033","linkReferences":{}},"methodIdentifiers":{"BONUS_SIX_MONTHS()":"d8a987cf","BONUS_THREE_MONTHS()":"25537fbe","ONE_MONTH()":"20988cef","SIX_MONTHS()":"ba579c74","THREE_MONTHS()":"ecbefab7","TREASURY_AMOUNT()":"7fbd1b5a","approve(address,uint256)":"095ea7b3","balanceOf(address)":"70a08231","claimReward(uint256)":"ae169a50","collectRevenue()":"ed14d17e","getApproved(uint256)":"081812fc","isApprovedForAll(address,address)":"e985e9c5","name()":"06fdde03","nextTokenId()":"75794a3c","owner()":"8da5cb5b","ownerOf(uint256)":"6352211e","renounceOwnership()":"715018a6","rewardIndex()":"e9ee2fa9","safeTransferFrom(address,address,uint256)":"42842e0e","safeTransferFrom(address,address,uint256,bytes)":"b88d4fde","setApprovalForAll(address,bool)":"a22cb465","stake(uint256,uint256)":"7b0472f0","stakeInfo(uint256)":"4e533572","stakingToken()":"72f702f3","supportsInterface(bytes4)":"01ffc9a7","symbol()":"95d89b41","tokenURI(uint256)":"c87b56dd","totalStaked()":"817b1cd2","transferFrom(address,address,uint256)":"23b872dd","transferOwnership(address)":"f2fde38b","unstake(uint256)":"2e17de78"},"id":55}