{"abi":[{"type":"constructor","inputs":[{"name":"_stakingToken","type":"address","internalType":"address"}],"stateMutability":"nonpayable"},{"type":"function","name":"BONUS_SIX_MONTHS","inputs":[],"outputs":[{"name":"","type":"uint256","internalType":"uint256"}],"stateMutability":"view"},{"type":"function","name":"BONUS_THREE_MONTHS","inputs":[],"outputs":[{"name":"","type":"uint256","internalType":"uint256"}],"stateMutability":"view"},{"type":"function","name":"ONE_MONTH","inputs":[],"outputs":[{"name":"","type":"uint256","internalType":"uint256"}],"stateMutability":"view"},{"type":"function","name":"SIX_MONTHS","inputs":[],"outputs":[{"name":"","type":"uint256","internalType":"uint256"}],"stateMutability":"view"},{"type":"function","name":"THREE_MONTHS","inputs":[],"outputs":[{"name":"","type":"uint256","internalType":"uint256"}],"stateMutability":"view"},{"type":"function","name":"approve","inputs":[{"name":"to","type":"address","internalType":"address"},{"name":"tokenId","type":"uint256","internalType":"uint256"}],"outputs":[],"stateMutability":"nonpayable"},{"type":"function","name":"balanceOf","inputs":[{"name":"owner","type":"address","internalType":"address"}],"outputs":[{"name":"","type":"uint256","internalType":"uint256"}],"stateMutability":"view"},{"type":"function","name":"claimReward","inputs":[{"name":"_tokenId","type":"uint256","internalType":"uint256"}],"outputs":[{"name":"","type":"uint256","internalType":"uint256"}],"stateMutability":"nonpayable"},{"type":"function","name":"collectRevenue","inputs":[],"outputs":[],"stateMutability":"payable"},{"type":"function","name":"getApproved","inputs":[{"name":"tokenId","type":"uint256","internalType":"uint256"}],"outputs":[{"name":"","type":"address","internalType":"address"}],"stateMutability":"view"},{"type":"function","name":"isApprovedForAll","inputs":[{"name":"owner","type":"address","internalType":"address"},{"name":"operator","type":"address","internalType":"address"}],"outputs":[{"name":"","type":"bool","internalType":"bool"}],"stateMutability":"view"},{"type":"function","name":"name","inputs":[],"outputs":[{"name":"","type":"string","internalType":"string"}],"stateMutability":"view"},{"type":"function","name":"nextTokenId","inputs":[],"outputs":[{"name":"","type":"uint256","internalType":"uint256"}],"stateMutability":"view"},{"type":"function","name":"owner","inputs":[],"outputs":[{"name":"","type":"address","internalType":"address"}],"stateMutability":"view"},{"type":"function","name":"ownerOf","inputs":[{"name":"tokenId","type":"uint256","internalType":"uint256"}],"outputs":[{"name":"","type":"address","internalType":"address"}],"stateMutability":"view"},{"type":"function","name":"renounceOwnership","inputs":[],"outputs":[],"stateMutability":"nonpayable"},{"type":"function","name":"rewardIndex","inputs":[],"outputs":[{"name":"","type":"uint256","internalType":"uint256"}],"stateMutability":"view"},{"type":"function","name":"safeTransferFrom","inputs":[{"name":"from","type":"address","internalType":"address"},{"name":"to","type":"address","internalType":"address"},{"name":"tokenId","type":"uint256","internalType":"uint256"}],"outputs":[],"stateMutability":"nonpayable"},{"type":"function","name":"safeTransferFrom","inputs":[{"name":"from","type":"address","internalType":"address"},{"name":"to","type":"address","internalType":"address"},{"name":"tokenId","type":"uint256","internalType":"uint256"},{"name":"data","type":"bytes","internalType":"bytes"}],"outputs":[],"stateMutability":"nonpayable"},{"type":"function","name":"setApprovalForAll","inputs":[{"name":"operator","type":"address","internalType":"address"},{"name":"approved","type":"bool","internalType":"bool"}],"outputs":[],"stateMutability":"nonpayable"},{"type":"function","name":"stake","inputs":[{"name":"amount","type":"uint256","internalType":"uint256"},{"name":"lockPeriod","type":"uint256","internalType":"uint256"}],"outputs":[],"stateMutability":"nonpayable"},{"type":"function","name":"stakeInfo","inputs":[{"name":"","type":"uint256","internalType":"uint256"}],"outputs":[{"name":"amount","type":"uint256","internalType":"uint256"},{"name":"lockEnd","type":"uint256","internalType":"uint256"},{"name":"revenueShareBonus","type":"uint256","internalType":"uint256"},{"name":"sharesAmount","type":"uint256","internalType":"uint256"},{"name":"rewardIndex","type":"uint256","internalType":"uint256"},{"name":"earned","type":"uint256","internalType":"uint256"}],"stateMutability":"view"},{"type":"function","name":"stakingToken","inputs":[],"outputs":[{"name":"","type":"address","internalType":"contract IERC20"}],"stateMutability":"view"},{"type":"function","name":"supportsInterface","inputs":[{"name":"interfaceId","type":"bytes4","internalType":"bytes4"}],"outputs":[{"name":"","type":"bool","internalType":"bool"}],"stateMutability":"view"},{"type":"function","name":"symbol","inputs":[],"outputs":[{"name":"","type":"string","internalType":"string"}],"stateMutability":"view"},{"type":"function","name":"tokenURI","inputs":[{"name":"tokenId","type":"uint256","internalType":"uint256"}],"outputs":[{"name":"","type":"string","internalType":"string"}],"stateMutability":"view"},{"type":"function","name":"totalStaked","inputs":[],"outputs":[{"name":"","type":"uint256","internalType":"uint256"}],"stateMutability":"view"},{"type":"function","name":"transferFrom","inputs":[{"name":"from","type":"address","internalType":"address"},{"name":"to","type":"address","internalType":"address"},{"name":"tokenId","type":"uint256","internalType":"uint256"}],"outputs":[],"stateMutability":"nonpayable"},{"type":"function","name":"transferOwnership","inputs":[{"name":"newOwner","type":"address","internalType":"address"}],"outputs":[],"stateMutability":"nonpayable"},{"type":"function","name":"unstake","inputs":[{"name":"tokenId","type":"uint256","internalType":"uint256"}],"outputs":[],"stateMutability":"nonpayable"},{"type":"event","name":"Approval","inputs":[{"name":"owner","type":"address","indexed":true,"internalType":"address"},{"name":"approved","type":"address","indexed":true,"internalType":"address"},{"name":"tokenId","type":"uint256","indexed":true,"internalType":"uint256"}],"anonymous":false},{"type":"event","name":"ApprovalForAll","inputs":[{"name":"owner","type":"address","indexed":true,"internalType":"address"},{"name":"operator","type":"address","indexed":true,"internalType":"address"},{"name":"approved","type":"bool","indexed":false,"internalType":"bool"}],"anonymous":false},{"type":"event","name":"OwnershipTransferred","inputs":[{"name":"previousOwner","type":"address","indexed":true,"internalType":"address"},{"name":"newOwner","type":"address","indexed":true,"internalType":"address"}],"anonymous":false},{"type":"event","name":"Transfer","inputs":[{"name":"from","type":"address","indexed":true,"internalType":"address"},{"name":"to","type":"address","indexed":true,"internalType":"address"},{"name":"tokenId","type":"uint256","indexed":true,"internalType":"uint256"}],"anonymous":false},{"type":"error","name":"ERC721IncorrectOwner","inputs":[{"name":"sender","type":"address","internalType":"address"},{"name":"tokenId","type":"uint256","internalType":"uint256"},{"name":"owner","type":"address","internalType":"address"}]},{"type":"error","name":"ERC721InsufficientApproval","inputs":[{"name":"operator","type":"address","internalType":"address"},{"name":"tokenId","type":"uint256","internalType":"uint256"}]},{"type":"error","name":"ERC721InvalidApprover","inputs":[{"name":"approver","type":"address","internalType":"address"}]},{"type":"error","name":"ERC721InvalidOperator","inputs":[{"name":"operator","type":"address","internalType":"address"}]},{"type":"error","name":"ERC721InvalidOwner","inputs":[{"name":"owner","type":"address","internalType":"address"}]},{"type":"error","name":"ERC721InvalidReceiver","inputs":[{"name":"receiver","type":"address","internalType":"address"}]},{"type":"error","name":"ERC721InvalidSender","inputs":[{"name":"sender","type":"address","internalType":"address"}]},{"type":"error","name":"ERC721NonexistentToken","inputs":[{"name":"tokenId","type":"uint256","internalType":"uint256"}]},{"type":"error","name":"OwnableInvalidOwner","inputs":[{"name":"owner","type":"address","internalType":"address"}]},{"type":"error","name":"OwnableUnauthorizedAccount","inputs":[{"name":"account","type":"address","internalType":"address"}]}],"bytecode":{"object":"0x60a0604052346103c657611ae16020813803918261001c816103cb565b9384928339810103126103c657516001600160a01b038116908190036103c65761004660406103cb565b90601182527014dd5c195c93595b5954dd185ad9539195607a1b602083015261006f60406103cb565b600581526414d353919560da1b602082015282519091906001600160401b0381116102d157600054600181811c911680156103bc575b60208210146102b157601f8111610358575b506020601f82116001146102f257819293946000926102e7575b50508160011b916000199060031b1c1916176000555b81516001600160401b0381116102d157600154600181811c911680156102c7575b60208210146102b157601f811161024c575b50602092601f82116001146101e757928192936000926101dc575b50508160011b916000199060031b1c1916176001555b33156101c65760068054336001600160a01b0319821681179092556040519291906001600160a01b03167f8be0079c531659141344cd1fd0a4f28419497f9722a3daafe3b4186f6b6457e0600080a36127106009556080526116f090816103f182396080518181816106e6015281816109f30152610d070152f35b631e4fbdf760e01b600052600060045260246000fd5b015190503880610135565b601f198216936001600052806000209160005b868110610234575083600195961061021b575b505050811b0160015561014b565b015160001960f88460031b161c1916905538808061020d565b919260206001819286850151815501940192016101fa565b60016000527fb10e2d527612073b26eecdfd717e6a320cf44b4afac2b0732d9fcbe2b7fa0cf6601f830160051c810191602084106102a7575b601f0160051c01905b81811061029b575061011a565b6000815560010161028e565b9091508190610285565b634e487b7160e01b600052602260045260246000fd5b90607f1690610108565b634e487b7160e01b600052604160045260246000fd5b0151905038806100d1565b601f1982169060008052806000209160005b81811061034057509583600195969710610327575b505050811b016000556100e7565b015160001960f88460031b161c19169055388080610319565b9192602060018192868b015181550194019201610304565b600080527f290decd9548b62a8d60345a988386fc84ba6bc95484008f6362f93160ef3e563601f830160051c810191602084106103b2575b601f0160051c01905b8181106103a657506100b7565b60008155600101610399565b9091508190610390565b90607f16906100a5565b600080fd5b6040519190601f01601f191682016001600160401b038111838210176102d15760405256fe608080604052600436101561001357600080fd5b600090813560e01c90816301ffc9a7146110145750806306fdde0314610f59578063081812fc14610f1c578063095ea7b314610e3457806320988cef14610e1657806323b872dd14610dfe57806325537fbe14610de15780632e17de7814610b8f57806342842e0e14610b655780634e53357214610b035780636352211e14610ad257806370a0823114610a7f578063715018a614610a2257806372f702f3146109dd57806375794a3c146109bf5780637b0472f014610674578063817b1cd2146106565780638da5cb5b1461062d57806395d89b4114610520578063a22cb4651461047e578063ae169a5014610457578063b88d4fde146103c2578063ba579c74146103a4578063c87b56dd14610348578063d8a987cf1461032b578063e985e9c5146102d1578063e9ee2fa9146102b3578063ecbefab714610295578063ed14d17e146101f75763f2fde38b1461016b57600080fd5b346101f45760203660031901126101f4576101846110c2565b61018c611691565b6001600160a01b031680156101e057600680546001600160a01b0319811683179091556001600160a01b03167f8be0079c531659141344cd1fd0a4f28419497f9722a3daafe3b4186f6b6457e0600080a380f35b631e4fbdf760e01b82526004829052602482fd5b80fd5b50806003193601126101f457600b541561025d57670de0b6b3a76400003402348104670de0b6b3a764000014341517156102495761023b61024391600c54906113e3565b600a54611403565b600a5580f35b634e487b7160e01b82526011600452602482fd5b60405162461bcd60e51b815260206004820152601060248201526f4e6f207374616b656420746f6b656e7360801b6044820152606490fd5b50346101f457806003193601126101f45760206040516276a7008152f35b50346101f457806003193601126101f4576020600a54604051908152f35b50346101f45760403660031901126101f45760406102ed6110c2565b916102f66110dd565b9260018060a01b031681526005602052209060018060a01b0316600052602052602060ff604060002054166040519015158152f35b50346101f457806003193601126101f45760206040516105dc8152f35b50346101f45760203660031901126101f4576103656004356115ca565b508060405161037560208261115f565b52506103a060405161038860208261115f565b60008152604051918291602083526020830190611081565b0390f35b50346101f457806003193601126101f457602060405162ed4e008152f35b50346101f45760803660031901126101f4576103dc6110c2565b6103e46110dd565b906064359067ffffffffffffffff82116104535736602383011215610453578160040135928461041385611181565b93610421604051958661115f565b858552366024878301011161044f578561044c96602460209301838801378501015260443591611483565b80f35b5080fd5b8380fd5b50346101f45760203660031901126101f4576020610476600435611410565b604051908152f35b50346101f45760403660031901126101f4576104986110c2565b6024359081151580920361051c576001600160a01b0316908115610508573383526005602052604083208284526020526040832060ff1981541660ff83161790556040519081527f17307eab39ab6107e8899845ad3d59bd9653f200f220920489ca2b5937696c3160203392a380f35b630b61174360e31b83526004829052602483fd5b8280fd5b50346101f457806003193601126101f4576040519080600154908160011c91600181168015610623575b60208410811461060f578386529081156105e8575060011461058b575b6103a0846105778186038261115f565b604051918291602083526020830190611081565b600181527fb10e2d527612073b26eecdfd717e6a320cf44b4afac2b0732d9fcbe2b7fa0cf6939250905b8082106105ce5750909150810160200161057782610567565b9192600181602092548385880101520191019092916105b5565b60ff191660208087019190915292151560051b850190920192506105779150839050610567565b634e487b7160e01b83526022600452602483fd5b92607f169261054a565b50346101f457806003193601126101f4576006546040516001600160a01b039091168152602090f35b50346101f457806003193601126101f4576020600b54604051908152f35b50346101f45760403660031901126101f45760243590600435801561096b5762278d008314801561095f575b8015610953575b156109185760016276a700840361090557506101f45b6040516323b872dd60e01b815233600482015230602482015260448101839052602081606481877f00000000000000000000000000000000000000000000000000000000000000006001600160a01b03165af180156108fa576108cd575b5061073261072982846113d0565b600954906113e3565b9061073f82600c54611403565b600c5561074e83600b54611403565b600b556007549160001983146108b9576001830160075533156108a557828552600260205260408520546001600160a01b03168015159081610870575b33808852600360209081526040808a2080546001019055878a526002909152882080546001600160a01b031916821790558590827fddf252ad1be2c89b69c2b068fc378daa952ba7f163c4a11628f55a4df523b3ef8a80a45061085c576107f6600594959642611403565b91600a5492604051966108088861112d565b87526020870190815260408701918252606087019283526080870193845260a08701948886528852600860205260408820965187555160018701555160028601555160038501555160048401555191015580f35b6339e3563760e11b85526004859052602485fd5b600085815260046020526040902080546001600160a01b0319169055808752600360205260408720805460001901905561078b565b633250574960e11b85526004859052602485fd5b634e487b7160e01b85526011600452602485fd5b6108ee9060203d6020116108f3575b6108e6818361115f565b8101906113b8565b61071b565b503d6108dc565b6040513d86823e3d90fd5b62ed4e0084036106bd57506105dc6106bd565b60405162461bcd60e51b8152602060048201526013602482015272125b9d985b1a59081b1bd8dac81c195c9a5bd9606a1b6044820152606490fd5b5062ed4e0083146106a7565b506276a70083146106a0565b60405162461bcd60e51b815260206004820152602660248201527f5374616b6520616d6f756e74206d7573742062652067726561746572207468616044820152656e207a65726f60d01b6064820152608490fd5b50346101f457806003193601126101f4576020600754604051908152f35b50346101f457806003193601126101f4576040517f00000000000000000000000000000000000000000000000000000000000000006001600160a01b03168152602090f35b50346101f457806003193601126101f457610a3b611691565b600680546001600160a01b0319811690915581906001600160a01b03167f8be0079c531659141344cd1fd0a4f28419497f9722a3daafe3b4186f6b6457e08280a380f35b50346101f45760203660031901126101f4576001600160a01b03610aa16110c2565b168015610abe578160409160209352600383522054604051908152f35b6322718ad960e21b82526004829052602482fd5b50346101f45760203660031901126101f4576020610af16004356115ca565b6040516001600160a01b039091168152f35b50346101f45760203660031901126101f457604060c091600435815260086020522080549060018101549060028101546003820154906005600484015493015493604051958652602086015260408501526060840152608083015260a0820152f35b50346101f45761044c610b77366110f3565b9060405192610b8760208561115f565b858452611483565b50346101f45760203660031901126101f457600435610bc0610bb0826115ca565b6001600160a01b03163314611349565b8082526008602052604082209060405191610bda8361112d565b8054835260018101548060208501526002820154604085015260056003830154926060860193845260048101546080870152015460a08501524210610da557610c3990610c2683611601565b610c2f83611410565b5051600c54611395565b600c55610c498251600b54611395565b600b55808352600260205260408320546001600160a01b03168015908115610d70575b82855260026020526040852080546001600160a01b03191690558285827fddf252ad1be2c89b69c2b068fc378daa952ba7f163c4a11628f55a4df523b3ef8280a450610d5e5782526008602052816005604082208281558260018201558260028201558260038201558260048201550155516040519063a9059cbb60e01b825233600483015260248201526020816044818560018060a01b037f0000000000000000000000000000000000000000000000000000000000000000165af18015610d5357610d37575080f35b610d4f9060203d6020116108f3576108e6818361115f565b5080f35b6040513d84823e3d90fd5b637e27328960e01b8352600452602482fd5b600083815260046020526040902080546001600160a01b03191690558085526003602052604085208054600019019055610c6c565b60405162461bcd60e51b81526020600482015260146024820152732637b1b5903832b934b7b2103737ba1037bb32b960611b6044820152606490fd5b50346101f457806003193601126101f45760206040516101f48152f35b50346101f45761044c610e10366110f3565b9161119d565b50346101f457806003193601126101f457602060405162278d008152f35b50346101f45760403660031901126101f457610e4e6110c2565b602435610e5a816115ca565b33151580610f09575b80610ede575b610ecb5781906001600160a01b0384811691167f8c5be1e5ebec7d5bd14f71427d1e84f3dd0314c0f7b2291e5b200ac8c7c3b9258680a4825260046020526040822080546001600160a01b0319166001600160a01b0390921691909117905580f35b63a9fbf51f60e01b845233600452602484fd5b506001600160a01b038116845260056020908152604080862033875290915284205460ff1615610e69565b506001600160a01b038116331415610e63565b50346101f45760203660031901126101f457602090600435610f3d816115ca565b50815260048252604060018060a01b0391205416604051908152f35b50346101f457806003193601126101f45760405190808054908160011c9160018116801561100a575b60208410811461060f578386529081156105e85750600114610fae576103a0846105778186038261115f565b8080527f290decd9548b62a8d60345a988386fc84ba6bc95484008f6362f93160ef3e563939250905b808210610ff05750909150810160200161057782610567565b919260018160209254838588010152019101909291610fd7565b92607f1692610f82565b90503461044f57602036600319011261044f5760043563ffffffff60e01b811680910361051c57602092506380ac58cd60e01b8114908115611070575b811561105f575b5015158152f35b6301ffc9a760e01b14905038611058565b635b5e139f60e01b81149150611051565b919082519283825260005b8481106110ad575050826000602080949584010152601f8019910116010190565b8060208092840101518282860101520161108c565b600435906001600160a01b03821682036110d857565b600080fd5b602435906001600160a01b03821682036110d857565b60609060031901126110d8576004356001600160a01b03811681036110d857906024356001600160a01b03811681036110d8579060443590565b60c0810190811067ffffffffffffffff82111761114957604052565b634e487b7160e01b600052604160045260246000fd5b90601f8019910116810190811067ffffffffffffffff82111761114957604052565b67ffffffffffffffff811161114957601f01601f191660200190565b6001600160a01b0390911691908215611333576000828152600260205260408120546001600160a01b031693839185903315158061129b575b507fddf252ad1be2c89b69c2b068fc378daa952ba7f163c4a11628f55a4df523b3ef9082611266575b83815260036020526040812060018154019055848152600260205260408120846bffffffffffffffffffffffff60a01b82541617905580a46001600160a01b031680830361124c57505050565b6364283d7b60e01b60005260045260245260445260646000fd5b600085815260046020526040902080546001600160a01b031916905582815260036020526040812080546000190190556111ff565b9150919250806112e4575b156112b55790848492386111d6565b8390856112ce57602491637e27328960e01b8252600452fd5b60449163177e802f60e01b825233600452602452fd5b503385148015611312575b806112a65750838152600460205260408120546001600160a01b031633146112a6565b5084815260056020908152604080832033845290915281205460ff166112ef565b633250574960e11b600052600060045260246000fd5b1561135057565b60405162461bcd60e51b815260206004820152601b60248201527f4e6f7420746865206f776e6572206f662074686973207374616b6500000000006044820152606490fd5b919082039182116113a257565b634e487b7160e01b600052601160045260246000fd5b908160209103126110d8575180151581036110d85790565b818102929181159184041417156113a257565b81156113ed570490565b634e487b7160e01b600052601260045260246000fd5b919082018092116113a257565b60059061141f610bb0826115ca565b806000526008602052611436604060002091611601565b0180548091811590811561144b575b50505090565b6000905560009061147a575b600080809381933390f11561146e57803880611445565b6040513d6000823e3d90fd5b506108fc611457565b929161149081838661119d565b813b61149d575b50505050565b604051630a85bd0160e11b81523360048201526001600160a01b03948516602482015260448101919091526080606482015292169190602090829081906114e8906084830190611081565b03816000865af18091600091611587575b509061155257503d1561154b573d61151081611181565b9061151e604051928361115f565b81523d6000602083013e5b805190816115465782633250574960e11b60005260045260246000fd5b602001fd5b6060611529565b6001600160e01b03191663757a42ff60e11b01611573575038808080611497565b633250574960e11b60005260045260246000fd5b6020813d6020116115c2575b816115a06020938361115f565b8101031261044f5751906001600160e01b0319821682036101f45750386114f9565b3d9150611593565b6000818152600260205260409020546001600160a01b03169081156115ed575090565b637e27328960e01b60005260045260246000fd5b600090815260086020526040908190209051670de0b6b3a7640000906116759061166f8461162e8361112d565b80548352600181015460208401526002810154604084015260038101549283606082015260a060056004840154938460808501520154910152600a54611395565b906113d0565b0461168560058301918254611403565b90556004600a54910155565b6006546001600160a01b031633036116a557565b63118cdaa760e01b6000523360045260246000fdfea2646970667358221220a82a54a0cf5d533d5ae44eec00565f6751bf5759ecf741998986ed5f42b1dfe764736f6c634300081a0033","linkReferences":{}},"methodIdentifiers":{"BONUS_SIX_MONTHS()":"d8a987cf","BONUS_THREE_MONTHS()":"25537fbe","ONE_MONTH()":"20988cef","SIX_MONTHS()":"ba579c74","THREE_MONTHS()":"ecbefab7","approve(address,uint256)":"095ea7b3","balanceOf(address)":"70a08231","claimReward(uint256)":"ae169a50","collectRevenue()":"ed14d17e","getApproved(uint256)":"081812fc","isApprovedForAll(address,address)":"e985e9c5","name()":"06fdde03","nextTokenId()":"75794a3c","owner()":"8da5cb5b","ownerOf(uint256)":"6352211e","renounceOwnership()":"715018a6","rewardIndex()":"e9ee2fa9","safeTransferFrom(address,address,uint256)":"42842e0e","safeTransferFrom(address,address,uint256,bytes)":"b88d4fde","setApprovalForAll(address,bool)":"a22cb465","stake(uint256,uint256)":"7b0472f0","stakeInfo(uint256)":"4e533572","stakingToken()":"72f702f3","supportsInterface(bytes4)":"01ffc9a7","symbol()":"95d89b41","tokenURI(uint256)":"c87b56dd","totalStaked()":"817b1cd2","transferFrom(address,address,uint256)":"23b872dd","transferOwnership(address)":"f2fde38b","unstake(uint256)":"2e17de78"},"id":13}