{"abi":[{"type":"constructor","inputs":[{"name":"_name","type":"string","internalType":"string"},{"name":"_symbol","type":"string","internalType":"string"},{"name":"_devAddress","type":"address","internalType":"address"},{"name":"_revenueCollector","type":"address","internalType":"address"},{"name":"_uniswapV2Router","type":"address","internalType":"address"},{"name":"_factoryContract","type":"address","internalType":"address"}],"stateMutability":"nonpayable"},{"type":"function","name":"A","inputs":[],"outputs":[{"name":"","type":"uint256","internalType":"uint256"}],"stateMutability":"view"},{"type":"function","name":"MAX_SALE_SUPPLY","inputs":[],"outputs":[{"name":"","type":"uint256","internalType":"uint256"}],"stateMutability":"view"},{"type":"function","name":"SCALE","inputs":[],"outputs":[{"name":"","type":"uint256","internalType":"uint256"}],"stateMutability":"view"},{"type":"function","name":"TOTAL_ETHER","inputs":[],"outputs":[{"name":"","type":"uint256","internalType":"uint256"}],"stateMutability":"view"},{"type":"function","name":"allowance","inputs":[{"name":"owner","type":"address","internalType":"address"},{"name":"spender","type":"address","internalType":"address"}],"outputs":[{"name":"","type":"uint256","internalType":"uint256"}],"stateMutability":"view"},{"type":"function","name":"approve","inputs":[{"name":"spender","type":"address","internalType":"address"},{"name":"value","type":"uint256","internalType":"uint256"}],"outputs":[{"name":"","type":"bool","internalType":"bool"}],"stateMutability":"nonpayable"},{"type":"function","name":"balanceOf","inputs":[{"name":"account","type":"address","internalType":"address"}],"outputs":[{"name":"","type":"uint256","internalType":"uint256"}],"stateMutability":"view"},{"type":"function","name":"bondingCurveCompleted","inputs":[],"outputs":[{"name":"","type":"bool","internalType":"bool"}],"stateMutability":"view"},{"type":"function","name":"buyTokens","inputs":[{"name":"_amount","type":"uint256","internalType":"uint256"},{"name":"_slippage","type":"uint256","internalType":"uint256"},{"name":"_buyEth","type":"uint256","internalType":"uint256"}],"outputs":[],"stateMutability":"payable"},{"type":"function","name":"calculateCost","inputs":[{"name":"amount","type":"uint256","internalType":"uint256"}],"outputs":[{"name":"","type":"uint256","internalType":"uint256"}],"stateMutability":"view"},{"type":"function","name":"calculateRefund","inputs":[{"name":"_amount","type":"uint256","internalType":"uint256"}],"outputs":[{"name":"","type":"uint256","internalType":"uint256"}],"stateMutability":"view"},{"type":"function","name":"communityLocked","inputs":[],"outputs":[{"name":"","type":"bool","internalType":"bool"}],"stateMutability":"view"},{"type":"function","name":"decimals","inputs":[],"outputs":[{"name":"","type":"uint8","internalType":"uint8"}],"stateMutability":"view"},{"type":"function","name":"devAddress","inputs":[],"outputs":[{"name":"","type":"address","internalType":"address"}],"stateMutability":"view"},{"type":"function","name":"devLockTime","inputs":[],"outputs":[{"name":"","type":"uint256","internalType":"uint256"}],"stateMutability":"view"},{"type":"function","name":"devLocked","inputs":[],"outputs":[{"name":"","type":"bool","internalType":"bool"}],"stateMutability":"view"},{"type":"function","name":"factoryContract","inputs":[],"outputs":[{"name":"","type":"address","internalType":"address"}],"stateMutability":"view"},{"type":"function","name":"hasVoted","inputs":[{"name":"","type":"address","internalType":"address"}],"outputs":[{"name":"","type":"bool","internalType":"bool"}],"stateMutability":"view"},{"type":"function","name":"name","inputs":[],"outputs":[{"name":"","type":"string","internalType":"string"}],"stateMutability":"view"},{"type":"function","name":"revenueCollector","inputs":[],"outputs":[{"name":"","type":"address","internalType":"address"}],"stateMutability":"view"},{"type":"function","name":"scaledLiquidityThreshold","inputs":[],"outputs":[{"name":"","type":"uint256","internalType":"uint256"}],"stateMutability":"view"},{"type":"function","name":"scaledSupply","inputs":[],"outputs":[{"name":"","type":"uint256","internalType":"uint256"}],"stateMutability":"view"},{"type":"function","name":"sellTokens","inputs":[{"name":"_amount","type":"uint256","internalType":"uint256"},{"name":"_minimumEthRequired","type":"uint256","internalType":"uint256"}],"outputs":[],"stateMutability":"nonpayable"},{"type":"function","name":"sendDexRevenue","inputs":[],"outputs":[{"name":"","type":"uint256","internalType":"uint256"}],"stateMutability":"view"},{"type":"function","name":"sendToDex","inputs":[],"outputs":[],"stateMutability":"payable"},{"type":"function","name":"symbol","inputs":[],"outputs":[{"name":"","type":"string","internalType":"string"}],"stateMutability":"view"},{"type":"function","name":"totalEtherCollected","inputs":[],"outputs":[{"name":"","type":"uint256","internalType":"uint256"}],"stateMutability":"view"},{"type":"function","name":"totalRevenueCollected","inputs":[],"outputs":[{"name":"","type":"uint256","internalType":"uint256"}],"stateMutability":"view"},{"type":"function","name":"totalSupply","inputs":[],"outputs":[{"name":"","type":"uint256","internalType":"uint256"}],"stateMutability":"view"},{"type":"function","name":"totalVotes","inputs":[],"outputs":[{"name":"","type":"uint256","internalType":"uint256"}],"stateMutability":"view"},{"type":"function","name":"transfer","inputs":[{"name":"to","type":"address","internalType":"address"},{"name":"value","type":"uint256","internalType":"uint256"}],"outputs":[{"name":"","type":"bool","internalType":"bool"}],"stateMutability":"nonpayable"},{"type":"function","name":"transferFrom","inputs":[{"name":"from","type":"address","internalType":"address"},{"name":"to","type":"address","internalType":"address"},{"name":"value","type":"uint256","internalType":"uint256"}],"outputs":[{"name":"","type":"bool","internalType":"bool"}],"stateMutability":"nonpayable"},{"type":"function","name":"uniswapV2Pair","inputs":[],"outputs":[{"name":"","type":"address","internalType":"contract IUniswapV2Pair"}],"stateMutability":"view"},{"type":"function","name":"uniswapV2Router","inputs":[],"outputs":[{"name":"","type":"address","internalType":"contract IUniswapV2Router02"}],"stateMutability":"view"},{"type":"function","name":"voteToUnlockSelling","inputs":[],"outputs":[],"stateMutability":"nonpayable"},{"type":"event","name":"Approval","inputs":[{"name":"owner","type":"address","indexed":true,"internalType":"address"},{"name":"spender","type":"address","indexed":true,"internalType":"address"},{"name":"value","type":"uint256","indexed":false,"internalType":"uint256"}],"anonymous":false},{"type":"event","name":"Price","inputs":[{"name":"price","type":"uint256","indexed":true,"internalType":"uint256"},{"name":"totalSupply","type":"uint256","indexed":true,"internalType":"uint256"},{"name":"tokenAddress","type":"address","indexed":true,"internalType":"address"},{"name":"amount","type":"uint256","indexed":false,"internalType":"uint256"}],"anonymous":false},{"type":"event","name":"SentToDex","inputs":[{"name":"ethAmount","type":"uint256","indexed":false,"internalType":"uint256"},{"name":"tokenAmount","type":"uint256","indexed":false,"internalType":"uint256"},{"name":"timestamp","type":"uint256","indexed":false,"internalType":"uint256"}],"anonymous":false},{"type":"event","name":"Transfer","inputs":[{"name":"from","type":"address","indexed":true,"internalType":"address"},{"name":"to","type":"address","indexed":true,"internalType":"address"},{"name":"value","type":"uint256","indexed":false,"internalType":"uint256"}],"anonymous":false},{"type":"event","name":"tokensBought","inputs":[{"name":"amount","type":"uint256","indexed":true,"internalType":"uint256"},{"name":"cost","type":"uint256","indexed":false,"internalType":"uint256"},{"name":"tokenAddress","type":"address","indexed":true,"internalType":"address"},{"name":"buyer","type":"address","indexed":true,"internalType":"address"},{"name":"totalSupply","type":"uint256","indexed":false,"internalType":"uint256"}],"anonymous":false},{"type":"event","name":"tokensSold","inputs":[{"name":"amount","type":"uint256","indexed":true,"internalType":"uint256"},{"name":"refund","type":"uint256","indexed":false,"internalType":"uint256"},{"name":"tokenAddress","type":"address","indexed":true,"internalType":"address"},{"name":"seller","type":"address","indexed":true,"internalType":"address"},{"name":"totalSupply","type":"uint256","indexed":false,"internalType":"uint256"}],"anonymous":false},{"type":"error","name":"ERC20InsufficientAllowance","inputs":[{"name":"spender","type":"address","internalType":"address"},{"name":"allowance","type":"uint256","internalType":"uint256"},{"name":"needed","type":"uint256","internalType":"uint256"}]},{"type":"error","name":"ERC20InsufficientBalance","inputs":[{"name":"sender","type":"address","internalType":"address"},{"name":"balance","type":"uint256","internalType":"uint256"},{"name":"needed","type":"uint256","internalType":"uint256"}]},{"type":"error","name":"ERC20InvalidApprover","inputs":[{"name":"approver","type":"address","internalType":"address"}]},{"type":"error","name":"ERC20InvalidReceiver","inputs":[{"name":"receiver","type":"address","internalType":"address"}]},{"type":"error","name":"ERC20InvalidSender","inputs":[{"name":"sender","type":"address","internalType":"address"}]},{"type":"error","name":"ERC20InvalidSpender","inputs":[{"name":"spender","type":"address","internalType":"address"}]},{"type":"error","name":"ReentrancyGuardReentrantCall","inputs":[]}],"bytecode":{"object":"0x608060405234620004095762002091803803806200001d816200040e565b92833981019060c081830312620004095780516001600160401b0391908281116200040957836200005091830162000434565b92602090818301519084821162000409576200006e91840162000434565b936200007d60408401620004a6565b916200008c60608501620004a6565b94620000a960a0620000a160808801620004a6565b9601620004a6565b96835182811162000309576003918254916001968784811c94168015620003fe575b87851014620003e8578190601f9485811162000392575b5087908583116001146200032b576000926200031f575b505060001982861b1c191690871b1783555b8051938411620003095760049485548781811c91168015620002fe575b82821014620002e9579081848796959493116200028d575b50809285116001146200021f575060009362000213575b505082851b92600019911b1c19161790555b600555633b9aca006006556aa56fa5b99019a5c8000000600755670214e8348c4f0000600e5560118054600a80546001600160a01b03199081166001600160a01b0395861617909155600c8054610100600160a81b03191660089790971b610100600160a81b031696909617909555600f8054909516938316939093179093556001600160a81b0319909116921691909117600160a01b179055604051611bd59081620004bc8239f35b01519150388062000157565b929190879550601f1985168760005284600020946000905b82821062000273575050851162000258575b50505050811b01905562000169565b01519060f884600019921b161c191690553880808062000249565b8484015187558a9890960195938401939081019062000237565b90919293945086600052816000208480880160051c820192848910620002df575b918a91899897969594930160051c01915b828110620002cf57505062000140565b600081558897508a9101620002bf565b92508192620002ae565b602287634e487b7160e01b6000525260246000fd5b90607f169062000128565b634e487b7160e01b600052604160045260246000fd5b015190503880620000f9565b90899350601f1983169187600052896000209260005b8b8282106200037b575050841162000362575b505050811b0183556200010b565b015160001983881b60f8161c1916905538808062000354565b8385015186558d9790950194938401930162000341565b90915085600052876000208580850160051c8201928a8610620003de575b918b91869594930160051c01915b828110620003ce575050620000e2565b600081558594508b9101620003be565b92508192620003b0565b634e487b7160e01b600052602260045260246000fd5b93607f1693620000cb565b600080fd5b6040519190601f01601f191682016001600160401b038111838210176200030957604052565b919080601f84011215620004095782516001600160401b03811162000309576020906200046a601f8201601f191683016200040e565b92818452828287010111620004095760005b8181106200049257508260009394955001015290565b85810183015184820184015282016200047c565b51906001600160a01b0382168203620004095756fe608060408181526004918236101561001657600080fd5b600092833560e01c91826305202a6f146112355750816306fdde0314611140578163095ea7b31461111657816309eef43e146110d85781630d15fd77146110b95781631694505e1461109057816318160ddd146110715781631c488b6a1461105257816323b872dd14610f5e578163313ce56714610f4257816333d06de914610f235781633764863c14610efc5781633ad10ef614610ed35781633d4196ec14610eac57816349bd5a5e14610e835781634af18f4f14610e63578163571fe01614610e445781636d0ef93c14610e2557816370a0823114610dee5781638078e6b014610dcb578163884b8a7014610cc357816395d89b4114610bc05781639c08c0a214610ba9578163a4ce25a71461074c578163a8c6acda14610722578163a9059cbb146106f1578163b1dfc95f146106d2578163b6a1b6a5146106a5578163c7a0206114610686578163dbd8c05714610667578163dd62ed3e1461061e578163de11c94a146105f5578163eced5526146105d2578163ed9772b6146101c6575063f446c1d0146101a657600080fd5b346101c257816003193601126101c25760209051620393878152f35b5080fd5b919050346105ce57806003193601126105ce578135916101e46115a8565b60ff908160115460a01c166105985761020182600c541615611562565b61020a84611951565b916103e880840290848204148415171561058557620186a0900461022e818561159b565b91824710610558573388526020938885528689205491670de0b6b3a764000092838a02938a8504148a1517156105455783116105155760243585106104e557610276846116ee565b33156104ce5790818a949392600c54168080916104bf575b1561035d5750505082936102b96102b185946102ab8695336119eb565b8361153f565b60085461159b565b6008556102c88960095461159b565b600955818115610354575b3390f11561034a577ecdd112a5bab661c199cefe1b6b407daede4238a9f24d764373bed654d7c22b9060025493610308611657565b93815190815285838201523390877fc3b2c4fcdf25a3a78c81bd9f335d8bab96fe7dd1288668b957ebdb1b70b4de39843093a4519485523094a4600160055580f35b82513d86823e3d90fd5b506108fc6102d3565b9394509092806104b1575b156103c357505060018060a01b03600f54168033149081156103ba575b5061039d5750868080936102b96102b183955b6102ab565b855162461bcd60e51b81529081906103b690820161196e565b0390fd5b90501538610385565b600a5492989695949392336001600160a01b038216149190826104a4575b505080610499575b1561040557865162461bcd60e51b8152806103b6818b0161196e565b8892939495973033148015610492575b15610430575082936102b96102b185946103988695336119eb565b909192503015801561048a575b1561045957508780936102b96102b183956103988596336119eb565b865162461bcd60e51b8152908101859052600b60248201526a2737903a3930b739b332b960a91b6044820152606490fd5b50600161043d565b5083610415565b50600b5442106103e9565b60a01c16905038806103e1565b508060115460a01c16610368565b508160115460a01c161561028e565b8751634b637e8f60e11b81528083018b9052602490fd5b875162461bcd60e51b8152808301879052600a602482015269131bddc81c99599d5b9960b21b6044820152606490fd5b875162461bcd60e51b8152808301879052600a6024820152694c6f7720746f6b656e7360b01b6044820152606490fd5b634e487b7160e01b8b526011835260248bfd5b855162461bcd60e51b81526020818601526007602482015266098deee408aa8960cb1b6044820152606490fd5b634e487b7160e01b875260118352602487fd5b606490602084519162461bcd60e51b8352820152601060248201526f10dbdb5b5d5b9a5d1e481b1bd8dad95960821b6044820152fd5b8280fd5b5050346101c257816003193601126101c25760209051670de0b6b3a76400008152f35b5050346101c257816003193601126101c25760115490516001600160a01b039091168152602090f35b5050346101c257806003193601126101c2578060209261063c61129f565b6106446112ba565b6001600160a01b0391821683526001865283832091168252845220549051908152f35b5050346101c257816003193601126101c257602090600d549051908152f35b5050346101c257816003193601126101c2576020906008549051908152f35b5050346101c257816003193601126101c257600c54905160089190911c6001600160a01b03168152602090f35b5050346101c257816003193601126101c25760209051630bebc2008152f35b5050346101c257806003193601126101c25760209061071b61071161129f565b6024359033611308565b5160018152f35b828434610749576020366003190112610749575061074260209235611951565b9051908152f35b80fd5b91905060603660031901126105ce57813590602490813590604435946107706115a8565b8415610b7d5760ff9561078787600c541615611562565b610790866116d2565b936103e8808602908682041486151715610a8d57620186a090046107b4818761153f565b91808302908382041483151715610b6b5761271090046107d4818461159b565b348111610b34578410159081610b20575b5015610af3576107f4906116ee565b6107fe818361159b565b15610aeb5761080c9161159b565b6108188460085461153f565b6008556108278660095461153f565b806009556006541115610ad9575b6011546001600160a01b0391903390831603610ad1578882600a5416915b8015908115610a9f575b505050670de0b6b3a7640000870291670de0b6b3a763ffff1988840401610a8d57808216968715610a7957600c548a168080610a6a575b1561093b575050506108a6925061198f565b600254926108b2611657565b926108c26006546009549061159b565b508251908152846020820152857f23b8a9f7d1252cf262e22214b242cc92ed7ed7df9228726be4d037a26e083894843093a4519283527ecdd112a5bab661c199cefe1b6b407daede4238a9f24d764373bed654d7c22b60203094a4600c541661092e575b600160055580f35b6109366117a8565b610926565b9193929180610a5c575b1561098a57505050600f54168015908115610980575b5061096757505b6108a6565b905162461bcd60e51b81529081906103b690820161196e565b905084143861095b565b90919289600a9a98969997959a54918216159182610a4f575b505080610a44575b156109c757875162461bcd60e51b8152806103b6818c0161196e565b97909192949693959730158015610a3c575b156109ea575050906109629161198f565b3087148015610a35575b15610a05575050906109629161198f565b90600b606492602087519362461bcd60e51b85528401528201526a2737903a3930b739b332b960a91b6044820152fd5b50896109f4565b5060016109d9565b50600b5442106109ab565b60a01c16905087386109a3565b508960115460a01c16610945565b508a60115460a01c1615610894565b855163ec442f0560e01b81528086018c9052fd5b634e487b7160e01b8a5260118452868afd5b8280929181928290610ac8575b87871690f115610abe5788388061085d565b83513d8a823e3d90fd5b506108fc610aac565b883391610853565b600160ff19600c541617600c55610835565b50508661080c565b845162461bcd60e51b815260208186015260088189015267536c69707061676560c01b6044820152606490fd5b610b2b91508361153f565b831115386107e5565b865162461bcd60e51b81526020818801526012818b015271496e73756666696369656e742066756e647360701b6044820152606490fd5b634e487b7160e01b8b5260118552878bfd5b6008846020606494519362461bcd60e51b8552840152820152670c08185b5bdd5b9d60c21b6044820152fd5b838060031936011261074957610bbd6117a8565b80f35b8383346101c257816003193601126101c257805191809380549160019083821c92828516948515610cb9575b6020958686108114610ca657858952908115610c825750600114610c2a575b610c268787610c1c828c03836112d0565b5191829182611256565b0390f35b81529295507f8a35acfbc15ff81a39ae7d344fd709f28e8600b4aa8c65c6b64bfe7fe36bd19b5b828410610c6f5750505082610c2694610c1c92820101948680610c0b565b8054868501880152928601928101610c51565b60ff19168887015250505050151560051b8301019250610c1c82610c268680610c0b565b634e487b7160e01b845260228352602484fd5b93607f1693610bec565b919050346105ce57826003193601126105ce5733835260208381528184205415610d99573384526012815260ff8285205416610d68579083610d209233825260128152828220600160ff198254161790555283205460135461153f565b90816013558160011b9180830460021490151715610d5557506002541115610d455780f35b6011805460ff60a01b1916905580f35b634e487b7160e01b835260119052602482fd5b905162461bcd60e51b815291820152600d60248201526c105b1c9958591e481d9bdd1959609a1b6044820152606490fd5b905162461bcd60e51b815291820152600e60248201526d139bc81d1bdad95b9cc81a195b1960921b6044820152606490fd5b5050346101c257816003193601126101c25760209051673782dace9d9000008152f35b5050346101c25760203660031901126101c25760209181906001600160a01b03610e1661129f565b16815280845220549051908152f35b5050346101c257816003193601126101c2576020906009549051908152f35b5050346101c257816003193601126101c2576020906006549051908152f35b8284346107495760203660031901126107495750610742602092356116d2565b5050346101c257816003193601126101c25760105490516001600160a01b039091168152602090f35b5050346101c257816003193601126101c25760209060ff60115460a01c1690519015158152f35b5050346101c257816003193601126101c257600a5490516001600160a01b039091168152602090f35b5050346101c257816003193601126101c25760209060ff600a5460a01c1690519015158152f35b5050346101c257816003193601126101c257602090600e549051908152f35b5050346101c257816003193601126101c2576020905160128152f35b9050823461074957606036600319011261074957610f7a61129f565b610f826112ba565b916044359360018060a01b038316808352600160205286832033845260205286832054916000198303610fbe575b60208861071b898989611308565b86831061102657811561100f573315610ff85750825260016020908152868320338452815291869020908590039055829061071b87610fb0565b8751634a1406b160e11b8152908101849052602490fd5b875163e602df0560e01b8152908101849052602490fd5b8751637dc7a0d960e11b8152339181019182526020820193909352604081018790528291506060010390fd5b5050346101c257816003193601126101c257602090600b549051908152f35b5050346101c257816003193601126101c2576020906002549051908152f35b5050346101c257816003193601126101c257600f5490516001600160a01b039091168152602090f35b5050346101c257816003193601126101c2576020906013549051908152f35b5050346101c25760203660031901126101c25760209160ff9082906001600160a01b0361110361129f565b1681526012855220541690519015158152f35b5050346101c257806003193601126101c25760209061071b61113661129f565b60243590336114ac565b919050346105ce57826003193601126105ce57805191836003549060019082821c92828116801561122b575b602095868610821461121857508488529081156111f6575060011461119d575b610c268686610c1c828b03836112d0565b929550600383527fc2575a0e9e593c00f959f8c92f12db2869c3395a3b0502d05e2516446f71f85b5b8284106111e35750505082610c2694610c1c92820101943861118c565b80548685018801529286019281016111c6565b60ff191687860152505050151560051b8301019250610c1c82610c263861118c565b634e487b7160e01b845260229052602483fd5b93607f169361116c565b8490346101c257816003193601126101c25760209060ff600c541615158152f35b6020808252825181830181905290939260005b82811061128b57505060409293506000838284010152601f8019910116010190565b818101860151848201604001528501611269565b600435906001600160a01b03821682036112b557565b600080fd5b602435906001600160a01b03821682036112b557565b90601f8019910116810190811067ffffffffffffffff8211176112f257604052565b634e487b7160e01b600052604160045260246000fd5b6001600160a01b0392919083811680156114935784831690811561147a57600c5460ff1695868061146a575b15611348575050506113469350611aa7565b565b93909491958061145b575b1561139557505050600f541680911491821561138b575b505061137257565b60405162461bcd60e51b8152806103b66004820161196e565b149050388061136a565b92600a959295949194549081168214908161144d575b5080611442575b156113d05760405162461bcd60e51b8152806103b66004820161196e565b3014801561143a575b156113e8575061134692611aa7565b30148015611432575b156113ff5761134692611aa7565b60405162461bcd60e51b815260206004820152600b60248201526a2737903a3930b739b332b960a91b6044820152606490fd5b5060006113f1565b5060006113d9565b50600b5442106113b2565b60ff915060a01c16386113ab565b5060ff60115460a01c16611353565b5060ff60115460a01c1615611334565b60405163ec442f0560e01b815260006004820152602490fd5b604051634b637e8f60e11b815260006004820152602490fd5b6001600160a01b03908116918215611526571691821561150d5760207f8c5be1e5ebec7d5bd14f71427d1e84f3dd0314c0f7b2291e5b200ac8c7c3b925918360005260018252604060002085600052825280604060002055604051908152a3565b604051634a1406b160e11b815260006004820152602490fd5b60405163e602df0560e01b815260006004820152602490fd5b9190820180921161154c57565b634e487b7160e01b600052601160045260246000fd5b1561156957565b60405162461bcd60e51b815260206004820152600a602482015269437572766520646f6e6560b01b6044820152606490fd5b9190820391821161154c57565b6002600554146115b9576002600555565b604051633ee5aeb560e01b8152600490fd5b801561165157808060011461164a57600214611644576001908161013382101682600b8310161761163c57906003815b8082116116135750508160001904811161154c570290565b90928060001904811161154c57818416611633575b800292811c906115fb565b80920291611628565b600391500a90565b50600890565b5050600190565b50600090565b600954600181019081811161154c5761167b611675611681936115cb565b916115cb565b9061159b565b6203938790808202918204810361154c57640574fbde600290808204620186a0149015171561154c576729a2241af62c00009004619c409081810291818304149015171561154c5762012ebc900490565b6116819061167b6116756116e9600954938461153f565b6115cb565b6000808080808560018060a01b03600c5460081c16620186a0f1903d156117a2573d9067ffffffffffffffff821161178e5760405191611738601f8201601f1916602001846112d0565b825260203d92013e5b156117575761175290600d5461153f565b600d55565b60405162461bcd60e51b815260206004820152600f60248201526e151c985b9cd9995c8819985a5b1959608a1b6044820152606490fd5b634e487b7160e01b81526041600452602490fd5b50611741565b60ff600c54161561191b576117be600e546116ee565b604080519080820182811067ffffffffffffffff8211176112f257815260088252670e0c2d2c840e8c2f60c31b6020830152805161181f81611811602082019563104c13eb60e21b875260248301611256565b03601f1981018352826112d0565b60008093819251906a636f6e736f6c652e6c6f675afa50611844600e5460085461159b565b91826008556007549083606060018060a01b036118668582600f5416306114ac565b600f541660c486518094819363f305d71960e01b83523060048401528860248401528760448401528760648401523060848401524260a48401525af18015611911576118e6575b50508151928352602083015242908201527faf60794da385ef41a5f66c38529ba4f0581b8bca348871688b118d212b26588190606090a1565b606090813d811161190a575b6118fc81836112d0565b8101031261074957806118ad565b503d6118f2565b84513d84823e3d90fd5b60405162461bcd60e51b815260206004820152600e60248201526d4375727665206e6f7420646f6e6560901b6044820152606490fd5b6116819061167b611675611968600954938461159b565b926115cb565b606090602081526006602082015265131bd8dad95960d21b60408201520190565b600080516020611b8083398151915260206000926119af8560025461153f565b6002556001600160a01b031693841584146119d65780600254036002555b604051908152a3565b848452838252604084208181540190556119cd565b9091906001600160a01b0381169081611a355750600080516020611b80833981519152602084611a206000959660025461153f565b6002555b8060025403600255604051908152a3565b92600082815280602052604081205494828610611a76575081816040600080516020611b808339815191529460009798876020965283865203912055611a24565b60405163391434e360e21b81526001600160a01b039190911660048201526024810186905260448101839052606490fd5b6001600160a01b0380821692909183611b0e5750600080516020611b8083398151915291602091611ada8660025461153f565b6002555b169384611af6578060025403600255604051908152a3565b846000526000825260406000208181540190556119cd565b60009084825281602052604082205490868210611b4d5750918160408760209588600080516020611b8083398151915298965283875203912055611ade565b60405163391434e360e21b81526001600160a01b03919091166004820152602481019190915260448101869052606490fdfeddf252ad1be2c89b69c2b068fc378daa952ba7f163c4a11628f55a4df523b3efa2646970667358221220ba144d8191a484f873f96e75a801820a76043c7dfe8feba77ed94e45009b71dc64736f6c63430008140033","linkReferences":{}},"methodIdentifiers":{"A()":"f446c1d0","MAX_SALE_SUPPLY()":"571fe016","SCALE()":"eced5526","TOTAL_ETHER()":"8078e6b0","allowance(address,address)":"dd62ed3e","approve(address,uint256)":"095ea7b3","balanceOf(address)":"70a08231","bondingCurveCompleted()":"05202a6f","buyTokens(uint256,uint256,uint256)":"a4ce25a7","calculateCost(uint256)":"4af18f4f","calculateRefund(uint256)":"a8c6acda","communityLocked()":"3d4196ec","decimals()":"313ce567","devAddress()":"3ad10ef6","devLockTime()":"1c488b6a","devLocked()":"3764863c","factoryContract()":"de11c94a","hasVoted(address)":"09eef43e","name()":"06fdde03","revenueCollector()":"b6a1b6a5","scaledLiquidityThreshold()":"b1dfc95f","scaledSupply()":"6d0ef93c","sellTokens(uint256,uint256)":"ed9772b6","sendDexRevenue()":"33d06de9","sendToDex()":"9c08c0a2","symbol()":"95d89b41","totalEtherCollected()":"c7a02061","totalRevenueCollected()":"dbd8c057","totalSupply()":"18160ddd","totalVotes()":"0d15fd77","transfer(address,uint256)":"a9059cbb","transferFrom(address,address,uint256)":"23b872dd","uniswapV2Pair()":"49bd5a5e","uniswapV2Router()":"1694505e","voteToUnlockSelling()":"884b8a70"},"id":10}