{"abi":[{"type":"constructor","inputs":[{"name":"sprTokenAddress","type":"address","internalType":"address"}],"stateMutability":"nonpayable"},{"type":"function","name":"MAX_SUPPLY","inputs":[],"outputs":[{"name":"","type":"uint256","internalType":"uint256"}],"stateMutability":"view"},{"type":"function","name":"TOTAL_SPR","inputs":[],"outputs":[{"name":"","type":"uint256","internalType":"uint256"}],"stateMutability":"view"},{"type":"function","name":"allowance","inputs":[{"name":"owner","type":"address","internalType":"address"},{"name":"spender","type":"address","internalType":"address"}],"outputs":[{"name":"","type":"uint256","internalType":"uint256"}],"stateMutability":"view"},{"type":"function","name":"approve","inputs":[{"name":"spender","type":"address","internalType":"address"},{"name":"value","type":"uint256","internalType":"uint256"}],"outputs":[{"name":"","type":"bool","internalType":"bool"}],"stateMutability":"nonpayable"},{"type":"function","name":"balanceOf","inputs":[{"name":"account","type":"address","internalType":"address"}],"outputs":[{"name":"","type":"uint256","internalType":"uint256"}],"stateMutability":"view"},{"type":"function","name":"buyTokens","inputs":[{"name":"amount","type":"uint256","internalType":"uint256"}],"outputs":[],"stateMutability":"nonpayable"},{"type":"function","name":"calculateCost","inputs":[{"name":"amount","type":"uint256","internalType":"uint256"}],"outputs":[{"name":"","type":"uint256","internalType":"uint256"}],"stateMutability":"view"},{"type":"function","name":"cumulativeCost","inputs":[{"name":"x","type":"uint256","internalType":"uint256"}],"outputs":[{"name":"","type":"uint256","internalType":"uint256"}],"stateMutability":"pure"},{"type":"function","name":"decimals","inputs":[],"outputs":[{"name":"","type":"uint8","internalType":"uint8"}],"stateMutability":"view"},{"type":"function","name":"name","inputs":[],"outputs":[{"name":"","type":"string","internalType":"string"}],"stateMutability":"view"},{"type":"function","name":"scaledSupply","inputs":[],"outputs":[{"name":"","type":"uint256","internalType":"uint256"}],"stateMutability":"view"},{"type":"function","name":"spr","inputs":[],"outputs":[{"name":"","type":"address","internalType":"contract IERC20"}],"stateMutability":"view"},{"type":"function","name":"symbol","inputs":[],"outputs":[{"name":"","type":"string","internalType":"string"}],"stateMutability":"view"},{"type":"function","name":"totalSupply","inputs":[],"outputs":[{"name":"","type":"uint256","internalType":"uint256"}],"stateMutability":"view"},{"type":"function","name":"transfer","inputs":[{"name":"to","type":"address","internalType":"address"},{"name":"value","type":"uint256","internalType":"uint256"}],"outputs":[{"name":"","type":"bool","internalType":"bool"}],"stateMutability":"nonpayable"},{"type":"function","name":"transferFrom","inputs":[{"name":"from","type":"address","internalType":"address"},{"name":"to","type":"address","internalType":"address"},{"name":"value","type":"uint256","internalType":"uint256"}],"outputs":[{"name":"","type":"bool","internalType":"bool"}],"stateMutability":"nonpayable"},{"type":"event","name":"Approval","inputs":[{"name":"owner","type":"address","indexed":true,"internalType":"address"},{"name":"spender","type":"address","indexed":true,"internalType":"address"},{"name":"value","type":"uint256","indexed":false,"internalType":"uint256"}],"anonymous":false},{"type":"event","name":"TokensBought","inputs":[{"name":"buyer","type":"address","indexed":true,"internalType":"address"},{"name":"amount","type":"uint256","indexed":false,"internalType":"uint256"},{"name":"cost","type":"uint256","indexed":false,"internalType":"uint256"}],"anonymous":false},{"type":"event","name":"Transfer","inputs":[{"name":"from","type":"address","indexed":true,"internalType":"address"},{"name":"to","type":"address","indexed":true,"internalType":"address"},{"name":"value","type":"uint256","indexed":false,"internalType":"uint256"}],"anonymous":false},{"type":"error","name":"ERC20InsufficientAllowance","inputs":[{"name":"spender","type":"address","internalType":"address"},{"name":"allowance","type":"uint256","internalType":"uint256"},{"name":"needed","type":"uint256","internalType":"uint256"}]},{"type":"error","name":"ERC20InsufficientBalance","inputs":[{"name":"sender","type":"address","internalType":"address"},{"name":"balance","type":"uint256","internalType":"uint256"},{"name":"needed","type":"uint256","internalType":"uint256"}]},{"type":"error","name":"ERC20InvalidApprover","inputs":[{"name":"approver","type":"address","internalType":"address"}]},{"type":"error","name":"ERC20InvalidReceiver","inputs":[{"name":"receiver","type":"address","internalType":"address"}]},{"type":"error","name":"ERC20InvalidSender","inputs":[{"name":"sender","type":"address","internalType":"address"}]},{"type":"error","name":"ERC20InvalidSpender","inputs":[{"name":"spender","type":"address","internalType":"address"}]}],"bytecode":{"object":"0x60806040523480156200001157600080fd5b5060405162001bad38038062001bad8339810160408190526200003491620000c3565b6040518060400160405280601081526020016f29bab832b91026b2b6b2902a37b5b2b760811b8152506040518060400160405280600381526020016214d35560ea1b81525081600390816200008a91906200019a565b5060046200009982826200019a565b5050600680546001600160a01b0319166001600160a01b0393909316929092179091555062000266565b600060208284031215620000d657600080fd5b81516001600160a01b0381168114620000ee57600080fd5b9392505050565b634e487b7160e01b600052604160045260246000fd5b600181811c908216806200012057607f821691505b6020821081036200014157634e487b7160e01b600052602260045260246000fd5b50919050565b601f8211156200019557600081815260208120601f850160051c81016020861015620001705750805b601f850160051c820191505b8181101562000191578281556001016200017c565b5050505b505050565b81516001600160401b03811115620001b657620001b6620000f5565b620001ce81620001c784546200010b565b8462000147565b602080601f831160018114620002065760008415620001ed5750858301515b600019600386901b1c1916600185901b17855562000191565b600085815260208120601f198616915b82811015620002375788860151825594840194600190910190840162000216565b5085821015620002565787850151600019600388901b60f8161c191681555b5050505050600190811b01905550565b61193780620002766000396000f3fe608060405234801561001057600080fd5b50600436106101005760003560e01c80636713fc671161009757806395d89b411161006657806395d89b411461021d578063a9059cbb14610225578063bfbb3ee214610238578063dd62ed3e1461024257600080fd5b80636713fc67146101ad57806368f41304146101d85780636d0ef93c146101eb57806370a08231146101f457600080fd5b8063313ce567116100d3578063313ce5671461016b57806332cb6b0c1461017a5780633610724e146101855780634af18f4f1461019a57600080fd5b806306fdde0314610105578063095ea7b31461012357806318160ddd1461014657806323b872dd14610158575b600080fd5b61010d61027b565b60405161011a91906116b6565b60405180910390f35b610136610131366004611720565b61030d565b604051901515815260200161011a565b6002545b60405190815260200161011a565b61013661016636600461174a565b610327565b6040516012815260200161011a565b61014a633b9aca0081565b610198610193366004611786565b61034b565b005b61014a6101a8366004611786565b610508565b6006546101c0906001600160a01b031681565b6040516001600160a01b03909116815260200161011a565b61014a6101e6366004611786565b610542565b61014a60055481565b61014a61020236600461179f565b6001600160a01b031660009081526020819052604090205490565b61010d6105d6565b610136610233366004611720565b6105e5565b61014a624c4b4081565b61014a6102503660046117ba565b6001600160a01b03918216600090815260016020908152604080832093909416825291909152205490565b60606003805461028a906117ed565b80601f01602080910402602001604051908101604052809291908181526020018280546102b6906117ed565b80156103035780601f106102d857610100808354040283529160200191610303565b820191906000526020600020905b8154815290600101906020018083116102e657829003601f168201915b5050505050905090565b60003361031b8185856105f3565b60019150505b92915050565b600033610335858285610605565b610340858585610683565b506001949350505050565b600081116103955760405162461bcd60e51b81526020600482015260126024820152710416d6f756e74206d757374206265203e20360741b60448201526064015b60405180910390fd5b60006103a082610508565b9050600081116103e55760405162461bcd60e51b815260206004820152601060248201526f0436f7374206d757374206265203e20360841b604482015260640161038c565b6006546040516323b872dd60e01b8152336004820152306024820152604481018390526000916001600160a01b0316906323b872dd906064016020604051808303816000875af115801561043d573d6000803e3d6000fd5b505050506040513d601f19601f820116820180604052508101906104619190611827565b9050806104a65760405162461bcd60e51b815260206004820152601360248201527214d414881d1c985b9cd9995c8819985a5b1959606a1b604482015260640161038c565b82600560008282546104b8919061185f565b909155506104c8905033846106e2565b604080518481526020810184905233917f8442948036198f1146d3a63c3db355d7e0295c2cc5676c755990445da4fdc1c9910160405180910390a2505050565b60055460009081610519848361185f565b9050600061052683610542565b61052f83610542565b6105399190611872565b95945050505050565b60008061054e8361071c565b9050600061055f633b9aca0061071c565b90506000610571600f84900b8361073a565b9050600061057e82610799565b9050600061058e624c4b4061071c565b905060006105a0600f83900b8461082f565b90506000600160401b6105bf600f84900b670de0b6b3a7640000611885565b6105c991906118b2565b9998505050505050505050565b60606004805461028a906117ed565b60003361031b818585610683565b6106008383836001610865565b505050565b6001600160a01b03838116600090815260016020908152604080832093861683529290522054600019811461067d578181101561066e57604051637dc7a0d960e11b81526001600160a01b0384166004820152602481018290526044810183905260640161038c565b61067d84848484036000610865565b50505050565b6001600160a01b0383166106ad57604051634b637e8f60e11b81526000600482015260240161038c565b6001600160a01b0382166106d75760405163ec442f0560e01b81526000600482015260240161038c565b61060083838361093a565b6001600160a01b03821661070c5760405163ec442f0560e01b81526000600482015260240161038c565b6107186000838361093a565b5050565b6000677fffffffffffffff82111561073357600080fd5b5060401b90565b600081600f0b60000361074c57600080fd5b600082600f0b604085600f0b901b816107675761076761189c565b05905060016001607f1b03198112801590610789575060016001607f1b038113155b61079257600080fd5b9392505050565b6000630afebff0600f83900b12156107bd5761032167b3333333333333338361082f565b60006107e26107dd6107ce85610a64565b6801199999999999999961082f565b610a9e565b905060006107f867b3333333333333338561082f565b9050600061081f8361081667b333333333333333600160401b6118d4565b600f0b9061082f565b9050610539600f83900b82610af3565b6000600f83810b9083900b0260401d60016001607f1b03198112801590610789575060016001607f1b0381131561079257600080fd5b6001600160a01b03841661088f5760405163e602df0560e01b81526000600482015260240161038c565b6001600160a01b0383166108b957604051634a1406b160e11b81526000600482015260240161038c565b6001600160a01b038085166000908152600160209081526040808320938716835292905220829055801561067d57826001600160a01b0316846001600160a01b03167f8c5be1e5ebec7d5bd14f71427d1e84f3dd0314c0f7b2291e5b200ac8c7c3b9258460405161092c91815260200190565b60405180910390a350505050565b6001600160a01b03831661096557806002600082825461095a919061185f565b909155506109d79050565b6001600160a01b038316600090815260208190526040902054818110156109b85760405163391434e360e21b81526001600160a01b0385166004820152602481018290526044810183905260640161038c565b6001600160a01b03841660009081526020819052604090209082900390555b6001600160a01b0382166109f357600280548290039055610a12565b6001600160a01b03821660009081526020819052604090208054820190555b816001600160a01b0316836001600160a01b03167fddf252ad1be2c89b69c2b068fc378daa952ba7f163c4a11628f55a4df523b3ef83604051610a5791815260200190565b60405180910390a3505050565b60008082600f0b13610a7557600080fd5b6080610a8083610b26565b600f0b6fb17217f7d1cf79abc9e3b39803f2f6af02901c9050919050565b6000600160461b82600f0b12610ab357600080fd5b683fffffffffffffffff1982600f0b1215610ad057506000919050565b610321608083600f0b700171547652b82fe1777d0ffda0d23a7d1202901d610c01565b6000600f83810b9083900b0160016001607f1b03198112801590610789575060016001607f1b0381131561079257600080fd5b60008082600f0b13610b3757600080fd5b6000600f83900b600160401b8112610b51576040918201911d5b6401000000008112610b65576020918201911d5b620100008112610b77576010918201911d5b6101008112610b88576008918201911d5b60108112610b98576004918201911d5b60048112610ba8576002918201911d5b60028112610bb7576001820191505b603f19820160401b600f85900b607f8490031b6001603f1b5b6000811315610bf65790800260ff81901c8281029390930192607f011c9060011d610bd0565b509095945050505050565b6000600160461b82600f0b12610c1657600080fd5b683fffffffffffffffff1982600f0b1215610c3357506000919050565b6001607f1b60006001603f1b8416600f0b1315610c615770016a09e667f3bcc908b2fb1366ea957d3e0260801c5b60008367400000000000000016600f0b1315610c8e577001306fe0a31b7152de8d5a46305c85edec0260801c5b60008367200000000000000016600f0b1315610cbb577001172b83c7d517adcdf7c8c50eb14a791f0260801c5b60008367100000000000000016600f0b1315610ce85770010b5586cf9890f6298b92b71842a983630260801c5b60008367080000000000000016600f0b1315610d15577001059b0d31585743ae7c548eb68ca417fd0260801c5b60008367040000000000000016600f0b1315610d4257700102c9a3e778060ee6f7caca4f7a29bde80260801c5b60008367020000000000000016600f0b1315610d6f5770010163da9fb33356d84a66ae336dcdfa3f0260801c5b60008367010000000000000016600f0b1315610d9c57700100b1afa5abcbed6129ab13ec11dc95430260801c5b600083668000000000000016600f0b1315610dc85770010058c86da1c09ea1ff19d294cf2f679b0260801c5b600083664000000000000016600f0b1315610df4577001002c605e2e8cec506d21bfc89a23a00f0260801c5b600083662000000000000016600f0b1315610e2057700100162f3904051fa128bca9c55c31e5df0260801c5b600083661000000000000016600f0b1315610e4c577001000b175effdc76ba38e31671ca9397250260801c5b600083660800000000000016600f0b1315610e7857700100058ba01fb9f96d6cacd4b180917c3d0260801c5b600083660400000000000016600f0b1315610ea45770010002c5cc37da9491d0985c348c68e7b30260801c5b600083660200000000000016600f0b1315610ed0577001000162e525ee054754457d59952920260260801c5b600083660100000000000016600f0b1315610efc5770010000b17255775c040618bf4a4ade83fc0260801c5b6000836580000000000016600f0b1315610f27577001000058b91b5bc9ae2eed81e9b7d4cfab0260801c5b6000836540000000000016600f0b1315610f5257700100002c5c89d5ec6ca4d7c8acc017b7c90260801c5b6000836520000000000016600f0b1315610f7d5770010000162e43f4f831060e02d839a9d16d0260801c5b6000836510000000000016600f0b1315610fa857700100000b1721bcfc99d9f890ea069117630260801c5b6000836508000000000016600f0b1315610fd35770010000058b90cf1e6d97f9ca14dbcc16280260801c5b6000836504000000000016600f0b1315610ffe577001000002c5c863b73f016468f6bac5ca2b0260801c5b6000836502000000000016600f0b131561102957700100000162e430e5a18f6119e3c02282a50260801c5b6000836501000000000016600f0b1315611054577001000000b1721835514b86e6d96efd1bfe0260801c5b60008364800000000016600f0b131561107e57700100000058b90c0b48c6be5df846c5b2ef0260801c5b60008364400000000016600f0b13156110a85770010000002c5c8601cc6b9e94213c72737a0260801c5b60008364200000000016600f0b13156110d2577001000000162e42fff037df38aa2b219f060260801c5b60008364100000000016600f0b13156110fc5770010000000b17217fba9c739aa5819f44f90260801c5b60008364080000000016600f0b1315611126577001000000058b90bfcdee5acd3c1cedc8230260801c5b60008364040000000016600f0b131561115057700100000002c5c85fe31f35a6a30da1be500260801c5b60008364020000000016600f0b131561117a5770010000000162e42ff0999ce3541b9fffcf0260801c5b60008364010000000016600f0b13156111a457700100000000b17217f80f4ef5aadda455540260801c5b600083638000000016600f0b13156111cd5770010000000058b90bfbf8479bd5a81b51ad0260801c5b600083634000000016600f0b13156111f6577001000000002c5c85fdf84bd62ae30a74cc0260801c5b600083632000000016600f0b131561121f57700100000000162e42fefb2fed257559bdaa0260801c5b600083631000000016600f0b1315611248577001000000000b17217f7d5a7716bba4a9ae0260801c5b600083630800000016600f0b131561127157700100000000058b90bfbe9ddbac5e109cce0260801c5b600083630400000016600f0b131561129a5770010000000002c5c85fdf4b15de6f17eb0d0260801c5b600083630200000016600f0b13156112c3577001000000000162e42fefa494f1478fde050260801c5b600083630100000016600f0b13156112ec5770010000000000b17217f7d20cf927c8e94c0260801c5b6000836280000016600f0b1315611314577001000000000058b90bfbe8f71cb4e4b33d0260801c5b6000836240000016600f0b131561133c57700100000000002c5c85fdf477b662b269450260801c5b6000836220000016600f0b13156113645770010000000000162e42fefa3ae53369388c0260801c5b6000836210000016600f0b131561138c57700100000000000b17217f7d1d351a389d400260801c5b6000836208000016600f0b13156113b45770010000000000058b90bfbe8e8b2d3d4ede0260801c5b6000836204000016600f0b13156113dc577001000000000002c5c85fdf4741bea6e77e0260801c5b6000836202000016600f0b131561140457700100000000000162e42fefa39fe95583c20260801c5b6000836201000016600f0b131561142c577001000000000000b17217f7d1cfb72b45e10260801c5b60008361800016600f0b131561145357700100000000000058b90bfbe8e7cc35c3f00260801c5b60008361400016600f0b131561147a5770010000000000002c5c85fdf473e242ea380260801c5b60008361200016600f0b13156114a1577001000000000000162e42fefa39f02b772c0260801c5b60008361100016600f0b13156114c85770010000000000000b17217f7d1cf7d83c1a0260801c5b60008361080016600f0b13156114ef577001000000000000058b90bfbe8e7bdcbe2e0260801c5b60008361040016600f0b131561151657700100000000000002c5c85fdf473dea871f0260801c5b60008361020016600f0b131561153d5770010000000000000162e42fefa39ef44d910260801c5b60008361010016600f0b131561156457700100000000000000b17217f7d1cf79e9490260801c5b600083608016600f0b131561158a5770010000000000000058b90bfbe8e7bce5440260801c5b600083604016600f0b13156115b0577001000000000000002c5c85fdf473de6eca0260801c5b600083602016600f0b13156115d657700100000000000000162e42fefa39ef366f0260801c5b600083601016600f0b13156115fc577001000000000000000b17217f7d1cf79afa0260801c5b600083600816600f0b131561162257700100000000000000058b90bfbe8e7bcd6d0260801c5b600083600416600f0b13156116485770010000000000000002c5c85fdf473de6b20260801c5b600083600216600f0b131561166e577001000000000000000162e42fefa39ef3580260801c5b600083600116600f0b13156116945770010000000000000000b17217f7d1cf79ab0260801c5b600f83810b60401d603f03900b1c60016001607f1b0381111561032157600080fd5b600060208083528351808285015260005b818110156116e3578581018301518582016040015282016116c7565b506000604082860101526040601f19601f8301168501019250505092915050565b80356001600160a01b038116811461171b57600080fd5b919050565b6000806040838503121561173357600080fd5b61173c83611704565b946020939093013593505050565b60008060006060848603121561175f57600080fd5b61176884611704565b925061177660208501611704565b9150604084013590509250925092565b60006020828403121561179857600080fd5b5035919050565b6000602082840312156117b157600080fd5b61079282611704565b600080604083850312156117cd57600080fd5b6117d683611704565b91506117e460208401611704565b90509250929050565b600181811c9082168061180157607f821691505b60208210810361182157634e487b7160e01b600052602260045260246000fd5b50919050565b60006020828403121561183957600080fd5b8151801515811461079257600080fd5b634e487b7160e01b600052601160045260246000fd5b8082018082111561032157610321611849565b8181038181111561032157610321611849565b808202811582820484141761032157610321611849565b634e487b7160e01b600052601260045260246000fd5b6000826118cf57634e487b7160e01b600052601260045260246000fd5b500490565b600f82810b9082900b0360016001607f1b0319811260016001607f1b03821317156103215761032161184956fea2646970667358221220b41e16cc44ab1cff9fe9e427d31defe952ad0bb174c7b8d64e62bf47491dcbca64736f6c63430008140033","linkReferences":{}},"methodIdentifiers":{"MAX_SUPPLY()":"32cb6b0c","TOTAL_SPR()":"bfbb3ee2","allowance(address,address)":"dd62ed3e","approve(address,uint256)":"095ea7b3","balanceOf(address)":"70a08231","buyTokens(uint256)":"3610724e","calculateCost(uint256)":"4af18f4f","cumulativeCost(uint256)":"68f41304","decimals()":"313ce567","name()":"06fdde03","scaledSupply()":"6d0ef93c","spr()":"6713fc67","symbol()":"95d89b41","totalSupply()":"18160ddd","transfer(address,uint256)":"a9059cbb","transferFrom(address,address,uint256)":"23b872dd"},"id":28}