{"abi":[{"type":"function","name":"createToken","inputs":[{"name":"_name","type":"string","internalType":"string"},{"name":"_symbol","type":"string","internalType":"string"},{"name":"_devLocked","type":"bool","internalType":"bool"},{"name":"_amount","type":"uint256","internalType":"uint256"},{"name":"_devAddress","type":"address","internalType":"address"},{"name":"_devLockDuration","type":"uint256","internalType":"uint256"},{"name":"_buyEth","type":"uint256","internalType":"uint256"},{"name":"_tokenType","type":"uint256","internalType":"uint256"}],"outputs":[{"name":"","type":"address","internalType":"address"}],"stateMutability":"payable"},{"type":"function","name":"createTokenRevenue","inputs":[],"outputs":[{"name":"","type":"uint256","internalType":"uint256"}],"stateMutability":"view"},{"type":"function","name":"revenueCollector","inputs":[],"outputs":[{"name":"","type":"address","internalType":"address"}],"stateMutability":"view"},{"type":"function","name":"tokenAddresses","inputs":[{"name":"","type":"uint256","internalType":"uint256"}],"outputs":[{"name":"","type":"address","internalType":"address"}],"stateMutability":"view"},{"type":"event","name":"TokenCreated","inputs":[{"name":"tokenAddress","type":"address","indexed":true,"internalType":"address"},{"name":"devAddress","type":"address","indexed":true,"internalType":"address"},{"name":"amount","type":"uint256","indexed":false,"internalType":"uint256"},{"name":"devLocked","type":"bool","indexed":false,"internalType":"bool"},{"name":"tokenType","type":"uint256","indexed":false,"internalType":"uint256"}],"anonymous":false}],"bytecode":{"object":"0x6080806040523461003457600080546001600160a01b0319166101231790556509184e72a00060015561942b908161003a8239f35b600080fdfe604060808152600490813610156200001657600080fd5b600091823560e01c80632b9ed87314620000ec5780633b527dd614620000cb578063b6a1b6a5146200009d5763e5df8b84146200005257600080fd5b346200009957602036600319011262000099573591600254831015620000965750620000806020926200089c565b905491519160018060a01b039160031b1c168152f35b80fd5b8280fd5b505034620000c75781600319360112620000c757905490516001600160a01b039091168152602090f35b5080fd5b505034620000c75781600319360112620000c7576020906001549051908152f35b509190610100366003190112620000c75767ffffffffffffffff918335838111620000c7576200012090369086016200081a565b906024908135858111620000c7576200013d90369088016200081a565b926044359586159485159788810362000816576001600160a01b03966084358881169591908681036200081257898854169060015496873410620007da5760a4359384159889908a159a8b620007cd575b8015620007c0575b8015620007b3575b8015620007a6575b156200076057338c0362000724578c80808093898282156200071a575bf115620007105760e435998a1590818062000708575b80620006fd575b80620006f5575b80620006ea575b15620002f1575050505090919293948c51966127ae8089019389851090851117620002dd579188979593916200023497959362000a328a3960c4359660643593620009d3565b039084f08015620002d357606086807f6268964f653fb671b504147c5e2a7e7f1cfd9512b665f4de66b2980551e3b76d93165b169889938951916064358352602083015289820152a36002549568010000000000000000871015620002c357505050620002aa846001602096016002556200089c565b819291549060031b9185831b921b191617905551908152f35b634e487b7160e01b825260419052fd5b86513d85823e3d90fd5b508f8b60418e92634e487b7160e01b835252fd5b8180620006e2575b80620006d6575b80620006ce575b80620006c2575b156200038757505050508c51956127ae8088019288841090841117620002dd5791620003509593918897959362000a32893960c435998a9660643593620009d3565b0391f08015620002d357606086807f6268964f653fb671b504147c5e2a7e7f1cfd9512b665f4de66b2980551e3b76d931662000267565b81620006b9575b81620006ac575b81620006a3575b508062000697575b15620003e35750508c51956127ae80880192831188841017620002dd5791620003509593918897959362000a32893960c435998a9660643593620009d3565b91965091929350600188148080916200068f575b8062000684575b806200067c575b8062000671575b1562000497575050509091928a51946130cb8087019287841090841117620004855791869593916200044d95936200632b883960c435946064359262000985565b039084f08015620002d357606086807f6268964f653fb671b504147c5e2a7e7f1cfd9512b665f4de66b2980551e3b76d931662000267565b634e487b7160e01b8a5260418f528a8afd5b8062000669575b806200065d575b8062000655575b8062000649575b15620004f05750508a51936130cb808601918211868310176200048557916200035093918695936200632b873960c4359788946064359262000985565b6002881491828062000641575b8062000636575b806200062e575b8062000623575b1562000553575050509091928a519461314b8087019287841090841117620004855791869593916200044d9593620031e0883960c43594606435926200092c565b826200061a575b50816200060d575b8162000604575b5080620005f8575b15620005ac578a519361314b80860191821186831017620004855791620003509391869593620031e0873960c435978894606435926200092c565b8a5162461bcd60e51b81526020818f01526021818b01527f496e76616c696420746f6b656e206372656174696f6e20706172616d657465726044820152607360f81b6064820152608490fd5b5060c435151562000571565b90503862000569565b6064351515915062000562565b9150386200055a565b5060c4351562000512565b50816200050b565b506064351562000504565b5080620004fd565b5060c4351515620004b3565b5080620004ac565b506064351515620004a5565b50816200049e565b5060c435156200040c565b508162000405565b5060643515620003fe565b5082620003f7565b5060c4351515620003a4565b9050386200039c565b6064351515915062000395565b8991506200038e565b5060c43515156200030e565b508262000307565b50606435151562000300565b5083620002f9565b5060c43515620001ee565b5082620001e7565b5060643515620001e0565b5083620001d9565b8e513d8d823e3d90fd5b506108fc620001c3565b50505060648f60138f60208f91519362461bcd60e51b855284015282015272496e76616c696420646576206164647265737360681b6044820152fd5b50505060648f60198f60208f91519362461bcd60e51b85528401528201527f496e76616c696420646576206c6f636b206475726174696f6e000000000000006044820152fd5b506224ea008714620001a6565b50621baf8087146200019e565b5062127500871462000196565b5062093a8087146200018e565b60648f60128f60208f91519362461bcd60e51b855284015282015271496e73756666696369656e742066756e647360701b6044820152fd5b8780fd5b8480fd5b81601f82011215620008815780359067ffffffffffffffff92838311620008865760405193601f8401601f19908116603f01168501908111858210176200088657604052828452602083830101116200088157816000926020809301838601378301015290565b600080fd5b634e487b7160e01b600052604160045260246000fd5b600254811015620008d45760026000527f405787fa12a823e0f2b7631cc41b3ba8828b3321ca811111fa75cd3aa3bb5ace0190600090565b634e487b7160e01b600052603260045260246000fd5b919082519283825260005b84811062000917575050826000602080949584010152601f8019910116010190565b602081830181015184830182015201620008f5565b92969591946200095e6000966200094f60c0979460e0885260e0880190620008ea565b908682036020880152620008ea565b60408501989098526001600160a01b03918216606085015216608083015260a08201520152565b929695949060a09492620009a6620009b59260c0875260c0870190620008ea565b908582036020870152620008ea565b966040840152600180851b0380921660608401521660808201520152565b9492989796939060e09692620009f662000a0592610100808a52890190620008ea565b908782036020890152620008ea565b981515604086015260608501526001600160a01b0391821660808501521660a083015260c0820152015256fe608080604052620027ae80380380916200001a828562000c5c565b8339810161010082820312620006d45781516001600160401b038111620006d457816200004991840162000c9c565b602083015190916001600160401b038211620006d4576200006c91840162000c9c565b6040830151908115158203620006d457606084015193620000906080820162000d06565b916200009f60a0830162000d06565b9060e060c08401519301519580519060018060401b03821162000b2e5760035490600182811c9216801562000c51575b602083101462000b0d5781601f84931162000bdf575b50602090601f831160011462000b505760009262000b44575b50508160011b916000199060031b1c1916176003555b8051906001600160401b03821162000b2e5760045490600182811c9216801562000b23575b602083101462000b0d5781601f84931162000a98575b50602090601f831160011462000a0957600092620009fd575b50508160011b916000199060031b1c1916176004555b60016005556aa56fa5b99019a5c8000000600655633b9aca00600755670214e8348c4f0000600e55601180546001600160a01b03199081163317909155600c8054610100600160a81b0319811660089490941b610100600160a81b0316939093179055600f8054909116736682375ebc1df04676c0c5050934272368e6e8831790553015620007d35760ff16156200097a576200026091620002203062000e6a565b630bebc2006009819055600a80546001600160a81b0319166001600160a01b039093169290921794151560a01b60ff60a01b169490941790554262000d1b565b600b5582159081156200027e575b60405161185d908162000f318239f35b600260055414620009685760026005558391620009385760ff600c541662000906578381018082116200073c57620002b69062000d37565b60019160035b60018111620008d95750806000190483116200073c57620002df92029062000d29565b8062039387029062039387820481036200073c57640574fbde600290808204620186a014901517156200073c576729a2241af62c0000900491619c40830292808404619c4014901517156200073c576103e862012ebc84048181029181830414901517156200073c576200035e620186a0820462012ebc860462000d1b565b9060648202828104606414831517156200073c57612710900462000383818462000d29565b3481116200089f57841015908162000888575b50156200085857620186a0620003ad910462000dcd565b620003b9818362000d29565b60009290156200084f57620003cf925062000d29565b925b620003e462012ebc840460085462000d1b565b600855620003f58160095462000d1b565b9081600955600754918281101562000827575b50506011546001600160a01b031633141590506200081f57600a546001600160a01b0316925b80158015620007ec575b5050670de0b6b3a764000081818102048114821517156200073c576001600160a01b03841615620007d357600c5460ff161562000752576200047d9082028462000ee6565b6002549160095460018101908181116200073c57620004ab620004a4620004b29362000d37565b9162000d37565b9062000d29565b8062039387029062039387820481036200073c57640574fbde600290808204620186a014901517156200073c576729a2241af62c0000900493619c40850294808604619c4014901517156200073c5762012ebc6040519204825283602083015260018060a01b031690827f23b8a9f7d1252cf262e22214b242cc92ed7ed7df9228726be4d037a26e08389460403093a46040519081527ecdd112a5bab661c199cefe1b6b407daede4238a9f24d764373bed654d7c22b602062012ebc30950492a460ff600c54168062000590575b506001600555388080806200026e565b156200070657620005a3600e5462000dcd565b620005b3600e5460085462000d29565b6008819055600654600f546001600160a01b03168015620006ed57306000526001602052604060002081600052602052816040600020556040518281527f8c5be1e5ebec7d5bd14f71427d1e84f3dd0314c0f7b2291e5b200ac8c7c3b92560203092a381606060018060a01b03600f541660c46040518094819363f305d71960e01b835230600484015287602484015260006044840152600060648401523060848401524260a48401525af18015620006e157620006ab575b507faf60794da385ef41a5f66c38529ba4f0581b8bca348871688b118d212b265881916060916040519182526020820152426040820152a13862000580565b606090813d8311620006d9575b620006c4818362000c5c565b81010312620006d457386200066c565b600080fd5b503d620006b8565b6040513d6000823e3d90fd5b604051634a1406b160e11b815260006004820152602490fd5b60405162461bcd60e51b815260206004820152600e60248201526d4375727665206e6f7420646f6e6560901b6044820152606490fd5b634e487b7160e01b600052601160045260246000fd5b600a546001600160a01b038116159081620007c4575b5080620007b8575b15620007a45760405162461bcd60e51b8152602060048201526006602482015265131bd8dad95960d21b6044820152606490fd5b620007b29082028462000ee6565b6200047d565b50600b54421062000770565b60ff915060a01c163862000768565b60405163ec442f0560e01b815260006004820152602490fd5b60008080938193829062000815575b6001600160a01b03891690f115620006e157388062000438565b506108fc620007fb565b33926200042e565b62000846935090620004ab91600160ff19600c541617600c5562000d29565b38808062000408565b505092620003d1565b60405162461bcd60e51b8152602060048201526008602482015267536c69707061676560c01b6044820152606490fd5b6200089591508362000d1b565b8311153862000396565b60405162461bcd60e51b8152602060048201526012602482015271496e73756666696369656e742066756e647360701b6044820152606490fd5b90806000190481116200073c5760018216620008fc575b80029060011c620002bc565b80930292620008f0565b60405162461bcd60e51b815260206004820152600a602482015269437572766520646f6e6560b01b6044820152606490fd5b60405162461bcd60e51b81526020600482015260086024820152670c08185b5bdd5b9d60c21b6044820152606490fd5b604051633ee5aeb560e01b8152600490fd5b600a546001600160a01b038116159081620009ee575b5080620009e2575b15620009cc5760405162461bcd60e51b8152602060048201526006602482015265131bd8dad95960d21b6044820152606490fd5b6200026091620009dc3062000e6a565b62000220565b50600b54421062000998565b60ff915060a01c163862000990565b01519050388062000168565b6004600090815293507f8a35acfbc15ff81a39ae7d344fd709f28e8600b4aa8c65c6b64bfe7fe36bd19b91905b601f198416851062000a7c576001945083601f1981161062000a62575b505050811b016004556200017e565b015160001960f88460031b161c1916905538808062000a53565b8181015183556020948501946001909301929091019062000a36565b60046000529091507f8a35acfbc15ff81a39ae7d344fd709f28e8600b4aa8c65c6b64bfe7fe36bd19b601f840160051c8101916020851062000b02575b90601f859493920160051c01905b81811062000af257506200014f565b6000815584935060010162000ae3565b909150819062000ad5565b634e487b7160e01b600052602260045260246000fd5b91607f169162000139565b634e487b7160e01b600052604160045260246000fd5b015190503880620000fe565b6003600090815293507fc2575a0e9e593c00f959f8c92f12db2869c3395a3b0502d05e2516446f71f85b91905b601f198416851062000bc3576001945083601f1981161062000ba9575b505050811b0160035562000114565b015160001960f88460031b161c1916905538808062000b9a565b8181015183556020948501946001909301929091019062000b7d565b60036000529091507fc2575a0e9e593c00f959f8c92f12db2869c3395a3b0502d05e2516446f71f85b601f840160051c81016020851062000c49575b90849392915b601f830160051c8201811062000c39575050620000e5565b6000815585945060010162000c21565b508062000c1b565b91607f1691620000cf565b601f909101601f19168101906001600160401b0382119082101762000b2e57604052565b6001600160401b03811162000b2e57601f01601f191660200190565b919080601f84011215620006d45782519062000cb88262000c80565b9162000cc8604051938462000c5c565b808352602091828287010111620006d45760005b81811062000cf257508260009394955001015290565b858101830151848201840152820162000cdc565b51906001600160a01b0382168203620006d457565b919082018092116200073c57565b919082039182116200073c57565b801562000dc757808060011462000dc05760021462000dba576001908161013382101682600b8310161762000db257906003815b80821162000d85575050816000190481116200073c570290565b9092806000190481116200073c5781841662000da8575b800292811c9062000d6b565b8092029162000d9c565b600391500a90565b50600890565b5050600190565b50600090565b60008080808460018060a01b03600c5460081c16620186a0f13d1562000e64573d62000df98162000c80565b9062000e09604051928362000c5c565b8152600060203d92013e5b1562000e2d5762000e2890600d5462000d1b565b600d55565b60405162461bcd60e51b815260206004820152600f60248201526e151c985b9cd9995c8819985a5b1959608a1b6044820152606490fd5b62000e14565b6002546aa56fa5b99019a5c8000000918282018092116200073c576002919091556001600160a01b0316906000906000805160206200278e833981519152906020908462000ed0576aa56fa5b99019a5c7ffffff19600254016002555b604051908152a3565b8484528382526040842081815401905562000ec7565b6000805160206200278e833981519152602060009262000f098560025462000d1b565b6002556001600160a01b0316938415841462000ed0578060025403600255604051908152a356fe608060408181526004918236101561001657600080fd5b600092833560e01c91826305202a6f14610fc05750816306fdde0314610ecb578163095ea7b314610ea15781631694505e14610e7857816318160ddd14610e595781631c488b6a14610e3a57816323b872dd14610d46578163313ce56714610d2a57816333d06de914610d0b5781633764863c14610ce45781633ad10ef614610cbb57816349bd5a5e14610c925781634af18f4f14610c72578163571fe01614610c535781636d0ef93c14610c3457816370a0823114610bfd5781638078e6b014610bda57816395d89b4114610ad75781639c08c0a214610ac0578163a4ce25a71461069b578163a8c6acda14610678578163a9059cbb14610647578163b1dfc95f14610628578163b6a1b6a5146105fb578163bf583903146105d0578163c7a02061146105b1578163dbd8c05714610592578163dd62ed3e14610549578163de11c94a14610520578163eced5526146104fd578163ed9772b6146101a5575063f446c1d01461018557600080fd5b346101a157816003193601126101a15760209051620393878152f35b5080fd5b919050346104f957806003193601126104f9578135916101c36112cb565b6101d260ff600c541615611262565b6101db836115fa565b906103e88083029083820414831517156104e657620186a090046101ff81846112be565b908147106104b9573387526020928784528588205490670de0b6b3a7640000918289029289840414891517156104a6578211610476576024358410610446576102478361140b565b331561042f57908893929160ff600c54166000146103275750839261028361027b8594610275869533611673565b8361129b565b6008546112be565b600855610292896009546112be565b60095581811561031e575b3390f115610314577ecdd112a5bab661c199cefe1b6b407daede4238a9f24d764373bed654d7c22b90600254936102d261137a565b93815190815285838201523390877fc3b2c4fcdf25a3a78c81bd9f335d8bab96fe7dd1288668b957ebdb1b70b4de39843093a4519485523094a4600160055580f35b82513d86823e3d90fd5b506108fc61029d565b600a5490989597969450336001600160a01b038216149081610421575b5080610416575b1561037c57855162461bcd60e51b81528089018890526006602482015265131bd8dad95960d21b6044820152606490fd5b88929395969497303314801561040f575b156103ad5750829361028361027b85946103a8869533611673565b610275565b9091925030158015610407575b156103d6575087809361028361027b83956103a8859633611673565b865162461bcd60e51b8152908101859052600b60248201526a2737903a3930b739b332b960a91b6044820152606490fd5b5060016103ba565b508361038d565b50600b54421061034b565b60ff915060a01c1638610344565b8651634b637e8f60e11b8152908101899052602490fd5b865162461bcd60e51b8152908101859052600a602482015269131bddc81c99599d5b9960b21b6044820152606490fd5b865162461bcd60e51b8152908101859052600a6024820152694c6f7720746f6b656e7360b01b6044820152606490fd5b634e487b7160e01b8a526011825260248afd5b845162461bcd60e51b81526020818501526007602482015266098deee408aa8960cb1b6044820152606490fd5b634e487b7160e01b865260118252602486fd5b8280fd5b5050346101a157816003193601126101a15760209051670de0b6b3a76400008152f35b5050346101a157816003193601126101a15760115490516001600160a01b039091168152602090f35b5050346101a157806003193601126101a1578060209261056761102a565b61056f611045565b6001600160a01b0391821683526001865283832091168252845220549051908152f35b5050346101a157816003193601126101a157602090600d549051908152f35b5050346101a157816003193601126101a1576020906008549051908152f35b5050346101a157816003193601126101a1576020906105f4600754600954906112be565b9051908152f35b5050346101a157816003193601126101a157600c54905160089190911c6001600160a01b03168152602090f35b5050346101a157816003193601126101a15760209051630bebc2008152f35b5050346101a157806003193601126101a15760209061067161066761102a565b6024359033611093565b5160018152f35b82843461069857602036600319011261069857506105f4602092356115fa565b80fd5b91905060603660031901126104f9578135906024908135916044938435956106c16112cb565b81968215610a94576106d860ff600c541615611262565b6106e1836113ef565b956103e8808802908882041488151715610a8257620186a09004610705818961129b565b91808302908382041483151715610a7057612710900461072581846112be565b348111610a3a578410159081610a26575b50156109fa576107459061140b565b61074f81836112be565b156109f15761075d916112be565b915b61076b8660085461129b565b60085561077a8160095461129b565b908160095560075491828110156109c5575b50506011546001600160a01b0397915033908816036109bd578887600a5416935b801590811561098b575b505050670de0b6b3a76400009384890294898604148915171561097a5787841697881561096557600c5460ff161561087e5750505050906107f791611617565b6002549261080361137a565b928251908152846020820152857f23b8a9f7d1252cf262e22214b242cc92ed7ed7df9228726be4d037a26e083894843093a4519283527ecdd112a5bab661c199cefe1b6b407daede4238a9f24d764373bed654d7c22b60203094a460ff600c5416610871575b600160055580f35b6108796114c5565b610869565b600a99959298949197939954908116159081610957575b508061094c575b156108cb57855162461bcd60e51b81526020818b015260068189015265131bd8dad95960d21b818a0152606490fd5b9296909397919530158015610944575b156108f257505050906108ed91611617565b6107f7565b308814801561093d575b1561090e57505050906108ed91611617565b60649291600b6a2737903a3930b739b332b960a91b92602089519562461bcd60e51b8752860152840152820152fd5b50896108fc565b5060016108db565b50600b54421061089c565b60ff915060a01c1638610895565b50855163ec442f0560e01b81528084018b9052fd5b634e487b7160e01b8a526011835289fd5b82809291819282906109b4575b8c891690f1156109aa578838806107b7565b84513d8a823e3d90fd5b506108fc610998565b8833936107ad565b6109e8939950906109e291600160ff19600c541617600c556112be565b906112be565b9538808061078c565b5050879161075f565b865162461bcd60e51b815260208186015260088188015267536c69707061676560c01b818b0152606490fd5b610a3191508361129b565b83111538610736565b885162461bcd60e51b81526020818801526012818a015271496e73756666696369656e742066756e647360701b818d0152606490fd5b634e487b7160e01b8c5260118552868cfd5b634e487b7160e01b8b5260118452858bfd5b845162461bcd60e51b8152602081840152600881860152670c08185b5bdd5b9d60c21b81890152606490fd5b838060031936011261069857610ad46114c5565b80f35b8383346101a157816003193601126101a157805191809380549160019083821c92828516948515610bd0575b6020958686108114610bbd57858952908115610b995750600114610b41575b610b3d8787610b33828c038361105b565b5191829182610fe1565b0390f35b81529295507f8a35acfbc15ff81a39ae7d344fd709f28e8600b4aa8c65c6b64bfe7fe36bd19b5b828410610b865750505082610b3d94610b3392820101948680610b22565b8054868501880152928601928101610b68565b60ff19168887015250505050151560051b8301019250610b3382610b3d8680610b22565b634e487b7160e01b845260228352602484fd5b93607f1693610b03565b5050346101a157816003193601126101a15760209051673782dace9d9000008152f35b5050346101a15760203660031901126101a15760209181906001600160a01b03610c2561102a565b16815280845220549051908152f35b5050346101a157816003193601126101a1576020906009549051908152f35b5050346101a157816003193601126101a1576020906007549051908152f35b82843461069857602036600319011261069857506105f4602092356113ef565b5050346101a157816003193601126101a15760105490516001600160a01b039091168152602090f35b5050346101a157816003193601126101a157600a5490516001600160a01b039091168152602090f35b5050346101a157816003193601126101a15760209060ff600a5460a01c1690519015158152f35b5050346101a157816003193601126101a157602090600e549051908152f35b5050346101a157816003193601126101a1576020905160128152f35b9050823461069857606036600319011261069857610d6261102a565b610d6a611045565b916044359360018060a01b038316808352600160205286832033845260205286832054916000198303610da6575b602088610671898989611093565b868310610e0e578115610df7573315610de05750825260016020908152868320338452815291869020908590039055829061067187610d98565b8751634a1406b160e11b8152908101849052602490fd5b875163e602df0560e01b8152908101849052602490fd5b8751637dc7a0d960e11b8152339181019182526020820193909352604081018790528291506060010390fd5b5050346101a157816003193601126101a157602090600b549051908152f35b5050346101a157816003193601126101a1576020906002549051908152f35b5050346101a157816003193601126101a157600f5490516001600160a01b039091168152602090f35b5050346101a157806003193601126101a157602090610671610ec161102a565b60243590336111cf565b919050346104f957826003193601126104f957805191836003549060019082821c928281168015610fb6575b6020958686108214610fa35750848852908115610f815750600114610f28575b610b3d8686610b33828b038361105b565b929550600383527fc2575a0e9e593c00f959f8c92f12db2869c3395a3b0502d05e2516446f71f85b5b828410610f6e5750505082610b3d94610b33928201019438610f17565b8054868501880152928601928101610f51565b60ff191687860152505050151560051b8301019250610b3382610b3d38610f17565b634e487b7160e01b845260229052602483fd5b93607f1693610ef7565b8490346101a157816003193601126101a15760209060ff600c541615158152f35b6020808252825181830181905290939260005b82811061101657505060409293506000838284010152601f8019910116010190565b818101860151848201604001528501610ff4565b600435906001600160a01b038216820361104057565b600080fd5b602435906001600160a01b038216820361104057565b90601f8019910116810190811067ffffffffffffffff82111761107d57604052565b634e487b7160e01b600052604160045260246000fd5b91906001600160a01b0380841680156111b65781831691821561119d57600c5460ff16156110c9575050506110c79261172f565b565b600a549081168214908161118f575b5080611184575b156111125760405162461bcd60e51b8152602060048201526006602482015265131bd8dad95960d21b6044820152606490fd5b3014801561117c575b1561112a57506110c79261172f565b30148015611174575b15611141576110c79261172f565b60405162461bcd60e51b815260206004820152600b60248201526a2737903a3930b739b332b960a91b6044820152606490fd5b506000611133565b50600061111b565b50600b5442106110df565b60ff915060a01c16386110d8565b60405163ec442f0560e01b815260006004820152602490fd5b604051634b637e8f60e11b815260006004820152602490fd5b6001600160a01b0390811691821561124957169182156112305760207f8c5be1e5ebec7d5bd14f71427d1e84f3dd0314c0f7b2291e5b200ac8c7c3b925918360005260018252604060002085600052825280604060002055604051908152a3565b604051634a1406b160e11b815260006004820152602490fd5b60405163e602df0560e01b815260006004820152602490fd5b1561126957565b60405162461bcd60e51b815260206004820152600a602482015269437572766520646f6e6560b01b6044820152606490fd5b919082018092116112a857565b634e487b7160e01b600052601160045260246000fd5b919082039182116112a857565b6002600554146112dc576002600555565b604051633ee5aeb560e01b8152600490fd5b801561137457808060011461136d57600214611367576001908161013382101682600b8310161761135f57906003815b808211611336575050816000190481116112a8570290565b9092806000190481116112a857818416611356575b800292811c9061131e565b8092029161134b565b600391500a90565b50600890565b5050600190565b50600090565b60095460018101908181116112a8576109e261139861139e936112ee565b916112ee565b620393879080820291820481036112a857640574fbde600290808204620186a014901517156112a8576729a2241af62c00009004619c40908181029181830414901517156112a85762012ebc900490565b61139e906109e2611398611406600954938461129b565b6112ee565b6000808080808560018060a01b03600c5460081c16620186a0f1903d156114bf573d9067ffffffffffffffff82116114ab5760405191611455601f8201601f19166020018461105b565b825260203d92013e5b156114745761146f90600d5461129b565b600d55565b60405162461bcd60e51b815260206004820152600f60248201526e151c985b9cd9995c8819985a5b1959608a1b6044820152606490fd5b634e487b7160e01b81526041600452602490fd5b5061145e565b60ff600c5416156115c4576114db600e5461140b565b6114e9600e546008546112be565b8060085560065481606060018060a01b036115098482600f5416306111cf565b600f541660c46040518094819363f305d71960e01b835230600484015287602484015260006044840152600060648401523060848401524260a48401525af180156115b85761158d575b507faf60794da385ef41a5f66c38529ba4f0581b8bca348871688b118d212b265881916060916040519182526020820152426040820152a1565b606090813d81116115b1575b6115a3818361105b565b810103126110405738611553565b503d611599565b6040513d6000823e3d90fd5b60405162461bcd60e51b815260206004820152600e60248201526d4375727665206e6f7420646f6e6560901b6044820152606490fd5b61139e906109e261139861161160095493846112be565b926112ee565b60008051602061180883398151915260206000926116378560025461129b565b6002556001600160a01b0316938415841461165e5780600254036002555b604051908152a3565b84845283825260408420818154019055611655565b9091906001600160a01b03811690816116bd57506000805160206118088339815191526020846116a86000959660025461129b565b6002555b8060025403600255604051908152a3565b926000828152806020526040812054948286106116fe57508181604060008051602061180883398151915294600097988760209652838652039120556116ac565b60405163391434e360e21b81526001600160a01b039190911660048201526024810186905260448101839052606490fd5b6001600160a01b03808216929091836117965750600080516020611808833981519152916020916117628660025461129b565b6002555b16938461177e578060025403600255604051908152a3565b84600052600082526040600020818154019055611655565b600090848252816020526040822054908682106117d5575091816040876020958860008051602061180883398151915298965283875203912055611766565b60405163391434e360e21b81526001600160a01b03919091166004820152602481019190915260448101869052606490fdfeddf252ad1be2c89b69c2b068fc378daa952ba7f163c4a11628f55a4df523b3efa2646970667358221220cd307c60c8dc87f7477fe110cbc5221d19c138a46dbc4a77b4bf66bdb2c5437064736f6c63430008140033ddf252ad1be2c89b69c2b068fc378daa952ba7f163c4a11628f55a4df523b3ef6040608081526200314b80380380620000188162000b2e565b92833981019060e08183031262000b295780516001600160401b03811162000b2957826200004891830162000b70565b602082015190926001600160401b03821162000b29576200006b91830162000b70565b9083810151906200007f6060820162000bcf565b936200008e6080830162000bcf565b60a083015160c09093015182519193916001600160401b03811162000a1e57600393845490600182811c9216801562000b1e575b602083101462000b085781601f84931162000ab0575b50602090601f831160011462000a405760009262000a34575b50508160011b9160001990861b1c19161783555b85516001600160401b03811162000a1e576004968754600181811c9116801562000a13575b6020821014620009fe579081601f849311620009a6575b50602090601f83116001146200093c5760009262000930575b50508160011b9160001990861b1c19161786555b6001600555633b9aca006006556aa56fa5b99019a5c8000000600755670214e8348c4f0000600d55600e55601580546001600160a01b03199081163317909155600b805482166001600160a01b03958616179055601380548216736682375ebc1df04676c0c5050934272368e6e8831790559130156200091957600a9260ff845460b01c16600014620008f9576200020562000f24565b620008c057620002153062000cac565b84630bebc200988960095516908454161796878455851597881562000244575b8951612131908162000ffa8239f35b600260055414620008b05760026005558698620002613362000f9e565b62000879576200084b5760ff8160a01c161590816200083b575b50156200080b578581018082116200079f57620002989062000c16565b916001905b60018111620007c95750816000190481116200079f57620002c19291029062000c08565b94620393878681028181048803620005b157640574fbde6080980291620186a091808404831490151715620007b4576729a2241af62c000080930496619c409a8b890298808a048d1490151715620005c65762012ebc809904966103e88089029089820414891517156200079f578590046200033e818a62000be4565b9060648202828104606414831517156200078a57612710900462000363818462000c08565b3481116200075057841015908162000739575b50156200070b5760008080808489600b541661c350f13d1562000705573d620003a9620003a38262000b54565b62000b2e565b908152600060203d92013e5b15620006d057620003c990600c5462000be4565b600c5560009181811115620006c757620003e4925062000c08565b995b82601554163314600014620006bf5782895416915b620004068362000d72565b50620004158960085462000be4565b600855620004268260095462000be4565b6009819055600654811062000699575050885460ff60a01b1916600160a01b17895560065460095462000465926200045e9162000c08565b9062000c08565b995b8015801562000662575b5050670de0b6b3a764000091828b02928b8404148b151715620005db5781169788156200064a575460b01c60ff16156200062957620004af62000f24565b620005f05790620004c09162000d28565b6002549860095460018101808211620005db57906200045e620004e7620004ee9362000c16565b9162000c16565b8083029283048103620005c65702918183041490151715620005b157048781029781890414901517156200059c575091817ecdd112a5bab661c199cefe1b6b407daede4238a9f24d764373bed654d7c22b93602093600052600f84528860002054895191825284820152857f23b8a9f7d1252cf262e22214b242cc92ed7ed7df9228726be4d037a26e0838948a3093a4865193845230950492a4600160055538808080808080808062000235565b601190634e487b7160e01b6000525260246000fd5b601183634e487b7160e01b6000525260246000fd5b601186634e487b7160e01b6000525260246000fd5b601187634e487b7160e01b6000525260246000fd5b8c5162461bcd60e51b81526020818801818152600b918101919091526a2737903a3930b739b332b960a91b604082015281906060010390fd5b6200063362000f24565b620005f05790620006449162000d28565b620004c0565b508c5163ec442f0560e01b8152600081880152602490fd5b6000808093819382906200068f575b87871690f1156200068457388062000471565b8c513d6000823e3d90fd5b506108fc62000671565b632cb41780919c9250106200046757885460ff60a81b1916600160a81b17895562000467565b3391620003fb565b505099620003e6565b8f5162461bcd60e51b81526020818b0152600f60248201526e151c985b9cd9995c8819985a5b1959608a1b6044820152606490fd5b620003b5565b8f5162461bcd60e51b81526020818b01526008602482015267536c69707061676560c01b6044820152606490fd5b6200074691508362000be4565b8311153862000376565b50508f5162461bcd60e51b81526020818b01526012602482015271496e73756666696369656e742066756e647360701b6044820152606490fd5b60118a634e487b7160e01b6000525260246000fd5b601188634e487b7160e01b6000525260246000fd5b601184634e487b7160e01b6000525260246000fd5b9180600019048111620007f65760018316620007ec575b80029160011c6200029d565b80910290620007e0565b601189634e487b7160e01b6000525260246000fd5b885162461bcd60e51b81526020818901526024810185905269437572766520646f6e6560b01b6044820152606490fd5b60ff915060b01c1615386200027b565b895162461bcd60e51b81526020818a015260086024820152670c08185b5bdd5b9d60c21b6044820152606490fd5b8a5162461bcd60e51b81526020818b0152601160248201527020b63932b0b23c902137bab3b43a1024b760791b6044820152606490fd5b8951633ee5aeb560e01b81528890fd5b885162461bcd60e51b81526020818901818152600b918101919091526a2737903a3930b739b332b960a91b604082015281906060010390fd5b6200090362000f24565b620008c057620009133062000cac565b62000215565b875163ec442f0560e01b8152600081880152602490fd5b0151905038806200015a565b60008a8152602081209350601f198516905b8181106200098d575090846001959493921062000974575b505050811b0186556200016e565b015160001983881b60f8161c1916905538808062000966565b929360206001819287860151815501950193016200094e565b909150886000526020600020601f840160051c81019160208510620009f3575b90601f859493920160051c01905b818110620009e3575062000141565b60008155849350600101620009d4565b9091508190620009c6565b602289634e487b7160e01b6000525260246000fd5b90607f16906200012a565b634e487b7160e01b600052604160045260246000fd5b015190503880620000f1565b9250856000526020600020906000935b601f198416851062000a94576001945083601f1981161062000a7b575b505050811b01835562000105565b015160001983881b60f8161c1916905538808062000a6d565b8181015183556020948501946001909301929091019062000a50565b909150856000526020600020601f840160051c8101916020851062000afd575b90601f859493920160051c01905b81811062000aed5750620000d8565b6000815584935060010162000ade565b909150819062000ad0565b634e487b7160e01b600052602260045260246000fd5b91607f1691620000c2565b600080fd5b6040519190601f01601f191682016001600160401b0381118382101762000a1e57604052565b6001600160401b03811162000a1e57601f01601f191660200190565b919080601f8401121562000b295782519062000b90620003a38362000b54565b9180835260209182828701011162000b295760005b81811062000bbb57508260009394955001015290565b858101830151848201840152820162000ba5565b51906001600160a01b038216820362000b2957565b9190820180921162000bf257565b634e487b7160e01b600052601160045260246000fd5b9190820391821162000bf257565b801562000ca657808060011462000c9f5760021462000c99576001908161013382101682600b8310161762000c9157906003815b80821162000c645750508160001904811162000bf2570290565b90928060001904811162000bf25781841662000c87575b800292811c9062000c4a565b8092029162000c7b565b600391500a90565b50600890565b5050600190565b50600090565b6002546aa56fa5b99019a5c80000009182820180921162000bf2576002919091556001600160a01b0316906000906000805160206200312b833981519152906020908462000d12576aa56fa5b99019a5c7ffffff19600254016002555b604051908152a3565b8484528382526040842081815401905562000d09565b6000805160206200312b833981519152602060009262000d4b8560025462000be4565b6002556001600160a01b0316938415841462000d12578060025403600255604051908152a3565b601254801515908162000f19575b5062000efc5760105480158062000ef1575b1562000dea575062000dab600e54806010554262000be4565b9060018060a01b03169081600052600f6020526040600020554260115562000dd6600e544262000be4565b601255600052600f60205260406000205490565b6011549062000dfa824262000c08565b90818181111562000edf5750506000905b81601055600954918083029280840482149015171562000bf2576006548060021b908082046004149015171562000bf257801562000ec95762000e60930460021c8181111562000eb757505060009262000be4565b62000e6c824262000be4565b1062000e995762000e7e904262000be4565b9060018060a01b0316600052600f6020528060406000205590565b506001600160a01b03166000908152600f6020526040812081905590565b62000ec29162000c08565b9262000be4565b634e487b7160e01b600052601260045260246000fd5b62000eea9162000c08565b9062000e0b565b506012541562000d92565b6001600160a01b03166000908152600f6020526040812081905590565b905042113862000d80565b601254801515908162000f92575b5062000f8d576000808052600f6020527ff4803e074bd026baaf6ed2e288c9515f68c72fb7216eebdd7cae1718a53ec37554801562000f89574281101562000f78575090565b62000f869150429062000c08565b90565b5090565b600090565b90504210153862000f32565b601254801515908162000fed575b5062000ca6576001600160a01b03166000908152600f6020526040902054801562000ca6574281101562000fe05750600090565b62000f8690429062000c08565b90504210153862000fac56fe608060408181526004918236101561001657600080fd5b600092833560e01c91826305202a6f146112515750816306fdde031461115c578163095ea7b3146111325781631694505e1461110957816318160ddd146110ea57816319bf01c0146110cb57816323b872dd14610fd7578163313ce56714610fbb57816333d06de914610f9c5781633ad10ef614610f7357816349bd5a5e14610f4a5781634af18f4f14610f2a578163513d266114610f0b578163571fe01614610eec57816361e40d6b14610ecd578163663eb9f114610e085781636d0ef93c14610de957816370a0823114610db257816372e25bb714610d8b57816373545ce214610d6c57816374767b1414610d4a5781638078e6b014610d2757816393329f8614610d0157816395d89b4114610bfe5781639c08c0a214610bda578163a4beda6314610ba2578163a4ce25a714610796578163a75d260914610755578163a8c6acda14610732578163a9059cbb14610701578163b1dfc95f146106e2578163b6a1b6a5146106b9578163bf58390314610695578163c7a0206114610676578163cbcff5fb1461064f578163d94e1d521461062b578163dbd8c0571461060c578163dd62ed3e146105c3578163de11c94a1461059a578163e43629531461057b578163eced552614610558578163ed9772b61461021e575063f446c1d0146101fe57600080fd5b3461021a578160031936011261021a5760209051620393878152f35b5080fd5b9190503461055457806003193601126105545781359161023c611644565b821590610249821561153a565b600a90610266825460ff8160a01c16159081610545575b50611571565b61026f85611bab565b926103e880850290858204148515171561053257620186a09004906102948286611600565b92834710610505573389528860205286892054670de0b6b3a764000092838a02938a85041417156104f257826102cb911015611849565b6102d960243585101561160d565b6102e283611784565b33156104db5733301480159081806104d3575b806104cb575b806104bc575b61048757865460b01c60ff161561043d57505061031d33611fca565b610420575087809361034661033e8395610338859633611c4a565b836115f3565b600854611600565b60085561035589600954611600565b600955818115610417575b3390f11561040d57632cb4178060095410806103ff575b6103ee575b50600254916103896116f3565b9181519081528360208201523390857fc3b2c4fcdf25a3a78c81bd9f335d8bab96fe7dd1288668b957ebdb1b70b4de39843093a4519283527ecdd112a5bab661c199cefe1b6b407daede4238a9f24d764373bed654d7c22b60203094a4600160055580f35b805460ff60a81b191690553861037c565b5060ff815460a81c16610377565b82513d86823e3d90fd5b506108fc610360565b865162461bcd60e51b8152908190610439908201611bc8565b0390fd5b90610480575b8015610478575b156104205761045833611fca565b610420575087809361034661033e8395610473859633611c4a565b610338565b50600161044a565b5088610443565b885162461bcd60e51b8152602081850152600f60248201526e4e6f207472616e73666572206e657760881b6044820152606490fd5b5060ff875460b01c1615610301565b5030156102fb565b5060016102f5565b8651634b637e8f60e11b8152908101899052602490fd5b634e487b7160e01b8a526011825260248afd5b606490602088519162461bcd60e51b83528201526007602482015266098deee408aa8960cb1b6044820152fd5b634e487b7160e01b885260118352602488fd5b60ff915060b01c161538610260565b8280fd5b50503461021a578160031936011261021a5760209051670de0b6b3a76400008152f35b50503461021a578160031936011261021a576020906010549051908152f35b50503461021a578160031936011261021a5760155490516001600160a01b039091168152602090f35b50503461021a578060031936011261021a57806020926105e16112be565b6105e96112d9565b6001600160a01b0391821683526001865283832091168252845220549051908152f35b50503461021a578160031936011261021a57602090600c549051908152f35b50503461021a578160031936011261021a5760209061064861201e565b9051908152f35b50503461021a578160031936011261021a5760209060ff600a5460b01c1690519015158152f35b50503461021a578160031936011261021a576020906008549051908152f35b50503461021a578160031936011261021a5760209061064860065460095490611600565b50503461021a578160031936011261021a57600b5490516001600160a01b039091168152602090f35b50503461021a578160031936011261021a5760209051630bebc2008152f35b50503461021a578060031936011261021a5760209061072b6107216112be565b6024359033611374565b5160018152f35b828434610752576020366003190112610752575061064860209235611bab565b80fd5b90503461055457602036600319011261055457359160165483101561075257506107806020926112ef565b905491519160018060a01b039160031b1c168152f35b919050606036600319011261055457813590604435906107b4611644565b826107be33611fca565b610b6b576107cd81151561153a565b600a936107e9855460ff8160a01c161590816105455750611571565b6107f282611768565b936103e8808602908682041486151715610b5857620186a0900461081681876115f3565b90612710610826602435846115aa565b046108318184611600565b348111610b20576108569291610851918610159081610b0c575b5061160d565b611784565b80821115610b035761086791611600565b955b6015546001600160a01b039389913390861603610afc5784885416935b61088f85611dde565b5061089c886008546115f3565b6008556108ab826009546115f3565b60098190556006548110610ad8575050875460ff60a01b1916600160a01b1788556006546009546108e5926108df91611600565b90611600565b975b8015908115610aa6575b505050670de0b6b3a764000092838802938885041488151715610a93578216958615610a7c5730158015918280610a75575b80610a6c575b80610a5d575b610a28575460b01c60ff16156109eb575050610949611f57565b6109d257509061095891611bee565b600254926109646116f3565b92818752600f6020528287205483519182526020820152857f23b8a9f7d1252cf262e22214b242cc92ed7ed7df9228726be4d037a26e083894843093a4519283527ecdd112a5bab661c199cefe1b6b407daede4238a9f24d764373bed654d7c22b60203094a4600160055580f35b835162461bcd60e51b8152908190610439908201611bc8565b90610a20575b8015610a19575b156109d257610a05611f57565b6109d2575090610a1491611bee565b610958565b50876109f8565b5060016109f1565b865162461bcd60e51b8152602081860152600f60248201526e4e6f207472616e73666572206e657760881b6044820152606490fd5b5060ff815460b01c161561092f565b50308914610929565b508a610923565b845163ec442f0560e01b81528083018a9052602490fd5b634e487b7160e01b895260118252602489fd5b8280929181928290610acf575b88881690f115610ac5578738806108f1565b83513d89823e3d90fd5b506108fc610ab3565b632cb41780919a9250106108e757875460ff60a81b1916600160a81b1788556108e7565b3393610886565b50508695610869565b610b179150856115f3565b8511153861084b565b875162461bcd60e51b81526020818d01526012602482015271496e73756666696369656e742066756e647360701b6044820152606490fd5b634e487b7160e01b895260118852602489fd5b815162461bcd60e51b8152602081870152601160248201527020b63932b0b23c902137bab3b43a1024b760791b6044820152606490fd5b50503461021a57602036600319011261021a5760209181906001600160a01b03610bca6112be565b168152600f845220549051908152f35b838060031936011261075257610bee611644565b610bf66118c4565b600160055580f35b83833461021a578160031936011261021a57805191809380549160019083821c92828516948515610cf7575b6020958686108114610ce457858952908115610cc05750600114610c68575b610c648787610c5a828c038361133c565b5191829182611275565b0390f35b81529295507f8a35acfbc15ff81a39ae7d344fd709f28e8600b4aa8c65c6b64bfe7fe36bd19b5b828410610cad5750505082610c6494610c5a92820101948680610c49565b8054868501880152928601928101610c8f565b60ff19168887015250505050151560051b8301019250610c5a82610c648680610c49565b634e487b7160e01b845260228352602484fd5b93607f1693610c2a565b50503461021a57602036600319011261021a57602090610648610d226112be565b611fca565b50503461021a578160031936011261021a5760209051673782dace9d9000008152f35b50503461021a578160031936011261021a57602090516611c37937e080008152f35b50503461021a578160031936011261021a576020906012549051908152f35b50503461021a578160031936011261021a5760209060ff600a5460a81c1690519015158152f35b50503461021a57602036600319011261021a5760209181906001600160a01b03610dda6112be565b16815280845220549051908152f35b50503461021a578160031936011261021a576020906009549051908152f35b8284346107525780600319360112610752579080519182906016549182855260208095018093601684527fd833147d7dc355ba459fc788f669e58cfaf9dc25ddcd0702e87d69c7b512428990845b818110610eb05750505081610e6c91038261133c565b83519485948186019282875251809352850193925b828110610e9057505050500390f35b83516001600160a01b031685528695509381019392810192600101610e81565b82546001600160a01b031684529288019260019283019201610e56565b50503461021a578160031936011261021a57602090600e549051908152f35b50503461021a578160031936011261021a576020906006549051908152f35b50503461021a578160031936011261021a5760209051632cb417808152f35b828434610752576020366003190112610752575061064860209235611768565b50503461021a578160031936011261021a5760145490516001600160a01b039091168152602090f35b50503461021a578160031936011261021a57600a5490516001600160a01b039091168152602090f35b50503461021a578160031936011261021a57602090600d549051908152f35b50503461021a578160031936011261021a576020905160128152f35b9050823461075257606036600319011261075257610ff36112be565b610ffb6112d9565b916044359360018060a01b038316808352600160205286832033845260205286832054916000198303611037575b60208861072b898989611374565b86831061109f5781156110885733156110715750825260016020908152868320338452815291869020908590039055829061072b87611029565b8751634a1406b160e11b8152908101849052602490fd5b875163e602df0560e01b8152908101849052602490fd5b8751637dc7a0d960e11b8152339181019182526020820193909352604081018790528291506060010390fd5b50503461021a578160031936011261021a576020906011549051908152f35b50503461021a578160031936011261021a576020906002549051908152f35b50503461021a578160031936011261021a5760135490516001600160a01b039091168152602090f35b50503461021a578060031936011261021a5760209061072b6111526112be565b60243590336114a7565b91905034610554578260031936011261055457805191836003549060019082821c928281168015611247575b6020958686108214611234575084885290811561121257506001146111b9575b610c648686610c5a828b038361133c565b929550600383527fc2575a0e9e593c00f959f8c92f12db2869c3395a3b0502d05e2516446f71f85b5b8284106111ff5750505082610c6494610c5a9282010194386111a8565b80548685018801529286019281016111e2565b60ff191687860152505050151560051b8301019250610c5a82610c64386111a8565b634e487b7160e01b845260229052602483fd5b93607f1693611188565b84903461021a578160031936011261021a5760209060ff600a5460a01c1615158152f35b6020808252825181830181905290939260005b8281106112aa57505060409293506000838284010152601f8019910116010190565b818101860151848201604001528501611288565b600435906001600160a01b03821682036112d457565b600080fd5b602435906001600160a01b03821682036112d457565b6016548110156113265760166000527fd833147d7dc355ba459fc788f669e58cfaf9dc25ddcd0702e87d69c7b51242890190600090565b634e487b7160e01b600052603260045260246000fd5b90601f8019910116810190811067ffffffffffffffff82111761135e57604052565b634e487b7160e01b600052604160045260246000fd5b91906001600160a01b0380841690811561148e57821690811561147557301480158092819361146c575b81611462575b5080611452575b61141b57600a5460b01c60ff16156113f05750506113c883611fca565b6113d7576113d592611d06565b565b60405162461bcd60e51b81528061043960048201611bc8565b90611413575b801561140b575b156113d7576113c883611fca565b5060006113fd565b5060006113f6565b60405162461bcd60e51b815260206004820152600f60248201526e4e6f207472616e73666572206e657760881b6044820152606490fd5b5060ff600a5460b01c16156113ab565b90503014386113a4565b6001915061139e565b60405163ec442f0560e01b815260006004820152602490fd5b604051634b637e8f60e11b815260006004820152602490fd5b6001600160a01b0390811691821561152157169182156115085760207f8c5be1e5ebec7d5bd14f71427d1e84f3dd0314c0f7b2291e5b200ac8c7c3b925918360005260018252604060002085600052825280604060002055604051908152a3565b604051634a1406b160e11b815260006004820152602490fd5b60405163e602df0560e01b815260006004820152602490fd5b1561154157565b60405162461bcd60e51b81526020600482015260086024820152670c08185b5bdd5b9d60c21b6044820152606490fd5b1561157857565b60405162461bcd60e51b815260206004820152600a602482015269437572766520646f6e6560b01b6044820152606490fd5b818102929181159184041417156115bd57565b634e487b7160e01b600052601160045260246000fd5b81156115dd570490565b634e487b7160e01b600052601260045260246000fd5b919082018092116115bd57565b919082039182116115bd57565b1561161457565b60405162461bcd60e51b8152602060048201526008602482015267536c69707061676560c01b6044820152606490fd5b600260055414611655576002600555565b604051633ee5aeb560e01b8152600490fd5b80156116ed5780806001146116e6576002146116e0576001908161013382101682600b831016176116d857906003815b8082116116af575050816000190481116115bd570290565b9092806000190481116115bd578184166116cf575b800292811c90611697565b809202916116c4565b600391500a90565b50600890565b5050600190565b50600090565b60095460018101908181116115bd576108df61171161171793611667565b91611667565b620393879080820291820481036115bd57640574fbde600290808204620186a014901517156115bd576729a2241af62c00009004619c40908181029181830414901517156115bd5762012ebc900490565b611717906108df61171161177f60095493846115f3565b611667565b6000808080808560018060a01b03600b541661c350f1903d15611834573d9067ffffffffffffffff821161182057604051916117ca601f8201601f19166020018461133c565b825260203d92013e5b156117e9576117e490600c546115f3565b600c55565b60405162461bcd60e51b815260206004820152600f60248201526e151c985b9cd9995c8819985a5b1959608a1b6044820152606490fd5b634e487b7160e01b81526041600452602490fd5b506117d3565b60001981146115bd5760010190565b1561185057565b60405162461bcd60e51b815260206004820152600a6024820152694c6f7720746f6b656e7360b01b6044820152606490fd5b6016546801000000000000000081101561135e578060016118a692016016556112ef565b819291549060031b9160018060a01b03809116831b921b1916179055565b600a5460ff8160a01c16908115611b9d575b5015611b6757601680548061191457505033600052600060205261190b69d3c21bcecceda10000006040600020541015611849565b6113d533611882565b60005b818110611b3357505033600052600060205261194469d3c21bcecceda10000006040600020541015611849565b61194d33611882565b60058154101561195a5750565b9060005b82548110156119b05760008080806611c37937e0800061197d866112ef565b905460039190911b1c6001600160a01b031682f1156119a45761199f9061183a565b61195e565b6040513d6000823e3d90fd5b509060005b81549081811015611a0c5781156119f6576119f191600019016119d7816112ef565b81549060018060a01b039060031b1b19169055835561183a565b6119b5565b634e487b7160e01b600052603160045260246000fd5b505050611a36611a2d611a24600d54600954906115aa565b600654906115d3565b80600d55611784565b611a44600d54600854611600565b8060085560075460018060a01b03611a61828260135416306114a7565b60135416606442018042116115bd57839160c4606092604051948593849263f305d71960e01b8452306004850152886024850152600060448501526000606485015230608485015260a48401525af180156119a457611b08575b507faf60794da385ef41a5f66c38529ba4f0581b8bca348871688b118d212b26588191606091600160b01b60ff60b01b19600a541617600a556040519182526020820152426040820152a1565b606090813d8111611b2c575b611b1e818361133c565b810103126112d45738611abb565b503d611b14565b611b3c816112ef565b905460039190911b1c6001600160a01b03163314611b6257611b5d9061183a565b611917565b505050565b60405162461bcd60e51b815260206004820152600e60248201526d4375727665206e6f7420646f6e6560901b6044820152606490fd5b60ff915060a81c16386118d6565b611717906108df611711611bc26009549384611600565b92611667565b60609060208152600b60208201526a2737903a3930b739b332b960a91b60408201520190565b6000805160206120dc8339815191526020600092611c0e856002546115f3565b6002556001600160a01b03169384158414611c355780600254036002555b604051908152a3565b84845283825260408420818154019055611c2c565b9091906001600160a01b0381169081611c9457506000805160206120dc833981519152602084611c7f600095966002546115f3565b6002555b8060025403600255604051908152a3565b92600082815280602052604081205494828610611cd55750818160406000805160206120dc8339815191529460009798876020965283865203912055611c83565b60405163391434e360e21b81526001600160a01b039190911660048201526024810186905260448101839052606490fd5b6001600160a01b0380821692909183611d6d57506000805160206120dc83398151915291602091611d39866002546115f3565b6002555b169384611d55578060025403600255604051908152a3565b84600052600082526040600020818154019055611c2c565b60009084825281602052604082205490868210611dac57509181604087602095886000805160206120dc83398151915298965283875203912055611d3d565b60405163391434e360e21b81526001600160a01b03919091166004820152602481019190915260448101869052606490fd5b6012548015159081611f4d575b50611f3057601054801580611f26575b15611e4e5750611e11600e5480601055426115f3565b9060018060a01b03169081600052600f60205260406000205542601155611e3a600e54426115f3565b601255600052600f60205260406000205490565b60115490611e5c8242611600565b908181811115611f175750506000905b81601055611e7c826009546115aa565b91600654928360021b93808504600414901517156115bd57611eb693611ea1916115d3565b60021c81811115611f085750506000926115f3565b611ec082426115f3565b10611eea57611ecf90426115f3565b9060018060a01b0316600052600f6020528060406000205590565b506001600160a01b03166000908152600f6020526040812081905590565b611f1191611600565b926115f3565b611f2091611600565b90611e6c565b5060125415611dfb565b6001600160a01b03166000908152600f6020526040812081905590565b9050421138611deb565b6012548015159081611fbf575b50611fba576000808052600f6020527ff4803e074bd026baaf6ed2e288c9515f68c72fb7216eebdd7cae1718a53ec375548015611fb65742811015611fa7575090565b611fb391504290611600565b90565b5090565b600090565b905042101538611f64565b6012548015159081612013575b506116ed576001600160a01b03166000908152600f602052604090205480156116ed57428110156120085750600090565b611fb3904290611600565b905042101538611fd7565b601254801590811590816120d1575b506116ed5760105460115491811590816120c9575b5015612056575050611fb3600e54426115f3565b6120608242611600565b9081818111156120ba5750506000905b61207c826009546115aa565b91600654928360021b93808504600414901517156115bd576120a193611ea1916115d3565b6120ab82426115f3565b106116ed57611fb390426115f3565b6120c391611600565b90612070565b905038612042565b905042113861202d56feddf252ad1be2c89b69c2b068fc378daa952ba7f163c4a11628f55a4df523b3efa2646970667358221220aa85be33077bc636e991350dc846c1d7868231e185afe7e5798e31c632b4820864736f6c63430008140033ddf252ad1be2c89b69c2b068fc378daa952ba7f163c4a11628f55a4df523b3ef608080604052620030cb80380380916200001a828562000dbd565b8339810160c082820312620009325781516001600160401b0381116200093257816200004891840162000dfd565b602083015190916001600160401b03821162000932576200006b91840162000dfd565b90604083015192620000806060820162000e67565b9160a0620000916080840162000e67565b92015181519094906001600160401b03811162000caa5760035492600184811c9416801562000db2575b602085101462000c89578190601f9485811162000d5b575b5060209085831160011462000ccc5760009262000cc0575b50508160011b916000199060031b1c1916176003555b8051916001600160401b03831162000caa5760045491600183811c9316801562000c9f575b602084101462000c8957828285941162000c2f575b50602091831160011462000ba45760009262000b98575b50508160011b916000199060031b1c1916176004555b6001600555633b9aca00600655673782dace9d9000006007556aa56fa5b99019a5c80000006008556103e8600e55620186a0600f55670214e8348c4f0000601055602080546001600160a01b03199081163317909155600a80549091166001600160a01b03929092169190911790553015620009c15760115460ff161562000b8757620001f5306200102e565b630bebc20060095560118054610100600160a81b03198116746682375ebc1df04676c0c5050934272368e6e8830017909155601e80546001600160a01b0319166001600160a01b0390931692909217909155826200025e575b604051611fb69081620010f58239f35b60026005541462000b7557600260055533600052601d60205260ff6040600020541662000b455760ff1662000b1357811562000ae35781630bebc2000180630bebc200116200063957620002b29062000eff565b600190630bebc20060035b6001811162000ab65750806000190483116200063957620002e092029062000eab565b8062039387029062039387820481036200063957640574fbde600290808204620186a0149015171562000639576729a2241af62c00009004619c40810290808204619c4014901517156200063957600e5462012ebc82048082029181159183041417156200063957600f54620003569162000e7c565b620003678162012ebc840462000e9d565b6064810281810460641482151715620006395761271090046200038b818362000eab565b851015908162000a9f575b501562000a6f57620003ae8262012ebc850462000e9d565b341062000a3757620003c08262000f95565b620003cc818562000eab565b600091901562000a2f57620003e391508462000eab565b925b602054336001600160a01b039091160362000a2757601e546001600160a01b0316935b80158015620009f4575b505060135460018101811162000639576001016013819055600090815260146020526040902080546001600160a01b0319166001600160a01b0386161790556200045d828262000eab565b601354600052601560205260406000205560018060a01b03841660005260186020526200049260406000206013549062000eb9565b6001600160a01b0384166000908152601960205260409020620004c290620004bb848462000eab565b9062000eb9565b620004ce828262000eab565b60018060a01b038516600052601b602052620004f1604060002091825462000e9d565b90556200050662012ebc8404600d5462000e9d565b600d55601354918260001981011162000639576200053b62000541926000198501600052601760205260406000205462000e9d565b62000eab565b9060005260176020526200055c604060002091825462000e9d565b90553360005260186020526040600020906040518083602082955493848152019060005260206000209260005b818110620009da575050620005a19250038362000dbd565b60005b82518110156200064f5760208160051b84010151600052601560205260406000205480612710810204612710148115171562000639576001600160a01b0385166000908152601b602052604090205462000626916200060891906127100262000e7c565b6001600160a01b0386166000908152601a6020526040902062000eb9565b60001981146200063957600101620005a4565b634e487b7160e01b600052601160045260246000fd5b5092905060018060a01b038216600052601c60205260406000206200067682825462000e9d565b9055620006868160095462000e9d565b600955670de0b6b3a76400008181810204810362000639576001600160a01b03831615620009c15760115460ff1615620009ad57620006c890820283620010aa565b6002549060095493600185018086116200063957620006eb620006fd9162000eff565b620006f68762000eff565b9062000eab565b8062039387029062039387820481036200063957640574fbde600290808204620186a0149015171562000639576729a2241af62c000090049384619c40810204619c401485151715620006395762012ebc6040519204825283602083015260018060a01b031690827f23b8a9f7d1252cf262e22214b242cc92ed7ed7df9228726be4d037a26e08389460403093a46040519081527ecdd112a5bab661c199cefe1b6b407daede4238a9f24d764373bed654d7c22b602062012ebc619c403096020492a460065411156200099a575b60ff6011541680620007e7575b5060016005553880806200024e565b156200096457620007fa60105462000f95565b6200080a601054600d5462000eab565b600d8190556008805460115490911c6001600160a01b031680156200094b57306000526001602052604060002081600052602052816040600020556040518281527f8c5be1e5ebec7d5bd14f71427d1e84f3dd0314c0f7b2291e5b200ac8c7c3b92560203092a381606060018060a01b0360115460081c1660c46040518094819363f305d71960e01b835230600484015287602484015260006044840152600060648401523060848401524260a48401525af180156200093f5762000909575b507faf60794da385ef41a5f66c38529ba4f0581b8bca348871688b118d212b265881916060916040519182526020820152426040820152a138620007d8565b606090813d831162000937575b62000922818362000dbd565b81010312620009325738620008ca565b600080fd5b503d62000916565b6040513d6000823e3d90fd5b604051634a1406b160e11b815260006004820152602490fd5b60405162461bcd60e51b815260206004820152600e60248201526d4375727665206e6f7420646f6e6560901b6044820152606490fd5b600160ff196011541617601155620007cb565b620009bb90820283620010aa565b620006c8565b60405163ec442f0560e01b815260006004820152602490fd5b845483526001948501948794506020909301920162000589565b60008080938193829062000a1d575b6001600160a01b038a1690f1156200093f57388062000412565b506108fc62000a03565b339362000408565b5092620003e5565b60405162461bcd60e51b815260206004820152601060248201526f092dce6eaccccd2c6d2cadce8408aa8960831b6044820152606490fd5b60405162461bcd60e51b8152602060048201526008602482015267536c69707061676560c01b6044820152606490fd5b62000aac91508262000e9d565b8411153862000396565b908060001904811162000639576001821662000ad9575b80029060011c620002bd565b8093029262000acd565b60405162461bcd60e51b81526020600482015260086024820152670c08185b5bdd5b9d60c21b6044820152606490fd5b60405162461bcd60e51b815260206004820152600a602482015269437572766520646f6e6560b01b6044820152606490fd5b60405162461bcd60e51b81526020600482015260086024820152671499599d5b99195960c21b6044820152606490fd5b604051633ee5aeb560e01b8152600490fd5b62000b92306200102e565b620001f5565b01519050388062000152565b600460009081527f8a35acfbc15ff81a39ae7d344fd709f28e8600b4aa8c65c6b64bfe7fe36bd19b9350601f198516905b81811062000c16575090846001959493921062000bfc575b505050811b0160045562000168565b015160001960f88460031b161c1916905538808062000bed565b9293602060018192878601518155019501930162000bd5565b90919250600460005260206000208380860160051c8201926020871062000c7f575b94869594939291940160051c01905b81811062000c6f57506200013b565b6000815585945060010162000c60565b9250819262000c51565b634e487b7160e01b600052602260045260246000fd5b92607f169262000126565b634e487b7160e01b600052604160045260246000fd5b015190503880620000eb565b6003600090815293507fc2575a0e9e593c00f959f8c92f12db2869c3395a3b0502d05e2516446f71f85b91905b601f198416851062000d3f576001945083601f1981161062000d25575b505050811b0160035562000101565b015160001960f88460031b161c1916905538808062000d16565b8181015183556020948501946001909301929091019062000cf9565b909150600360005260206000208580850160051c8201926020861062000da8575b9085949392910160051c01905b81811062000d985750620000d3565b6000815584935060010162000d89565b9250819262000d7c565b93607f1693620000bb565b601f909101601f19168101906001600160401b0382119082101762000caa57604052565b6001600160401b03811162000caa57601f01601f191660200190565b919080601f84011215620009325782519062000e198262000de1565b9162000e29604051938462000dbd565b808352602091828287010111620009325760005b81811062000e5357508260009394955001015290565b858101830151848201840152820162000e3d565b51906001600160a01b03821682036200093257565b811562000e87570490565b634e487b7160e01b600052601260045260246000fd5b919082018092116200063957565b919082039182116200063957565b8054906801000000000000000082101562000caa576001820180825582101562000ee95760005260206000200155565b634e487b7160e01b600052603260045260246000fd5b801562000f8f57808060011462000f885760021462000f82576001908161013382101682600b8310161762000f7a57906003815b80821162000f4d5750508160001904811162000639570290565b909280600019048111620006395781841662000f70575b800292811c9062000f33565b8092029162000f64565b600391500a90565b50600890565b5050600190565b50600090565b60008080808460018060a01b03600a541661c350f13d1562001028573d62000fbd8162000de1565b9062000fcd604051928362000dbd565b8152600060203d92013e5b1562000ff15762000fec90600b5462000e9d565b600b55565b60405162461bcd60e51b815260206004820152600f60248201526e151c985b9cd9995c8819985a5b1959608a1b6044820152606490fd5b62000fd8565b6002546aa56fa5b99019a5c80000009182820180921162000639576002919091556001600160a01b031690600090600080516020620030ab833981519152906020908462001094576aa56fa5b99019a5c7ffffff19600254016002555b604051908152a3565b848452838252604084208181540190556200108b565b600080516020620030ab8339815191526020600092620010cd8560025462000e9d565b6002556001600160a01b0316938415841462001094578060025403600255604051908152a356fe608080604052600436101561001357600080fd5b60003560e01c90816305202a6f146115b15750806306fdde03146114f3578063095ea7b3146114cd5780631694505e146114a057806318160ddd1461148257806323b872dd1461139057806329b4f75114611356578063313ce5671461133a57806333d06de91461131c5780633ad10ef6146112f357806349bd5a5e146112ca5780634af18f4f146112ac578063571fe0161461128e578063590e1ae314610e185780636ac4daf614610dce5780636d0ef93c14610db057806370a0823114610d765780638078e6b014610d5357806387b3686b14610d0957806395d89b4114610c04578063973566c214610bd357806399c4dd5b14610bac5780639c08c0a214610b965780639e835b0214610b785780639ff8a55c14610b4c578063a4ce25a7146105a5578063a9059cbb14610574578063a929eef114610556578063ad91be2614610517578063ae5213ce146104e3578063b1dfc95f146104c4578063b317435c146104a6578063b6a1b6a51461047d578063bdf8623914610425578063bf583903146103fb578063c7a02061146103dd578063c8ad5a39146103bf578063ca703075146103a1578063dbd8c05714610383578063dcbaf9b814610366578063dd62ed3e14610315578063de11c94a146102ee578063eced5526146102cb578063ee7a8317146102ad578063f36bdef614610281578063f446c1d0146102635763f66f8aa91461022457600080fd5b3461025e57602036600319011261025e576001600160a01b0361024561161a565b16600052601b6020526020604060002054604051908152f35b600080fd5b3461025e57600036600319011261025e576020604051620393878152f35b3461025e57602036600319011261025e5760043560005260176020526020604060002054604051908152f35b3461025e57600036600319011261025e576020600754604051908152f35b3461025e57600036600319011261025e576020604051670de0b6b3a76400008152f35b3461025e57600036600319011261025e57602080546040516001600160a01b039091168152f35b3461025e57604036600319011261025e5761032e61161a565b610336611630565b9060018060a01b038091166000526001602052604060002091166000526020526020604060002054604051908152f35b3461025e57600036600319011261025e5760206040516127108152f35b3461025e57600036600319011261025e576020600b54604051908152f35b3461025e57600036600319011261025e576020601354604051908152f35b3461025e57600036600319011261025e576020601f54604051908152f35b3461025e57600036600319011261025e576020600d54604051908152f35b3461025e57600036600319011261025e57602061041d60065460095490611831565b604051908152f35b3461025e57604036600319011261025e5761043e61161a565b6001600160a01b03166000908152601a602052604090208054602435919082101561025e5760209161046f91611646565b90546040519160031b1c8152f35b3461025e57600036600319011261025e57600a546040516001600160a01b039091168152602090f35b3461025e57600036600319011261025e576020600f54604051908152f35b3461025e57600036600319011261025e576020604051630bebc2008152f35b3461025e57602036600319011261025e576004356000526014602052602060018060a01b0360406000205416604051908152f35b3461025e57602036600319011261025e576001600160a01b0361053861161a565b16600052601d602052602060ff604060002054166040519015158152f35b3461025e57600036600319011261025e576020600c54604051908152f35b3461025e57604036600319011261025e5761059a61059061161a565b60243590336116ac565b602060405160018152f35b606036600319011261025e576105b9611878565b33600052601d6020526105d460ff6040600020541615611781565b6105e360ff60115416156117b8565b60043515610b1c576105f66004356119c5565b61060e610605600e54836117f1565b600f5490611804565b906106198282611824565b612710610628602435836117f1565b046106338183611831565b60443510159081610b06575b5015610ad65761064f8383611824565b3410610a9e5761065e836119e1565b61066a81604435611831565b15610a965761067b90604435611831565b6020546001600160a01b0393903390851603610a8f5783601e5416915b80158015610a5b575b50506013546001810180911161087e5780601355600052601460205260406000208483166bffffffffffffffffffffffff60a01b8254161790556106e781604435611831565b6013546000526015602052604060002055838216600052601860205261071460406000206013549061183e565b8382166000526019602052610739604060002061073383604435611831565b9061183e565b61074581604435611831565b848316600052601b6020526107606040600020918254611824565b905561076e83600d54611824565b600d55601354908160001981011161087e576107a790600019830160005260176020526107a2604435604060002054611824565b611831565b9060005260176020526107c06040600020918254611824565b905533600052601860205260406000206040518082602082945493848152019060005260206000209260005b818110610a4257505061080192500382611674565b60005b81518110156108945761081781836118aa565b5160005260156020526040600020549081612710810204612710148215171561087e5761087461085f61087993888716600052601b6020526127106040600020549102611804565b878616600052601a602052604060002061183e565b61189b565b610804565b634e487b7160e01b600052601160045260246000fd5b828585818316600052601c60205260406000206108b46004358254611824565b90556108c4600435600954611824565b600955670de0b6b3a764000080600435029060043582040361087e5782841615610a295760115460ff16156109ae576108fd9084611e2c565b6002549161090961194a565b93604051928352836020840152169030907f23b8a9f7d1252cf262e22214b242cc92ed7ed7df9228726be4d037a26e083894604060043592a46040519160043583527ecdd112a5bab661c199cefe1b6b407daede4238a9f24d764373bed654d7c22b60203094a4600954600654111561099c575b60ff6011541661098f575b6001600555005b610997611a97565b610988565b600160ff19601154161760115561097d565b30158015610a21575b156109cb576109c69084611e2c565b6108fd565b30838516148015610a19575b156109e6576109c69084611e2c565b60405162461bcd60e51b815260206004820152600b60248201526a2737903a3930b739b332b960a91b6044820152606490fd5b5060006109d7565b5060016109b7565b60405163ec442f0560e01b815260006004820152602490fd5b84548352600194850194869450602090930192016107ec565b600080809381938290610a86575b89881690f115610a7a5784806106a1565b6040513d6000823e3d90fd5b506108fc610a69565b3391610698565b50600061067b565b60405162461bcd60e51b815260206004820152601060248201526f092dce6eaccccd2c6d2cadce8408aa8960831b6044820152606490fd5b60405162461bcd60e51b8152602060048201526008602482015267536c69707061676560c01b6044820152606490fd5b610b11915082611824565b60443511158461063f565b60405162461bcd60e51b81526020600482015260086024820152670c08185b5bdd5b9d60c21b6044820152606490fd5b3461025e57602036600319011261025e5760043560005260156020526020604060002054604051908152f35b3461025e57600036600319011261025e576020600e54604051908152f35b600036600319011261025e57610baa611a97565b005b3461025e57600036600319011261025e576040610bc7611bc6565b82519182526020820152f35b3461025e57602036600319011261025e576004356000526016602052602060ff604060002054166040519015158152f35b3461025e57600036600319011261025e57604051600090600454600181811c90808316928315610cff575b6020938484108114610ce957838652908115610cc95750600114610c6e575b610c6a84610c5e81880382611674565b604051918291826115d1565b0390f35b600460009081529294507f8a35acfbc15ff81a39ae7d344fd709f28e8600b4aa8c65c6b64bfe7fe36bd19b5b828410610cb65750505081610c6a93610c5e9282010193610c4e565b8054858501870152928501928101610c9a565b60ff1916858501525050151560051b8201019150610c5e81610c6a610c4e565b634e487b7160e01b600052602260045260246000fd5b91607f1691610c2f565b3461025e57604036600319011261025e57610d2261161a565b6001600160a01b031660009081526019602052604090208054602435919082101561025e5760209161046f91611646565b3461025e57600036600319011261025e576020604051673782dace9d9000008152f35b3461025e57602036600319011261025e576001600160a01b03610d9761161a565b1660005260006020526020604060002054604051908152f35b3461025e57600036600319011261025e576020600954604051908152f35b3461025e57604036600319011261025e57610de761161a565b6001600160a01b031660009081526018602052604090208054602435919082101561025e5760209161046f91611646565b3461025e57600036600319011261025e57610e31611878565b336000526018602052604060002054156112605733600052601d602052610e6060ff6040600020541615611781565b610e6f60ff60115416156117b8565b610e77611bc6565b90336000526000602052604060002054610e918383611824565b1161122d5733600052601b602052604060002054908147106111fe57610ebc610605600e54846117f1565b90610ec6826119e1565b33156111e55760115460ff161561119f57610ee18133611d70565b610eec8430336116ac565b3360005260186020526040600020916040518084602082965493848152019060005260206000209260005b818110611186575050610f2c92500384611674565b60005b835181101561109b57610f4281856118aa565b51601354806000526017602052610f686040600020548360005260406000205490611831565b905b82811015610f9d575b505050610f989033600052601d6020526040600020600160ff1982541617905561189b565b610f2f565b60008181526014602052604090205489906001600160a01b031680610fc3575050610f73565b828503610fd1575050610f73565b90839133811490811561107e575b5015610ff75750505b801561087e5760001901610f6a565b6110799161105661271061104161105b9487600052601460205260018060a01b0360406000205416600052601a6020526110358b6040600020611646565b90549060031b1c6117f1565b048560005260156020526040600020546117f1565b611804565b6000838152601460205260409020546001600160a01b0316306116ac565b610fe8565b92505050600052601d602052818960ff604060002054168c610fdf565b5084846110c2670de0b6b3a7640000936110b9858504600654611831565b60065582611831565b92836000811561117d575b600080809381933390f115610a7a576110eb61110792600d54611831565b600d556110fa85600c54611824565b600c558404600954611831565b6009556002549161111661194a565b9160405191825260208201523390847f128ae0c4639a89c99f68205faaca05d6676db3d20d9019de94292e9088c9a58b60403093a46040519283527ecdd112a5bab661c199cefe1b6b407daede4238a9f24d764373bed654d7c22b60203094a46001600555005b506108fc6110cd565b8454835260019485019488945060209093019201610f17565b30331480156111dd575b156111bd576111b88133611d70565b610ee1565b301580156111d5575b156109e6576111b88133611d70565b5060016111c6565b5060006111a9565b604051634b637e8f60e11b815260006004820152602490fd5b60405162461bcd60e51b8152602060048201526007602482015266098deee408aa8960cb1b6044820152606490fd5b60405162461bcd60e51b815260206004820152600b60248201526a4c6f772062616c616e636560a81b6044820152606490fd5b60405162461bcd60e51b81526020600482015260066024820152654e6f2062757960d01b6044820152606490fd5b3461025e57600036600319011261025e576020600654604051908152f35b3461025e57602036600319011261025e57602061041d6004356119c5565b3461025e57600036600319011261025e576012546040516001600160a01b039091168152602090f35b3461025e57600036600319011261025e57601e546040516001600160a01b039091168152602090f35b3461025e57600036600319011261025e576020601054604051908152f35b3461025e57600036600319011261025e57602060405160128152f35b3461025e57602036600319011261025e576001600160a01b0361137761161a565b16600052601c6020526020604060002054604051908152f35b3461025e57606036600319011261025e576113a961161a565b6113b1611630565b6044359060018060a01b038316928360005260016020526040600020336000526020526040600020549360001985036113f0575b5061059a93506116ac565b83851061145c57801561144357331561142a5761059a948491600052600160205260406000203360005260205203604060002055846113e5565b604051634a1406b160e11b815260006004820152602490fd5b60405163e602df0560e01b815260006004820152602490fd5b604051637dc7a0d960e11b81523360048201526024810186905260448101859052606490fd5b3461025e57600036600319011261025e576020600254604051908152f35b3461025e57600036600319011261025e5760115460405160089190911c6001600160a01b03168152602090f35b3461025e57604036600319011261025e5761059a6114e961161a565b6024359033611720565b3461025e57600036600319011261025e57604051600090600354600181811c908083169283156115a7575b6020938484108114610ce957838652908115610cc9575060011461154c57610c6a84610c5e81880382611674565b600360009081529294507fc2575a0e9e593c00f959f8c92f12db2869c3395a3b0502d05e2516446f71f85b5b8284106115945750505081610c6a93610c5e9282010193610c4e565b8054858501870152928501928101611578565b91607f169161151e565b3461025e57600036600319011261025e5760209060ff6011541615158152f35b6020808252825181830181905290939260005b82811061160657505060409293506000838284010152601f8019910116010190565b8181018601518482016040015285016115e4565b600435906001600160a01b038216820361025e57565b602435906001600160a01b038216820361025e57565b805482101561165e5760005260206000200190600090565b634e487b7160e01b600052603260045260246000fd5b90601f8019910116810190811067ffffffffffffffff82111761169657604052565b634e487b7160e01b600052604160045260246000fd5b91906001600160a01b038084169081156111e5578216908115610a295760115460ff16156116e15750506116df92611e88565b565b30148015611718575b156116f957506116df92611e88565b30148015611710575b156109e6576116df92611e88565b506000611702565b5060006116ea565b6001600160a01b03908116918215611443571691821561142a5760207f8c5be1e5ebec7d5bd14f71427d1e84f3dd0314c0f7b2291e5b200ac8c7c3b925918360005260018252604060002085600052825280604060002055604051908152a3565b1561178857565b60405162461bcd60e51b81526020600482015260086024820152671499599d5b99195960c21b6044820152606490fd5b156117bf57565b60405162461bcd60e51b815260206004820152600a602482015269437572766520646f6e6560b01b6044820152606490fd5b8181029291811591840414171561087e57565b811561180e570490565b634e487b7160e01b600052601260045260246000fd5b9190820180921161087e57565b9190820391821161087e57565b8054680100000000000000008110156116965761186091600182018155611646565b819291549060031b91821b91600019901b1916179055565b600260055414611889576002600555565b604051633ee5aeb560e01b8152600490fd5b600019811461087e5760010190565b805182101561165e5760209160051b010190565b801561194457808060011461193d57600214611937576001908161013382101682600b8310161761192f57906003815b8082116119065750508160001904811161087e570290565b90928060001904811161087e57818416611926575b800292811c906118ee565b8092029161191b565b600391500a90565b50600890565b5050600190565b50600090565b600954600181019081811161087e5761196e611968611974936118be565b916118be565b90611831565b6203938790808202918204810361087e57640574fbde600290808204620186a0149015171561087e576729a2241af62c00009004619c409081810291818304149015171561087e5762012ebc900490565b6119749061196e6119686119dc6009549384611824565b6118be565b6000808080808560018060a01b03600a541661c350f1903d15611a91573d9067ffffffffffffffff8211611a7d5760405191611a27601f8201601f191660200184611674565b825260203d92013e5b15611a4657611a4190600b54611824565b600b55565b60405162461bcd60e51b815260206004820152600f60248201526e151c985b9cd9995c8819985a5b1959608a1b6044820152606490fd5b634e487b7160e01b81526041600452602490fd5b50611a30565b60ff6011541615611b9057611aad6010546119e1565b611abb601054600d54611831565b80600d5560085481606060018060a01b03611ade848260115460081c1630611720565b60115460081c1660c46040518094819363f305d71960e01b835230600484015287602484015260006044840152600060648401523060848401524260a48401525af18015610a7a57611b65575b507faf60794da385ef41a5f66c38529ba4f0581b8bca348871688b118d212b265881916060916040519182526020820152426040820152a1565b606090813d8111611b89575b611b7b8183611674565b8101031261025e5738611b2b565b503d611b71565b60405162461bcd60e51b815260206004820152600e60248201526d4375727665206e6f7420646f6e6560901b6044820152606490fd5b600090338252601c602052604082205460095492601b60205260408120549362012ebc90818602918683041486151715611d5c5762038c34860295600392808804841490151715611d485769313bd9aa5234b050000002670de0b6b3a764000096808204881490151715611d4857660354a6ba7a1800611c4a91046107a2836118be565b916001808401808511611d345782900493929190835b848610611cdd57505050611c749250611831565b91808311611cd5575b82611c8791611831565b84830292808404861490151715611cc157848102948186041490151715611cad57509190565b634e487b7160e01b81526011600452602490fd5b634e487b7160e01b82526011600452602482fd5b915081611c7d565b909192935084611cf6611cf082806117f1565b83611804565b906001600160ff1b0381168103611d20578491611d1591851b90611824565b049493929190611c60565b634e487b7160e01b88526011600452602488fd5b634e487b7160e01b86526011600452602486fd5b634e487b7160e01b84526011600452602484fd5b634e487b7160e01b83526011600452602483fd5b9091906001600160a01b0381169081611dba5750600080516020611f61833981519152602084611da560009596600254611824565b6002555b8060025403600255604051908152a3565b92600082815280602052604081205494828610611dfb575081816040600080516020611f618339815191529460009798876020965283865203912055611da9565b60405163391434e360e21b81526001600160a01b039190911660048201526024810186905260448101839052606490fd5b600080516020611f618339815191526020600092611e4c85600254611824565b6002556001600160a01b03169384158414611e735780600254036002555b604051908152a3565b84845283825260408420818154019055611e6a565b6001600160a01b0380821692909183611eef5750600080516020611f6183398151915291602091611ebb86600254611824565b6002555b169384611ed7578060025403600255604051908152a3565b84600052600082526040600020818154019055611e6a565b60009084825281602052604082205490868210611f2e5750918160408760209588600080516020611f6183398151915298965283875203912055611ebf565b60405163391434e360e21b81526001600160a01b03919091166004820152602481019190915260448101869052606490fdfeddf252ad1be2c89b69c2b068fc378daa952ba7f163c4a11628f55a4df523b3efa26469706673582212204b5e752926e364fc12fefc8e6545d55c01caf7d7b8a19f2a81ac0ce1a4cf6e7564736f6c63430008140033ddf252ad1be2c89b69c2b068fc378daa952ba7f163c4a11628f55a4df523b3efa2646970667358221220470416fefa12015560410345b5e39489d1eb5b5e8941c8849c993eae0e73f88664736f6c63430008140033","linkReferences":{}},"methodIdentifiers":{"createToken(string,string,bool,uint256,address,uint256,uint256,uint256)":"2b9ed873","createTokenRevenue()":"3b527dd6","revenueCollector()":"b6a1b6a5","tokenAddresses(uint256)":"e5df8b84"},"id":39}