{"abi":[{"type":"constructor","inputs":[{"name":"sprTokenAddress","type":"address","internalType":"address"}],"stateMutability":"nonpayable"},{"type":"function","name":"INITIAL_PRICE","inputs":[],"outputs":[{"name":"","type":"uint256","internalType":"uint256"}],"stateMutability":"view"},{"type":"function","name":"MAX_SUPPLY","inputs":[],"outputs":[{"name":"","type":"uint256","internalType":"uint256"}],"stateMutability":"view"},{"type":"function","name":"TOTAL_SPR_WEI","inputs":[],"outputs":[{"name":"","type":"uint256","internalType":"uint256"}],"stateMutability":"view"},{"type":"function","name":"allowance","inputs":[{"name":"owner","type":"address","internalType":"address"},{"name":"spender","type":"address","internalType":"address"}],"outputs":[{"name":"","type":"uint256","internalType":"uint256"}],"stateMutability":"view"},{"type":"function","name":"approve","inputs":[{"name":"spender","type":"address","internalType":"address"},{"name":"value","type":"uint256","internalType":"uint256"}],"outputs":[{"name":"","type":"bool","internalType":"bool"}],"stateMutability":"nonpayable"},{"type":"function","name":"balanceOf","inputs":[{"name":"account","type":"address","internalType":"address"}],"outputs":[{"name":"","type":"uint256","internalType":"uint256"}],"stateMutability":"view"},{"type":"function","name":"buyTokens","inputs":[{"name":"amount","type":"uint256","internalType":"uint256"}],"outputs":[],"stateMutability":"nonpayable"},{"type":"function","name":"calculateCost","inputs":[{"name":"amount","type":"uint256","internalType":"uint256"}],"outputs":[{"name":"","type":"uint256","internalType":"uint256"}],"stateMutability":"view"},{"type":"function","name":"cumulativeCost","inputs":[{"name":"s","type":"uint256","internalType":"uint256"}],"outputs":[{"name":"","type":"uint256","internalType":"uint256"}],"stateMutability":"pure"},{"type":"function","name":"decimals","inputs":[],"outputs":[{"name":"","type":"uint8","internalType":"uint8"}],"stateMutability":"view"},{"type":"function","name":"name","inputs":[],"outputs":[{"name":"","type":"string","internalType":"string"}],"stateMutability":"view"},{"type":"function","name":"scaledSupply","inputs":[],"outputs":[{"name":"","type":"uint256","internalType":"uint256"}],"stateMutability":"view"},{"type":"function","name":"spr","inputs":[],"outputs":[{"name":"","type":"address","internalType":"contract IERC20"}],"stateMutability":"view"},{"type":"function","name":"symbol","inputs":[],"outputs":[{"name":"","type":"string","internalType":"string"}],"stateMutability":"view"},{"type":"function","name":"totalSupply","inputs":[],"outputs":[{"name":"","type":"uint256","internalType":"uint256"}],"stateMutability":"view"},{"type":"function","name":"transfer","inputs":[{"name":"to","type":"address","internalType":"address"},{"name":"value","type":"uint256","internalType":"uint256"}],"outputs":[{"name":"","type":"bool","internalType":"bool"}],"stateMutability":"nonpayable"},{"type":"function","name":"transferFrom","inputs":[{"name":"from","type":"address","internalType":"address"},{"name":"to","type":"address","internalType":"address"},{"name":"value","type":"uint256","internalType":"uint256"}],"outputs":[{"name":"","type":"bool","internalType":"bool"}],"stateMutability":"nonpayable"},{"type":"event","name":"Approval","inputs":[{"name":"owner","type":"address","indexed":true,"internalType":"address"},{"name":"spender","type":"address","indexed":true,"internalType":"address"},{"name":"value","type":"uint256","indexed":false,"internalType":"uint256"}],"anonymous":false},{"type":"event","name":"TokensBought","inputs":[{"name":"buyer","type":"address","indexed":true,"internalType":"address"},{"name":"amount","type":"uint256","indexed":false,"internalType":"uint256"},{"name":"cost","type":"uint256","indexed":false,"internalType":"uint256"}],"anonymous":false},{"type":"event","name":"Transfer","inputs":[{"name":"from","type":"address","indexed":true,"internalType":"address"},{"name":"to","type":"address","indexed":true,"internalType":"address"},{"name":"value","type":"uint256","indexed":false,"internalType":"uint256"}],"anonymous":false},{"type":"error","name":"ERC20InsufficientAllowance","inputs":[{"name":"spender","type":"address","internalType":"address"},{"name":"allowance","type":"uint256","internalType":"uint256"},{"name":"needed","type":"uint256","internalType":"uint256"}]},{"type":"error","name":"ERC20InsufficientBalance","inputs":[{"name":"sender","type":"address","internalType":"address"},{"name":"balance","type":"uint256","internalType":"uint256"},{"name":"needed","type":"uint256","internalType":"uint256"}]},{"type":"error","name":"ERC20InvalidApprover","inputs":[{"name":"approver","type":"address","internalType":"address"}]},{"type":"error","name":"ERC20InvalidReceiver","inputs":[{"name":"receiver","type":"address","internalType":"address"}]},{"type":"error","name":"ERC20InvalidSender","inputs":[{"name":"sender","type":"address","internalType":"address"}]},{"type":"error","name":"ERC20InvalidSpender","inputs":[{"name":"spender","type":"address","internalType":"address"}]}],"bytecode":{"object":"0x60806040523480156200001157600080fd5b5060405162000e2a38038062000e2a8339810160408190526200003491620000c3565b6040518060400160405280601081526020016f29bab832b91026b2b6b2902a37b5b2b760811b8152506040518060400160405280600381526020016214d35560ea1b81525081600390816200008a91906200019a565b5060046200009982826200019a565b5050600680546001600160a01b0319166001600160a01b0393909316929092179091555062000266565b600060208284031215620000d657600080fd5b81516001600160a01b0381168114620000ee57600080fd5b9392505050565b634e487b7160e01b600052604160045260246000fd5b600181811c908216806200012057607f821691505b6020821081036200014157634e487b7160e01b600052602260045260246000fd5b50919050565b601f8211156200019557600081815260208120601f850160051c81016020861015620001705750805b601f850160051c820191505b8181101562000191578281556001016200017c565b5050505b505050565b81516001600160401b03811115620001b657620001b6620000f5565b620001ce81620001c784546200010b565b8462000147565b602080601f831160018114620002065760008415620001ed5750858301515b600019600386901b1c1916600185901b17855562000191565b600085815260208120601f198616915b82811015620002375788860151825594840194600190910190840162000216565b5085821015620002565787850151600019600388901b60f8161c191681555b5050505050600190811b01905550565b610bb480620002766000396000f3fe608060405234801561001057600080fd5b506004361061010b5760003560e01c80636713fc67116100a25780637c5e2795116100715780637c5e279514610228578063942d365b1461023057806395d89b4114610241578063a9059cbb14610249578063dd62ed3e1461025c57600080fd5b80636713fc67146101b857806368f41304146101e35780636d0ef93c146101f657806370a08231146101ff57600080fd5b8063313ce567116100de578063313ce5671461017657806332cb6b0c146101855780633610724e146101905780634af18f4f146101a557600080fd5b806306fdde0314610110578063095ea7b31461012e57806318160ddd1461015157806323b872dd14610163575b600080fd5b610118610295565b604051610125919061096f565b60405180910390f35b61014161013c3660046109d9565b610327565b6040519015158152602001610125565b6002545b604051908152602001610125565b610141610171366004610a03565b610341565b60405160128152602001610125565b610155633b9aca0081565b6101a361019e366004610a3f565b610365565b005b6101556101b3366004610a3f565b610522565b6006546101cb906001600160a01b031681565b6040516001600160a01b039091168152602001610125565b6101556101f1366004610a3f565b610574565b61015560055481565b61015561020d366004610a58565b6001600160a01b031660009081526020819052604090205490565b610155610604565b61015569d3c21bcecceda100000081565b61011861062a565b6101416102573660046109d9565b610639565b61015561026a366004610a7a565b6001600160a01b03918216600090815260016020908152604080832093909416825291909152205490565b6060600380546102a490610aad565b80601f01602080910402602001604051908101604052809291908181526020018280546102d090610aad565b801561031d5780601f106102f25761010080835404028352916020019161031d565b820191906000526020600020905b81548152906001019060200180831161030057829003601f168201915b5050505050905090565b600033610335818585610647565b60019150505b92915050565b60003361034f858285610659565b61035a8585856106d7565b506001949350505050565b600081116103af5760405162461bcd60e51b81526020600482015260126024820152710416d6f756e74206d757374206265203e20360741b60448201526064015b60405180910390fd5b60006103ba82610522565b9050600081116103ff5760405162461bcd60e51b815260206004820152601060248201526f0436f7374206d757374206265203e20360841b60448201526064016103a6565b6006546040516323b872dd60e01b8152336004820152306024820152604481018390526000916001600160a01b0316906323b872dd906064016020604051808303816000875af1158015610457573d6000803e3d6000fd5b505050506040513d601f19601f8201168201806040525081019061047b9190610ae7565b9050806104c05760405162461bcd60e51b815260206004820152601360248201527214d414881d1c985b9cd9995c8819985a5b1959606a1b60448201526064016103a6565b82600560008282546104d29190610b1f565b909155506104e290503384610736565b604080518481526020810184905233917f8442948036198f1146d3a63c3db355d7e0295c2cc5676c755990445da4fdc1c9910160405180910390a2505050565b600554600090816105338483610b1f565b9050600061054083610574565b61054983610574565b6105539190610b32565b9050600085118015610563575080155b1561056c575060015b949350505050565b60008082610587633b9aca006003610b45565b61059b9069d3c21bcecceda1000000610b5c565b6105a59190610b45565b90506000633b9aca0084806105bb836003610b45565b6105cf9069d3c21bcecceda1000000610b5c565b6105da906002610b45565b6105e49190610b45565b6105ee9190610b45565b6105f89190610b5c565b905061056c8183610b1f565b610613633b9aca006003610b45565b6106279069d3c21bcecceda1000000610b5c565b81565b6060600480546102a490610aad565b6000336103358185856106d7565b6106548383836001610770565b505050565b6001600160a01b0383811660009081526001602090815260408083209386168352929052205460001981146106d157818110156106c257604051637dc7a0d960e11b81526001600160a01b038416600482015260248101829052604481018390526064016103a6565b6106d184848484036000610770565b50505050565b6001600160a01b03831661070157604051634b637e8f60e11b8152600060048201526024016103a6565b6001600160a01b03821661072b5760405163ec442f0560e01b8152600060048201526024016103a6565b610654838383610845565b6001600160a01b0382166107605760405163ec442f0560e01b8152600060048201526024016103a6565b61076c60008383610845565b5050565b6001600160a01b03841661079a5760405163e602df0560e01b8152600060048201526024016103a6565b6001600160a01b0383166107c457604051634a1406b160e11b8152600060048201526024016103a6565b6001600160a01b03808516600090815260016020908152604080832093871683529290522082905580156106d157826001600160a01b0316846001600160a01b03167f8c5be1e5ebec7d5bd14f71427d1e84f3dd0314c0f7b2291e5b200ac8c7c3b9258460405161083791815260200190565b60405180910390a350505050565b6001600160a01b0383166108705780600260008282546108659190610b1f565b909155506108e29050565b6001600160a01b038316600090815260208190526040902054818110156108c35760405163391434e360e21b81526001600160a01b038516600482015260248101829052604481018390526064016103a6565b6001600160a01b03841660009081526020819052604090209082900390555b6001600160a01b0382166108fe5760028054829003905561091d565b6001600160a01b03821660009081526020819052604090208054820190555b816001600160a01b0316836001600160a01b03167fddf252ad1be2c89b69c2b068fc378daa952ba7f163c4a11628f55a4df523b3ef8360405161096291815260200190565b60405180910390a3505050565b600060208083528351808285015260005b8181101561099c57858101830151858201604001528201610980565b506000604082860101526040601f19601f8301168501019250505092915050565b80356001600160a01b03811681146109d457600080fd5b919050565b600080604083850312156109ec57600080fd5b6109f5836109bd565b946020939093013593505050565b600080600060608486031215610a1857600080fd5b610a21846109bd565b9250610a2f602085016109bd565b9150604084013590509250925092565b600060208284031215610a5157600080fd5b5035919050565b600060208284031215610a6a57600080fd5b610a73826109bd565b9392505050565b60008060408385031215610a8d57600080fd5b610a96836109bd565b9150610aa4602084016109bd565b90509250929050565b600181811c90821680610ac157607f821691505b602082108103610ae157634e487b7160e01b600052602260045260246000fd5b50919050565b600060208284031215610af957600080fd5b81518015158114610a7357600080fd5b634e487b7160e01b600052601160045260246000fd5b8082018082111561033b5761033b610b09565b8181038181111561033b5761033b610b09565b808202811582820484141761033b5761033b610b09565b600082610b7957634e487b7160e01b600052601260045260246000fd5b50049056fea26469706673582212202433049848170a3927218f82bbee8ace661a69be0f5252f99e2023eeb85f499564736f6c63430008140033","linkReferences":{}},"methodIdentifiers":{"INITIAL_PRICE()":"7c5e2795","MAX_SUPPLY()":"32cb6b0c","TOTAL_SPR_WEI()":"942d365b","allowance(address,address)":"dd62ed3e","approve(address,uint256)":"095ea7b3","balanceOf(address)":"70a08231","buyTokens(uint256)":"3610724e","calculateCost(uint256)":"4af18f4f","cumulativeCost(uint256)":"68f41304","decimals()":"313ce567","name()":"06fdde03","scaledSupply()":"6d0ef93c","spr()":"6713fc67","symbol()":"95d89b41","totalSupply()":"18160ddd","transfer(address,uint256)":"a9059cbb","transferFrom(address,address,uint256)":"23b872dd"},"id":28}