{"abi":[{"type":"constructor","inputs":[{"name":"sprTokenAddress","type":"address","internalType":"address"},{"name":"_totalSprWei","type":"uint256","internalType":"uint256"}],"stateMutability":"nonpayable"},{"type":"function","name":"MAX_SUPPLY","inputs":[],"outputs":[{"name":"","type":"uint256","internalType":"uint256"}],"stateMutability":"view"},{"type":"function","name":"allowance","inputs":[{"name":"owner","type":"address","internalType":"address"},{"name":"spender","type":"address","internalType":"address"}],"outputs":[{"name":"","type":"uint256","internalType":"uint256"}],"stateMutability":"view"},{"type":"function","name":"approve","inputs":[{"name":"spender","type":"address","internalType":"address"},{"name":"value","type":"uint256","internalType":"uint256"}],"outputs":[{"name":"","type":"bool","internalType":"bool"}],"stateMutability":"nonpayable"},{"type":"function","name":"balanceOf","inputs":[{"name":"account","type":"address","internalType":"address"}],"outputs":[{"name":"","type":"uint256","internalType":"uint256"}],"stateMutability":"view"},{"type":"function","name":"buyTokens","inputs":[{"name":"amount","type":"uint256","internalType":"uint256"}],"outputs":[],"stateMutability":"nonpayable"},{"type":"function","name":"calculateCost","inputs":[{"name":"amount","type":"uint256","internalType":"uint256"}],"outputs":[{"name":"","type":"uint256","internalType":"uint256"}],"stateMutability":"view"},{"type":"function","name":"calculateSellTokenAmount","inputs":[{"name":"amount","type":"uint256","internalType":"uint256"}],"outputs":[{"name":"sprReturn","type":"uint256","internalType":"uint256"}],"stateMutability":"view"},{"type":"function","name":"cumulativeCost","inputs":[{"name":"s","type":"uint256","internalType":"uint256"}],"outputs":[{"name":"","type":"uint256","internalType":"uint256"}],"stateMutability":"view"},{"type":"function","name":"decimals","inputs":[],"outputs":[{"name":"","type":"uint8","internalType":"uint8"}],"stateMutability":"view"},{"type":"function","name":"initialPrice","inputs":[],"outputs":[{"name":"","type":"uint256","internalType":"uint256"}],"stateMutability":"view"},{"type":"function","name":"name","inputs":[],"outputs":[{"name":"","type":"string","internalType":"string"}],"stateMutability":"view"},{"type":"function","name":"scaledSupply","inputs":[],"outputs":[{"name":"","type":"uint256","internalType":"uint256"}],"stateMutability":"view"},{"type":"function","name":"sellTokens","inputs":[{"name":"amount","type":"uint256","internalType":"uint256"}],"outputs":[],"stateMutability":"nonpayable"},{"type":"function","name":"spr","inputs":[],"outputs":[{"name":"","type":"address","internalType":"contract IERC20"}],"stateMutability":"view"},{"type":"function","name":"symbol","inputs":[],"outputs":[{"name":"","type":"string","internalType":"string"}],"stateMutability":"view"},{"type":"function","name":"totalSprWei","inputs":[],"outputs":[{"name":"","type":"uint256","internalType":"uint256"}],"stateMutability":"view"},{"type":"function","name":"totalSupply","inputs":[],"outputs":[{"name":"","type":"uint256","internalType":"uint256"}],"stateMutability":"view"},{"type":"function","name":"transfer","inputs":[{"name":"to","type":"address","internalType":"address"},{"name":"value","type":"uint256","internalType":"uint256"}],"outputs":[{"name":"","type":"bool","internalType":"bool"}],"stateMutability":"nonpayable"},{"type":"function","name":"transferFrom","inputs":[{"name":"from","type":"address","internalType":"address"},{"name":"to","type":"address","internalType":"address"},{"name":"value","type":"uint256","internalType":"uint256"}],"outputs":[{"name":"","type":"bool","internalType":"bool"}],"stateMutability":"nonpayable"},{"type":"event","name":"Approval","inputs":[{"name":"owner","type":"address","indexed":true,"internalType":"address"},{"name":"spender","type":"address","indexed":true,"internalType":"address"},{"name":"value","type":"uint256","indexed":false,"internalType":"uint256"}],"anonymous":false},{"type":"event","name":"TokensBought","inputs":[{"name":"buyer","type":"address","indexed":true,"internalType":"address"},{"name":"amount","type":"uint256","indexed":false,"internalType":"uint256"},{"name":"cost","type":"uint256","indexed":false,"internalType":"uint256"}],"anonymous":false},{"type":"event","name":"TokensSold","inputs":[{"name":"seller","type":"address","indexed":true,"internalType":"address"},{"name":"amount","type":"uint256","indexed":false,"internalType":"uint256"},{"name":"sprReturned","type":"uint256","indexed":false,"internalType":"uint256"}],"anonymous":false},{"type":"event","name":"Transfer","inputs":[{"name":"from","type":"address","indexed":true,"internalType":"address"},{"name":"to","type":"address","indexed":true,"internalType":"address"},{"name":"value","type":"uint256","indexed":false,"internalType":"uint256"}],"anonymous":false},{"type":"error","name":"ERC20InsufficientAllowance","inputs":[{"name":"spender","type":"address","internalType":"address"},{"name":"allowance","type":"uint256","internalType":"uint256"},{"name":"needed","type":"uint256","internalType":"uint256"}]},{"type":"error","name":"ERC20InsufficientBalance","inputs":[{"name":"sender","type":"address","internalType":"address"},{"name":"balance","type":"uint256","internalType":"uint256"},{"name":"needed","type":"uint256","internalType":"uint256"}]},{"type":"error","name":"ERC20InvalidApprover","inputs":[{"name":"approver","type":"address","internalType":"address"}]},{"type":"error","name":"ERC20InvalidReceiver","inputs":[{"name":"receiver","type":"address","internalType":"address"}]},{"type":"error","name":"ERC20InvalidSender","inputs":[{"name":"sender","type":"address","internalType":"address"}]},{"type":"error","name":"ERC20InvalidSpender","inputs":[{"name":"spender","type":"address","internalType":"address"}]}],"bytecode":{"object":"0x6080346200040357601f19906001600160401b0390601f90620014c3388190038381018616830191908583118484101762000307578084926040948552833981010312620004035780516001600160a01b03811694908590036200040357602080920151936200006e62000408565b93601085526f29bab832b91026b2b6b2902a37b5b2b760811b848601526200009562000408565b946003918287526214d35560ea1b868801528151848111620003075783546001938482811c92168015620003f8575b89831014620003e25781848493116200038c575b50889084831160011462000329576000926200031d575b505060001982861b1c191690831b1783555b8651938411620003075760049687548381811c91168015620002fc575b88821014620002e7578281116200029c575b508691851160011462000233578495509084929160009562000227575b50501b92600019911b1c19161782555b69a968163f0a57b40000008310158062000212575b15620001a957600583905563b2d05e008304600655600880546001600160a01b0319168517905560405161109a9081620004298239f35b60405162461bcd60e51b815291820152603b60248201527f546f74616c2053505220776569206d757374206265206265747765656e20383060448201527f306b20616e6420312e326d20746f6b656e732028696e20776569290000000000606482015260849150fd5b5069fe1c215e8f838e00000083111562000172565b0151935038806200014d565b9291948416928760005284876000209460005b898983831062000284575050501062000269575b50505050811b0182556200015d565b01519060f884600019921b161c19169055388080806200025a565b86860151895590970196948501948893500162000246565b88600052876000208380880160051c8201928a8910620002dd575b0160051c019084905b828110620002d057505062000130565b60008155018490620002c0565b92508192620002b7565b602289634e487b7160e01b6000525260246000fd5b90607f16906200011e565b634e487b7160e01b600052604160045260246000fd5b015190503880620000ef565b908886941691876000528a6000209260005b8c8282106200037557505084116200035c575b505050811b01835562000101565b015160001983881b60f8161c191690553880806200034e565b83850151865589979095019493840193016200033b565b90915085600052886000208480850160051c8201928b8610620003d8575b918791869594930160051c01915b828110620003c8575050620000d8565b60008155859450879101620003b8565b92508192620003aa565b634e487b7160e01b600052602260045260246000fd5b91607f1691620000c4565b600080fd5b60408051919082016001600160401b03811183821017620003075760405256fe608060408181526004918236101561001657600080fd5b600092833560e01c91826306fdde03146108ce57508163095ea7b31461082457816318160ddd146108055781631d0806ae146107e657816323b872dd146106f2578163313ce567146106d657816332cb6b0c146106b75781633610724e1461053e5781634af18f4f1461051e5781636713fc67146104f557816368f41304146104d55781636c11bcd3146103125781636d0ef93c146102f357816370a08231146102bc57816395d89b41146101b957816399d12c711461018f57508063a9059cbb1461015f578063dd62ed3e146101175763f1ddf37a146100f657600080fd5b346101135781600319360112610113576020906005549051908152f35b5080fd5b503461011357806003193601126101135780602092610134610a08565b61013c610a23565b6001600160a01b0391821683526001865283832091168252845220549051908152f35b503461011357806003193601126101135760209061018861017e610a08565b6024359033610a71565b5160018152f35b8284346101b65760203660031901126101b657506101af60209235610c5f565b9051908152f35b80fd5b838334610113578160031936011261011357805191809380549160019083821c928285169485156102b2575b602095868610811461029f5785895290811561027b5750600114610223575b61021f8787610215828c0383610a39565b51918291826109bf565b0390f35b81529295507f8a35acfbc15ff81a39ae7d344fd709f28e8600b4aa8c65c6b64bfe7fe36bd19b5b828410610268575050508261021f9461021592820101948680610204565b805486850188015292860192810161024a565b60ff19168887015250505050151560051b83010192506102158261021f8680610204565b634e487b7160e01b845260228352602484fd5b93607f16936101e5565b5050346101135760203660031901126101135760209181906001600160a01b036102e4610a08565b16815280845220549051908152f35b5050346101135781600319360112610113576020906007549051908152f35b83833461011357602090816003193601126104d157833591610335831515610bc4565b33845283815282828520541061048f5782600754106104435761035783610c5f565b90331561042c5780859661036b8633610ccb565b61037786600754610b44565b600755600854855163a9059cbb60e01b81523392810192909252602482018590529096879160449183916001600160a01b03165af1948515610422577f2dcf9433d75db0d8b1c172641f85e319ffe4ad22e108a95d1847ceb906e5195d94956103e79188916103f5575b50610c1d565b82519485528401523392a280f35b6104159150833d851161041b575b61040d8183610a39565b810190610c05565b886103e1565b503d610403565b83513d88823e3d90fd5b8251634b637e8f60e11b8152808701869052602490fd5b8490608492519162461bcd60e51b8352820152602160248201527f43616e6e6f742073656c6c206d6f726520746f6b656e73207468616e20736f6c6044820152601960fa1b6064820152fd5b8490606492519162461bcd60e51b8352820152601f60248201527f496e73756666696369656e7420534d5420746f6b656e7320746f2073656c6c006044820152fd5b8280fd5b8284346101b65760203660031901126101b657506101af60209235610afd565b50503461011357816003193601126101135760085490516001600160a01b039091168152602090f35b8284346101b65760203660031901126101b657506101af60209235610b51565b919050346104d157602091826003193601126106b357803592610562841515610bc4565b61056b84610b51565b91821561067f5760085484516323b872dd60e01b8152338382015230602482015260448101859052908390829060649082908b906001600160a01b03165af190811561067557906105c29188916106585750610c1d565b6105ce85600754610af0565b60075533156106415750907f8442948036198f1146d3a63c3db355d7e0295c2cc5676c755990445da4fdc1c9929161060885600254610af0565b600255338652858152828620858154019055825185815286600080516020611045833981519152833393a382519485528401523392a280f35b835163ec442f0560e01b8152908101869052602490fd5b61066f9150843d861161041b5761040d8183610a39565b386103e1565b85513d89823e3d90fd5b60649184519162461bcd60e51b8352820152601060248201526f0436f7374206d757374206265203e20360841b6044820152fd5b8380fd5b50503461011357816003193601126101135760209051633b9aca008152f35b5050346101135781600319360112610113576020905160128152f35b905082346101b65760603660031901126101b65761070e610a08565b610716610a23565b916044359360018060a01b038316808352600160205286832033845260205286832054916000198303610752575b602088610188898989610a71565b8683106107ba5781156107a357331561078c5750825260016020908152868320338452815291869020908590039055829061018887610744565b8751634a1406b160e11b8152908101849052602490fd5b875163e602df0560e01b8152908101849052602490fd5b8751637dc7a0d960e11b8152339181019182526020820193909352604081018790528291506060010390fd5b5050346101135781600319360112610113576020906006549051908152f35b5050346101135781600319360112610113576020906002549051908152f35b9050346104d157816003193601126104d15761083e610a08565b6024359033156108b7576001600160a01b03169182156108a057508083602095338152600187528181208582528752205582519081527f8c5be1e5ebec7d5bd14f71427d1e84f3dd0314c0f7b2291e5b200ac8c7c3b925843392a35160018152f35b8351634a1406b160e11b8152908101859052602490fd5b835163e602df0560e01b8152808401869052602490fd5b929150346106b357836003193601126106b357600354600181811c91869082811680156109b5575b60209586861082146109a257508488529081156109805750600114610927575b61021f8686610215828b0383610a39565b929550600383527fc2575a0e9e593c00f959f8c92f12db2869c3395a3b0502d05e2516446f71f85b5b82841061096d575050508261021f94610215928201019438610916565b8054868501880152928601928101610950565b60ff191687860152505050151560051b83010192506102158261021f38610916565b634e487b7160e01b845260229052602483fd5b93607f16936108f6565b6020808252825181830181905290939260005b8281106109f457505060409293506000838284010152601f8019910116010190565b8181018601518482016040015285016109d2565b600435906001600160a01b0382168203610a1e57565b600080fd5b602435906001600160a01b0382168203610a1e57565b90601f8019910116810190811067ffffffffffffffff821117610a5b57604052565b634e487b7160e01b600052604160045260246000fd5b91906001600160a01b0380841615610aae57811615610a9557610a9392610dea565b565b60405163ec442f0560e01b815260006004820152602490fd5b604051634b637e8f60e11b815260006004820152602490fd5b81810292918115918404141715610ada57565b634e487b7160e01b600052601160045260246000fd5b91908201809211610ada57565b60065490610b0b8183610ac7565b906001600160ff1b0383168303610ada57610b3a81610b35633b9aca0093610b419660011b610ac7565b610ac7565b0490610af0565b90565b91908203918211610ada57565b610b78600754610b72610b6c610b678584610af0565b610afd565b91610afd565b90610b44565b90151580610bbc575b610b885790565b60405162461bcd60e51b815260206004820152600c60248201526b436f7374206973207a65726f60a01b6044820152606490fd5b508015610b81565b15610bcb57565b60405162461bcd60e51b81526020600482015260126024820152710416d6f756e74206d757374206265203e20360741b6044820152606490fd5b90816020910312610a1e57518015158103610a1e5790565b15610c2457565b60405162461bcd60e51b815260206004820152601360248201527214d414881d1c985b9cd9995c8819985a5b1959606a1b6044820152606490fd5b610c6a811515610bc4565b600754818110610c8d57610b72610b67610b4193610c8784610afd565b93610b44565b60405162461bcd60e51b8152602060048201526016602482015275139bdd08195b9bdd59da081d1bdad95b9cc81cdbdb1960521b6044820152606490fd5b906001600160a01b0380831680158015610de2575b610dd75730148015610dcf575b610dc557602060249160085416604051928380926370a0823160e01b82523060048301525afa908115610db957600091610d88575b5060055411610d3457610a9391610eaf565b60405162461bcd60e51b815260206004820152602660248201527f5472616e73666572732064697361626c656420756e74696c2073616c6520636f6044820152656d706c65746560d01b6064820152608490fd5b906020823d8211610db1575b81610da160209383610a39565b810103126101b657505138610d22565b3d9150610d94565b6040513d6000823e3d90fd5b50610a9391610eaf565b503015610ced565b5050610a9391610eaf565b506001610ce0565b91906001600160a01b0380841680158015610ea5575b610e9a5730148015610e8f575b610e8557602060249160085416604051928380926370a0823160e01b82523060048301525afa908115610db957600091610e54575b5060055411610d3457610a9392610f6b565b906020823d8211610e7d575b81610e6d60209383610a39565b810103126101b657505138610e42565b3d9150610e60565b50610a9392610f6b565b503081831614610e0d565b5050610a9392610f6b565b5081831615610e00565b9091906001600160a01b0381169081610ef95750600080516020611045833981519152602084610ee460009596600254610af0565b6002555b8060025403600255604051908152a3565b92600082815280602052604081205494828610610f3a5750818160406000805160206110458339815191529460009798876020965283865203912055610ee8565b60405163391434e360e21b81526001600160a01b039190911660048201526024810186905260448101839052606490fd5b6001600160a01b0380821692909183610fd3575060008051602061104583398151915291602091610f9e86600254610af0565b6002555b169384610fbb5780600254036002555b604051908152a3565b84600052600082526040600020818154019055610fb2565b60009084825281602052604082205490868210611012575091816040876020958860008051602061104583398151915298965283875203912055610fa2565b60405163391434e360e21b81526001600160a01b03919091166004820152602481019190915260448101869052606490fdfeddf252ad1be2c89b69c2b068fc378daa952ba7f163c4a11628f55a4df523b3efa2646970667358221220f1c49fcad2d18f5a093e109bfb121cf06271fd825b561b835eb241466c82207e64736f6c63430008140033","linkReferences":{}},"methodIdentifiers":{"MAX_SUPPLY()":"32cb6b0c","allowance(address,address)":"dd62ed3e","approve(address,uint256)":"095ea7b3","balanceOf(address)":"70a08231","buyTokens(uint256)":"3610724e","calculateCost(uint256)":"4af18f4f","calculateSellTokenAmount(uint256)":"99d12c71","cumulativeCost(uint256)":"68f41304","decimals()":"313ce567","initialPrice()":"1d0806ae","name()":"06fdde03","scaledSupply()":"6d0ef93c","sellTokens(uint256)":"6c11bcd3","spr()":"6713fc67","symbol()":"95d89b41","totalSprWei()":"f1ddf37a","totalSupply()":"18160ddd","transfer(address,uint256)":"a9059cbb","transferFrom(address,address,uint256)":"23b872dd"},"id":28}