{"abi":[{"type":"constructor","inputs":[{"name":"_totalSprWei","type":"uint256","internalType":"uint256"}],"stateMutability":"nonpayable"},{"type":"function","name":"LIQUIDITY_TOKEN_AMOUNT","inputs":[],"outputs":[{"name":"","type":"uint256","internalType":"uint256"}],"stateMutability":"view"},{"type":"function","name":"MAX_SUPPLY","inputs":[],"outputs":[{"name":"","type":"uint256","internalType":"uint256"}],"stateMutability":"view"},{"type":"function","name":"SPR_TOKEN_ADDRESS","inputs":[],"outputs":[{"name":"","type":"address","internalType":"address"}],"stateMutability":"view"},{"type":"function","name":"UNISWAP_V2_ROUTER_ADDRESS","inputs":[],"outputs":[{"name":"","type":"address","internalType":"address"}],"stateMutability":"view"},{"type":"function","name":"allowance","inputs":[{"name":"owner","type":"address","internalType":"address"},{"name":"spender","type":"address","internalType":"address"}],"outputs":[{"name":"","type":"uint256","internalType":"uint256"}],"stateMutability":"view"},{"type":"function","name":"approve","inputs":[{"name":"spender","type":"address","internalType":"address"},{"name":"value","type":"uint256","internalType":"uint256"}],"outputs":[{"name":"","type":"bool","internalType":"bool"}],"stateMutability":"nonpayable"},{"type":"function","name":"balanceOf","inputs":[{"name":"account","type":"address","internalType":"address"}],"outputs":[{"name":"","type":"uint256","internalType":"uint256"}],"stateMutability":"view"},{"type":"function","name":"buyTokens","inputs":[{"name":"amount","type":"uint256","internalType":"uint256"}],"outputs":[],"stateMutability":"nonpayable"},{"type":"function","name":"calculateCost","inputs":[{"name":"amount","type":"uint256","internalType":"uint256"}],"outputs":[{"name":"","type":"uint256","internalType":"uint256"}],"stateMutability":"view"},{"type":"function","name":"calculateSellTokenAmount","inputs":[{"name":"amount","type":"uint256","internalType":"uint256"}],"outputs":[{"name":"sprReturn","type":"uint256","internalType":"uint256"}],"stateMutability":"view"},{"type":"function","name":"cumulativeCost","inputs":[{"name":"s","type":"uint256","internalType":"uint256"}],"outputs":[{"name":"","type":"uint256","internalType":"uint256"}],"stateMutability":"view"},{"type":"function","name":"decimals","inputs":[],"outputs":[{"name":"","type":"uint8","internalType":"uint8"}],"stateMutability":"view"},{"type":"function","name":"initialPrice","inputs":[],"outputs":[{"name":"","type":"uint256","internalType":"uint256"}],"stateMutability":"view"},{"type":"function","name":"liquiditySent","inputs":[],"outputs":[{"name":"","type":"bool","internalType":"bool"}],"stateMutability":"view"},{"type":"function","name":"name","inputs":[],"outputs":[{"name":"","type":"string","internalType":"string"}],"stateMutability":"view"},{"type":"function","name":"scaledSupply","inputs":[],"outputs":[{"name":"","type":"uint256","internalType":"uint256"}],"stateMutability":"view"},{"type":"function","name":"sellTokens","inputs":[{"name":"amount","type":"uint256","internalType":"uint256"}],"outputs":[],"stateMutability":"nonpayable"},{"type":"function","name":"sendToDex","inputs":[],"outputs":[],"stateMutability":"nonpayable"},{"type":"function","name":"symbol","inputs":[],"outputs":[{"name":"","type":"string","internalType":"string"}],"stateMutability":"view"},{"type":"function","name":"totalSprWei","inputs":[],"outputs":[{"name":"","type":"uint256","internalType":"uint256"}],"stateMutability":"view"},{"type":"function","name":"totalSupply","inputs":[],"outputs":[{"name":"","type":"uint256","internalType":"uint256"}],"stateMutability":"view"},{"type":"function","name":"transfer","inputs":[{"name":"to","type":"address","internalType":"address"},{"name":"value","type":"uint256","internalType":"uint256"}],"outputs":[{"name":"","type":"bool","internalType":"bool"}],"stateMutability":"nonpayable"},{"type":"function","name":"transferFrom","inputs":[{"name":"from","type":"address","internalType":"address"},{"name":"to","type":"address","internalType":"address"},{"name":"value","type":"uint256","internalType":"uint256"}],"outputs":[{"name":"","type":"bool","internalType":"bool"}],"stateMutability":"nonpayable"},{"type":"function","name":"uniswapV2Router","inputs":[],"outputs":[{"name":"","type":"address","internalType":"contract IUniswapV2Router02"}],"stateMutability":"view"},{"type":"event","name":"Approval","inputs":[{"name":"owner","type":"address","indexed":true,"internalType":"address"},{"name":"spender","type":"address","indexed":true,"internalType":"address"},{"name":"value","type":"uint256","indexed":false,"internalType":"uint256"}],"anonymous":false},{"type":"event","name":"Price","inputs":[{"name":"price","type":"uint256","indexed":true,"internalType":"uint256"},{"name":"totalSupply","type":"uint256","indexed":true,"internalType":"uint256"},{"name":"tokenAddress","type":"address","indexed":true,"internalType":"address"},{"name":"amount","type":"uint256","indexed":false,"internalType":"uint256"}],"anonymous":false},{"type":"event","name":"SentToDex","inputs":[{"name":"sprAmout","type":"uint256","indexed":false,"internalType":"uint256"},{"name":"agentAmount","type":"uint256","indexed":false,"internalType":"uint256"},{"name":"timestamp","type":"uint256","indexed":false,"internalType":"uint256"}],"anonymous":false},{"type":"event","name":"Transfer","inputs":[{"name":"from","type":"address","indexed":true,"internalType":"address"},{"name":"to","type":"address","indexed":true,"internalType":"address"},{"name":"value","type":"uint256","indexed":false,"internalType":"uint256"}],"anonymous":false},{"type":"event","name":"tokensBought","inputs":[{"name":"amount","type":"uint256","indexed":true,"internalType":"uint256"},{"name":"cost","type":"uint256","indexed":false,"internalType":"uint256"},{"name":"tokenAddress","type":"address","indexed":true,"internalType":"address"},{"name":"buyer","type":"address","indexed":true,"internalType":"address"},{"name":"totalSupply","type":"uint256","indexed":false,"internalType":"uint256"}],"anonymous":false},{"type":"event","name":"tokensSold","inputs":[{"name":"amount","type":"uint256","indexed":true,"internalType":"uint256"},{"name":"refund","type":"uint256","indexed":false,"internalType":"uint256"},{"name":"tokenAddress","type":"address","indexed":true,"internalType":"address"},{"name":"seller","type":"address","indexed":true,"internalType":"address"},{"name":"totalSupply","type":"uint256","indexed":false,"internalType":"uint256"}],"anonymous":false},{"type":"error","name":"ERC20InsufficientAllowance","inputs":[{"name":"spender","type":"address","internalType":"address"},{"name":"allowance","type":"uint256","internalType":"uint256"},{"name":"needed","type":"uint256","internalType":"uint256"}]},{"type":"error","name":"ERC20InsufficientBalance","inputs":[{"name":"sender","type":"address","internalType":"address"},{"name":"balance","type":"uint256","internalType":"uint256"},{"name":"needed","type":"uint256","internalType":"uint256"}]},{"type":"error","name":"ERC20InvalidApprover","inputs":[{"name":"approver","type":"address","internalType":"address"}]},{"type":"error","name":"ERC20InvalidReceiver","inputs":[{"name":"receiver","type":"address","internalType":"address"}]},{"type":"error","name":"ERC20InvalidSender","inputs":[{"name":"sender","type":"address","internalType":"address"}]},{"type":"error","name":"ERC20InvalidSpender","inputs":[{"name":"spender","type":"address","internalType":"address"}]}],"bytecode":{"object":"0x608034620003d6576001600160401b0390601f90601f1962001951388190038481018316840186811185821017620002da57849282916040528339602093849181010312620003d657519362000054620003db565b93601085526f29bab832b91026b2b6b2902a37b5b2b760811b848601526200007b620003db565b946003918287526214d35560ea1b868801528151848111620002da5783546001938482811c92168015620003cb575b89831014620003b55781848493116200035f575b508890848311600114620002fc57600092620002f0575b505060001982861b1c191690831b1783555b8651938411620002da5760049687548381811c91168015620002cf575b88821014620002ba578281116200026f575b5086918511600114620002065784955090849291600095620001fa575b50501b92600019911b1c19161782555b69a968163f0a57b400000083101580620001e5575b156200017c5763b2d05e008380600555046006556040516115559081620003fc8239f35b60405162461bcd60e51b815291820152603b60248201527f546f74616c2053505220776569206d757374206265206265747765656e20383060448201527f306b20616e6420312e326d20746f6b656e732028696e20776569290000000000606482015260849150fd5b5069fe1c215e8f838e00000083111562000158565b01519350388062000133565b9291948416928760005284876000209460005b89898383106200025757505050106200023c575b50505050811b01825562000143565b01519060f884600019921b161c19169055388080806200022d565b86860151895590970196948501948893500162000219565b88600052876000208380880160051c8201928a8910620002b0575b0160051c019084905b828110620002a357505062000116565b6000815501849062000293565b925081926200028a565b602289634e487b7160e01b6000525260246000fd5b90607f169062000104565b634e487b7160e01b600052604160045260246000fd5b015190503880620000d5565b908886941691876000528a6000209260005b8c8282106200034857505084116200032f575b505050811b018355620000e7565b015160001983881b60f8161c1916905538808062000321565b83850151865589979095019493840193016200030e565b90915085600052886000208480850160051c8201928b8610620003ab575b918791869594930160051c01915b8281106200039b575050620000be565b600081558594508791016200038b565b925081926200037d565b634e487b7160e01b600052602260045260246000fd5b91607f1691620000aa565b600080fd5b60408051919082016001600160401b03811183821017620002da5760405256fe608060408181526004918236101561001657600080fd5b600092833560e01c91826306fdde03146109e757508163095ea7b31461093d5781631694505e1461090e57816318160ddd146108ef5781631d0806ae146108d057816323b872dd146107dc578163313ce567146107c057816332cb6b0c146107a15781633610724e146106145781634af18f4f146105f457816368f41304146105d45781636c11bcd31461040b5781636d0ef93c146103ec57816370a08231146103b557816377fa93ea14610386578163867433d01461036257816395d89b411461025f57816399d12c7114610238575080639c08c0a214610219578063a2846323146101eb578063a9059cbb146101bb578063dd62ed3e14610173578063f1ddf37a146101555763fe6f76941461012d57600080fd5b34610151578160031936011261015157602090516aa56fa5b99019a5c80000008152f35b5080fd5b50346101515781600319360112610151576020906005549051908152f35b503461015157806003193601126101515780602092610190610b21565b610198610b3c565b6001600160a01b0391821683526001865283832091168252845220549051908152f35b50346101515780600319360112610151576020906101e46101da610b21565b6024359033610b8a565b5160018152f35b503461015157816003193601126101515760209051734752ba5dbc23f44d87826276bf6fd6b1c372ad248152f35b8234610235578060031936011261023557610232611178565b80f35b80fd5b828434610235576020366003190112610235575061025860209235610d78565b9051908152f35b838334610151578160031936011261015157805191809380549160019083821c92828516948515610358575b60209586861081146103455785895290811561032157506001146102c9575b6102c587876102bb828c0383610b52565b5191829182610ad8565b0390f35b81529295507f8a35acfbc15ff81a39ae7d344fd709f28e8600b4aa8c65c6b64bfe7fe36bd19b5b82841061030e57505050826102c5946102bb928201019486806102aa565b80548685018801529286019281016102f0565b60ff19168887015250505050151560051b83010192506102bb826102c586806102aa565b634e487b7160e01b845260228352602484fd5b93607f169361028b565b50503461015157816003193601126101515760209060ff6008541690519015158152f35b505034610151578160031936011261015157602090517377184100237e46b06cd7649abf37435f5d5e678b8152f35b5050346101515760203660031901126101515760209181906001600160a01b036103dd610b21565b16815280845220549051908152f35b5050346101515781600319360112610151576020906007549051908152f35b9050346105d0576020806003193601126105cc5781359061042d821515610cdd565b33855284815281848620541061058a57816007541061053e5761044f82610d78565b923315610527576104608333610de4565b61046c83600754610c5d565b60075584519063a9059cbb60e01b825233908201528360248201528181604481897377184100237e46b06cd7649abf37435f5d5e678b5af1801561051d576104bb9187916104f0575b50610d36565b6002549084519384528301527fc3b2c4fcdf25a3a78c81bd9f335d8bab96fe7dd1288668b957ebdb1b70b4de3933933093a480f35b6105109150833d8511610516575b6105088183610b52565b810190610d1e565b386104b5565b503d6104fe565b85513d88823e3d90fd5b8451634b637e8f60e11b8152908101869052602490fd5b9050608492519162461bcd60e51b8352820152602160248201527f43616e6e6f742073656c6c206d6f726520746f6b656e73207468616e20736f6c6044820152601960fa1b6064820152fd5b9050606492519162461bcd60e51b8352820152601f60248201527f496e73756666696369656e7420534d5420746f6b656e7320746f2073656c6c006044820152fd5b8380fd5b8280fd5b828434610235576020366003190112610235575061025860209235610c16565b828434610235576020366003190112610235575061025860209235610c6a565b9050346105d0576020806003193601126105cc57813590610636821515610cdd565b61063f82610c6a565b92831561076d5784516323b872dd60e01b815233828201523060248201526044810185905282816064818a7377184100237e46b06cd7649abf37435f5d5e678b5af180156107635761069791889161074c5750610d36565b6106a383600754610c09565b600755331561073557506106b982600254610c09565b600255338552848152838520828154019055835182815285600080516020611500833981519152833393a3633b9aca006007541015610728575b6002549084519384528301527f23b8a9f7d1252cf262e22214b242cc92ed7ed7df9228726be4d037a26e08389433933093a480f35b610730611178565b6106f3565b845163ec442f0560e01b8152908101869052602490fd5b6105109150843d8611610516576105088183610b52565b86513d89823e3d90fd5b60649185519162461bcd60e51b8352820152601060248201526f0436f7374206d757374206265203e20360841b6044820152fd5b50503461015157816003193601126101515760209051633b9aca008152f35b5050346101515781600319360112610151576020905160128152f35b90508234610235576060366003190112610235576107f8610b21565b610800610b3c565b916044359360018060a01b03831680835260016020528683203384526020528683205491600019830361083c575b6020886101e4898989610b8a565b8683106108a457811561088d573315610876575082526001602090815286832033845281529186902090859003905582906101e48761082e565b8751634a1406b160e11b8152908101849052602490fd5b875163e602df0560e01b8152908101849052602490fd5b8751637dc7a0d960e11b8152339181019182526020820193909352604081018790528291506060010390fd5b5050346101515781600319360112610151576020906006549051908152f35b5050346101515781600319360112610151576020906002549051908152f35b50503461015157816003193601126101515760209051734752ba5dbc23f44d87826276bf6fd6b1c372ad248152f35b9050346105d057816003193601126105d057610957610b21565b6024359033156109d0576001600160a01b03169182156109b957508083602095338152600187528181208582528752205582519081527f8c5be1e5ebec7d5bd14f71427d1e84f3dd0314c0f7b2291e5b200ac8c7c3b925843392a35160018152f35b8351634a1406b160e11b8152908101859052602490fd5b835163e602df0560e01b8152808401869052602490fd5b929150346105cc57836003193601126105cc57600354600181811c9186908281168015610ace575b6020958686108214610abb5750848852908115610a995750600114610a40575b6102c586866102bb828b0383610b52565b929550600383527fc2575a0e9e593c00f959f8c92f12db2869c3395a3b0502d05e2516446f71f85b5b828410610a8657505050826102c5946102bb928201019438610a2f565b8054868501880152928601928101610a69565b60ff191687860152505050151560051b83010192506102bb826102c538610a2f565b634e487b7160e01b845260229052602483fd5b93607f1693610a0f565b6020808252825181830181905290939260005b828110610b0d57505060409293506000838284010152601f8019910116010190565b818101860151848201604001528501610aeb565b600435906001600160a01b0382168203610b3757565b600080fd5b602435906001600160a01b0382168203610b3757565b90601f8019910116810190811067ffffffffffffffff821117610b7457604052565b634e487b7160e01b600052604160045260246000fd5b91906001600160a01b0380841615610bc757811615610bae57610bac92610f0e565b565b60405163ec442f0560e01b815260006004820152602490fd5b604051634b637e8f60e11b815260006004820152602490fd5b81810292918115918404141715610bf357565b634e487b7160e01b600052601160045260246000fd5b91908201809211610bf357565b60065490610c248183610be0565b906001600160ff1b0383168303610bf357610c5381610c4e633b9aca0093610c5a9660011b610be0565b610be0565b0490610c09565b90565b91908203918211610bf357565b610c91600754610c8b610c85610c808584610c09565b610c16565b91610c16565b90610c5d565b90151580610cd5575b610ca15790565b60405162461bcd60e51b815260206004820152600c60248201526b436f7374206973207a65726f60a01b6044820152606490fd5b508015610c9a565b15610ce457565b60405162461bcd60e51b81526020600482015260126024820152710416d6f756e74206d757374206265203e20360741b6044820152606490fd5b90816020910312610b3757518015158103610b375790565b15610d3d57565b60405162461bcd60e51b815260206004820152601360248201527214d414881d1c985b9cd9995c8819985a5b1959606a1b6044820152606490fd5b610d83811515610cdd565b600754818110610da657610c8b610c80610c5a93610da084610c16565b93610c5d565b60405162461bcd60e51b8152602060048201526016602482015275139bdd08195b9bdd59da081d1bdad95b9cc81cdbdb1960521b6044820152606490fd5b906001600160a01b03821680158015610f06575b610efc5730148015610ef4575b610eeb576040516370a0823160e01b81523060048201526020816024817377184100237e46b06cd7649abf37435f5d5e678b5afa908115610edf57600091610eae575b5060055411610e5a57610bac91610fe3565b60405162461bcd60e51b815260206004820152602660248201527f5472616e73666572732064697361626c656420756e74696c2073616c6520636f6044820152656d706c65746560d01b6064820152608490fd5b906020823d8211610ed7575b81610ec760209383610b52565b8101031261023557505138610e48565b3d9150610eba565b6040513d6000823e3d90fd5b610bac91610fe3565b503015610e05565b50610bac91610fe3565b506001610df8565b91906001600160a01b0380841680158015610fd9575b610fce573014908115610fc2575b50610fb9576040516370a0823160e01b81523060048201526020816024817377184100237e46b06cd7649abf37435f5d5e678b5afa908115610edf57600091610f88575b5060055411610e5a57610bac9261109f565b906020823d8211610fb1575b81610fa160209383610b52565b8101031261023557505138610f76565b3d9150610f94565b610bac9261109f565b82163014905038610f32565b5050610bac9261109f565b5081831615610f24565b9091906001600160a01b038116908161102d575060008051602061150083398151915260208461101860009596600254610c09565b6002555b8060025403600255604051908152a3565b9260008281528060205260408120549482861061106e575081816040600080516020611500833981519152946000979887602096528386520391205561101c565b60405163391434e360e21b81526001600160a01b039190911660048201526024810186905260448101839052606490fd5b6001600160a01b03808216929091836111075750600080516020611500833981519152916020916110d286600254610c09565b6002555b1693846110ef5780600254036002555b604051908152a3565b846000526000825260406000208181540190556110e6565b600090848252816020526040822054908682106111465750918160408760209588600080516020611500833981519152989652838752039120556110d6565b60405163391434e360e21b81526001600160a01b03919091166004820152602481019190915260448101869052606490fd5b60ff600854166114c157633b9aca0060075410611488573015610bae576002546aa56fa5b99019a5c800000090818101809111610bf357600255600090308252602090828252604091828420828154019055825182815284600080516020611500833981519152833093a38251936370a0823160e01b85526004308187015260247377184100237e46b06cd7649abf37435f5d5e678b9184888381865afa97881561147e57849861144f575b5087156114055730845260018552868420734752ba5dbc23f44d87826276bf6fd6b1c372ad2490818652865286888620558088518881527f8c5be1e5ebec7d5bd14f71427d1e84f3dd0314c0f7b2291e5b200ac8c7c3b925883092a3875163095ea7b360e01b815281838201528984820152868160448189895af19081156113fb5786916113de575b50156113a857610258420180421161139657918561010492606095948b51978896879562e8e33760e81b875230908701528501528a60448501526b031a17e847807b1bc000000060648501528260848501528260a48501523060c485015260e48401525af1801561138c57611361575b50506008805460ff19166001179055825193845283015242908201527faf60794da385ef41a5f66c38529ba4f0581b8bca348871688b118d212b26588190606090a1565b606090813d8111611385575b6113778183610b52565b81010312610235578061131d565b503d61136d565b85513d84823e3d90fd5b634e487b7160e01b8652601183528386fd5b5060126064928689519362461bcd60e51b85528401528201527114d41488185c1c1c9bdd994819985a5b195960721b6044820152fd5b6113f59150873d8911610516576105088183610b52565b386112ad565b89513d88823e3d90fd5b60216084928689519362461bcd60e51b85528401528201527f4e6f2053505220746f6b656e7320746f20616464206173206c697175696469746044820152607960f81b6064820152fd5b9097508481813d8311611477575b6114678183610b52565b810103126105cc57519638611224565b503d61145d565b87513d86823e3d90fd5b60405162461bcd60e51b815260206004820152601160248201527053616c65206e6f7420636f6d706c65746560781b6044820152606490fd5b60405162461bcd60e51b8152602060048201526016602482015275131a5c5d5a591a5d1e48185b1c9958591e481cd95b9d60521b6044820152606490fdfeddf252ad1be2c89b69c2b068fc378daa952ba7f163c4a11628f55a4df523b3efa264697066735822122043db953d3b8dae9f9210687cb025c4f207c208cc7ad11da26f1dc9fe984ae9a464736f6c63430008140033","linkReferences":{}},"methodIdentifiers":{"LIQUIDITY_TOKEN_AMOUNT()":"fe6f7694","MAX_SUPPLY()":"32cb6b0c","SPR_TOKEN_ADDRESS()":"77fa93ea","UNISWAP_V2_ROUTER_ADDRESS()":"a2846323","allowance(address,address)":"dd62ed3e","approve(address,uint256)":"095ea7b3","balanceOf(address)":"70a08231","buyTokens(uint256)":"3610724e","calculateCost(uint256)":"4af18f4f","calculateSellTokenAmount(uint256)":"99d12c71","cumulativeCost(uint256)":"68f41304","decimals()":"313ce567","initialPrice()":"1d0806ae","liquiditySent()":"867433d0","name()":"06fdde03","scaledSupply()":"6d0ef93c","sellTokens(uint256)":"6c11bcd3","sendToDex()":"9c08c0a2","symbol()":"95d89b41","totalSprWei()":"f1ddf37a","totalSupply()":"18160ddd","transfer(address,uint256)":"a9059cbb","transferFrom(address,address,uint256)":"23b872dd","uniswapV2Router()":"1694505e"},"id":28}