{"abi":[{"type":"constructor","inputs":[{"name":"_name","type":"string","internalType":"string"},{"name":"_symbol","type":"string","internalType":"string"},{"name":"_devLocked","type":"bool","internalType":"bool"},{"name":"_amount","type":"uint256","internalType":"uint256"},{"name":"_devAdress","type":"address","internalType":"address"},{"name":"_revenueCollector","type":"address","internalType":"address"},{"name":"_devLockDuration","type":"uint256","internalType":"uint256"},{"name":"_buyEth","type":"uint256","internalType":"uint256"}],"stateMutability":"payable"},{"type":"function","name":"A","inputs":[],"outputs":[{"name":"","type":"uint256","internalType":"uint256"}],"stateMutability":"view"},{"type":"function","name":"MAX_SALE_SUPPLY","inputs":[],"outputs":[{"name":"","type":"uint256","internalType":"uint256"}],"stateMutability":"view"},{"type":"function","name":"SCALE","inputs":[],"outputs":[{"name":"","type":"uint256","internalType":"uint256"}],"stateMutability":"view"},{"type":"function","name":"TOTAL_ETHER","inputs":[],"outputs":[{"name":"","type":"uint256","internalType":"uint256"}],"stateMutability":"view"},{"type":"function","name":"allowance","inputs":[{"name":"owner","type":"address","internalType":"address"},{"name":"spender","type":"address","internalType":"address"}],"outputs":[{"name":"","type":"uint256","internalType":"uint256"}],"stateMutability":"view"},{"type":"function","name":"approve","inputs":[{"name":"spender","type":"address","internalType":"address"},{"name":"value","type":"uint256","internalType":"uint256"}],"outputs":[{"name":"","type":"bool","internalType":"bool"}],"stateMutability":"nonpayable"},{"type":"function","name":"balanceOf","inputs":[{"name":"account","type":"address","internalType":"address"}],"outputs":[{"name":"","type":"uint256","internalType":"uint256"}],"stateMutability":"view"},{"type":"function","name":"bondingCurveCompleted","inputs":[],"outputs":[{"name":"","type":"bool","internalType":"bool"}],"stateMutability":"view"},{"type":"function","name":"buyTokens","inputs":[{"name":"_amount","type":"uint256","internalType":"uint256"},{"name":"_slippage","type":"uint256","internalType":"uint256"},{"name":"_buyEth","type":"uint256","internalType":"uint256"}],"outputs":[],"stateMutability":"payable"},{"type":"function","name":"calculateCost","inputs":[{"name":"amount","type":"uint256","internalType":"uint256"}],"outputs":[{"name":"","type":"uint256","internalType":"uint256"}],"stateMutability":"view"},{"type":"function","name":"calculateLockingDuration","inputs":[{"name":"_address","type":"address","internalType":"address"}],"outputs":[{"name":"","type":"uint256","internalType":"uint256"}],"stateMutability":"nonpayable"},{"type":"function","name":"calculateRefund","inputs":[{"name":"_amount","type":"uint256","internalType":"uint256"}],"outputs":[{"name":"","type":"uint256","internalType":"uint256"}],"stateMutability":"view"},{"type":"function","name":"decimals","inputs":[],"outputs":[{"name":"","type":"uint8","internalType":"uint8"}],"stateMutability":"view"},{"type":"function","name":"devAddress","inputs":[],"outputs":[{"name":"","type":"address","internalType":"address"}],"stateMutability":"view"},{"type":"function","name":"devLockTime","inputs":[],"outputs":[{"name":"","type":"uint256","internalType":"uint256"}],"stateMutability":"view"},{"type":"function","name":"devLocked","inputs":[],"outputs":[{"name":"","type":"bool","internalType":"bool"}],"stateMutability":"view"},{"type":"function","name":"factoryContract","inputs":[],"outputs":[{"name":"","type":"address","internalType":"address"}],"stateMutability":"view"},{"type":"function","name":"firstLockTime","inputs":[],"outputs":[{"name":"","type":"uint256","internalType":"uint256"}],"stateMutability":"view"},{"type":"function","name":"lockTime","inputs":[{"name":"","type":"address","internalType":"address"}],"outputs":[{"name":"","type":"uint256","internalType":"uint256"}],"stateMutability":"view"},{"type":"function","name":"name","inputs":[],"outputs":[{"name":"","type":"string","internalType":"string"}],"stateMutability":"view"},{"type":"function","name":"previousLockTime","inputs":[],"outputs":[{"name":"","type":"uint256","internalType":"uint256"}],"stateMutability":"view"},{"type":"function","name":"remainingTokens","inputs":[],"outputs":[{"name":"","type":"uint256","internalType":"uint256"}],"stateMutability":"view"},{"type":"function","name":"revenueCollector","inputs":[],"outputs":[{"name":"","type":"address","internalType":"address"}],"stateMutability":"view"},{"type":"function","name":"scaledLiquidityThreshold","inputs":[],"outputs":[{"name":"","type":"uint256","internalType":"uint256"}],"stateMutability":"view"},{"type":"function","name":"scaledSupply","inputs":[],"outputs":[{"name":"","type":"uint256","internalType":"uint256"}],"stateMutability":"view"},{"type":"function","name":"sellTokens","inputs":[{"name":"_amount","type":"uint256","internalType":"uint256"},{"name":"_minimumEthRequired","type":"uint256","internalType":"uint256"}],"outputs":[],"stateMutability":"nonpayable"},{"type":"function","name":"sendDexRevenue","inputs":[],"outputs":[{"name":"","type":"uint256","internalType":"uint256"}],"stateMutability":"view"},{"type":"function","name":"sendToDex","inputs":[],"outputs":[],"stateMutability":"payable"},{"type":"function","name":"setUniRouter","inputs":[{"name":"_uniswapV2Router","type":"address","internalType":"address"}],"outputs":[],"stateMutability":"nonpayable"},{"type":"function","name":"symbol","inputs":[],"outputs":[{"name":"","type":"string","internalType":"string"}],"stateMutability":"view"},{"type":"function","name":"tMax","inputs":[],"outputs":[{"name":"","type":"uint256","internalType":"uint256"}],"stateMutability":"view"},{"type":"function","name":"totalEtherCollected","inputs":[],"outputs":[{"name":"","type":"uint256","internalType":"uint256"}],"stateMutability":"view"},{"type":"function","name":"totalRevenueCollected","inputs":[],"outputs":[{"name":"","type":"uint256","internalType":"uint256"}],"stateMutability":"view"},{"type":"function","name":"totalSupply","inputs":[],"outputs":[{"name":"","type":"uint256","internalType":"uint256"}],"stateMutability":"view"},{"type":"function","name":"transfer","inputs":[{"name":"to","type":"address","internalType":"address"},{"name":"value","type":"uint256","internalType":"uint256"}],"outputs":[{"name":"","type":"bool","internalType":"bool"}],"stateMutability":"nonpayable"},{"type":"function","name":"transferFrom","inputs":[{"name":"from","type":"address","internalType":"address"},{"name":"to","type":"address","internalType":"address"},{"name":"value","type":"uint256","internalType":"uint256"}],"outputs":[{"name":"","type":"bool","internalType":"bool"}],"stateMutability":"nonpayable"},{"type":"function","name":"uniswapV2Pair","inputs":[],"outputs":[{"name":"","type":"address","internalType":"contract IUniswapV2Pair"}],"stateMutability":"view"},{"type":"function","name":"uniswapV2Router","inputs":[],"outputs":[{"name":"","type":"address","internalType":"contract IUniswapV2Router02"}],"stateMutability":"view"},{"type":"event","name":"Approval","inputs":[{"name":"owner","type":"address","indexed":true,"internalType":"address"},{"name":"spender","type":"address","indexed":true,"internalType":"address"},{"name":"value","type":"uint256","indexed":false,"internalType":"uint256"}],"anonymous":false},{"type":"event","name":"Price","inputs":[{"name":"price","type":"uint256","indexed":true,"internalType":"uint256"},{"name":"totalSupply","type":"uint256","indexed":true,"internalType":"uint256"},{"name":"tokenAddress","type":"address","indexed":true,"internalType":"address"},{"name":"amount","type":"uint256","indexed":false,"internalType":"uint256"}],"anonymous":false},{"type":"event","name":"SentToDex","inputs":[{"name":"ethAmount","type":"uint256","indexed":false,"internalType":"uint256"},{"name":"tokenAmount","type":"uint256","indexed":false,"internalType":"uint256"},{"name":"timestamp","type":"uint256","indexed":false,"internalType":"uint256"}],"anonymous":false},{"type":"event","name":"Transfer","inputs":[{"name":"from","type":"address","indexed":true,"internalType":"address"},{"name":"to","type":"address","indexed":true,"internalType":"address"},{"name":"value","type":"uint256","indexed":false,"internalType":"uint256"}],"anonymous":false},{"type":"event","name":"tokensBought","inputs":[{"name":"amount","type":"uint256","indexed":true,"internalType":"uint256"},{"name":"cost","type":"uint256","indexed":false,"internalType":"uint256"},{"name":"tokenAddress","type":"address","indexed":true,"internalType":"address"},{"name":"buyer","type":"address","indexed":true,"internalType":"address"},{"name":"totalSupply","type":"uint256","indexed":false,"internalType":"uint256"}],"anonymous":false},{"type":"event","name":"tokensSold","inputs":[{"name":"amount","type":"uint256","indexed":true,"internalType":"uint256"},{"name":"refund","type":"uint256","indexed":false,"internalType":"uint256"},{"name":"tokenAddress","type":"address","indexed":true,"internalType":"address"},{"name":"seller","type":"address","indexed":true,"internalType":"address"},{"name":"totalSupply","type":"uint256","indexed":false,"internalType":"uint256"}],"anonymous":false},{"type":"error","name":"ERC20InsufficientAllowance","inputs":[{"name":"spender","type":"address","internalType":"address"},{"name":"allowance","type":"uint256","internalType":"uint256"},{"name":"needed","type":"uint256","internalType":"uint256"}]},{"type":"error","name":"ERC20InsufficientBalance","inputs":[{"name":"sender","type":"address","internalType":"address"},{"name":"balance","type":"uint256","internalType":"uint256"},{"name":"needed","type":"uint256","internalType":"uint256"}]},{"type":"error","name":"ERC20InvalidApprover","inputs":[{"name":"approver","type":"address","internalType":"address"}]},{"type":"error","name":"ERC20InvalidReceiver","inputs":[{"name":"receiver","type":"address","internalType":"address"}]},{"type":"error","name":"ERC20InvalidSender","inputs":[{"name":"sender","type":"address","internalType":"address"}]},{"type":"error","name":"ERC20InvalidSpender","inputs":[{"name":"spender","type":"address","internalType":"address"}]}],"bytecode":{"object":"0x6040608081526200263480380380620000188162000a44565b9283398101906101008183031262000a3f5780516001600160401b039081811162000a3f57836200004b91840162000a6a565b9260208301519082821162000a3f576200006791840162000a6a565b91848101519081151580920362000a3f576060810151926200008c6080830162000adc565b906200009b60a0840162000adc565b9060e060c085015194015196885198828a1162000952576003998a5491600183811c9316801562000a34575b602084101462000931578190601f93848111620009de575b50602090848311600114620009745760009262000968575b50508160011b91600019908d1b1c1916178a555b8151928311620009525760045491600183811c9316801562000947575b602084101462000931578282859411620008d7575b5060209183116001146200084d5760009262000841575b50508160011b91600019908a1b1c1916176004555b633b9aca006005556aa56fa5b99019a5c8000000600655670214e8348c4f0000600d55601380546001600160a01b03199081163317909155600b8054610100600160a81b0319811660089490941b610100600160a81b031693909317905560118054909116735633464856f58dfa9a358afaf49841fee990e30b1790553015620008295760ff1615620007a657906200024791620002073062000ba3565b630bebc2006008819055600980546001600160a81b0319166001600160a01b039093169290921760a09590951b60ff60a01b169490941790554262000af1565b600a558115801562000263575b85516119aa908162000c6a8239f35b6200077757600b549360ff8516620007465782820180831162000580576200028b9062000b0d565b90600192905b60018111620007195750806000190483116200058057620002b492029062000aff565b8062039387029062039387820481036200058057640574fbde600290808204620186a0149015171562000580576729a2241af62c0000900491619c40938484029380850486149015171562000580576103e862012ebc8504818102918183041490151715620005805762000333620186a0820462012ebc870462000af1565b9160648302838104606414841517156200058057612710900462000358818562000aff565b851015908162000702575b5015620006d35760008080809381620186a0870415620006c9575b620186a087049160081c6001600160a01b031690f115620006be57620186a0620003ac9104600c5462000af1565b600c55620003bb818362000aff565b6000929015620006b657620003d1925062000aff565b600854620003e0838262000af1565b906005548092116200068557836200040e916200040562012ebc880460075462000af1565b60075562000af1565b80600855101562000672575b601354336001600160a01b03909116036200066a576009546001600160a01b0316905b801580156200062c575b5050670de0b6b3a76400008202670de0b6b3a763ffff198382040162000580576001600160a01b0382169182156200061457600b5460ff1615620005965790620004919162000c1f565b6002549260085460018101908181116200058057620004bf620004b8620004c69362000b0d565b9162000b0d565b9062000aff565b8062039387029062039387820481036200058057640574fbde600290808204620186a0149015171562000580576729a2241af62c00009004858102958187041490151715620005805762012ebc865191048152836020820152827f23b8a9f7d1252cf262e22214b242cc92ed7ed7df9228726be4d037a26e083894873093a483519081527ecdd112a5bab661c199cefe1b6b407daede4238a9f24d764373bed654d7c22b602062012ebc30950492a4388080808062000254565b634e487b7160e01b600052601160045260246000fd5b6009546001600160a01b03811615908162000605575b5080620005f9575b15620005e757865162461bcd60e51b8152602060048201526006602482015265131bd8dad95960d21b6044820152606490fd5b90620005f39162000c1f565b62000491565b50600a544210620005b4565b60ff915060a01c1638620005ac565b865163ec442f0560e01b815260006004820152602490fd5b60008080938193829062000660575b6001600160a01b03871690f1156200065557388062000447565b84513d6000823e3d90fd5b506108fc6200063b565b33906200043d565b600160ff19600b541617600b556200041a565b865162461bcd60e51b815260206004820152600a6024820152694d617820737570706c7960b01b6044820152606490fd5b5050620003d1565b86513d6000823e3d90fd5b506108fc6200037e565b875162461bcd60e51b8152602060048201526008602482015267536c69707061676560c01b6044820152606490fd5b6200070f91508462000af1565b8411153862000363565b90806000190481116200058057600182166200073c575b80029060011c62000291565b8093029262000730565b855162461bcd60e51b815260206004820152600a602482015269437572766520646f6e6560b01b6044820152606490fd5b845162461bcd60e51b81526020600482015260086024820152670c08185b5bdd5b9d60c21b6044820152606490fd5b6009546001600160a01b0381161590816200081a575b50806200080e575b15620007f757865162461bcd60e51b8152602060048201526006602482015265131bd8dad95960d21b6044820152606490fd5b906200024791620008083062000ba3565b62000207565b50600a544210620007c4565b60ff915060a01c1638620007bc565b875163ec442f0560e01b815260006004820152602490fd5b01519050388062000154565b600460009081527f8a35acfbc15ff81a39ae7d344fd709f28e8600b4aa8c65c6b64bfe7fe36bd19b9350601f198516905b818110620008be5750908460019594939210620008a5575b505050811b0160045562000169565b0151600019838c1b60f8161c1916905538808062000896565b929360206001819287860151815501950193016200087e565b90919250600460005260206000208380860160051c8201926020871062000927575b94869594939291940160051c01905b8181106200091757506200013d565b6000815585945060010162000908565b92508192620008f9565b634e487b7160e01b600052602260045260246000fd5b92607f169262000128565b634e487b7160e01b600052604160045260246000fd5b015190503880620000f7565b60008e8152602081209350601f198516905b818110620009c55750908460019594939210620009ac575b505050811b018a556200010b565b0151600019838f1b60f8161c191690553880806200099e565b9293602060018192878601518155019501930162000986565b9091508c60005260206000208480850160051c8201926020861062000a2a575b9085949392910160051c01905b81811062000a1a5750620000df565b6000815584935060010162000a0b565b92508192620009fe565b92607f1692620000c7565b600080fd5b6040519190601f01601f191682016001600160401b038111838210176200095257604052565b919080601f8401121562000a3f5782516001600160401b038111620009525760209062000aa0601f8201601f1916830162000a44565b9281845282828701011162000a3f5760005b81811062000ac857508260009394955001015290565b858101830151848201840152820162000ab2565b51906001600160a01b038216820362000a3f57565b919082018092116200058057565b919082039182116200058057565b801562000b9d57808060011462000b965760021462000b90576001908161013382101682600b8310161762000b8857906003815b80821162000b5b5750508160001904811162000580570290565b909280600019048111620005805781841662000b7e575b800292811c9062000b41565b8092029162000b72565b600391500a90565b50600890565b5050600190565b50600090565b6002546aa56fa5b99019a5c80000009182820180921162000580576002919091556001600160a01b03169060009060008051602062002614833981519152906020908462000c09576aa56fa5b99019a5c7ffffff19600254016002555b604051908152a3565b8484528382526040842081815401905562000c00565b60008051602062002614833981519152602060009262000c428560025462000af1565b6002556001600160a01b0316938415841462000c09578060025403600255604051908152a356fe608060408181526004918236101561001657600080fd5b600092833560e01c91826305202a6f146111b75750816306fdde03146110c2578163095ea7b3146110985781631694505e1461106f57816318160ddd1461105057816319bf01c0146110315781631c488b6a1461101257816323b872dd14610f1e578163313ce56714610f0257816333d06de914610ee35781633764863c14610ebc5781633ad10ef614610e9357816349bd5a5e14610e6a5781634af18f4f14610e4a578163571fe01614610e2b5781635cb713c714610e0557816361e40d6b14610de75781636d0ef93c14610dc857816370a0823114610d915781638078e6b014610d6e57816395d89b4114610c6b5781639c08c0a214610b26578163a4beda6314610aee578163a4ce25a71461072a578163a8c6acda1461070a578163a9059cbb146106d9578163b1dfc95f146106ba578163b6a1b6a51461068d578163bf58390314610662578163c7a0206114610643578163dbd8c05714610624578163dd62ed3e146105db578163de11c94a146105b2578163e436295314610593578163eced552614610570578163ed9772b61461022857508063ee4e2687146101e75763f446c1d0146101c757600080fd5b346101e357816003193601126101e35760209051620393878152f35b5080fd5b8234610225576020366003190112610225576001600160a01b03610209611221565b166bffffffffffffffffffffffff60a01b601154161760115580f35b80fd5b9190503461056c578060031936011261056c5781359161024d60ff600b541615611457565b6102568361163e565b906103e880830290838204148315171561055957620186a0900461027a81846114c6565b9081471061052c573387526020928784528588205490670de0b6b3a7640000918289029289840414891517156105195782116104e95760243584106104b9576102c2836115f6565b33156104a257908893929160ff600b541660001461039d575083926102fe6102f685946102f08695336116dd565b836114b9565b6007546114c6565b60075561030d896008546114c6565b600855818115610394575b3390f11561038a577ecdd112a5bab661c199cefe1b6b407daede4238a9f24d764373bed654d7c22b906002549361034d61155f565b93815190815285838201523390877fc3b2c4fcdf25a3a78c81bd9f335d8bab96fe7dd1288668b957ebdb1b70b4de39843093a4519485523094a480f35b82513d86823e3d90fd5b506108fc610318565b60095490989597969450336001600160a01b038216149081610494575b5080610489575b156103f257855162461bcd60e51b81528089018890526006602482015265131bd8dad95960d21b6044820152606490fd5b889293959694973033148015610482575b15610423575082936102fe6102f6859461041e8695336116dd565b6102f0565b909192503015801561047a575b1561045d57338952600e855286892054421061045d57508780936102fe6102f6839561041e8596336116dd565b865162461bcd60e51b815290819061047690820161165b565b0390fd5b506001610430565b5083610403565b50600a5442106103c1565b60ff915060a01c16386103ba565b8651634b637e8f60e11b8152908101899052602490fd5b865162461bcd60e51b8152908101859052600a602482015269131bddc81c99599d5b9960b21b6044820152606490fd5b865162461bcd60e51b8152908101859052600a6024820152694c6f7720746f6b656e7360b01b6044820152606490fd5b634e487b7160e01b8a526011825260248afd5b845162461bcd60e51b81526020818501526007602482015266098deee408aa8960cb1b6044820152606490fd5b634e487b7160e01b865260118252602486fd5b8280fd5b5050346101e357816003193601126101e35760209051670de0b6b3a76400008152f35b5050346101e357816003193601126101e357602090600f549051908152f35b5050346101e357816003193601126101e35760135490516001600160a01b039091168152602090f35b5050346101e357806003193601126101e357806020926105f9611221565b61060161123c565b6001600160a01b0391821683526001865283832091168252845220549051908152f35b5050346101e357816003193601126101e357602090600c549051908152f35b5050346101e357816003193601126101e3576020906007549051908152f35b5050346101e357816003193601126101e357602090610686600554600854906114c6565b9051908152f35b5050346101e357816003193601126101e357600b54905160089190911c6001600160a01b03168152602090f35b5050346101e357816003193601126101e35760209051630bebc2008152f35b5050346101e357806003193601126101e3576020906107036106f9611221565b602435903361128a565b5160018152f35b82843461022557602036600319011261022557506106866020923561163e565b919050606036600319011261056c57813591604435918315610ac05761075560ff600b541615611457565b61075e846115da565b916103e8808402908482041484151715610aad57620186a090049361078385856114b9565b602495612710610794883584611490565b0461079f81846114c6565b8410159081610a99575b5015610a6c576107b8906115f6565b6107c281836114c6565b15610a64576107d0916114c6565b6008546107dd87826114b9565b90600554809211610a355787610801916107f9886007546114b9565b6007556114b9565b806008551015610a23575b6013546001600160a01b0395903390871603610a1b57878660095416925b80159081156109e9575b505050670de0b6b3a7640000870292670de0b6b3a763ffff19888504016109d8578683169687156109c357600b5460ff16156108e1575050509061087791611681565b6002549261088361155f565b928251908152846020820152857f23b8a9f7d1252cf262e22214b242cc92ed7ed7df9228726be4d037a26e083894843093a4519283527ecdd112a5bab661c199cefe1b6b407daede4238a9f24d764373bed654d7c22b60203094a480f35b600999969391989597949299549081161590816109b5575b50806109aa575b1561093057865162461bcd60e51b81526020818a01526006818b015265131bd8dad95960d21b6044820152606490fd5b9194975091949295301580156109a2575b1561095657509061095191611681565b610877565b308614801561099b575b1561098257878052600e60205283882054421061098257509061095191611681565b835162461bcd60e51b815290819061047690820161165b565b5087610960565b506001610941565b50600a544210610900565b60ff915060a01c16386108f9565b50845163ec442f0560e01b8152908101899052fd5b634e487b7160e01b89526011905287fd5b8280929181928290610a12575b8b881690f115610a0857873880610834565b83513d89823e3d90fd5b506108fc6109f6565b87339261082a565b600160ff19600b541617600b5561080c565b845162461bcd60e51b8152602081860152600a81890152694d617820737570706c7960b01b6044820152606490fd5b5050856107d0565b845162461bcd60e51b815260208186015260088189015267536c69707061676560c01b6044820152606490fd5b610aa49150836114b9565b831115386107a9565b634e487b7160e01b875260118252602487fd5b906020606492519162461bcd60e51b835282015260086024820152670c08185b5bdd5b9d60c21b6044820152fd5b5050346101e35760203660031901126101e35760209181906001600160a01b03610b16611221565b168152600e845220549051908152f35b90508260031936011261056c5760ff600b541615610c3857610b49600d546115f6565b610b57600d546007546114c6565b90816007558160606006549260c460018060a01b03610b7b868260115416306113c4565b60115416918751948593849263f305d71960e01b845230908401528760248401528a60448401528a60648401523060848401524260a48401525af18015610c2e57610bfb575b5090826060927faf60794da385ef41a5f66c38529ba4f0581b8bca348871688b118d212b265881945192835260208301524290820152a180f35b606090819392933d8111610c27575b610c148183611252565b81010312610c23579038610bc1565b8380fd5b503d610c0a565b84513d87823e3d90fd5b6020606492519162461bcd60e51b8352820152600e60248201526d4375727665206e6f7420646f6e6560901b6044820152fd5b8383346101e357816003193601126101e357805191809380549160019083821c92828516948515610d64575b6020958686108114610d5157858952908115610d2d5750600114610cd5575b610cd18787610cc7828c0383611252565b51918291826111d8565b0390f35b81529295507f8a35acfbc15ff81a39ae7d344fd709f28e8600b4aa8c65c6b64bfe7fe36bd19b5b828410610d1a5750505082610cd194610cc792820101948680610cb6565b8054868501880152928601928101610cfc565b60ff19168887015250505050151560051b8301019250610cc782610cd18680610cb6565b634e487b7160e01b845260228352602484fd5b93607f1693610c97565b5050346101e357816003193601126101e35760209051673782dace9d9000008152f35b5050346101e35760203660031901126101e35760209181906001600160a01b03610db9611221565b16815280845220549051908152f35b5050346101e357816003193601126101e3576020906008549051908152f35b5050346101e357816003193601126101e3576020905162093a808152f35b5050346101e35760203660031901126101e357602090610686610e26611221565b611871565b5050346101e357816003193601126101e3576020906005549051908152f35b8284346102255760203660031901126102255750610686602092356115da565b5050346101e357816003193601126101e35760125490516001600160a01b039091168152602090f35b5050346101e357816003193601126101e35760095490516001600160a01b039091168152602090f35b5050346101e357816003193601126101e35760209060ff60095460a01c1690519015158152f35b5050346101e357816003193601126101e357602090600d549051908152f35b5050346101e357816003193601126101e3576020905160128152f35b9050823461022557606036600319011261022557610f3a611221565b610f4261123c565b916044359360018060a01b038316808352600160205286832033845260205286832054916000198303610f7e575b60208861070389898961128a565b868310610fe6578115610fcf573315610fb85750825260016020908152868320338452815291869020908590039055829061070387610f70565b8751634a1406b160e11b8152908101849052602490fd5b875163e602df0560e01b8152908101849052602490fd5b8751637dc7a0d960e11b8152339181019182526020820193909352604081018790528291506060010390fd5b5050346101e357816003193601126101e357602090600a549051908152f35b5050346101e357816003193601126101e3576020906010549051908152f35b5050346101e357816003193601126101e3576020906002549051908152f35b5050346101e357816003193601126101e35760115490516001600160a01b039091168152602090f35b5050346101e357806003193601126101e3576020906107036110b8611221565b60243590336113c4565b9190503461056c578260031936011261056c57805191836003549060019082821c9282811680156111ad575b602095868610821461119a5750848852908115611178575060011461111f575b610cd18686610cc7828b0383611252565b929550600383527fc2575a0e9e593c00f959f8c92f12db2869c3395a3b0502d05e2516446f71f85b5b8284106111655750505082610cd194610cc792820101943861110e565b8054868501880152928601928101611148565b60ff191687860152505050151560051b8301019250610cc782610cd13861110e565b634e487b7160e01b845260229052602483fd5b93607f16936110ee565b8490346101e357816003193601126101e35760209060ff600b541615158152f35b6020808252825181830181905290939260005b82811061120d57505060409293506000838284010152601f8019910116010190565b8181018601518482016040015285016111eb565b600435906001600160a01b038216820361123757565b600080fd5b602435906001600160a01b038216820361123757565b90601f8019910116810190811067ffffffffffffffff82111761127457604052565b634e487b7160e01b600052604160045260246000fd5b91906001600160a01b038084169081156113ab5780831690811561139257600b5460ff16156112c1575050506112bf92611799565b565b60095490811683149081611384575b5080611379575b1561130a5760405162461bcd60e51b8152602060048201526006602482015265131bd8dad95960d21b6044820152606490fd5b3082148015611371575b156113245750506112bf92611799565b30148015611369575b15611350576000908152600e60205260409020544210611350576112bf92611799565b60405162461bcd60e51b8152806104766004820161165b565b50600061132d565b506000611314565b50600a5442106112d7565b60ff915060a01c16386112d0565b60405163ec442f0560e01b815260006004820152602490fd5b604051634b637e8f60e11b815260006004820152602490fd5b6001600160a01b0390811691821561143e57169182156114255760207f8c5be1e5ebec7d5bd14f71427d1e84f3dd0314c0f7b2291e5b200ac8c7c3b925918360005260018252604060002085600052825280604060002055604051908152a3565b604051634a1406b160e11b815260006004820152602490fd5b60405163e602df0560e01b815260006004820152602490fd5b1561145e57565b60405162461bcd60e51b815260206004820152600a602482015269437572766520646f6e6560b01b6044820152606490fd5b818102929181159184041417156114a357565b634e487b7160e01b600052601160045260246000fd5b919082018092116114a357565b919082039182116114a357565b80156115595780806001146115525760021461154c576001908161013382101682600b8310161761154457906003815b80821161151b575050816000190481116114a3570290565b9092806000190481116114a35781841661153b575b800292811c90611503565b80920291611530565b600391500a90565b50600890565b5050600190565b50600090565b60085460018101908181116114a35761158361157d611589936114d3565b916114d3565b906114c6565b620393879080820291820481036114a357640574fbde600290808204620186a014901517156114a3576729a2241af62c00009004619c40908181029181830414901517156114a35762012ebc900490565b6115899061158361157d6115f160085493846114b9565b6114d3565b60008080808460018060a01b03600b5460081c16828215611635575bf1156116295761162490600c546114b9565b600c55565b6040513d6000823e3d90fd5b506108fc611612565b6115899061158361157d61165560085493846114c6565b926114d3565b60609060208152600b60208201526a2737903a3930b739b332b960a91b60408201520190565b60008051602061195583398151915260206000926116a1856002546114b9565b6002556001600160a01b031693841584146116c85780600254036002555b604051908152a3565b848452838252604084208181540190556116bf565b9091906001600160a01b03811690816117275750600080516020611955833981519152602084611712600095966002546114b9565b6002555b8060025403600255604051908152a3565b926000828152806020526040812054948286106117685750818160406000805160206119558339815191529460009798876020965283865203912055611716565b60405163391434e360e21b81526001600160a01b039190911660048201526024810186905260448101839052606490fd5b6001600160a01b03808216929091836118005750600080516020611955833981519152916020916117cc866002546114b9565b6002555b1693846117e8578060025403600255604051908152a3565b846000526000825260406000208181540190556116bf565b6000908482528160205260408220549086821061183f5750918160408760209588600080516020611955833981519152989652838752039120556117d0565b60405163391434e360e21b81526001600160a01b03919091166004820152602481019190915260448101869052606490fd5b600f54806118ae575062093a8080600f554201908142116114a3576001600160a01b03166000908152600e60205260409020908155426010555490565b6010546118c56118be82426114c6565b80936114c6565b80600f556118d581600854611490565b60055491821561193e576118f6926118ee9204906114c6565b9283926114b9565b116119205761190590426114b9565b9060018060a01b0316600052600e6020528060406000205590565b506001600160a01b03166000908152600e6020526040812081905590565b634e487b7160e01b600052601260045260246000fdfeddf252ad1be2c89b69c2b068fc378daa952ba7f163c4a11628f55a4df523b3efa2646970667358221220ea6f36846d8db9a21ceec233bce789e334d2f5ba69248120c37becfbaa29bf6f64736f6c63430008140033ddf252ad1be2c89b69c2b068fc378daa952ba7f163c4a11628f55a4df523b3ef","linkReferences":{}},"methodIdentifiers":{"A()":"f446c1d0","MAX_SALE_SUPPLY()":"571fe016","SCALE()":"eced5526","TOTAL_ETHER()":"8078e6b0","allowance(address,address)":"dd62ed3e","approve(address,uint256)":"095ea7b3","balanceOf(address)":"70a08231","bondingCurveCompleted()":"05202a6f","buyTokens(uint256,uint256,uint256)":"a4ce25a7","calculateCost(uint256)":"4af18f4f","calculateLockingDuration(address)":"5cb713c7","calculateRefund(uint256)":"a8c6acda","decimals()":"313ce567","devAddress()":"3ad10ef6","devLockTime()":"1c488b6a","devLocked()":"3764863c","factoryContract()":"de11c94a","firstLockTime()":"19bf01c0","lockTime(address)":"a4beda63","name()":"06fdde03","previousLockTime()":"e4362953","remainingTokens()":"bf583903","revenueCollector()":"b6a1b6a5","scaledLiquidityThreshold()":"b1dfc95f","scaledSupply()":"6d0ef93c","sellTokens(uint256,uint256)":"ed9772b6","sendDexRevenue()":"33d06de9","sendToDex()":"9c08c0a2","setUniRouter(address)":"ee4e2687","symbol()":"95d89b41","tMax()":"61e40d6b","totalEtherCollected()":"c7a02061","totalRevenueCollected()":"dbd8c057","totalSupply()":"18160ddd","transfer(address,uint256)":"a9059cbb","transferFrom(address,address,uint256)":"23b872dd","uniswapV2Pair()":"49bd5a5e","uniswapV2Router()":"1694505e"},"id":35}