{"abi":[{"type":"constructor","inputs":[],"stateMutability":"nonpayable"},{"type":"function","name":"isFactory","inputs":[{"name":"","type":"address","internalType":"address"}],"outputs":[{"name":"","type":"bool","internalType":"bool"}],"stateMutability":"view"},{"type":"function","name":"owner","inputs":[],"outputs":[{"name":"","type":"address","internalType":"address"}],"stateMutability":"view"},{"type":"function","name":"registerToken","inputs":[{"name":"_tokenAddress","type":"address","internalType":"address"},{"name":"_devAddress","type":"address","internalType":"address"},{"name":"_amount","type":"uint256","internalType":"uint256"},{"name":"_devLocked","type":"bool","internalType":"bool"},{"name":"_tokenType","type":"uint256","internalType":"uint256"}],"outputs":[],"stateMutability":"nonpayable"},{"type":"function","name":"renounceOwnership","inputs":[],"outputs":[],"stateMutability":"nonpayable"},{"type":"function","name":"setFactory","inputs":[{"name":"_factory","type":"address","internalType":"address"}],"outputs":[],"stateMutability":"nonpayable"},{"type":"function","name":"tokenAddresses","inputs":[{"name":"","type":"uint256","internalType":"uint256"}],"outputs":[{"name":"","type":"address","internalType":"address"}],"stateMutability":"view"},{"type":"function","name":"transferOwnership","inputs":[{"name":"newOwner","type":"address","internalType":"address"}],"outputs":[],"stateMutability":"nonpayable"},{"type":"event","name":"OwnershipTransferred","inputs":[{"name":"previousOwner","type":"address","indexed":true,"internalType":"address"},{"name":"newOwner","type":"address","indexed":true,"internalType":"address"}],"anonymous":false},{"type":"event","name":"TokenCreated","inputs":[{"name":"tokenAddress","type":"address","indexed":true,"internalType":"address"},{"name":"devAddress","type":"address","indexed":true,"internalType":"address"},{"name":"amount","type":"uint256","indexed":false,"internalType":"uint256"},{"name":"devLocked","type":"bool","indexed":false,"internalType":"bool"},{"name":"tokenType","type":"uint256","indexed":false,"internalType":"uint256"}],"anonymous":false},{"type":"error","name":"OwnableInvalidOwner","inputs":[{"name":"owner","type":"address","internalType":"address"}]},{"type":"error","name":"OwnableUnauthorizedAccount","inputs":[{"name":"account","type":"address","internalType":"address"}]}],"bytecode":{"object":"0x608060405234801561001057600080fd5b50338061003757604051631e4fbdf760e01b81526000600482015260240160405180910390fd5b61004081610046565b50610096565b600080546001600160a01b038381166001600160a01b0319831681178455604051919092169283917f8be0079c531659141344cd1fd0a4f28419497f9722a3daafe3b4186f6b6457e09190a35050565b610490806100a56000396000f3fe608060405234801561001057600080fd5b506004361061007d5760003560e01c8063715018a61161005b578063715018a6146100e25780638da5cb5b146100ea578063e5df8b841461010f578063f2fde38b1461012257600080fd5b80630f04ba67146100825780633a032447146100ba5780635bb47808146100cf575b600080fd5b6100a56100903660046103c3565b60026020526000908152604090205460ff1681565b60405190151581526020015b60405180910390f35b6100cd6100c83660046103e5565b610135565b005b6100cd6100dd3660046103c3565b610240565b6100cd6102b1565b6000546001600160a01b03165b6040516001600160a01b0390911681526020016100b1565b6100f761011d366004610441565b6102c5565b6100cd6101303660046103c3565b6102ef565b3360009081526002602052604090205460ff166101a55760405162461bcd60e51b815260206004820152602360248201527f4f6e6c7920666163746f72792063616e2063616c6c20746869732066756e637460448201526234b7b760e91b60648201526084015b60405180910390fd5b6001805480820182556000919091527fb10e2d527612073b26eecdfd717e6a320cf44b4afac2b0732d9fcbe2b7fa0cf60180546001600160a01b0319166001600160a01b03878116918217909255604080518681528515156020820152908101849052918616917f6268964f653fb671b504147c5e2a7e7f1cfd9512b665f4de66b2980551e3b76d9060600160405180910390a35050505050565b61024861032a565b6001600160a01b03811660009081526002602052604090205460ff161561028a576001600160a01b03166000908152600260205260409020805460ff19169055565b6001600160a01b0381166000908152600260205260409020805460ff191660011790555b50565b6102b961032a565b6102c36000610357565b565b600181815481106102d557600080fd5b6000918252602090912001546001600160a01b0316905081565b6102f761032a565b6001600160a01b03811661032157604051631e4fbdf760e01b81526000600482015260240161019c565b6102ae81610357565b6000546001600160a01b031633146102c35760405163118cdaa760e01b815233600482015260240161019c565b600080546001600160a01b038381166001600160a01b0319831681178455604051919092169283917f8be0079c531659141344cd1fd0a4f28419497f9722a3daafe3b4186f6b6457e09190a35050565b80356001600160a01b03811681146103be57600080fd5b919050565b6000602082840312156103d557600080fd5b6103de826103a7565b9392505050565b600080600080600060a086880312156103fd57600080fd5b610406866103a7565b9450610414602087016103a7565b9350604086013592506060860135801515811461043057600080fd5b949793965091946080013592915050565b60006020828403121561045357600080fd5b503591905056fea26469706673582212207324c546d98d0df5aed6d494ee072583ba961b6adb52039782ad148b9946cbb664736f6c63430008140033","linkReferences":{}},"methodIdentifiers":{"isFactory(address)":"0f04ba67","owner()":"8da5cb5b","registerToken(address,address,uint256,bool,uint256)":"3a032447","renounceOwnership()":"715018a6","setFactory(address)":"5bb47808","tokenAddresses(uint256)":"e5df8b84","transferOwnership(address)":"f2fde38b"},"id":44}