{"abi":[{"type":"constructor","inputs":[],"stateMutability":"nonpayable"},{"type":"function","name":"isFactory","inputs":[{"name":"","type":"address","internalType":"address"}],"outputs":[{"name":"","type":"bool","internalType":"bool"}],"stateMutability":"view"},{"type":"function","name":"owner","inputs":[],"outputs":[{"name":"","type":"address","internalType":"address"}],"stateMutability":"view"},{"type":"function","name":"registerToken","inputs":[{"name":"_tokenAddress","type":"address","internalType":"address"},{"name":"_devAddress","type":"address","internalType":"address"},{"name":"_amount","type":"uint256","internalType":"uint256"},{"name":"_devLocked","type":"bool","internalType":"bool"},{"name":"_tokenType","type":"uint256","internalType":"uint256"}],"outputs":[],"stateMutability":"nonpayable"},{"type":"function","name":"renounceOwnership","inputs":[],"outputs":[],"stateMutability":"nonpayable"},{"type":"function","name":"setFactory","inputs":[{"name":"_factory","type":"address","internalType":"address"}],"outputs":[],"stateMutability":"nonpayable"},{"type":"function","name":"tokenAddresses","inputs":[{"name":"","type":"uint256","internalType":"uint256"}],"outputs":[{"name":"","type":"address","internalType":"address"}],"stateMutability":"view"},{"type":"function","name":"transferOwnership","inputs":[{"name":"newOwner","type":"address","internalType":"address"}],"outputs":[],"stateMutability":"nonpayable"},{"type":"event","name":"OwnershipTransferred","inputs":[{"name":"previousOwner","type":"address","indexed":true,"internalType":"address"},{"name":"newOwner","type":"address","indexed":true,"internalType":"address"}],"anonymous":false},{"type":"event","name":"TokenCreated","inputs":[{"name":"tokenAddress","type":"address","indexed":true,"internalType":"address"},{"name":"devAddress","type":"address","indexed":true,"internalType":"address"},{"name":"amount","type":"uint256","indexed":false,"internalType":"uint256"},{"name":"devLocked","type":"bool","indexed":false,"internalType":"bool"},{"name":"tokenType","type":"uint256","indexed":false,"internalType":"uint256"}],"anonymous":false},{"type":"error","name":"OwnableInvalidOwner","inputs":[{"name":"owner","type":"address","internalType":"address"}]},{"type":"error","name":"OwnableUnauthorizedAccount","inputs":[{"name":"account","type":"address","internalType":"address"}]}],"bytecode":{"object":"0x6080806040523461007a5733156100645760008054336001600160a01b03198216811783556040519290916001600160a01b0316907f8be0079c531659141344cd1fd0a4f28419497f9722a3daafe3b4186f6b6457e09080a361046490816100808239f35b631e4fbdf760e01b815260006004820152602490fd5b600080fdfe60806040818152600436101561001457600080fd5b600091823560e01c9081630f04ba6714610324575080633a032447146101ea5780635bb47808146101bd578063715018a6146101635780638da5cb5b1461013c578063e5df8b84146100f75763f2fde38b1461006f57600080fd5b346100f35760203660031901126100f357610088610363565b6100906103cb565b6001600160a01b039081169182156100dc575082546001600160a01b0319811683178455167f8be0079c531659141344cd1fd0a4f28419497f9722a3daafe3b4186f6b6457e08380a380f35b51631e4fbdf760e01b815260048101849052602490fd5b5080fd5b50346100f35760203660031901126100f35760043591600154831015610139575061012360209261037e565b905491519160018060a01b039160031b1c168152f35b80fd5b50346100f357816003193601126100f357905490516001600160a01b039091168152602090f35b823461013957806003193601126101395761017c6103cb565b80546001600160a01b03198116825581906001600160a01b03167f8be0079c531659141344cd1fd0a4f28419497f9722a3daafe3b4186f6b6457e08280a380f35b8234610139576020366003190112610139576101e76101da610363565b6101e26103cb565b6103f7565b80f35b50346100f35760a03660031901126100f357610204610363565b6024356001600160a01b0381811693909291849003610320576064359182151580930361031c57338652600260205260ff8287205416156102cc57600154680100000000000000008110156102b857917f6268964f653fb671b504147c5e2a7e7f1cfd9512b665f4de66b2980551e3b76d93918561028a8560016060970160015561037e565b979092169682549060031b9188831b921b19161790558051916044358352602083015260843590820152a380f35b634e487b7160e01b87526041600452602487fd5b815162461bcd60e51b815260206004820152602360248201527f4f6e6c7920666163746f72792063616e2063616c6c20746869732066756e637460448201526234b7b760e91b6064820152608490fd5b8580fd5b8480fd5b9190503461035f57602036600319011261035f5760209260ff91906001600160a01b0361034f610363565b1681526002855220541615158152f35b8280fd5b600435906001600160a01b038216820361037957565b600080fd5b6001548110156103b55760016000527fb10e2d527612073b26eecdfd717e6a320cf44b4afac2b0732d9fcbe2b7fa0cf60190600090565b634e487b7160e01b600052603260045260246000fd5b6000546001600160a01b031633036103df57565b60405163118cdaa760e01b8152336004820152602490fd5b6001600160a01b03166000908152600260205260409020805460ff81166104265750805460ff19166001179055565b60ff1916905556fea2646970667358221220602d7174d2ddc30475e9a4790c992cd20583836b726adbecb0f9201c1e6ebbaa64736f6c63430008140033","linkReferences":{}},"methodIdentifiers":{"isFactory(address)":"0f04ba67","owner()":"8da5cb5b","registerToken(address,address,uint256,bool,uint256)":"3a032447","renounceOwnership()":"715018a6","setFactory(address)":"5bb47808","tokenAddresses(uint256)":"e5df8b84","transferOwnership(address)":"f2fde38b"},"id":43}