{"abi":[{"type":"constructor","inputs":[{"name":"_uniswapRouter","type":"address","internalType":"address"},{"name":"_feeRecipient","type":"address","internalType":"address"}],"stateMutability":"nonpayable"},{"type":"receive","stateMutability":"payable"},{"type":"function","name":"feePercentage","inputs":[],"outputs":[{"name":"","type":"uint256","internalType":"uint256"}],"stateMutability":"view"},{"type":"function","name":"feeRecipient","inputs":[],"outputs":[{"name":"","type":"address","internalType":"address"}],"stateMutability":"view"},{"type":"function","name":"swapExactETHForTokensWithFee","inputs":[{"name":"amountOutMin","type":"uint256","internalType":"uint256"},{"name":"path","type":"address[]","internalType":"address[]"},{"name":"to","type":"address","internalType":"address"},{"name":"deadline","type":"uint256","internalType":"uint256"}],"outputs":[{"name":"amounts","type":"uint256[]","internalType":"uint256[]"}],"stateMutability":"payable"},{"type":"function","name":"swapExactTokensForETHWithFee","inputs":[{"name":"amountIn","type":"uint256","internalType":"uint256"},{"name":"amountOutMin","type":"uint256","internalType":"uint256"},{"name":"path","type":"address[]","internalType":"address[]"},{"name":"to","type":"address","internalType":"address"},{"name":"deadline","type":"uint256","internalType":"uint256"}],"outputs":[{"name":"amounts","type":"uint256[]","internalType":"uint256[]"}],"stateMutability":"nonpayable"},{"type":"function","name":"swapExactTokensForTokensWithFee","inputs":[{"name":"amountIn","type":"uint256","internalType":"uint256"},{"name":"amountOutMin","type":"uint256","internalType":"uint256"},{"name":"path","type":"address[]","internalType":"address[]"},{"name":"to","type":"address","internalType":"address"},{"name":"deadline","type":"uint256","internalType":"uint256"}],"outputs":[{"name":"amounts","type":"uint256[]","internalType":"uint256[]"}],"stateMutability":"nonpayable"},{"type":"function","name":"uniswapRouter","inputs":[],"outputs":[{"name":"","type":"address","internalType":"contract IUniswapV2Router02"}],"stateMutability":"view"}],"bytecode":{"object":"0x60803461009257601f6109be38819003918201601f19168301916001600160401b0383118484101761009757808492604094855283398101031261009257610052602061004b836100ad565b92016100ad565b600080546001600160a01b039384166001600160a01b03199182161790915560018054929093169116179055600a6002556040516108fc90816100c28239f35b600080fd5b634e487b7160e01b600052604160045260246000fd5b51906001600160a01b03821682036100925756fe6080604090808252600480361015610022575b505050361561002057600080fd5b005b600091823560e01c90816346904840146105be57508063735de9f7146105965780638d7e266d14610439578063a001ecdd1461041a578063cd632278146102d95763fc0ed6540361001257346102d55761007b36610619565b61009d61271061009560029b989b9994959699548c6106a3565b04809a6106cc565b9284156102c2579798969795968996906001600160a01b0390816100c08c6106d9565b6001548c516323b872dd60e01b808252338a83019081529287166001600160a01b0316602080850191909152604084019690965293909285928492919091169082908f90829060600103925af19081156102b8576101328e61012d86948f9489959161029b575b5061073d565b6106d9565b8d5193845233898501908152306020820152604081018b90528492908390036060019183918f91165af19081156102745787846101808f61012d8f9688966101b7989161027e575b5061077f565b168d8d8a8882541692519687958694859363095ea7b360e01b8552840160209093929193604081019460018060a01b031681520152565b03925af1801561027457918a969593916101f19593610246575b5050855416968a519b8c998a9889976338ed173960e01b8952880161088c565b03925af191821561023c57836102139493610217575b50505191829182610668565b0390f35b6102349293503d8091833e61022c81836106ed565b8101906107c3565b903880610207565b81513d85823e3d90fd5b8161026592903d1061026d575b61025d81836106ed565b810190610725565b5038806101d1565b503d610253565b8b513d8c823e3d90fd5b6102959150873d891161026d5761025d81836106ed565b3861017a565b6102b29150863d881161026d5761025d81836106ed565b38610127565b8c513d8d823e3d90fd5b634e487b7160e01b895260328352602489fd5b5080fd5b509160803660031901126102d55767ffffffffffffffff6024358181116104165761030790369086016105e3565b90916044356001600160a01b0381811693929184900361041257612710610330600254346106a3565b04918780808061034087346106cc565b9686600154165af1903d156103fc573d9081116103e9579161038c899a926103ba9a98979695948a519061037e6020601f19601f84011601836106ed565b81528960203d92013e61073d565b86541693875198899687958694637ff36ab560e01b865280359086015260806024860152608485019161083f565b906044830152606435606483015203925af191821561023c578361021394936102175750505191829182610668565b634e487b7160e01b895260418a52602489fd5b509787989161038c6103ba99979695949361073d565b8680fd5b8380fd5b8284346102d557816003193601126102d5576020906002549051908152f35b50346102d55761044836610619565b61046261271061009560029b989b9994959699548c6106a3565b9284156102c2579798969795968996906001600160a01b0390816104858c6106d9565b6001548c516323b872dd60e01b808252338a83019081529287166001600160a01b0316602080850191909152604084019690965293909285928492919091169082908f90829060600103925af19081156102b8576104f18e61012d86948f9489959161029b575061073d565b8d5193845233898501908152306020820152604081018b90528492908390036060019183918f91165af19081156102745787846101808f61012d8f96889661053e989161027e575061077f565b03925af1801561027457918a969593916101f19593610578575b5050855416968a519b8c998a9889976318cbafe560e01b8952880161088c565b8161058e92903d1061026d5761025d81836106ed565b503880610558565b8284346102d557816003193601126102d557905490516001600160a01b039091168152602090f35b8390346102d557816003193601126102d5576001546001600160a01b03168152602090f35b9181601f840112156106145782359167ffffffffffffffff8311610614576020808501948460051b01011161061457565b600080fd5b60a06003198201126106145760043591602435916044359067ffffffffffffffff82116106145761064c916004016105e3565b90916064356001600160a01b0381168103610614579060843590565b6020908160408183019282815285518094520193019160005b82811061068f575050505090565b835185529381019392810192600101610681565b818102929181159184041417156106b657565b634e487b7160e01b600052601160045260246000fd5b919082039182116106b657565b356001600160a01b03811681036106145790565b90601f8019910116810190811067ffffffffffffffff82111761070f57604052565b634e487b7160e01b600052604160045260246000fd5b90816020910312610614575180151581036106145790565b1561074457565b60405162461bcd60e51b8152602060048201526013602482015272119959481d1c985b9cd9995c8819985a5b1959606a1b6044820152606490fd5b1561078657565b60405162461bcd60e51b8152602060048201526015602482015274151bdad95b881d1c985b9cd9995c8819985a5b1959605a1b6044820152606490fd5b90602090818382031261061457825167ffffffffffffffff93848211610614570181601f8201121561061457805193841161070f578360051b906040519461080d858401876106ed565b85528380860192820101928311610614578301905b828210610830575050505090565b81518152908301908301610822565b9190808252602080920192916000805b83821061085e57505050505090565b9091929394853560018060a01b03811680910361088857815283019483019392916001019061084f565b8280fd5b9290936108b292608095989796988552602085015260a0604085015260a084019161083f565b6001600160a01b039095166060820152015256fea264697066735822122045904159043de0ac80aa9ccf9208eca35d5390c44f54ee9ce28fc2aa157fb0e464736f6c63430008140033","linkReferences":{}},"methodIdentifiers":{"feePercentage()":"a001ecdd","feeRecipient()":"46904840","swapExactETHForTokensWithFee(uint256,address[],address,uint256)":"cd632278","swapExactTokensForETHWithFee(uint256,uint256,address[],address,uint256)":"8d7e266d","swapExactTokensForTokensWithFee(uint256,uint256,address[],address,uint256)":"fc0ed654","uniswapRouter()":"735de9f7"},"id":0}