{"abi":[{"type":"constructor","inputs":[{"name":"_superMemeRegistry","type":"address","internalType":"address"}],"stateMutability":"nonpayable"},{"type":"function","name":"createToken","inputs":[{"name":"_name","type":"string","internalType":"string"},{"name":"_symbol","type":"string","internalType":"string"},{"name":"_amount","type":"uint256","internalType":"uint256"},{"name":"_devAddress","type":"address","internalType":"address"},{"name":"_buyEth","type":"uint256","internalType":"uint256"},{"name":"_tMax","type":"uint256","internalType":"uint256"}],"outputs":[{"name":"token","type":"address","internalType":"address"}],"stateMutability":"payable"},{"type":"function","name":"createTokenRevenue","inputs":[],"outputs":[{"name":"","type":"uint256","internalType":"uint256"}],"stateMutability":"view"},{"type":"function","name":"owner","inputs":[],"outputs":[{"name":"","type":"address","internalType":"address"}],"stateMutability":"view"},{"type":"function","name":"renounceOwnership","inputs":[],"outputs":[],"stateMutability":"nonpayable"},{"type":"function","name":"revenueCollector","inputs":[],"outputs":[{"name":"","type":"address","internalType":"address"}],"stateMutability":"view"},{"type":"function","name":"setCreateTokenRevenue","inputs":[{"name":"_createTokenRevenue","type":"uint256","internalType":"uint256"}],"outputs":[],"stateMutability":"nonpayable"},{"type":"function","name":"setRevenueCollector","inputs":[{"name":"_revenueCollector","type":"address","internalType":"address"}],"outputs":[],"stateMutability":"nonpayable"},{"type":"function","name":"setSuperMemeRegistry","inputs":[{"name":"_superMemeRegistry","type":"address","internalType":"address"}],"outputs":[],"stateMutability":"nonpayable"},{"type":"function","name":"superMemeRegistry","inputs":[],"outputs":[{"name":"","type":"address","internalType":"contract ISuperMemeRegistry"}],"stateMutability":"view"},{"type":"function","name":"tokenAddresses","inputs":[{"name":"","type":"uint256","internalType":"uint256"}],"outputs":[{"name":"","type":"address","internalType":"address"}],"stateMutability":"view"},{"type":"function","name":"transferOwnership","inputs":[{"name":"newOwner","type":"address","internalType":"address"}],"outputs":[],"stateMutability":"nonpayable"},{"type":"event","name":"OwnershipTransferred","inputs":[{"name":"previousOwner","type":"address","indexed":true,"internalType":"address"},{"name":"newOwner","type":"address","indexed":true,"internalType":"address"}],"anonymous":false},{"type":"event","name":"TokenCreated","inputs":[{"name":"tokenAddress","type":"address","indexed":true,"internalType":"address"},{"name":"devAddress","type":"address","indexed":true,"internalType":"address"},{"name":"amount","type":"uint256","indexed":false,"internalType":"uint256"},{"name":"devLocked","type":"bool","indexed":false,"internalType":"bool"},{"name":"tokenType","type":"uint256","indexed":false,"internalType":"uint256"}],"anonymous":false},{"type":"error","name":"OwnableInvalidOwner","inputs":[{"name":"owner","type":"address","internalType":"address"}]},{"type":"error","name":"OwnableUnauthorizedAccount","inputs":[{"name":"account","type":"address","internalType":"address"}]}],"bytecode":{"object":"0x6080346100d157601f613cb538819003918201601f19168301916001600160401b038311848410176100d6578084926020946040528339810103126100d157516001600160a01b0390818116908190036100d15733156100b85760005460018060a01b0319903382821617600055604051933391167f8be0079c531659141344cd1fd0a4f28419497f9722a3daafe3b4186f6b6457e0600080a36602d79883d200006002556001541617600155613bc890816100ed8239f35b604051631e4fbdf760e01b815260006004820152602490fd5b600080fd5b634e487b7160e01b600052604160045260246000fdfe608060405260043610156200001357600080fd5b6000803560e01c8063134d3a40146200032f5780633b527dd6146200030f578063408a734414620002e457806369c7fddf14620002bd578063715018a6146200025f5780637884f14614620002195780638da5cb5b14620001f0578063b6a1b6a514620001c5578063cde38cdf146200017f578063e5df8b8414620001365763f2fde38b14620000a257600080fd5b34620001335760203660031901126200013357620000bf620008ba565b620000c96200091f565b6001600160a01b039081169081156200011a57600054826001600160601b0360a01b821617600055167f8be0079c531659141344cd1fd0a4f28419497f9722a3daafe3b4186f6b6457e0600080a380f35b604051631e4fbdf760e01b815260048101849052602490fd5b80fd5b503462000133576020366003190112620001335760043590600454821015620001335760206200016683620008d1565b905460405160039290921b1c6001600160a01b03168152f35b50346200013357602036600319011262000133576200019d620008ba565b620001a76200091f565b60018060a01b03166001600160601b0360a01b600354161760035580f35b503462000133578060031936011262000133576003546040516001600160a01b039091168152602090f35b50346200013357806003193601126200013357546040516001600160a01b039091168152602090f35b503462000133576020366003190112620001335762000237620008ba565b620002416200091f565b60018060a01b03166001600160601b0360a01b600154161760015580f35b503462000133578060031936011262000133576200027c6200091f565b600080546001600160a01b0319811682556001600160a01b03167f8be0079c531659141344cd1fd0a4f28419497f9722a3daafe3b4186f6b6457e08280a380f35b5034620001335760203660031901126200013357620002db6200091f565b60043560025580f35b503462000133578060031936011262000133576001546040516001600160a01b039091168152602090f35b503462000133578060031936011262000133576020600254604051908152f35b5060c0366003190112620001335760043567ffffffffffffffff8111620005d9576200036090369060040162000868565b90602491823567ffffffffffffffff81116200080e576200038690369060040162000868565b6064356001600160a01b03811690036200080e57620151808060a43510159081620007fd575b81620007ef575b508015620007e1575b15620007a5576002548034106200076c57336064356001600160a01b031603620007325760035484918291829182916001600160a01b03166207a120f13d156200072c573d6200040c816200084b565b906200041c604051928362000812565b81528460203d92013e5b15620006f657604435158080620006eb575b15620005fd575060035460405192916131ab9182850191906001600160a01b031667ffffffffffffffff831186841017620005ea5785946200049094620009e8873960a435936084359360643592604435926200098e565b039082f08015620005dd576001600160a01b0316905b60045468010000000000000000811015620005bb57806001620004cd9201600455620008d1565b81546001600160a01b0394851660039290921b82811b9086901b1990911617909155600154909216803b15620005d95781809160a460405180948193633a03244760e01b835288600484015260018060a01b03606435168a8401526044356044840152816064840152600260848401525af18015620005ce576200059d575b602083836040519060443582528382015260026040820152817f6268964f653fb671b504147c5e2a7e7f1cfd9512b665f4de66b2980551e3b76d606060018060a01b036064351693a3604051908152f35b67ffffffffffffffff8111620005bb5760209350604052386200054c565b634e487b7160e01b825260416004528382fd5b6040513d84823e3d90fd5b5080fd5b50604051903d90823e3d90fd5b634e487b7160e01b875260416004528787fd5b1580620006df575b15620006915760018060a01b03600354169160405191826131ab81011067ffffffffffffffff6131ab850111176200067e57829162000664916131ab620009e8853960843595869160a4359360643591604435916131ab89016200098e565b0391f08015620005dd576001600160a01b031690620004a6565b634e487b7160e01b855260416004528585fd5b60405162461bcd60e51b8152602060048201526021818601527f496e76616c696420746f6b656e206372656174696f6e20706172616d657465726044820152607360f81b6064820152608490fd5b50608435151562000605565b506084351562000438565b60405162461bcd60e51b815260206004820152600f818601526e151c985b9cd9995c8819985a5b1959608a1b6044820152606490fd5b62000426565b60405162461bcd60e51b81526020600482015260138187015272496e76616c696420646576206164647265737360681b6044820152606490fd5b60405162461bcd60e51b81526020600482015260128187015271496e73756666696369656e742066756e647360701b6044820152606490fd5b60405162461bcd60e51b8152602060048201526015818601527424b73b30b634b2103637b1b590323ab930ba34b7b760591b6044820152606490fd5b5061a8c060a43514620003bc565b905060a435061538620003b3565b62093a8060a43511159150620003ac565b8280fd5b90601f8019910116810190811067ffffffffffffffff8211176200083557604052565b634e487b7160e01b600052604160045260246000fd5b67ffffffffffffffff81116200083557601f01601f191660200190565b81601f82011215620008b55780359062000882826200084b565b9262000892604051948562000812565b82845260208383010111620008b557816000926020809301838601378301015290565b600080fd5b600435906001600160a01b0382168203620008b557565b600454811015620009095760046000527f8a35acfbc15ff81a39ae7d344fd709f28e8600b4aa8c65c6b64bfe7fe36bd19b0190600090565b634e487b7160e01b600052603260045260246000fd5b6000546001600160a01b031633036200093457565b60405163118cdaa760e01b8152336004820152602490fd5b919082519283825260005b84811062000979575050826000602080949584010152601f8019910116010190565b60208183018101518483018201520162000957565b9391620009c090620009b160c097939a9998959a60e0885260e08801906200094c565b9086820360208801526200094c565b60408501989098526001600160a01b03918216606085015216608083015260a0820152015256fe604060808152620031ab803803806200001881620009d7565b92833981019060e081830312620009d25780516001600160401b038111620009d257826200004891830162000a19565b602082015190926001600160401b038211620009d2576200006b91830162000a19565b9083810151906200007f6060820162000a78565b936200008e6080830162000a78565b60a083015160c09093015182519193916001600160401b038111620008c757600393845490600182811c92168015620009c7575b6020831014620009b15781601f84931162000959575b50602090601f8311600114620008e957600092620008dd575b50508160011b9160001990861b1c19161783555b85516001600160401b038111620008c7576004968754600181811c91168015620008bc575b6020821014620008a7579081601f8493116200084f575b50602090601f8311600114620007e557600092620007d9575b50508160011b9160001990861b1c19161786555b6001600555633b9aca006006556aa56fa5b99019a5c8000000600755670214e8348c4f0000600d55600e55601780546001600160a01b03199081163317909155600b805482166001600160a01b03958616179055601580548216734752ba5dbc23f44d87826276bf6fd6b1c372ad24179055913015620007c257600a9260ff845460b01c16600014620007a2576200020562000bc7565b15806200078f575b1562000756576200021e3062000af3565b84630bebc200988960095516908454161783558462000247575b875161227c908162000f0f8239f35b620002558234101562000a8d565b600260055414620007465760026005558496858101808211620006da576200027d9062000ca2565b916001905b6001811162000704575081600019048111620006da57620002a69291029062000bb9565b946203938786810281810488036200056d57640574fbde6080980291620186a091808404831490151715620006ef576729a2241af62c000080930496619c409a8b890298808a048d1490151715620005825762012ebc809904966103e8808902908982041489151715620006da5785900462000323818a62000acf565b90620003328284101562000a8d565b60008080808489600b541661c350f13d15620006d4573d6200035e6200035882620009fd565b620009d7565b908152600060203d92013e5b156200069f576200037e90600c5462000acf565b600c5560009181811115620006965762000399925062000bb9565b995b826017541633146000146200068e5782895416915b620003bb8362000d32565b50620003ca8960085462000acf565b600855620003db8260095462000acf565b6009819055600654811062000668575050885460ff60a01b1916600160a01b1789556006546009546200041a92620004139162000bb9565b9062000bb9565b995b8015801562000631575b5050670de0b6b3a764000091828b02928b8404148b1517156200059757811697881562000619575460b01c60ff1615620005f8576200046462000bc7565b1580620005e5575b15620005ac57906200047e9162000b6f565b600254986009546001810180821162000597579062000413620004a5620004ac9362000ca2565b9162000ca2565b80830292830481036200058257029181830414901517156200056d570487810297818904149015171562000558575091817ecdd112a5bab661c199cefe1b6b407daede4238a9f24d764373bed654d7c22b93602093600052600f84528860002054895191825284820152857f23b8a9f7d1252cf262e22214b242cc92ed7ed7df9228726be4d037a26e0838948a3093a4865193845230950492a460016005553880808080808062000238565b601190634e487b7160e01b6000525260246000fd5b601183634e487b7160e01b6000525260246000fd5b601186634e487b7160e01b6000525260246000fd5b601187634e487b7160e01b6000525260246000fd5b8c5162461bcd60e51b81526020818801818152600b918101919091526a2737903a3930b739b332b960a91b604082015281906060010390fd5b50620005f18162000c41565b156200046c565b6200060262000bc7565b620005ac5790620006139162000b6f565b6200047e565b508c5163ec442f0560e01b8152600081880152602490fd5b6000808093819382906200065e575b87871690f1156200065357388062000426565b8c513d6000823e3d90fd5b506108fc62000640565b6326be3680919c9250106200041c57885460ff60a81b1916600160a81b1789556200041c565b3391620003b0565b5050996200039b565b8f5162461bcd60e51b81526020818b0152600f60248201526e151c985b9cd9995c8819985a5b1959608a1b6044820152606490fd5b6200036a565b601188634e487b7160e01b6000525260246000fd5b601184634e487b7160e01b6000525260246000fd5b918060001904811162000731576001831662000727575b80029160011c62000282565b809102906200071b565b601189634e487b7160e01b6000525260246000fd5b8751633ee5aeb560e01b81528690fd5b885162461bcd60e51b81526020818901818152600b918101919091526a2737903a3930b739b332b960a91b604082015281906060010390fd5b506200079b3062000c41565b156200020d565b620007ac62000bc7565b6200075657620007bc3062000af3565b6200021e565b875163ec442f0560e01b8152600081880152602490fd5b0151905038806200015a565b60008a8152602081209350601f198516905b8181106200083657509084600195949392106200081d575b505050811b0186556200016e565b015160001983881b60f8161c191690553880806200080f565b92936020600181928786015181550195019301620007f7565b909150886000526020600020601f840160051c810191602085106200089c575b90601f859493920160051c01905b8181106200088c575062000141565b600081558493506001016200087d565b90915081906200086f565b602289634e487b7160e01b6000525260246000fd5b90607f16906200012a565b634e487b7160e01b600052604160045260246000fd5b015190503880620000f1565b9250856000526020600020906000935b601f19841685106200093d576001945083601f1981161062000924575b505050811b01835562000105565b015160001983881b60f8161c1916905538808062000916565b81810151835560209485019460019093019290910190620008f9565b909150856000526020600020601f840160051c81019160208510620009a6575b90601f859493920160051c01905b818110620009965750620000d8565b6000815584935060010162000987565b909150819062000979565b634e487b7160e01b600052602260045260246000fd5b91607f1691620000c2565b600080fd5b6040519190601f01601f191682016001600160401b03811183821017620008c757604052565b6001600160401b038111620008c757601f01601f191660200190565b919080601f84011215620009d25782519062000a396200035883620009fd565b91808352602091828287010111620009d25760005b81811062000a6457508260009394955001015290565b858101830151848201840152820162000a4e565b51906001600160a01b0382168203620009d257565b1562000a9557565b60405162461bcd60e51b8152602060048201526012602482015271496e73756666696369656e742066756e647360701b6044820152606490fd5b9190820180921162000add57565b634e487b7160e01b600052601160045260246000fd5b6002546aa56fa5b99019a5c80000009182820180921162000add576002919091556001600160a01b0316906000906000805160206200318b833981519152906020908462000b59576aa56fa5b99019a5c7ffffff19600254016002555b604051908152a3565b8484528382526040842081815401905562000b50565b6000805160206200318b833981519152602060009262000b928560025462000acf565b6002556001600160a01b0316938415841462000b59578060025403600255604051908152a3565b9190820391821162000add57565b601254801515908162000c35575b5062000c30576000808052600f6020527ff4803e074bd026baaf6ed2e288c9515f68c72fb7216eebdd7cae1718a53ec37554801562000c2c574281101562000c1b575090565b62000c299150429062000bb9565b90565b5090565b600090565b90504210153862000bd5565b601254801515908162000c96575b5062000c90576001600160a01b03166000908152600f6020526040902054801562000c90574281101562000c835750600090565b62000c2990429062000bb9565b50600090565b90504210153862000c4f565b801562000c9057808060011462000d2b5760021462000d25576001908161013382101682600b8310161762000d1d57906003815b80821162000cf05750508160001904811162000add570290565b90928060001904811162000add5781841662000d13575b800292811c9062000cd6565b8092029162000d07565b600391500a90565b50600890565b5050600190565b601254801515908162000f03575b5062000ee65760105480158062000edb575b1562000dc1575062000d6b600e54806010554262000acf565b9060018060a01b03169081600052600f6020526040600020554260115562000d96600e544262000acf565b60125542601355601480546001600160a01b031916821790556000908152600f602052604090205490565b600954630bebc1ff1981019190821162000add576011549162000de5834262000bb9565b6014546001600160a01b03939062000dff90851662000c41565b908184029380850483149015171562000add576006548060041b908082046010149015171562000add57801562000ec55762000e4a94049081111562000eb357505060009362000acf565b62000e56834262000acf565b1062000e975762000e68824262000acf565b92169081600052600f60205260406000209283554260135560105560018060a01b031960145416176014555490565b9190504260135516600052600f60205260006040812055600090565b62000ebe9162000bb9565b9362000acf565b634e487b7160e01b600052601260045260246000fd5b506012541562000d52565b6001600160a01b03166000908152600f6020526040812081905590565b905042113862000d4056fe608060408181526004918236101561001657600080fd5b600092833560e01c91826305202a6f146112ef5750816306fdde03146111fa578163095ea7b3146111d05781631694505e146111a757816318160ddd1461118857816319bf01c01461116957816323b872dd14611075578163313ce5671461105957816333d06de91461103a5781633610724e14610c725781633ad10ef614610c4957816349bd5a5e14610c205781634af18f4f14610c00578163513d266114610be1578163571fe01614610bc25781635e56bb1514610ba357816361e40d6b14610b84578163663eb9f114610abf5781636d0ef93c14610aa057816370a0823114610a6957816372e25bb714610a4257816373545ce214610a2357816374767b1414610a015781638078e6b0146109de57816393329f86146109b857816395d89b41146108b55781639c08c0a214610891578163a4beda6314610859578163a75d260914610818578163a8c6acda146107f5578163a9059cbb146107c4578163b0b95fa21461079b578163b1dfc95f1461077c578163b6a1b6a514610753578163bf5839031461072f578163c7a0206114610710578163cbcff5fb146106e9578163d94e1d52146106c5578163dbd8c057146106a6578163dd62ed3e1461065d578163de11c94a14610634578163e436295314610615578163eced5526146105f2578163ed9772b614610234575063f446c1d01461021457600080fd5b3461023057816003193601126102305760209051620393878152f35b5080fd5b919050346105ee57806003193601126105ee578135916102526116d0565b82159061025f82156115fd565b600a9061027c825460ff8160a01c161590816105df575b50611634565b610285336120f4565b6105a85761029285611c9b565b926103e880850290858204148515171561059557620186a09004906102b782866116c3565b92834710610568573389528860205286892054670de0b6b3a764000092838a02938a850414171561055557826102ee9110156118d5565b60243584106105275761030083611810565b3315610510573330148015908180610508575b80610500575b806104f1575b6104bc57865460b01c60ff161561047257505061033b336120f4565b1580610463575b15610446575087809361036c610364839561035e859633611d3a565b836116b6565b6008546116c3565b60085561037b896009546116c3565b60095581811561043d575b3390f115610433576326be36806009541080610425575b610414575b50600254916103af61177f565b9181519081528360208201523390857fc3b2c4fcdf25a3a78c81bd9f335d8bab96fe7dd1288668b957ebdb1b70b4de39843093a4519283527ecdd112a5bab661c199cefe1b6b407daede4238a9f24d764373bed654d7c22b60203094a4600160055580f35b805460ff60a81b19169055386103a2565b5060ff815460a81c1661039d565b82513d86823e3d90fd5b506108fc610386565b865162461bcd60e51b815290819061045f908201611cb8565b0390fd5b5061046c612081565b15610342565b906104b5575b80156104ad575b156104465761048d336120f4565b610446575087809361036c61036483956104a8859633611d3a565b61035e565b50600161047f565b5088610478565b885162461bcd60e51b8152602081850152600f60248201526e4e6f207472616e73666572206e657760881b6044820152606490fd5b5060ff875460b01c161561031f565b503015610319565b506001610313565b8651634b637e8f60e11b8152908101899052602490fd5b606490602088519162461bcd60e51b83528201526008602482015267536c69707061676560c01b6044820152fd5b634e487b7160e01b8a526011825260248afd5b606490602088519162461bcd60e51b83528201526007602482015266098deee408aa8960cb1b6044820152fd5b634e487b7160e01b885260118352602488fd5b606490602085519162461bcd60e51b83528201526011602482015270151bdad95b9cc8185c99481b1bd8dad959607a1b6044820152fd5b60ff915060b01c161538610276565b8280fd5b50503461023057816003193601126102305760209051670de0b6b3a76400008152f35b5050346102305781600319360112610230576020906010549051908152f35b50503461023057816003193601126102305760175490516001600160a01b039091168152602090f35b5050346102305780600319360112610230578060209261067b61135c565b610683611377565b6001600160a01b0391821683526001865283832091168252845220549051908152f35b505034610230578160031936011261023057602090600c549051908152f35b5050346102305781600319360112610230576020906106e2612148565b9051908152f35b50503461023057816003193601126102305760209060ff600a5460b01c1690519015158152f35b5050346102305781600319360112610230576020906008549051908152f35b5050346102305781600319360112610230576020906106e2600654600954906116c3565b505034610230578160031936011261023057600b5490516001600160a01b039091168152602090f35b50503461023057816003193601126102305760209051630bebc2008152f35b50503461023057816003193601126102305760145490516001600160a01b039091168152602090f35b5050346102305780600319360112610230576020906107ee6107e461135c565b6024359033611412565b5160018152f35b82843461081557602036600319011261081557506106e260209235611c9b565b80fd5b9050346105ee5760203660031901126105ee573591601854831015610815575061084360209261138d565b905491519160018060a01b039160031b1c168152f35b5050346102305760203660031901126102305760209181906001600160a01b0361088161135c565b168152600f845220549051908152f35b8380600319360112610815576108a56116d0565b6108ad611950565b600160055580f35b838334610230578160031936011261023057805191809380549160019083821c928285169485156109ae575b602095868610811461099b57858952908115610977575060011461091f575b61091b8787610911828c03836113da565b5191829182611313565b0390f35b81529295507f8a35acfbc15ff81a39ae7d344fd709f28e8600b4aa8c65c6b64bfe7fe36bd19b5b828410610964575050508261091b9461091192820101948680610900565b8054868501880152928601928101610946565b60ff19168887015250505050151560051b83010192506109118261091b8680610900565b634e487b7160e01b845260228352602484fd5b93607f16936108e1565b505034610230576020366003190112610230576020906106e26109d961135c565b6120f4565b50503461023057816003193601126102305760209051673782dace9d9000008152f35b505034610230578160031936011261023057602090516611c37937e080008152f35b5050346102305781600319360112610230576020906012549051908152f35b50503461023057816003193601126102305760209060ff600a5460a81c1690519015158152f35b5050346102305760203660031901126102305760209181906001600160a01b03610a9161135c565b16815280845220549051908152f35b5050346102305781600319360112610230576020906009549051908152f35b8284346108155780600319360112610815579080519182906018549182855260208095018093601884527fb13d2d76d1f4b7be834882e410b3e3a8afaf69f83600ae24db354391d2378d2e90845b818110610b675750505081610b239103826113da565b83519485948186019282875251809352850193925b828110610b4757505050500390f35b83516001600160a01b031685528695509381019392810192600101610b38565b82546001600160a01b031684529288019260019283019201610b0d565b505034610230578160031936011261023057602090600e549051908152f35b5050346102305781600319360112610230576020906013549051908152f35b5050346102305781600319360112610230576020906006549051908152f35b505034610230578160031936011261023057602090516326be36808152f35b82843461081557602036600319011261081557506106e2602092356117f4565b50503461023057816003193601126102305760165490516001600160a01b039091168152602090f35b505034610230578160031936011261023057600a5490516001600160a01b039091168152602090f35b83836020806003193601126105ee57833593610c8c6116d0565b8491610c97336120f4565b61100457610ca68615156115fd565b600a95610cc2875460ff8160a01c16159081610ff55750611634565b610ccb816117f4565b906103e8808302908382041483151715610fe257620186a0900494610cf086846116b6565b95863410610faa57610d0190611810565b610d0a33611ece565b50610d17836008546116b6565b600855610d26826009546116b6565b60098190556006548110610f86575050875460ff60a01b1916600160a01b178855600654600954610d6092610d5a916116c3565b906116c3565b925b670de0b6b3a76400009788850298858a041485151715610f73573315610f5c5730158015918280610f55575b80610f4c575b80610f3d575b610f08575460b01c60ff1615610ec7575050610db4612081565b1580610eb7575b15610e9e5750610dcf869796959633611cde565b7ecdd112a5bab661c199cefe1b6b407daede4238a9f24d764373bed654d7c22b60025492610dfb61177f565b92338852600f8252888820548951918252828201523390867f23b8a9f7d1252cf262e22214b242cc92ed7ed7df9228726be4d037a26e0838948b3093a487519485523094a4803411600014610e9757610e5490346116c3565b8015908115610e67575b82600160055580f35b8280929181928290610e8e575b3390f115610e8457818180610e5e565b51903d90823e3d90fd5b506108fc610e74565b5080610e54565b855162461bcd60e51b815290819061045f908201611cb8565b50610ec1336120f4565b15610dbb565b90610f00575b8015610ef9575b15610e9e57610ee1612081565b610e9e5750610ef4869796959633611cde565b610dcf565b5086610ed4565b506001610ecd565b885162461bcd60e51b8152808501879052600f60248201526e4e6f207472616e73666572206e657760881b6044820152606490fd5b5060ff815460b01c1615610d9a565b50303314610d94565b5089610d8e565b865163ec442f0560e01b8152808301899052602490fd5b634e487b7160e01b885260118252602488fd5b6326be36809195925010610d6257875460ff60a81b1916600160a81b178855610d62565b875162461bcd60e51b81528087018690526012602482015271496e73756666696369656e742066756e647360701b6044820152606490fd5b634e487b7160e01b885260118552602488fd5b60ff915060b01c161589610276565b835162461bcd60e51b815291820152601160248201527020b63932b0b23c902137bab3b43a1024b760791b604482015260649150fd5b505034610230578160031936011261023057602090600d549051908152f35b5050346102305781600319360112610230576020905160128152f35b905082346108155760603660031901126108155761109161135c565b611099611377565b916044359360018060a01b0383168083526001602052868320338452602052868320549160001983036110d5575b6020886107ee898989611412565b86831061113d57811561112657331561110f575082526001602090815286832033845281529186902090859003905582906107ee876110c7565b8751634a1406b160e11b8152908101849052602490fd5b875163e602df0560e01b8152908101849052602490fd5b8751637dc7a0d960e11b8152339181019182526020820193909352604081018790528291506060010390fd5b5050346102305781600319360112610230576020906011549051908152f35b5050346102305781600319360112610230576020906002549051908152f35b50503461023057816003193601126102305760155490516001600160a01b039091168152602090f35b5050346102305780600319360112610230576020906107ee6111f061135c565b602435903361156a565b919050346105ee57826003193601126105ee57805191836003549060019082821c9282811680156112e5575b60209586861082146112d257508488529081156112b05750600114611257575b61091b8686610911828b03836113da565b929550600383527fc2575a0e9e593c00f959f8c92f12db2869c3395a3b0502d05e2516446f71f85b5b82841061129d575050508261091b94610911928201019438611246565b8054868501880152928601928101611280565b60ff191687860152505050151560051b83010192506109118261091b38611246565b634e487b7160e01b845260229052602483fd5b93607f1693611226565b84903461023057816003193601126102305760209060ff600a5460a01c1615158152f35b6020808252825181830181905290939260005b82811061134857505060409293506000838284010152601f8019910116010190565b818101860151848201604001528501611326565b600435906001600160a01b038216820361137257565b600080fd5b602435906001600160a01b038216820361137257565b6018548110156113c45760186000527fb13d2d76d1f4b7be834882e410b3e3a8afaf69f83600ae24db354391d2378d2e0190600090565b634e487b7160e01b600052603260045260246000fd5b90601f8019910116810190811067ffffffffffffffff8211176113fc57604052565b634e487b7160e01b600052604160045260246000fd5b91906001600160a01b0380841690811561155157821690811561153857301480158092819361152f575b81611525575b5080611515575b6114de57600a5460b01c60ff16156114a6575050611466836120f4565b1580611496575b1561147d5761147b92611df6565b565b60405162461bcd60e51b81528061045f60048201611cb8565b506114a0816120f4565b1561146d565b906114d6575b80156114ce575b1561147d576114c1836120f4565b61147d5761147b92611df6565b5060006114b3565b5060006114ac565b60405162461bcd60e51b815260206004820152600f60248201526e4e6f207472616e73666572206e657760881b6044820152606490fd5b5060ff600a5460b01c1615611449565b9050301438611442565b6001915061143c565b60405163ec442f0560e01b815260006004820152602490fd5b604051634b637e8f60e11b815260006004820152602490fd5b6001600160a01b039081169182156115e457169182156115cb5760207f8c5be1e5ebec7d5bd14f71427d1e84f3dd0314c0f7b2291e5b200ac8c7c3b925918360005260018252604060002085600052825280604060002055604051908152a3565b604051634a1406b160e11b815260006004820152602490fd5b60405163e602df0560e01b815260006004820152602490fd5b1561160457565b60405162461bcd60e51b81526020600482015260086024820152670c08185b5bdd5b9d60c21b6044820152606490fd5b1561163b57565b60405162461bcd60e51b815260206004820152600a602482015269437572766520646f6e6560b01b6044820152606490fd5b8181029291811591840414171561168057565b634e487b7160e01b600052601160045260246000fd5b81156116a0570490565b634e487b7160e01b600052601260045260246000fd5b9190820180921161168057565b9190820391821161168057565b6002600554146116e1576002600555565b604051633ee5aeb560e01b8152600490fd5b80156117795780806001146117725760021461176c576001908161013382101682600b8310161761176457906003815b80821161173b57505081600019048111611680570290565b9092806000190481116116805781841661175b575b800292811c90611723565b80920291611750565b600391500a90565b50600890565b5050600190565b50600090565b600954600181019081811161168057610d5a61179d6117a3936116f3565b916116f3565b6203938790808202918204810361168057640574fbde600290808204620186a01490151715611680576729a2241af62c00009004619c40908181029181830414901517156116805762012ebc900490565b6117a390610d5a61179d61180b60095493846116b6565b6116f3565b6000808080808560018060a01b03600b541661c350f1903d156118c0573d9067ffffffffffffffff82116118ac5760405191611856601f8201601f1916602001846113da565b825260203d92013e5b156118755761187090600c546116b6565b600c55565b60405162461bcd60e51b815260206004820152600f60248201526e151c985b9cd9995c8819985a5b1959608a1b6044820152606490fd5b634e487b7160e01b81526041600452602490fd5b5061185f565b60001981146116805760010190565b156118dc57565b60405162461bcd60e51b815260206004820152600a6024820152694c6f7720746f6b656e7360b01b6044820152606490fd5b601854680100000000000000008110156113fc57806001611932920160185561138d565b819291549060031b9160018060a01b03809116831b921b1916179055565b600a5460ff8160a01c168015611c8e575b15611c585760b01c60ff16611c245760188054806119a857505033600052600060205261199f69d3c21bcecceda100000060406000205410156118d5565b61147b3361190e565b60005b818110611bf05750503360005260006020526119d869d3c21bcecceda100000060406000205410156118d5565b6119e13361190e565b6005815410156119ee5750565b9060005b8254811015611a445760008080806611c37937e08000611a118661138d565b905460039190911b1c6001600160a01b031682f115611a3857611a33906118c6565b6119f2565b6040513d6000823e3d90fd5b509060005b81549081811015611aa0578115611a8a57611a859160001901611a6b8161138d565b81549060018060a01b039060031b1b1916905583556118c6565b611a49565b634e487b7160e01b600052603160045260246000fd5b505050611aca611ac1611ab8600d546009549061166d565b60065490611696565b80600d55611810565b611ad8600d546008546116c3565b600855476658d15e17627fff19810190808211611680576658d15e1771c23f1901908111611680576007546015546001600160a01b0390611b1d90839083163061156a565b601554166064420180421161168057839160c4606092604051948593849263f305d71960e01b845230600485015288602485015260006044850152600060648501526000608485015260a48401525af18015611a3857611bc5575b507faf60794da385ef41a5f66c38529ba4f0581b8bca348871688b118d212b26588191606091600160b01b60ff60b01b19600a541617600a556040519182526020820152426040820152a1565b606090813d8111611be9575b611bdb81836113da565b810103126113725738611b78565b503d611bd1565b611bf98161138d565b905460039190911b1c6001600160a01b03163314611c1f57611c1a906118c6565b6119ab565b505050565b60405162461bcd60e51b815260206004820152600c60248201526b105b1c9958591e481cd95b9d60a21b6044820152606490fd5b60405162461bcd60e51b815260206004820152600e60248201526d4375727665206e6f7420646f6e6560901b6044820152606490fd5b5060ff8160a81c16611961565b6117a390610d5a61179d611cb260095493846116c3565b926116f3565b60609060208152600b60208201526a2737903a3930b739b332b960a91b60408201520190565b6000805160206122278339815191526020600092611cfe856002546116b6565b6002556001600160a01b03169384158414611d255780600254036002555b604051908152a3565b84845283825260408420818154019055611d1c565b9091906001600160a01b0381169081611d845750600080516020612227833981519152602084611d6f600095966002546116b6565b6002555b8060025403600255604051908152a3565b92600082815280602052604081205494828610611dc55750818160406000805160206122278339815191529460009798876020965283865203912055611d73565b60405163391434e360e21b81526001600160a01b039190911660048201526024810186905260448101839052606490fd5b6001600160a01b0380821692909183611e5d575060008051602061222783398151915291602091611e29866002546116b6565b6002555b169384611e45578060025403600255604051908152a3565b84600052600082526040600020818154019055611d1c565b60009084825281602052604082205490868210611e9c575091816040876020958860008051602061222783398151915298965283875203912055611e2d565b60405163391434e360e21b81526001600160a01b03919091166004820152602481019190915260448101869052606490fd5b6012548015159081612077575b5061205a57601054801580612050575b15611f5b5750611f01600e5480601055426116b6565b9060018060a01b03169081600052600f60205260406000205542601155611f2a600e54426116b6565b60125542601355806bffffffffffffffffffffffff60a01b6014541617601455600052600f60205260406000205490565b600954630bebc1ff1981019081116116805760115491611f7b83426116c3565b6014546001600160a01b039390611f9e90611f979086166120f4565b809261166d565b92600654938460041b948086046010149015171561168057611fd594611fc391611696565b908111156120415750506000936116b6565b611fdf83426116b6565b1061202557611fee82426116b6565b92169081600052600f6020526040600020928355426013556010556bffffffffffffffffffffffff60a01b60145416176014555490565b9190504260135516600052600f60205260006040812055600090565b61204a916116c3565b936116b6565b5060125415611eeb565b6001600160a01b03166000908152600f6020526040812081905590565b9050421138611edb565b60125480151590816120e9575b506120e4576000808052600f6020527ff4803e074bd026baaf6ed2e288c9515f68c72fb7216eebdd7cae1718a53ec3755480156120e057428110156120d1575090565b6120dd915042906116c3565b90565b5090565b600090565b90504210153861208e565b601254801515908161213d575b50611779576001600160a01b03166000908152600f6020526040902054801561177957428110156121325750600090565b6120dd9042906116c3565b905042101538612101565b6012548015908115908161221c575b50611779576010546011546009549092630bebc1ff1982019182116116805782159081612214575b5015612194575050506120dd600e54426116b6565b61219e83426116c3565b906121b5611f9760018060a01b03601454166120f4565b92600654938460041b9480860460101490151715611680576121ec946121da91611696565b908111156122055750506000926116b6565b6121f682426116b6565b10611779576120dd90426116b6565b61220e916116c3565b926116b6565b90503861217f565b905042113861215756feddf252ad1be2c89b69c2b068fc378daa952ba7f163c4a11628f55a4df523b3efa2646970667358221220bca9aa78515cfe294610736fa603bc91b4f400e995400b0b504b97306e289aea64736f6c63430008140033ddf252ad1be2c89b69c2b068fc378daa952ba7f163c4a11628f55a4df523b3efa264697066735822122023f6719966d3e6d6f4b1c3ad3ba96de35e98a62d0f70ba798d888b6f6dc7ed6a64736f6c63430008140033","linkReferences":{}},"methodIdentifiers":{"createToken(string,string,uint256,address,uint256,uint256)":"134d3a40","createTokenRevenue()":"3b527dd6","owner()":"8da5cb5b","renounceOwnership()":"715018a6","revenueCollector()":"b6a1b6a5","setCreateTokenRevenue(uint256)":"69c7fddf","setRevenueCollector(address)":"cde38cdf","setSuperMemeRegistry(address)":"7884f146","superMemeRegistry()":"408a7344","tokenAddresses(uint256)":"e5df8b84","transferOwnership(address)":"f2fde38b"},"id":42}