{"abi":[{"type":"constructor","inputs":[{"name":"_superMemeRegistry","type":"address","internalType":"address"}],"stateMutability":"nonpayable"},{"type":"function","name":"createToken","inputs":[{"name":"_name","type":"string","internalType":"string"},{"name":"_symbol","type":"string","internalType":"string"},{"name":"_amount","type":"uint256","internalType":"uint256"},{"name":"_devAddress","type":"address","internalType":"address"},{"name":"_buyEth","type":"uint256","internalType":"uint256"},{"name":"_tMax","type":"uint256","internalType":"uint256"}],"outputs":[{"name":"token","type":"address","internalType":"address"}],"stateMutability":"payable"},{"type":"function","name":"createTokenRevenue","inputs":[],"outputs":[{"name":"","type":"uint256","internalType":"uint256"}],"stateMutability":"view"},{"type":"function","name":"owner","inputs":[],"outputs":[{"name":"","type":"address","internalType":"address"}],"stateMutability":"view"},{"type":"function","name":"renounceOwnership","inputs":[],"outputs":[],"stateMutability":"nonpayable"},{"type":"function","name":"revenueCollector","inputs":[],"outputs":[{"name":"","type":"address","internalType":"address"}],"stateMutability":"view"},{"type":"function","name":"setCreateTokenRevenue","inputs":[{"name":"_createTokenRevenue","type":"uint256","internalType":"uint256"}],"outputs":[],"stateMutability":"nonpayable"},{"type":"function","name":"setRevenueCollector","inputs":[{"name":"_revenueCollector","type":"address","internalType":"address"}],"outputs":[],"stateMutability":"nonpayable"},{"type":"function","name":"setSuperMemeRegistry","inputs":[{"name":"_superMemeRegistry","type":"address","internalType":"address"}],"outputs":[],"stateMutability":"nonpayable"},{"type":"function","name":"superMemeRegistry","inputs":[],"outputs":[{"name":"","type":"address","internalType":"contract ISuperMemeRegistry"}],"stateMutability":"view"},{"type":"function","name":"tokenAddresses","inputs":[{"name":"","type":"uint256","internalType":"uint256"}],"outputs":[{"name":"","type":"address","internalType":"address"}],"stateMutability":"view"},{"type":"function","name":"transferOwnership","inputs":[{"name":"newOwner","type":"address","internalType":"address"}],"outputs":[],"stateMutability":"nonpayable"},{"type":"event","name":"OwnershipTransferred","inputs":[{"name":"previousOwner","type":"address","indexed":true,"internalType":"address"},{"name":"newOwner","type":"address","indexed":true,"internalType":"address"}],"anonymous":false},{"type":"event","name":"TokenCreated","inputs":[{"name":"tokenAddress","type":"address","indexed":true,"internalType":"address"},{"name":"devAddress","type":"address","indexed":true,"internalType":"address"},{"name":"amount","type":"uint256","indexed":false,"internalType":"uint256"},{"name":"devLocked","type":"bool","indexed":false,"internalType":"bool"},{"name":"tokenType","type":"uint256","indexed":false,"internalType":"uint256"}],"anonymous":false},{"type":"error","name":"OwnableInvalidOwner","inputs":[{"name":"owner","type":"address","internalType":"address"}]},{"type":"error","name":"OwnableUnauthorizedAccount","inputs":[{"name":"account","type":"address","internalType":"address"}]}],"bytecode":{"object":"0x60806040526602d79883d2000060025534801561001b57600080fd5b50604051613d94380380613d9483398101604081905261003a916100df565b338061006057604051631e4fbdf760e01b81526000600482015260240160405180910390fd5b6100698161008f565b50600180546001600160a01b0319166001600160a01b039290921691909117905561010f565b600080546001600160a01b038381166001600160a01b0319831681178455604051919092169283917f8be0079c531659141344cd1fd0a4f28419497f9722a3daafe3b4186f6b6457e09190a35050565b6000602082840312156100f157600080fd5b81516001600160a01b038116811461010857600080fd5b9392505050565b613c768061011e6000396000f3fe608060405260043610620000a95760003560e01c80637884f146116200006c5780637884f146146200016a5780638da5cb5b146200018f578063b6a1b6a514620001af578063cde38cdf14620001d1578063e5df8b8414620001f6578063f2fde38b146200021b57600080fd5b8063134d3a4014620000ae5780633b527dd614620000e2578063408a7344146200010957806369c7fddf146200012b578063715018a61462000152575b600080fd5b620000c5620000bf3660046200089d565b62000240565b6040516001600160a01b0390911681526020015b60405180910390f35b348015620000ef57600080fd5b50620000fa60025481565b604051908152602001620000d9565b3480156200011657600080fd5b50600154620000c5906001600160a01b031681565b3480156200013857600080fd5b50620001506200014a36600462000936565b6200065a565b005b3480156200015f57600080fd5b506200015062000669565b3480156200017757600080fd5b50620001506200018936600462000950565b62000681565b3480156200019c57600080fd5b506000546001600160a01b0316620000c5565b348015620001bc57600080fd5b50600354620000c5906001600160a01b031681565b348015620001de57600080fd5b5062000150620001f036600462000950565b620006ad565b3480156200020357600080fd5b50620000c56200021536600462000936565b620006d9565b3480156200022857600080fd5b50620001506200023a36600462000950565b62000704565b600062015180821015801562000259575062093a808211155b801562000272575062000270620151808362000975565b155b806200027f57508161a8c0145b620002c95760405162461bcd60e51b815260206004820152601560248201527424b73b30b634b2103637b1b590323ab930ba34b7b760591b60448201526064015b60405180910390fd5b600254341015620003125760405162461bcd60e51b8152602060048201526012602482015271496e73756666696369656e742066756e647360701b6044820152606401620002c0565b6001600160a01b0384163314620003625760405162461bcd60e51b8152602060048201526013602482015272496e76616c696420646576206164647265737360681b6044820152606401620002c0565b6003546002546040516000926001600160a01b0316916207a1209184818181858888f193505050503d8060008114620003b8576040519150601f19603f3d011682016040523d82523d6000602084013e620003bd565b606091505b5050905080620004025760405162461bcd60e51b815260206004820152600f60248201526e151c985b9cd9995c8819985a5b1959608a1b6044820152606401620002c0565b851580156200040f575083155b15620004775787878787600360009054906101000a90046001600160a01b031688886040516200043f90620007c7565b620004519796959493929190620009e0565b604051809103906000f0801580156200046e573d6000803e3d6000fd5b5091506200053c565b600086118015620004885750600084115b15620004e9578388888888600360009054906101000a90046001600160a01b03168989604051620004b990620007c7565b620004cb9796959493929190620009e0565b6040518091039082f09050801580156200046e573d6000803e3d6000fd5b60405162461bcd60e51b815260206004820152602160248201527f496e76616c696420746f6b656e206372656174696f6e20706172616d657465726044820152607360f81b6064820152608401620002c0565b600480546001808201835560008381527f8a35acfbc15ff81a39ae7d344fd709f28e8600b4aa8c65c6b64bfe7fe36bd19b90920180546001600160a01b0319166001600160a01b038781169182179092559154604051633a03244760e01b8152948501929092528881166024850152604484018a90526064840192909252600260848401521690633a0324479060a401600060405180830381600087803b158015620005e757600080fd5b505af1158015620005fc573d6000803e3d6000fd5b5050604080518981526000602082015260028183015290516001600160a01b038981169450861692507f6268964f653fb671b504147c5e2a7e7f1cfd9512b665f4de66b2980551e3b76d9181900360600190a3509695505050505050565b6200066462000748565b600255565b6200067362000748565b6200067f600062000777565b565b6200068b62000748565b600180546001600160a01b0319166001600160a01b0392909216919091179055565b620006b762000748565b600380546001600160a01b0319166001600160a01b0392909216919091179055565b60048181548110620006ea57600080fd5b6000918252602090912001546001600160a01b0316905081565b6200070e62000748565b6001600160a01b0381166200073a57604051631e4fbdf760e01b815260006004820152602401620002c0565b620007458162000777565b50565b6000546001600160a01b031633146200067f5760405163118cdaa760e01b8152336004820152602401620002c0565b600080546001600160a01b038381166001600160a01b0319831681178455604051919092169283917f8be0079c531659141344cd1fd0a4f28419497f9722a3daafe3b4186f6b6457e09190a35050565b6132058062000a3c83390190565b634e487b7160e01b600052604160045260246000fd5b600082601f830112620007fd57600080fd5b813567ffffffffffffffff808211156200081b576200081b620007d5565b604051601f8301601f19908116603f01168101908282118183101715620008465762000846620007d5565b816040528381528660208588010111156200086057600080fd5b836020870160208301376000602085830101528094505050505092915050565b80356001600160a01b03811681146200089857600080fd5b919050565b60008060008060008060c08789031215620008b757600080fd5b863567ffffffffffffffff80821115620008d057600080fd5b620008de8a838b01620007eb565b97506020890135915080821115620008f557600080fd5b506200090489828a01620007eb565b955050604087013593506200091c6060880162000880565b92506080870135915060a087013590509295509295509295565b6000602082840312156200094957600080fd5b5035919050565b6000602082840312156200096357600080fd5b6200096e8262000880565b9392505050565b6000826200099357634e487b7160e01b600052601260045260246000fd5b500690565b6000815180845260005b81811015620009c057602081850181015186830182015201620009a2565b506000602082860101526020601f19601f83011685010191505092915050565b60e081526000620009f560e083018a62000998565b828103602084015262000a09818a62000998565b604084019890985250506001600160a01b03948516606082015292909316608083015260a082015260c001529291505056fe6080604052633b9aca006006556aa56fa5b99019a5c8000000600755670214e8348c4f0000600d556040516200320538038062003205833981016040819052620000499162000c00565b8686600362000059838262000d3a565b50600462000068828262000d3a565b5050600160055550600e819055601780546001600160a01b03199081163317909155600b80546001600160a01b03861690831617905560158054909116734752ba5dbc23f44d87826276bf6fd6b1c372ad24179055600754620000cd9030906200015b565b630bebc200600955600a80546001600160a01b0319166001600160a01b03861617905584156200014e5781341015620001425760405162461bcd60e51b8152602060048201526012602482015271496e73756666696369656e742066756e647360701b60448201526064015b60405180910390fd5b6200014e858362000199565b5050505050505062000f9a565b6001600160a01b038216620001875760405163ec442f0560e01b81526000600482015260240162000139565b62000195600083836200045c565b5050565b620001a3620005c6565b6000620001b083620005f1565b90506000620186a0620001c66103e88462000e1c565b620001d2919062000e36565b90506000620001e2828462000e59565b9050808410156200022b5760405162461bcd60e51b8152602060048201526012602482015271496e73756666696369656e742066756e647360701b604482015260640162000139565b620002368262000694565b60008185116200024857600062000254565b62000254828662000e6f565b6017549091506000906001600160a01b0316331462000274573362000281565b600a546001600160a01b03165b90506200028e816200074f565b508460086000828254620002a3919062000e59565b925050819055508660096000828254620002be919062000e59565b9091555050600654600954106200030957600a805460ff60a01b1916600160a01b179055600954620002f290889062000e6f565b60065462000301919062000e6f565b96506200032b565b6326be3680600954106200032b57600a805460ff60a81b1916600160a81b1790555b81156200036b576040516001600160a01b0382169083156108fc029084906000818181858888f1935050505015801562000369573d6000803e3d6000fd5b505b6200038a816200038489670de0b6b3a764000062000e1c565b6200015b565b60006200039660025490565b90506000620003a66001620005f1565b6001600160a01b0384166000818152600f60209081526040918290205482518c815291820152929350909130918c917f23b8a9f7d1252cf262e22214b242cc92ed7ed7df9228726be4d037a26e083894910160405180910390a4306001600160a01b031682827ecdd112a5bab661c199cefe1b6b407daede4238a9f24d764373bed654d7c22b8c6040516200043d91815260200190565b60405180910390a450505050505050620001956200094f60201b60201c565b6001600160a01b03831630148015906200047e57506001600160a01b03831615155b80156200049357506001600160a01b03821630145b8015620004aa5750600a54600160b01b900460ff16155b15620004eb5760405162461bcd60e51b815260206004820152600f60248201526e4e6f207472616e73666572206e657760881b604482015260640162000139565b600a54600160b01b900460ff16156200056e57620005098362000956565b1580156200051f57506200051d8262000956565b155b15620005375762000532838383620009f0565b505050565b60405162461bcd60e51b815260206004820152600b60248201526a2737903a3930b739b332b960a91b604482015260640162000139565b6001600160a01b0383163014806200058d57506001600160a01b038316155b80620005a057506001600160a01b038216155b156200053757620005b18362000956565b600003620005375762000532838383620009f0565b600260055403620005ea57604051633ee5aeb560e01b815260040160405180910390fd5b6002600555565b6009546000908162000604848362000e59565b9050600062012ebc62000621670de0b6b3a7640000600362000e1c565b6200062e60038662000f82565b6200063b60038662000f82565b62000647919062000e6f565b62000656906203938762000e1c565b6200066590620186a062000e1c565b62000671919062000e36565b6200067f90619c4062000e1c565b6200068b919062000e36565b95945050505050565b600b546040516000916001600160a01b03169061c35090849084818181858888f193505050503d8060008114620006e8576040519150601f19603f3d011682016040523d82523d6000602084013e620006ed565b606091505b5050905080620007325760405162461bcd60e51b815260206004820152600f60248201526e151c985b9cd9995c8819985a5b1959608a1b604482015260640162000139565b81600c600082825462000746919062000e59565b90915550505050565b600060125460001415801562000766575042601254105b156200078a57506001600160a01b03166000908152600f6020526040812081905590565b6010541580156200079b5750601254155b156200081b57600e546010819055620007b5904262000e59565b6001600160a01b0383166000908152600f6020526040902055426011819055600e54620007e29162000e59565b6012555042601355601480546001600160a01b039092166001600160a01b0319909216821790556000908152600f602052604090205490565b6000630bebc20060095462000831919062000e6f565b905060006011544262000845919062000e6f565b60145490915060009062000862906001600160a01b031662000956565b90506000600654601062000877919062000e1c565b62000883838662000e1c565b6200088f919062000e36565b90506010548111620008ad57620008a7818362000e6f565b620008b0565b60005b9150620008be824262000e59565b83601154620008ce919062000e59565b1115620008fb575050426013555050506001600160a01b03166000908152600f6020526040812081905590565b62000907824262000e59565b6001600160a01b039096166000818152600f602052604090209687554260135560109290925550601480546001600160a01b031916909117905550509054919050565b919050565b6001600555565b60006012546000141580156200096e57504260125411155b156200097c57506000919050565b6001600160a01b0382166000908152600f602052604090205415620009e7576001600160a01b0382166000908152600f60205260409020544211620009e7576001600160a01b0382166000908152600f6020526040902054620009e190429062000e6f565b620009ea565b60005b92915050565b6001600160a01b03831662000a1f57806002600082825462000a13919062000e59565b9091555062000a939050565b6001600160a01b0383166000908152602081905260409020548181101562000a745760405163391434e360e21b81526001600160a01b0385166004820152602481018290526044810183905260640162000139565b6001600160a01b03841660009081526020819052604090209082900390555b6001600160a01b03821662000ab15760028054829003905562000ad0565b6001600160a01b03821660009081526020819052604090208054820190555b816001600160a01b0316836001600160a01b03167fddf252ad1be2c89b69c2b068fc378daa952ba7f163c4a11628f55a4df523b3ef8360405162000b1691815260200190565b60405180910390a3505050565b634e487b7160e01b600052604160045260246000fd5b600082601f83011262000b4b57600080fd5b81516001600160401b038082111562000b685762000b6862000b23565b604051601f8301601f19908116603f0116810190828211818310171562000b935762000b9362000b23565b8160405283815260209250868385880101111562000bb057600080fd5b600091505b8382101562000bd4578582018301518183018401529082019062000bb5565b600093810190920192909252949350505050565b80516001600160a01b03811681146200094a57600080fd5b600080600080600080600060e0888a03121562000c1c57600080fd5b87516001600160401b038082111562000c3457600080fd5b62000c428b838c0162000b39565b985060208a015191508082111562000c5957600080fd5b5062000c688a828b0162000b39565b9650506040880151945062000c806060890162000be8565b935062000c906080890162000be8565b925060a0880151915060c0880151905092959891949750929550565b600181811c9082168062000cc157607f821691505b60208210810362000ce257634e487b7160e01b600052602260045260246000fd5b50919050565b601f8211156200053257600081815260208120601f850160051c8101602086101562000d115750805b601f850160051c820191505b8181101562000d325782815560010162000d1d565b505050505050565b81516001600160401b0381111562000d565762000d5662000b23565b62000d6e8162000d67845462000cac565b8462000ce8565b602080601f83116001811462000da6576000841562000d8d5750858301515b600019600386901b1c1916600185901b17855562000d32565b600085815260208120601f198616915b8281101562000dd75788860151825594840194600190910190840162000db6565b508582101562000df65787850151600019600388901b60f8161c191681555b5050505050600190811b01905550565b634e487b7160e01b600052601160045260246000fd5b8082028115828204841417620009ea57620009ea62000e06565b60008262000e5457634e487b7160e01b600052601260045260246000fd5b500490565b80820180821115620009ea57620009ea62000e06565b81810381811115620009ea57620009ea62000e06565b600181815b8085111562000ec657816000190482111562000eaa5762000eaa62000e06565b8085161562000eb857918102915b93841c939080029062000e8a565b509250929050565b60008262000edf57506001620009ea565b8162000eee57506000620009ea565b816001811462000f07576002811462000f125762000f32565b6001915050620009ea565b60ff84111562000f265762000f2662000e06565b50506001821b620009ea565b5060208310610133831016604e8410600b841016171562000f57575081810a620009ea565b62000f63838362000e85565b806000190482111562000f7a5762000f7a62000e06565b029392505050565b600062000f9360ff84168362000ece565b9392505050565b61225b8062000faa6000396000f3fe6080604052600436106102725760003560e01c806374767b141161014f578063b6a1b6a5116100c1578063dd62ed3e1161007a578063dd62ed3e146106f2578063de11c94a14610738578063e436295314610758578063eced55261461076e578063ed9772b61461078a578063f446c1d0146107aa57600080fd5b8063b6a1b6a51461065b578063bf5839031461067b578063c7a0206114610690578063cbcff5fb146106a6578063d94e1d52146106c7578063dbd8c057146106dc57600080fd5b8063a4beda6311610113578063a4beda6314610596578063a75d2609146105c3578063a8c6acda146105e3578063a9059cbb14610603578063b0b95fa214610623578063b1dfc95f1461064357600080fd5b806374767b14146105225780638078e6b01461053d57806393329f861461055957806395d89b41146105795780639c08c0a21461058e57600080fd5b806349bd5a5e116101e857806361e40d6b116101ac57806361e40d6b14610467578063663eb9f11461047d5780636d0ef93c1461049f57806370a08231146104b557806372e25bb7146104eb57806373545ce21461050c57600080fd5b806349bd5a5e146103e35780634af18f4f14610403578063513d266114610423578063571fe0161461043b5780635e56bb151461045157600080fd5b806319bf01c01161023a57806319bf01c01461034657806323b872dd1461035c578063313ce5671461037c57806333d06de9146103985780633610724e146103ae5780633ad10ef6146103c357600080fd5b806305202a6f1461027757806306fdde03146102ad578063095ea7b3146102cf5780631694505e146102ef57806318160ddd14610327575b600080fd5b34801561028357600080fd5b50600a5461029890600160a01b900460ff1681565b60405190151581526020015b60405180910390f35b3480156102b957600080fd5b506102c26107c1565b6040516102a49190611e44565b3480156102db57600080fd5b506102986102ea366004611ea9565b610853565b3480156102fb57600080fd5b5060155461030f906001600160a01b031681565b6040516001600160a01b0390911681526020016102a4565b34801561033357600080fd5b506002545b6040519081526020016102a4565b34801561035257600080fd5b5061033860115481565b34801561036857600080fd5b50610298610377366004611ed3565b61086d565b34801561038857600080fd5b50604051601281526020016102a4565b3480156103a457600080fd5b50610338600d5481565b6103c16103bc366004611f0f565b610891565b005b3480156103cf57600080fd5b50600a5461030f906001600160a01b031681565b3480156103ef57600080fd5b5060165461030f906001600160a01b031681565b34801561040f57600080fd5b5061033861041e366004611f0f565b610bcf565b34801561042f57600080fd5b506103386326be368081565b34801561044757600080fd5b5061033860065481565b34801561045d57600080fd5b5061033860135481565b34801561047357600080fd5b50610338600e5481565b34801561048957600080fd5b50610492610c5e565b6040516102a49190611f28565b3480156104ab57600080fd5b5061033860095481565b3480156104c157600080fd5b506103386104d0366004611f75565b6001600160a01b031660009081526020819052604090205490565b3480156104f757600080fd5b50600a5461029890600160a81b900460ff1681565b34801561051857600080fd5b5061033860125481565b34801561052e57600080fd5b506103386611c37937e0800081565b34801561054957600080fd5b50610338673782dace9d90000081565b34801561056557600080fd5b50610338610574366004611f75565b610cbf565b34801561058557600080fd5b506102c2610d56565b6103c1610d65565b3480156105a257600080fd5b506103386105b1366004611f75565b600f6020526000908152604090205481565b3480156105cf57600080fd5b5061030f6105de366004611f0f565b6111fd565b3480156105ef57600080fd5b506103386105fe366004611f0f565b611227565b34801561060f57600080fd5b5061029861061e366004611ea9565b611269565b34801561062f57600080fd5b5060145461030f906001600160a01b031681565b34801561064f57600080fd5b50610338630bebc20081565b34801561066757600080fd5b50600b5461030f906001600160a01b031681565b34801561068757600080fd5b50610338611277565b34801561069c57600080fd5b5061033860085481565b3480156106b257600080fd5b50600a5461029890600160b01b900460ff1681565b3480156106d357600080fd5b5061033861128e565b3480156106e857600080fd5b50610338600c5481565b3480156106fe57600080fd5b5061033861070d366004611f97565b6001600160a01b03918216600090815260016020908152604080832093909416825291909152205490565b34801561074457600080fd5b5060175461030f906001600160a01b031681565b34801561076457600080fd5b5061033860105481565b34801561077a57600080fd5b50610338670de0b6b3a764000081565b34801561079657600080fd5b506103c16107a5366004611fca565b61139f565b3480156107b657600080fd5b506103386203938781565b6060600380546107d090611fec565b80601f01602080910402602001604051908101604052809291908181526020018280546107fc90611fec565b80156108495780601f1061081e57610100808354040283529160200191610849565b820191906000526020600020905b81548152906001019060200180831161082c57829003601f168201915b5050505050905090565b6000336108618185856116e5565b60019150505b92915050565b60003361087b8582856116f7565b610886858585611775565b506001949350505050565b6108996117d4565b6108a233610cbf565b156108e85760405162461bcd60e51b815260206004820152601160248201527020b63932b0b23c902137bab3b43a1024b760791b60448201526064015b60405180910390fd5b600081116109235760405162461bcd60e51b81526020600482015260086024820152670c08185b5bdd5b9d60c21b60448201526064016108df565b600a54600160a01b900460ff161580156109475750600a54600160b01b900460ff16155b6109805760405162461bcd60e51b815260206004820152600a602482015269437572766520646f6e6560b01b60448201526064016108df565b600061098b82610bcf565b90506000620186a061099f6103e88461203c565b6109a99190612053565b905060006109b78284612075565b9050803410156109fe5760405162461bcd60e51b8152602060048201526012602482015271496e73756666696369656e742066756e647360701b60448201526064016108df565b610a07826117fe565b610a10336118b3565b508260086000828254610a239190612075565b925050819055508360096000828254610a3c9190612075565b909155505060065460095410610a8157600a805460ff60a01b1916600160a01b179055600954610a6d908590612088565b600654610a7a9190612088565b9350610aa2565b6326be368060095410610aa257600a805460ff60a81b1916600160a81b1790555b610abd33610ab886670de0b6b3a764000061203c565b611a8f565b6000610ac860025490565b90506000610ad66001610bcf565b336000818152600f60209081526040918290205482518a8152918201529293509091309189917f23b8a9f7d1252cf262e22214b242cc92ed7ed7df9228726be4d037a26e083894910160405180910390a4306001600160a01b031682827ecdd112a5bab661c199cefe1b6b407daede4238a9f24d764373bed654d7c22b89604051610b6391815260200190565b60405180910390a46000833411610b7b576000610b85565b610b858434612088565b90508015610bbc57604051339082156108fc029083906000818181858888f19350505050158015610bba573d6000803e3d6000fd5b505b505050505050610bcc6001600555565b50565b60095460009081610be08483612075565b9050600062012ebc610bfb670de0b6b3a7640000600361203c565b610c0660038661217f565b610c1160038661217f565b610c1b9190612088565b610c28906203938761203c565b610c3590620186a061203c565b610c3f9190612053565b610c4b90619c4061203c565b610c559190612053565b95945050505050565b6060601880548060200260200160405190810160405280929190818152602001828054801561084957602002820191906000526020600020905b81546001600160a01b03168152600190910190602001808311610c98575050505050905090565b6000601254600014158015610cd657504260125411155b15610ce357506000919050565b6001600160a01b0382166000908152600f602052604090205415610d49576001600160a01b0382166000908152600f60205260409020544211610d49576001600160a01b0382166000908152600f6020526040902054610d44904290612088565b610867565b600092915050565b919050565b6060600480546107d090611fec565b610d6d6117d4565b600a54600160a01b900460ff1680610d8e5750600a54600160a81b900460ff165b610dcb5760405162461bcd60e51b815260206004820152600e60248201526d4375727665206e6f7420646f6e6560901b60448201526064016108df565b600a54600160b01b900460ff1615610e145760405162461bcd60e51b815260206004820152600c60248201526b105b1c9958591e481cd95b9d60a21b60448201526064016108df565b601854600003610e9e573360009081526020819052604090205469d3c21bcecceda10000001115610e575760405162461bcd60e51b81526004016108df9061218e565b601880546001810182556000919091527fb13d2d76d1f4b7be834882e410b3e3a8afaf69f83600ae24db354391d2378d2e0180546001600160a01b031916331790556111f1565b6000805b601854811015610efd57336001600160a01b031660188281548110610ec957610ec96121b2565b6000918252602090912001546001600160a01b031603610eeb57506111f19050565b80610ef5816121c8565b915050610ea2565b5080610f7f573360009081526020819052604090205469d3c21bcecceda10000001115610f3c5760405162461bcd60e51b81526004016108df9061218e565b601880546001810182556000919091527fb13d2d76d1f4b7be834882e410b3e3a8afaf69f83600ae24db354391d2378d2e0180546001600160a01b031916331790555b506018546005116111f15760005b601854811015610fff5760188181548110610faa57610faa6121b2565b60009182526020822001546040516001600160a01b0390911691906611c37937e080009082818181858883f19350505050158015610fec573d6000803e3d6000fd5b5080610ff7816121c8565b915050610f8d565b5060005b60185481101561105257601880548061101e5761101e6121e1565b600082815260209020810160001990810180546001600160a01b03191690550190558061104a816121c8565b915050611003565b50600654600954600d54611066919061203c565b6110709190612053565b600d81905561107e906117fe565b600d54600860008282546110929190612088565b9091555060009050620f42406110b06611c37937e08000600561203c565b6110ba9047612088565b6110c49190612088565b600754601554919250906110e39030906001600160a01b0316836116e5565b6015546001600160a01b031663f305d71983308460008080611106426064612075565b60405160e089901b6001600160e01b03191681526001600160a01b039687166004820152602481019590955260448501939093526064840191909152909216608482015260a481019190915260c40160606040518083038185885af1158015611173573d6000803e3d6000fd5b50505050506040513d601f19601f8201168201806040525081019061119891906121f7565b5050600a805460ff60b01b1916600160b01b179055506040805183815260208101839052428183015290517faf60794da385ef41a5f66c38529ba4f0581b8bca348871688b118d212b265881916060908290030190a150505b6111fb6001600555565b565b6018818154811061120d57600080fd5b6000918252602090912001546001600160a01b0316905081565b600954600090816112388483612088565b9050600062012ebc611253670de0b6b3a7640000600361203c565b61125e60038561217f565b610c1160038761217f565b600033610861818585611775565b60006009546006546112899190612088565b905090565b60006012546000141580156112a4575042601254105b156112af5750600090565b6010546011546012546009546000906112cd90630bebc20090612088565b9050831580156112db575081155b156112f657600e546112ed9042612075565b94505050505090565b60006113028442612088565b60145490915060009061131d906001600160a01b0316610cbf565b905060006006546010611330919061203c565b61133a838661203c565b6113449190612053565b905086811161135c576113578183612088565b61135f565b60005b915061136b8242612075565b6113758488612075565b111561138957600097505050505050505090565b6113938242612075565b97505050505050505090565b6113a76117d4565b600082116113e25760405162461bcd60e51b81526020600482015260086024820152670c08185b5bdd5b9d60c21b60448201526064016108df565b600a54600160a01b900460ff161580156114065750600a54600160b01b900460ff16155b61143f5760405162461bcd60e51b815260206004820152600a602482015269437572766520646f6e6560b01b60448201526064016108df565b61144833610cbf565b156114895760405162461bcd60e51b8152602060048201526011602482015270151bdad95b9cc8185c99481b1bd8dad959607a1b60448201526064016108df565b600061149483611227565b90506000620186a06114a86103e88461203c565b6114b29190612053565b905060006114c08284612088565b9050804710156114fc5760405162461bcd60e51b8152602060048201526007602482015266098deee408aa8960cb1b60448201526064016108df565b61150e85670de0b6b3a764000061203c565b33600090815260208190526040902054101561153c5760405162461bcd60e51b81526004016108df9061218e565b838110156115775760405162461bcd60e51b8152602060048201526008602482015267536c69707061676560c01b60448201526064016108df565b611580826117fe565b61159b3361159687670de0b6b3a764000061203c565b611ac5565b6115a58282612075565b600860008282546115b69190612088565b9250508190555084600960008282546115cf9190612088565b9091555050604051339082156108fc029083906000818181858888f19350505050158015611601573d6000803e3d6000fd5b506326be36806009541080156116205750600a54600160a81b900460ff165b1561163357600a805460ff60a81b191690555b600061163e60025490565b9050600061164c6001610bcf565b6040805187815260208101859052919250339130918a917fc3b2c4fcdf25a3a78c81bd9f335d8bab96fe7dd1288668b957ebdb1b70b4de39910160405180910390a4306001600160a01b031682827ecdd112a5bab661c199cefe1b6b407daede4238a9f24d764373bed654d7c22b8a6040516116ca91815260200190565b60405180910390a450505050506116e16001600555565b5050565b6116f28383836001611afb565b505050565b6001600160a01b03838116600090815260016020908152604080832093861683529290522054600019811461176f578181101561176057604051637dc7a0d960e11b81526001600160a01b038416600482015260248101829052604481018390526064016108df565b61176f84848484036000611afb565b50505050565b6001600160a01b03831661179f57604051634b637e8f60e11b8152600060048201526024016108df565b6001600160a01b0382166117c95760405163ec442f0560e01b8152600060048201526024016108df565b6116f2838383611bd0565b6002600554036117f757604051633ee5aeb560e01b815260040160405180910390fd5b6002600555565b600b546040516000916001600160a01b03169061c35090849084818181858888f193505050503d8060008114611850576040519150601f19603f3d011682016040523d82523d6000602084013e611855565b606091505b50509050806118985760405162461bcd60e51b815260206004820152600f60248201526e151c985b9cd9995c8819985a5b1959608a1b60448201526064016108df565b81600c60008282546118aa9190612075565b90915550505050565b60006012546000141580156118c9575042601254105b156118ec57506001600160a01b03166000908152600f6020526040812081905590565b6010541580156118fc5750601254155b1561197757600e5460108190556119139042612075565b6001600160a01b0383166000908152600f6020526040902055426011819055600e5461193e91612075565b6012555042601355601480546001600160a01b039092166001600160a01b0319909216821790556000908152600f602052604090205490565b6000630bebc20060095461198b9190612088565b905060006011544261199d9190612088565b6014549091506000906119b8906001600160a01b0316610cbf565b9050600060065460106119cb919061203c565b6119d5838661203c565b6119df9190612053565b905060105481116119f9576119f48183612088565b6119fc565b60005b9150611a088242612075565b83601154611a169190612075565b1115611a42575050426013555050506001600160a01b03166000908152600f6020526040812081905590565b611a4c8242612075565b6001600160a01b039096166000818152600f602052604090209687554260135560109290925550601480546001600160a01b031916909117905550509054919050565b6001600160a01b038216611ab95760405163ec442f0560e01b8152600060048201526024016108df565b6116e160008383611bd0565b6001600160a01b038216611aef57604051634b637e8f60e11b8152600060048201526024016108df565b6116e182600083611bd0565b6001600160a01b038416611b255760405163e602df0560e01b8152600060048201526024016108df565b6001600160a01b038316611b4f57604051634a1406b160e11b8152600060048201526024016108df565b6001600160a01b038085166000908152600160209081526040808320938716835292905220829055801561176f57826001600160a01b0316846001600160a01b03167f8c5be1e5ebec7d5bd14f71427d1e84f3dd0314c0f7b2291e5b200ac8c7c3b92584604051611bc291815260200190565b60405180910390a350505050565b6001600160a01b0383163014801590611bf157506001600160a01b03831615155b8015611c0557506001600160a01b03821630145b8015611c1b5750600a54600160b01b900460ff16155b15611c5a5760405162461bcd60e51b815260206004820152600f60248201526e4e6f207472616e73666572206e657760881b60448201526064016108df565b600a54600160b01b900460ff1615611cce57611c7583610cbf565b158015611c885750611c8682610cbf565b155b15611c98576116f2838383611d1a565b60405162461bcd60e51b815260206004820152600b60248201526a2737903a3930b739b332b960a91b60448201526064016108df565b6001600160a01b038316301480611cec57506001600160a01b038316155b80611cfe57506001600160a01b038216155b15611c9857611d0c83610cbf565b600003611c98576116f28383835b6001600160a01b038316611d45578060026000828254611d3a9190612075565b90915550611db79050565b6001600160a01b03831660009081526020819052604090205481811015611d985760405163391434e360e21b81526001600160a01b038516600482015260248101829052604481018390526064016108df565b6001600160a01b03841660009081526020819052604090209082900390555b6001600160a01b038216611dd357600280548290039055611df2565b6001600160a01b03821660009081526020819052604090208054820190555b816001600160a01b0316836001600160a01b03167fddf252ad1be2c89b69c2b068fc378daa952ba7f163c4a11628f55a4df523b3ef83604051611e3791815260200190565b60405180910390a3505050565b600060208083528351808285015260005b81811015611e7157858101830151858201604001528201611e55565b506000604082860101526040601f19601f8301168501019250505092915050565b80356001600160a01b0381168114610d5157600080fd5b60008060408385031215611ebc57600080fd5b611ec583611e92565b946020939093013593505050565b600080600060608486031215611ee857600080fd5b611ef184611e92565b9250611eff60208501611e92565b9150604084013590509250925092565b600060208284031215611f2157600080fd5b5035919050565b6020808252825182820181905260009190848201906040850190845b81811015611f695783516001600160a01b031683529284019291840191600101611f44565b50909695505050505050565b600060208284031215611f8757600080fd5b611f9082611e92565b9392505050565b60008060408385031215611faa57600080fd5b611fb383611e92565b9150611fc160208401611e92565b90509250929050565b60008060408385031215611fdd57600080fd5b50508035926020909101359150565b600181811c9082168061200057607f821691505b60208210810361202057634e487b7160e01b600052602260045260246000fd5b50919050565b634e487b7160e01b600052601160045260246000fd5b808202811582820484141761086757610867612026565b60008261207057634e487b7160e01b600052601260045260246000fd5b500490565b8082018082111561086757610867612026565b8181038181111561086757610867612026565b600181815b808511156120d65781600019048211156120bc576120bc612026565b808516156120c957918102915b93841c93908002906120a0565b509250929050565b6000826120ed57506001610867565b816120fa57506000610867565b8160018114612110576002811461211a57612136565b6001915050610867565b60ff84111561212b5761212b612026565b50506001821b610867565b5060208310610133831016604e8410600b8410161715612159575081810a610867565b612163838361209b565b806000190482111561217757612177612026565b029392505050565b6000611f9060ff8416836120de565b6020808252600a90820152694c6f7720746f6b656e7360b01b604082015260600190565b634e487b7160e01b600052603260045260246000fd5b6000600182016121da576121da612026565b5060010190565b634e487b7160e01b600052603160045260246000fd5b60008060006060848603121561220c57600080fd5b835192506020840151915060408401519050925092509256fea2646970667358221220a29e5490813b12dfb79284d75f6e6f4b1b33cffcd020e2c314ddf6f2166583ad64736f6c63430008140033a2646970667358221220f6b793c125f653606836f1374ec12ae55a1ad8e885388714ae7de002e9a26b0864736f6c63430008140033","linkReferences":{}},"methodIdentifiers":{"createToken(string,string,uint256,address,uint256,uint256)":"134d3a40","createTokenRevenue()":"3b527dd6","owner()":"8da5cb5b","renounceOwnership()":"715018a6","revenueCollector()":"b6a1b6a5","setCreateTokenRevenue(uint256)":"69c7fddf","setRevenueCollector(address)":"cde38cdf","setSuperMemeRegistry(address)":"7884f146","superMemeRegistry()":"408a7344","tokenAddresses(uint256)":"e5df8b84","transferOwnership(address)":"f2fde38b"},"id":42}