{"abi":[{"type":"receive","stateMutability":"payable"},{"type":"function","name":"dailyTimestampCheck","inputs":[],"outputs":[{"name":"","type":"uint256","internalType":"uint256"}],"stateMutability":"view"},{"type":"function","name":"dailyTotalWithdrawal","inputs":[],"outputs":[{"name":"","type":"uint256","internalType":"uint256"}],"stateMutability":"view"},{"type":"function","name":"dailyWithdrawals","inputs":[{"name":"","type":"address","internalType":"address"}],"outputs":[{"name":"","type":"uint256","internalType":"uint256"}],"stateMutability":"view"},{"type":"function","name":"drip","inputs":[],"outputs":[],"stateMutability":"nonpayable"},{"type":"function","name":"lastWithdrawalTime","inputs":[{"name":"","type":"address","internalType":"address"}],"outputs":[{"name":"","type":"uint256","internalType":"uint256"}],"stateMutability":"view"},{"type":"function","name":"maxDailyTotalWithdrawal","inputs":[],"outputs":[{"name":"","type":"uint256","internalType":"uint256"}],"stateMutability":"view"},{"type":"function","name":"maxWithdrawal","inputs":[],"outputs":[{"name":"","type":"uint256","internalType":"uint256"}],"stateMutability":"view"}],"bytecode":{"object":"0x6080806040523461002e576729a2241af62c000060005567016345785d8a000060035561037f90816100348239f35b600080fdfe608060409080825260049182361015610023575b505050361561002157600080fd5b005b600091823560e01c90816341d636a2146102ed575080634de5120e146102af578063616da2ac146102935780637940a19f146102755780638c0ff5b71461025757806393ac2d0d1461023957639f678cca036100135734610235578160031936011261023557600254620151809081810180911161022257421015610215575b60015493600354906100b58287610326565b8554106101dc57338552602092600584528486205442034281116101c9571061018657338552808352816100ec8186882054610326565b1161014e576100ff826005959697610326565b6001553386528252610115848620918254610326565b905533845252428183205581808080600354818115610145575b3390f11561013b575080f35b51903d90823e3d90fd5b506108fc61012f565b835162461bcd60e51b81529081018390526012602482015271155cd95c881b1a5b5a5d081c995858da195960721b6044820152606490fd5b835162461bcd60e51b8152908101839052601760248201527f323420686f757273206e6f7420706173736564207965740000000000000000006044820152606490fd5b634e487b7160e01b875260118352602487fd5b606490602085519162461bcd60e51b8352820152601360248201527211185a5b1e481b1a5b5a5d081c995858da1959606a1b6044820152fd5b82600155426002556100a3565b634e487b7160e01b845260118552602484fd5b5080fd5b50346102355781600319360112610235576020906002549051908152f35b50346102355781600319360112610235576020906003549051908152f35b50346102355781600319360112610235576020906001549051908152f35b5034610235578160031936011261023557602091549051908152f35b5082346102e95760203660031901126102e957356001600160a01b038116908190036102e957828291602094526005845220549051908152f35b8280fd5b929050346103235760203660031901126103235783356001600160a01b0381169490859003610235576020948252845220548152f35b80fd5b9190820180921161033357565b634e487b7160e01b600052601160045260246000fdfea264697066735822122061a6bf01c0f6cf69dc247c539f0ddae01083b92bd2becb5702fc264ad5159f3c64736f6c63430008140033","linkReferences":{}},"methodIdentifiers":{"dailyTimestampCheck()":"93ac2d0d","dailyTotalWithdrawal()":"7940a19f","dailyWithdrawals(address)":"41d636a2","drip()":"9f678cca","lastWithdrawalTime(address)":"4de5120e","maxDailyTotalWithdrawal()":"616da2ac","maxWithdrawal()":"8c0ff5b7"},"id":50}