{"abi":[{"type":"receive","stateMutability":"payable"},{"type":"function","name":"dailyTimestampCheck","inputs":[],"outputs":[{"name":"","type":"uint256","internalType":"uint256"}],"stateMutability":"view"},{"type":"function","name":"dailyTotalWithdrawal","inputs":[],"outputs":[{"name":"","type":"uint256","internalType":"uint256"}],"stateMutability":"view"},{"type":"function","name":"dailyWithdrawals","inputs":[{"name":"","type":"address","internalType":"address"}],"outputs":[{"name":"","type":"uint256","internalType":"uint256"}],"stateMutability":"view"},{"type":"function","name":"drip","inputs":[],"outputs":[],"stateMutability":"nonpayable"},{"type":"function","name":"lastWithdrawalTime","inputs":[{"name":"","type":"address","internalType":"address"}],"outputs":[{"name":"","type":"uint256","internalType":"uint256"}],"stateMutability":"view"},{"type":"function","name":"maxDailyTotalWithdrawal","inputs":[],"outputs":[{"name":"","type":"uint256","internalType":"uint256"}],"stateMutability":"view"},{"type":"function","name":"maxWithdrawal","inputs":[],"outputs":[{"name":"","type":"uint256","internalType":"uint256"}],"stateMutability":"view"}],"bytecode":{"object":"0x60806040526729a2241af62c000060005567016345785d8a000060035534801561002857600080fd5b506103cd806100386000396000f3fe6080604052600436106100745760003560e01c80637940a19f1161004e5780637940a19f146101025780638c0ff5b71461011857806393ac2d0d1461012e5780639f678cca1461014457600080fd5b806341d636a2146100805780634de5120e146100bf578063616da2ac146100ec57600080fd5b3661007b57005b600080fd5b34801561008c57600080fd5b506100ad61009b366004610325565b60046020526000908152604090205481565b60405190815260200160405180910390f35b3480156100cb57600080fd5b506100ad6100da366004610325565b60056020526000908152604090205481565b3480156100f857600080fd5b506100ad60005481565b34801561010e57600080fd5b506100ad60015481565b34801561012457600080fd5b506100ad60035481565b34801561013a57600080fd5b506100ad60025481565b34801561015057600080fd5b5061015961015b565b005b426002546201518061016d919061036b565b1161017c576000600155426002555b60005460035460015461018f919061036b565b11156101d85760405162461bcd60e51b815260206004820152601360248201527211185a5b1e481b1a5b5a5d081c995858da1959606a1b60448201526064015b60405180910390fd5b3360009081526005602052604090205462015180906101f79042610384565b10156102455760405162461bcd60e51b815260206004820152601760248201527f323420686f757273206e6f74207061737365642079657400000000000000000060448201526064016101cf565b6003543360009081526004602052604090205461026390829061036b565b11156102a65760405162461bcd60e51b8152602060048201526012602482015271155cd95c881b1a5b5a5d081c995858da195960721b60448201526064016101cf565b600354600160008282546102ba919061036b565b909155505060035433600090815260046020526040812080549091906102e190849061036b565b909155505033600081815260056020526040808220429055600354905181156108fc0292818181858888f19350505050158015610322573d6000803e3d6000fd5b50565b60006020828403121561033757600080fd5b81356001600160a01b038116811461034e57600080fd5b9392505050565b634e487b7160e01b600052601160045260246000fd5b8082018082111561037e5761037e610355565b92915050565b8181038181111561037e5761037e61035556fea2646970667358221220efe07a438883ed845d0e3c3fe26c48002a1d667fb31b08a80e3700ac776c00e864736f6c63430008140033","linkReferences":{}},"methodIdentifiers":{"dailyTimestampCheck()":"93ac2d0d","dailyTotalWithdrawal()":"7940a19f","dailyWithdrawals(address)":"41d636a2","drip()":"9f678cca","lastWithdrawalTime(address)":"4de5120e","maxDailyTotalWithdrawal()":"616da2ac","maxWithdrawal()":"8c0ff5b7"},"id":52}