{"abi":[{"type":"constructor","inputs":[],"stateMutability":"nonpayable"},{"type":"function","name":"ADVISOR","inputs":[],"outputs":[{"name":"","type":"address","internalType":"address"}],"stateMutability":"view"},{"type":"function","name":"ADVISOR_AMOUNT","inputs":[],"outputs":[{"name":"","type":"uint256","internalType":"uint256"}],"stateMutability":"view"},{"type":"function","name":"AIRDROP","inputs":[],"outputs":[{"name":"","type":"address","internalType":"address"}],"stateMutability":"view"},{"type":"function","name":"AIRDROP_AMOUNT","inputs":[],"outputs":[{"name":"","type":"uint256","internalType":"uint256"}],"stateMutability":"view"},{"type":"function","name":"DEVELOPMENT","inputs":[],"outputs":[{"name":"","type":"address","internalType":"address"}],"stateMutability":"view"},{"type":"function","name":"DEVELOPMENT_AMOUNT","inputs":[],"outputs":[{"name":"","type":"uint256","internalType":"uint256"}],"stateMutability":"view"},{"type":"function","name":"LIQUIDITY","inputs":[],"outputs":[{"name":"","type":"address","internalType":"address"}],"stateMutability":"view"},{"type":"function","name":"LIQUIDITY_AMOUNT","inputs":[],"outputs":[{"name":"","type":"uint256","internalType":"uint256"}],"stateMutability":"view"},{"type":"function","name":"MARKETING","inputs":[],"outputs":[{"name":"","type":"address","internalType":"address"}],"stateMutability":"view"},{"type":"function","name":"MARKETING_AMOUNT","inputs":[],"outputs":[{"name":"","type":"uint256","internalType":"uint256"}],"stateMutability":"view"},{"type":"function","name":"PUBLIC","inputs":[],"outputs":[{"name":"","type":"address","internalType":"address"}],"stateMutability":"view"},{"type":"function","name":"PUBLIC_AMOUNT","inputs":[],"outputs":[{"name":"","type":"uint256","internalType":"uint256"}],"stateMutability":"view"},{"type":"function","name":"SEED","inputs":[],"outputs":[{"name":"","type":"address","internalType":"address"}],"stateMutability":"view"},{"type":"function","name":"SEED_AMOUNT","inputs":[],"outputs":[{"name":"","type":"uint256","internalType":"uint256"}],"stateMutability":"view"},{"type":"function","name":"TEAM","inputs":[],"outputs":[{"name":"","type":"address","internalType":"address"}],"stateMutability":"view"},{"type":"function","name":"TEAM_AMOUNT","inputs":[],"outputs":[{"name":"","type":"uint256","internalType":"uint256"}],"stateMutability":"view"},{"type":"function","name":"TREASURY","inputs":[],"outputs":[{"name":"","type":"address","internalType":"address"}],"stateMutability":"view"},{"type":"function","name":"TREASURY_AMOUNT","inputs":[],"outputs":[{"name":"","type":"uint256","internalType":"uint256"}],"stateMutability":"view"},{"type":"function","name":"allowance","inputs":[{"name":"owner","type":"address","internalType":"address"},{"name":"spender","type":"address","internalType":"address"}],"outputs":[{"name":"","type":"uint256","internalType":"uint256"}],"stateMutability":"view"},{"type":"function","name":"approve","inputs":[{"name":"spender","type":"address","internalType":"address"},{"name":"value","type":"uint256","internalType":"uint256"}],"outputs":[{"name":"","type":"bool","internalType":"bool"}],"stateMutability":"nonpayable"},{"type":"function","name":"balanceOf","inputs":[{"name":"account","type":"address","internalType":"address"}],"outputs":[{"name":"","type":"uint256","internalType":"uint256"}],"stateMutability":"view"},{"type":"function","name":"decimals","inputs":[],"outputs":[{"name":"","type":"uint8","internalType":"uint8"}],"stateMutability":"view"},{"type":"function","name":"name","inputs":[],"outputs":[{"name":"","type":"string","internalType":"string"}],"stateMutability":"view"},{"type":"function","name":"symbol","inputs":[],"outputs":[{"name":"","type":"string","internalType":"string"}],"stateMutability":"view"},{"type":"function","name":"totalSupply","inputs":[],"outputs":[{"name":"","type":"uint256","internalType":"uint256"}],"stateMutability":"view"},{"type":"function","name":"transfer","inputs":[{"name":"to","type":"address","internalType":"address"},{"name":"value","type":"uint256","internalType":"uint256"}],"outputs":[{"name":"","type":"bool","internalType":"bool"}],"stateMutability":"nonpayable"},{"type":"function","name":"transferFrom","inputs":[{"name":"from","type":"address","internalType":"address"},{"name":"to","type":"address","internalType":"address"},{"name":"value","type":"uint256","internalType":"uint256"}],"outputs":[{"name":"","type":"bool","internalType":"bool"}],"stateMutability":"nonpayable"},{"type":"event","name":"Approval","inputs":[{"name":"owner","type":"address","indexed":true,"internalType":"address"},{"name":"spender","type":"address","indexed":true,"internalType":"address"},{"name":"value","type":"uint256","indexed":false,"internalType":"uint256"}],"anonymous":false},{"type":"event","name":"Transfer","inputs":[{"name":"from","type":"address","indexed":true,"internalType":"address"},{"name":"to","type":"address","indexed":true,"internalType":"address"},{"name":"value","type":"uint256","indexed":false,"internalType":"uint256"}],"anonymous":false},{"type":"error","name":"ERC20InsufficientAllowance","inputs":[{"name":"spender","type":"address","internalType":"address"},{"name":"allowance","type":"uint256","internalType":"uint256"},{"name":"needed","type":"uint256","internalType":"uint256"}]},{"type":"error","name":"ERC20InsufficientBalance","inputs":[{"name":"sender","type":"address","internalType":"address"},{"name":"balance","type":"uint256","internalType":"uint256"},{"name":"needed","type":"uint256","internalType":"uint256"}]},{"type":"error","name":"ERC20InvalidApprover","inputs":[{"name":"approver","type":"address","internalType":"address"}]},{"type":"error","name":"ERC20InvalidReceiver","inputs":[{"name":"receiver","type":"address","internalType":"address"}]},{"type":"error","name":"ERC20InvalidSender","inputs":[{"name":"sender","type":"address","internalType":"address"}]},{"type":"error","name":"ERC20InvalidSpender","inputs":[{"name":"spender","type":"address","internalType":"address"}]}],"bytecode":{"object":"0x60803462000648576040906001600160401b0381830181811183821017620005485783526009825260206853757065724d656d6560b81b8184015283519284840184811084821117620005485785526003928385526229a82960e91b8386015281519381851162000548578054946001938487811c971680156200063d575b8688101462000627578190601f97888111620005d1575b5086908883116001146200056a576000926200055e575b505060001982841b1c191690841b1781555b8551918211620005485760049586548481811c911680156200053d575b868210146200052857868111620004dd575b508490868411600114620004725793839491849260009562000466575b50501b92600019911b1c19161783555b600280546a5dbf444aed26f7643400009081810180911162000451578255736f69c5363dd8c21256d40d47cabff5242ad14e3e600081815280855287812080548401905587519283527fddf252ad1be2c89b69c2b068fc378daa952ba7f163c4a11628f55a4df523b3ef9283908690a381546a68c6b5c6f2f7cf8bcc0000908181018091116200043c578355600082857369e63ed9105463183625981c926e8282b6eb0db4938484528382528a84208181540190558a51908152a381546a7c13bc4b2c133c56000000908181018091116200043c5783556000828573ffff2a9e9a7e8b738e3a18538cffbc101a397419938484528382528a84208181540190558a51908152a381546aa56fa5b99019a5c8000000908181018091116200043c5783556000828573a902ffcc625d8dcacaf08d00f96b32c5d6a6ebe7938484528382528a84208181540190558a51908152a381546a422ca8b0a00a4250000000908181018091116200043c5783556000828573dcb265a5ce660611bc1da882d8a42733d88c1323938484528382528a84208181540190558a51908152a381546a4a723dc6b40b8a9a000000908181018091116200043c5783556000828573bd7784d02c6590e68fed3098e354e7cbd232adc4938484528382528a84208181540190558a51908152a381546a94e47b8d68171534000000908181018091116200043c57835560008285736f72b3530271be8ae09cee65d05836e9720df880938484528382528a84208181540190558a51908152a38154906a18d0bf423c03d8de000000918281018091116200043c57835573538c08af3e3cd67eeb4fb45970d3520f58537ba4806000526000855287600020838154019055600082868a51868152a382548281018091116200043c578392916000916b033b2e3c9fd0803ce80000009555857384dc3e5ec35a358742bf6fb2461104856439ea6c938484528382528a84208181540190558a51908152a35403620003fe578351610a3e90816200064e8239f35b606493519262461bcd60e51b845283015260248201527f53757065724d656d653a20496e76616c696420746f74616c20737570706c79006044820152fd5b601187634e487b7160e01b6000525260246000fd5b601186634e487b7160e01b6000525260246000fd5b0151935038806200010a565b9190601f198416928860005284876000209460005b8989838310620004c55750505010620004aa575b50505050811b0183556200011a565b01519060f884600019921b161c19169055388080806200049b565b86860151895590970196948501948893500162000487565b87600052856000208780860160051c8201928887106200051e575b0160051c019085905b82811062000511575050620000ed565b6000815501859062000501565b92508192620004f8565b602288634e487b7160e01b6000525260246000fd5b90607f1690620000db565b634e487b7160e01b600052604160045260246000fd5b015190503880620000ac565b90869350601f1983169185600052886000209260005b8a828210620005ba5750508411620005a1575b505050811b018155620000be565b015160001983861b60f8161c1916905538808062000593565b8385015186558a9790950194938401930162000580565b90915083600052866000208880850160051c8201928986106200061d575b918891869594930160051c01915b8281106200060d57505062000095565b60008155859450889101620005fd565b92508192620005ef565b634e487b7160e01b600052602260045260246000fd5b96607f16966200007e565b600080fdfe608060408181526004918236101561001657600080fd5b600092833560e01c9182630548fb2f146108655750816306fdde031461078b578163095ea7b3146106dd5781630edc4737146106ae57816318160ddd1461068f5781631fa0d6211461066057816323b872dd1461056957816325ac9325146105355781632861c7d11461053a5781632b5b6872146105355781632d2c556514610506578163313ce567146104ea578163661e7ac4146104bb57816370a08231146104845781637832133a1461045e5781637fbd1b5a1461043857816384776a2d146104095781638918ac82146103e35781638b32f62a146103bd57816390298ab91461039757816395d89b411461027857508063a9059cbb14610248578063b5bfea6614610223578063c1179a7f146101f5578063cecdc6aa146101c7578063dd62ed3e1461017f5763e530a7d01461014e57600080fd5b3461017b578160031936011261017b576020905173bd7784d02c6590e68fed3098e354e7cbd232adc48152f35b5080fd5b503461017b578060031936011261017b578060209261019c6108d3565b6101a46108ee565b6001600160a01b0391821683526001865283832091168252845220549051908152f35b503461017b578160031936011261017b576020905173ffff2a9e9a7e8b738e3a18538cffbc101a3974198152f35b503461017b578160031936011261017b57602090517369e63ed9105463183625981c926e8282b6eb0db48152f35b503461017b578160031936011261017b57602090516a4a723dc6b40b8a9a0000008152f35b503461017b578060031936011261017b576020906102716102676108d3565b602435903361092a565b5160018152f35b83833461017b578160031936011261017b57805190828454600181811c9080831692831561038d575b602093848410811461037a5783885290811561035e5750600114610309575b505050829003601f01601f191682019267ffffffffffffffff8411838510176102f657508291826102f292528261088a565b0390f35b634e487b7160e01b815260418552602490fd5b8787529192508591837f8a35acfbc15ff81a39ae7d344fd709f28e8600b4aa8c65c6b64bfe7fe36bd19b5b83851061034a57505050508301018580806102c0565b805488860183015293019284908201610334565b60ff1916878501525050151560051b84010190508580806102c0565b634e487b7160e01b895260228a52602489fd5b91607f16916102a1565b50503461017b578160031936011261017b57602090516a422ca8b0a00a42500000008152f35b50503461017b578160031936011261017b57602090516a7c13bc4b2c133c560000008152f35b50503461017b578160031936011261017b57602090516a94e47b8d681715340000008152f35b50503461017b578160031936011261017b57602090517384dc3e5ec35a358742bf6fb2461104856439ea6c8152f35b50503461017b578160031936011261017b57602090516aa56fa5b99019a5c80000008152f35b50503461017b578160031936011261017b57602090516a68c6b5c6f2f7cf8bcc00008152f35b50503461017b57602036600319011261017b5760209181906001600160a01b036104ac6108d3565b16815280845220549051908152f35b50503461017b578160031936011261017b576020905173dcb265a5ce660611bc1da882d8a42733d88c13238152f35b50503461017b578160031936011261017b576020905160128152f35b50503461017b578160031936011261017b576020905173a902ffcc625d8dcacaf08d00f96b32c5d6a6ebe78152f35b610904565b50503461017b578160031936011261017b5760209051736f72b3530271be8ae09cee65d05836e9720df8808152f35b9050823461065d57606036600319011261065d576105856108d3565b61058d6108ee565b916044359360018060a01b0383168083526001602052868320338452602052868320549160001983036105c9575b60208861027189898961092a565b86831061063157811561061a57331561060357508252600160209081528683203384528152918690209085900390558290610271876105bb565b8751634a1406b160e11b8152908101849052602490fd5b875163e602df0560e01b8152908101849052602490fd5b8751637dc7a0d960e11b8152339181019182526020820193909352604081018790528291506060010390fd5b80fd5b50503461017b578160031936011261017b576020905173538c08af3e3cd67eeb4fb45970d3520f58537ba48152f35b50503461017b578160031936011261017b576020906002549051908152f35b50503461017b578160031936011261017b5760209051736f69c5363dd8c21256d40d47cabff5242ad14e3e8152f35b9050346107875781600319360112610787576106f76108d3565b602435903315610770576001600160a01b031691821561075957508083602095338152600187528181208582528752205582519081527f8c5be1e5ebec7d5bd14f71427d1e84f3dd0314c0f7b2291e5b200ac8c7c3b925843392a35160018152f35b8351634a1406b160e11b8152908101859052602490fd5b835163e602df0560e01b8152808401869052602490fd5b8280fd5b83833461017b578160031936011261017b5780519082600354600181811c9080831692831561085b575b602093848410811461037a5783885290811561035e575060011461080557505050829003601f01601f191682019267ffffffffffffffff8411838510176102f657508291826102f292528261088a565b600387529192508591837fc2575a0e9e593c00f959f8c92f12db2869c3395a3b0502d05e2516446f71f85b5b83851061084757505050508301018580806102c0565b805488860183015293019284908201610831565b91607f16916107b5565b84903461017b578160031936011261017b57806a5dbf444aed26f76434000060209252f35b6020808252825181830181905290939260005b8281106108bf57505060409293506000838284010152601f8019910116010190565b81810186015184820160400152850161089d565b600435906001600160a01b03821682036108e957565b600080fd5b602435906001600160a01b03821682036108e957565b346108e95760003660031901126108e95760206040516a18d0bf423c03d8de0000008152f35b916001600160a01b038084169283156109ef57169283156109d657600090838252816020526040822054908382106109a4575091604082827fddf252ad1be2c89b69c2b068fc378daa952ba7f163c4a11628f55a4df523b3ef958760209652828652038282205586815220818154019055604051908152a3565b60405163391434e360e21b81526001600160a01b03919091166004820152602481019190915260448101839052606490fd5b60405163ec442f0560e01b815260006004820152602490fd5b604051634b637e8f60e11b815260006004820152602490fdfea26469706673582212202f813af16fc4ff7609da03347d1f4034994e412c5d559133092a75989b30d48b64736f6c63430008140033","linkReferences":{}},"methodIdentifiers":{"ADVISOR()":"84776a2d","ADVISOR_AMOUNT()":"25ac9325","AIRDROP()":"1fa0d621","AIRDROP_AMOUNT()":"2b5b6872","DEVELOPMENT()":"661e7ac4","DEVELOPMENT_AMOUNT()":"90298ab9","LIQUIDITY()":"2861c7d1","LIQUIDITY_AMOUNT()":"8918ac82","MARKETING()":"e530a7d0","MARKETING_AMOUNT()":"b5bfea66","PUBLIC()":"c1179a7f","PUBLIC_AMOUNT()":"7832133a","SEED()":"0edc4737","SEED_AMOUNT()":"0548fb2f","TEAM()":"cecdc6aa","TEAM_AMOUNT()":"8b32f62a","TREASURY()":"2d2c5565","TREASURY_AMOUNT()":"7fbd1b5a","allowance(address,address)":"dd62ed3e","approve(address,uint256)":"095ea7b3","balanceOf(address)":"70a08231","decimals()":"313ce567","name()":"06fdde03","symbol()":"95d89b41","totalSupply()":"18160ddd","transfer(address,uint256)":"a9059cbb","transferFrom(address,address,uint256)":"23b872dd"},"id":58}