{"abi":[{"type":"constructor","inputs":[],"stateMutability":"nonpayable"},{"type":"function","name":"ADVISOR","inputs":[],"outputs":[{"name":"","type":"address","internalType":"address"}],"stateMutability":"view"},{"type":"function","name":"ADVISOR_AMOUNT","inputs":[],"outputs":[{"name":"","type":"uint256","internalType":"uint256"}],"stateMutability":"view"},{"type":"function","name":"AIRDROP","inputs":[],"outputs":[{"name":"","type":"address","internalType":"address"}],"stateMutability":"view"},{"type":"function","name":"AIRDROP_AMOUNT","inputs":[],"outputs":[{"name":"","type":"uint256","internalType":"uint256"}],"stateMutability":"view"},{"type":"function","name":"DEVELOPMENT","inputs":[],"outputs":[{"name":"","type":"address","internalType":"address"}],"stateMutability":"view"},{"type":"function","name":"DEVELOPMENT_AMOUNT","inputs":[],"outputs":[{"name":"","type":"uint256","internalType":"uint256"}],"stateMutability":"view"},{"type":"function","name":"LIQUIDITY","inputs":[],"outputs":[{"name":"","type":"address","internalType":"address"}],"stateMutability":"view"},{"type":"function","name":"LIQUIDITY_AMOUNT","inputs":[],"outputs":[{"name":"","type":"uint256","internalType":"uint256"}],"stateMutability":"view"},{"type":"function","name":"MARKETING","inputs":[],"outputs":[{"name":"","type":"address","internalType":"address"}],"stateMutability":"view"},{"type":"function","name":"MARKETING_AMOUNT","inputs":[],"outputs":[{"name":"","type":"uint256","internalType":"uint256"}],"stateMutability":"view"},{"type":"function","name":"PUBLIC","inputs":[],"outputs":[{"name":"","type":"address","internalType":"address"}],"stateMutability":"view"},{"type":"function","name":"PUBLIC_AMOUNT","inputs":[],"outputs":[{"name":"","type":"uint256","internalType":"uint256"}],"stateMutability":"view"},{"type":"function","name":"SEED","inputs":[],"outputs":[{"name":"","type":"address","internalType":"address"}],"stateMutability":"view"},{"type":"function","name":"SEED_AMOUNT","inputs":[],"outputs":[{"name":"","type":"uint256","internalType":"uint256"}],"stateMutability":"view"},{"type":"function","name":"TEAM","inputs":[],"outputs":[{"name":"","type":"address","internalType":"address"}],"stateMutability":"view"},{"type":"function","name":"TEAM_AMOUNT","inputs":[],"outputs":[{"name":"","type":"uint256","internalType":"uint256"}],"stateMutability":"view"},{"type":"function","name":"TREASURY","inputs":[],"outputs":[{"name":"","type":"address","internalType":"address"}],"stateMutability":"view"},{"type":"function","name":"TREASURY_AMOUNT","inputs":[],"outputs":[{"name":"","type":"uint256","internalType":"uint256"}],"stateMutability":"view"},{"type":"function","name":"allowance","inputs":[{"name":"owner","type":"address","internalType":"address"},{"name":"spender","type":"address","internalType":"address"}],"outputs":[{"name":"","type":"uint256","internalType":"uint256"}],"stateMutability":"view"},{"type":"function","name":"approve","inputs":[{"name":"spender","type":"address","internalType":"address"},{"name":"value","type":"uint256","internalType":"uint256"}],"outputs":[{"name":"","type":"bool","internalType":"bool"}],"stateMutability":"nonpayable"},{"type":"function","name":"balanceOf","inputs":[{"name":"account","type":"address","internalType":"address"}],"outputs":[{"name":"","type":"uint256","internalType":"uint256"}],"stateMutability":"view"},{"type":"function","name":"decimals","inputs":[],"outputs":[{"name":"","type":"uint8","internalType":"uint8"}],"stateMutability":"view"},{"type":"function","name":"name","inputs":[],"outputs":[{"name":"","type":"string","internalType":"string"}],"stateMutability":"view"},{"type":"function","name":"symbol","inputs":[],"outputs":[{"name":"","type":"string","internalType":"string"}],"stateMutability":"view"},{"type":"function","name":"totalSupply","inputs":[],"outputs":[{"name":"","type":"uint256","internalType":"uint256"}],"stateMutability":"view"},{"type":"function","name":"transfer","inputs":[{"name":"to","type":"address","internalType":"address"},{"name":"value","type":"uint256","internalType":"uint256"}],"outputs":[{"name":"","type":"bool","internalType":"bool"}],"stateMutability":"nonpayable"},{"type":"function","name":"transferFrom","inputs":[{"name":"from","type":"address","internalType":"address"},{"name":"to","type":"address","internalType":"address"},{"name":"value","type":"uint256","internalType":"uint256"}],"outputs":[{"name":"","type":"bool","internalType":"bool"}],"stateMutability":"nonpayable"},{"type":"event","name":"Approval","inputs":[{"name":"owner","type":"address","indexed":true,"internalType":"address"},{"name":"spender","type":"address","indexed":true,"internalType":"address"},{"name":"value","type":"uint256","indexed":false,"internalType":"uint256"}],"anonymous":false},{"type":"event","name":"Transfer","inputs":[{"name":"from","type":"address","indexed":true,"internalType":"address"},{"name":"to","type":"address","indexed":true,"internalType":"address"},{"name":"value","type":"uint256","indexed":false,"internalType":"uint256"}],"anonymous":false},{"type":"error","name":"ERC20InsufficientAllowance","inputs":[{"name":"spender","type":"address","internalType":"address"},{"name":"allowance","type":"uint256","internalType":"uint256"},{"name":"needed","type":"uint256","internalType":"uint256"}]},{"type":"error","name":"ERC20InsufficientBalance","inputs":[{"name":"sender","type":"address","internalType":"address"},{"name":"balance","type":"uint256","internalType":"uint256"},{"name":"needed","type":"uint256","internalType":"uint256"}]},{"type":"error","name":"ERC20InvalidApprover","inputs":[{"name":"approver","type":"address","internalType":"address"}]},{"type":"error","name":"ERC20InvalidReceiver","inputs":[{"name":"receiver","type":"address","internalType":"address"}]},{"type":"error","name":"ERC20InvalidSender","inputs":[{"name":"sender","type":"address","internalType":"address"}]},{"type":"error","name":"ERC20InvalidSpender","inputs":[{"name":"spender","type":"address","internalType":"address"}]}],"bytecode":{"object":"0x60806040523480156200001157600080fd5b506040518060400160405280600981526020016853757065724d656d6560b81b8152506040518060400160405280600381526020016229a82960e91b81525081600390816200006191906200048c565b5060046200007082826200048c565b505050620000a4736f69c5363dd8c21256d40d47cabff5242ad14e3e6a5dbf444aed26f7643400006200027660201b60201c565b620000cf7369e63ed9105463183625981c926e8282b6eb0db46a68c6b5c6f2f7cf8bcc000062000276565b620000fa73ffff2a9e9a7e8b738e3a18538cffbc101a3974196a7c13bc4b2c133c5600000062000276565b6200012573a902ffcc625d8dcacaf08d00f96b32c5d6a6ebe76aa56fa5b99019a5c800000062000276565b6200015073dcb265a5ce660611bc1da882d8a42733d88c13236a422ca8b0a00a425000000062000276565b6200017b73bd7784d02c6590e68fed3098e354e7cbd232adc46a4a723dc6b40b8a9a00000062000276565b620001a6736f72b3530271be8ae09cee65d05836e9720df8806a94e47b8d6817153400000062000276565b620001d173538c08af3e3cd67eeb4fb45970d3520f58537ba46a18d0bf423c03d8de00000062000276565b620001fc7384dc3e5ec35a358742bf6fb2461104856439ea6c6a18d0bf423c03d8de00000062000276565b6200020a6012600a6200066d565b6200021a90633b9aca0062000685565b60025414620002705760405162461bcd60e51b815260206004820152601f60248201527f53757065724d656d653a20496e76616c696420746f74616c20737570706c790060448201526064015b60405180910390fd5b620006b5565b6001600160a01b038216620002a25760405163ec442f0560e01b81526000600482015260240162000267565b620002b060008383620002b4565b5050565b6001600160a01b038316620002e3578060026000828254620002d791906200069f565b90915550620003579050565b6001600160a01b03831660009081526020819052604090205481811015620003385760405163391434e360e21b81526001600160a01b0385166004820152602481018290526044810183905260640162000267565b6001600160a01b03841660009081526020819052604090209082900390555b6001600160a01b038216620003755760028054829003905562000394565b6001600160a01b03821660009081526020819052604090208054820190555b816001600160a01b0316836001600160a01b03167fddf252ad1be2c89b69c2b068fc378daa952ba7f163c4a11628f55a4df523b3ef83604051620003da91815260200190565b60405180910390a3505050565b634e487b7160e01b600052604160045260246000fd5b600181811c908216806200041257607f821691505b6020821081036200043357634e487b7160e01b600052602260045260246000fd5b50919050565b601f8211156200048757600081815260208120601f850160051c81016020861015620004625750805b601f850160051c820191505b8181101562000483578281556001016200046e565b5050505b505050565b81516001600160401b03811115620004a857620004a8620003e7565b620004c081620004b98454620003fd565b8462000439565b602080601f831160018114620004f85760008415620004df5750858301515b600019600386901b1c1916600185901b17855562000483565b600085815260208120601f198616915b82811015620005295788860151825594840194600190910190840162000508565b5085821015620005485787850151600019600388901b60f8161c191681555b5050505050600190811b01905550565b634e487b7160e01b600052601160045260246000fd5b600181815b80851115620005af57816000190482111562000593576200059362000558565b80851615620005a157918102915b93841c939080029062000573565b509250929050565b600082620005c85750600162000667565b81620005d75750600062000667565b8160018114620005f05760028114620005fb576200061b565b600191505062000667565b60ff8411156200060f576200060f62000558565b50506001821b62000667565b5060208310610133831016604e8410600b841016171562000640575081810a62000667565b6200064c83836200056e565b806000190482111562000663576200066362000558565b0290505b92915050565b60006200067e60ff841683620005b7565b9392505050565b808202811582820484141762000667576200066762000558565b8082018082111562000667576200066762000558565b6109d180620006c56000396000f3fe608060405234801561001057600080fd5b50600436106101a95760003560e01c806370a08231116100f957806395d89b4111610097578063c1179a7f11610071578063c1179a7f146103b1578063cecdc6aa146103cc578063dd62ed3e146103e7578063e530a7d01461042057600080fd5b806395d89b4114610384578063a9059cbb1461038c578063b5bfea661461039f57600080fd5b806384776a2d116100d357806384776a2d146103335780638918ac821461034e5780638b32f62a1461036057806390298ab91461037257600080fd5b806370a08231146102e65780637832133a1461030f5780637fbd1b5a1461032157600080fd5b806323b872dd116101665780632b5b6872116101405780632b5b6872146102745780632d2c5565146102a1578063313ce567146102bc578063661e7ac4146102cb57600080fd5b806323b872dd1461026157806325ac9325146102745780632861c7d11461028657600080fd5b80630548fb2f146101ae57806306fdde03146101d3578063095ea7b3146101e85780630edc47371461020b57806318160ddd1461023e5780631fa0d62114610246575b600080fd5b6101c06a5dbf444aed26f76434000081565b6040519081526020015b60405180910390f35b6101db61043b565b6040516101ca919061081b565b6101fb6101f6366004610885565b6104cd565b60405190151581526020016101ca565b610226736f69c5363dd8c21256d40d47cabff5242ad14e3e81565b6040516001600160a01b0390911681526020016101ca565b6002546101c0565b61022673538c08af3e3cd67eeb4fb45970d3520f58537ba481565b6101fb61026f3660046108af565b6104e7565b6101c06a18d0bf423c03d8de00000081565b610226736f72b3530271be8ae09cee65d05836e9720df88081565b61022673a902ffcc625d8dcacaf08d00f96b32c5d6a6ebe781565b604051601281526020016101ca565b61022673dcb265a5ce660611bc1da882d8a42733d88c132381565b6101c06102f43660046108eb565b6001600160a01b031660009081526020819052604090205490565b6101c06a68c6b5c6f2f7cf8bcc000081565b6101c06aa56fa5b99019a5c800000081565b6102267384dc3e5ec35a358742bf6fb2461104856439ea6c81565b6101c06a94e47b8d6817153400000081565b6101c06a7c13bc4b2c133c5600000081565b6101c06a422ca8b0a00a425000000081565b6101db61050b565b6101fb61039a366004610885565b61051a565b6101c06a4a723dc6b40b8a9a00000081565b6102267369e63ed9105463183625981c926e8282b6eb0db481565b61022673ffff2a9e9a7e8b738e3a18538cffbc101a39741981565b6101c06103f536600461090d565b6001600160a01b03918216600090815260016020908152604080832093909416825291909152205490565b61022673bd7784d02c6590e68fed3098e354e7cbd232adc481565b60606003805461044a90610940565b80601f016020809104026020016040519081016040528092919081815260200182805461047690610940565b80156104c35780601f10610498576101008083540402835291602001916104c3565b820191906000526020600020905b8154815290600101906020018083116104a657829003601f168201915b5050505050905090565b6000336104db818585610528565b60019150505b92915050565b6000336104f585828561053a565b6105008585856105bd565b506001949350505050565b60606004805461044a90610940565b6000336104db8185856105bd565b610535838383600161061c565b505050565b6001600160a01b0383811660009081526001602090815260408083209386168352929052205460001981146105b757818110156105a857604051637dc7a0d960e11b81526001600160a01b038416600482015260248101829052604481018390526064015b60405180910390fd5b6105b78484848403600061061c565b50505050565b6001600160a01b0383166105e757604051634b637e8f60e11b81526000600482015260240161059f565b6001600160a01b0382166106115760405163ec442f0560e01b81526000600482015260240161059f565b6105358383836106f1565b6001600160a01b0384166106465760405163e602df0560e01b81526000600482015260240161059f565b6001600160a01b03831661067057604051634a1406b160e11b81526000600482015260240161059f565b6001600160a01b03808516600090815260016020908152604080832093871683529290522082905580156105b757826001600160a01b0316846001600160a01b03167f8c5be1e5ebec7d5bd14f71427d1e84f3dd0314c0f7b2291e5b200ac8c7c3b925846040516106e391815260200190565b60405180910390a350505050565b6001600160a01b03831661071c578060026000828254610711919061097a565b9091555061078e9050565b6001600160a01b0383166000908152602081905260409020548181101561076f5760405163391434e360e21b81526001600160a01b0385166004820152602481018290526044810183905260640161059f565b6001600160a01b03841660009081526020819052604090209082900390555b6001600160a01b0382166107aa576002805482900390556107c9565b6001600160a01b03821660009081526020819052604090208054820190555b816001600160a01b0316836001600160a01b03167fddf252ad1be2c89b69c2b068fc378daa952ba7f163c4a11628f55a4df523b3ef8360405161080e91815260200190565b60405180910390a3505050565b600060208083528351808285015260005b818110156108485785810183015185820160400152820161082c565b506000604082860101526040601f19601f8301168501019250505092915050565b80356001600160a01b038116811461088057600080fd5b919050565b6000806040838503121561089857600080fd5b6108a183610869565b946020939093013593505050565b6000806000606084860312156108c457600080fd5b6108cd84610869565b92506108db60208501610869565b9150604084013590509250925092565b6000602082840312156108fd57600080fd5b61090682610869565b9392505050565b6000806040838503121561092057600080fd5b61092983610869565b915061093760208401610869565b90509250929050565b600181811c9082168061095457607f821691505b60208210810361097457634e487b7160e01b600052602260045260246000fd5b50919050565b808201808211156104e157634e487b7160e01b600052601160045260246000fdfea2646970667358221220e40e6aed6d58f395392433cd65b06b5b0c95e0ee5cabc94087d949aedaff34cc64736f6c63430008140033","linkReferences":{}},"methodIdentifiers":{"ADVISOR()":"84776a2d","ADVISOR_AMOUNT()":"25ac9325","AIRDROP()":"1fa0d621","AIRDROP_AMOUNT()":"2b5b6872","DEVELOPMENT()":"661e7ac4","DEVELOPMENT_AMOUNT()":"90298ab9","LIQUIDITY()":"2861c7d1","LIQUIDITY_AMOUNT()":"8918ac82","MARKETING()":"e530a7d0","MARKETING_AMOUNT()":"b5bfea66","PUBLIC()":"c1179a7f","PUBLIC_AMOUNT()":"7832133a","SEED()":"0edc4737","SEED_AMOUNT()":"0548fb2f","TEAM()":"cecdc6aa","TEAM_AMOUNT()":"8b32f62a","TREASURY()":"2d2c5565","TREASURY_AMOUNT()":"7fbd1b5a","allowance(address,address)":"dd62ed3e","approve(address,uint256)":"095ea7b3","balanceOf(address)":"70a08231","decimals()":"313ce567","name()":"06fdde03","symbol()":"95d89b41","totalSupply()":"18160ddd","transfer(address,uint256)":"a9059cbb","transferFrom(address,address,uint256)":"23b872dd"},"id":58}