{"abi":[{"type":"constructor","inputs":[{"name":"_revenueCollector","type":"address","internalType":"address"}],"stateMutability":"nonpayable"},{"type":"function","name":"buyTicket","inputs":[{"name":"_amount","type":"uint256","internalType":"uint256"}],"outputs":[{"name":"","type":"bool","internalType":"bool"}],"stateMutability":"payable"},{"type":"function","name":"owner","inputs":[],"outputs":[{"name":"","type":"address","internalType":"address"}],"stateMutability":"view"},{"type":"function","name":"renounceOwnership","inputs":[],"outputs":[],"stateMutability":"nonpayable"},{"type":"function","name":"revenueCollector","inputs":[],"outputs":[{"name":"","type":"address","internalType":"address"}],"stateMutability":"view"},{"type":"function","name":"setRevenueCollector","inputs":[{"name":"_revenueCollector","type":"address","internalType":"address"}],"outputs":[],"stateMutability":"nonpayable"},{"type":"function","name":"setTicketPrice","inputs":[{"name":"_price","type":"uint256","internalType":"uint256"}],"outputs":[],"stateMutability":"nonpayable"},{"type":"function","name":"ticketPrice","inputs":[],"outputs":[{"name":"","type":"uint256","internalType":"uint256"}],"stateMutability":"view"},{"type":"function","name":"totalRevenueCollected","inputs":[],"outputs":[{"name":"","type":"uint256","internalType":"uint256"}],"stateMutability":"view"},{"type":"function","name":"transferOwnership","inputs":[{"name":"newOwner","type":"address","internalType":"address"}],"outputs":[],"stateMutability":"nonpayable"},{"type":"event","name":"OwnershipTransferred","inputs":[{"name":"previousOwner","type":"address","indexed":true,"internalType":"address"},{"name":"newOwner","type":"address","indexed":true,"internalType":"address"}],"anonymous":false},{"type":"error","name":"OwnableInvalidOwner","inputs":[{"name":"owner","type":"address","internalType":"address"}]},{"type":"error","name":"OwnableUnauthorizedAccount","inputs":[{"name":"account","type":"address","internalType":"address"}]}],"bytecode":{"object":"0x60806040526601353a6b39400060035534801561001b57600080fd5b506040516105c03803806105c083398101604081905261003a916100df565b338061006057604051631e4fbdf760e01b81526000600482015260240160405180910390fd5b6100698161008f565b50600180546001600160a01b0319166001600160a01b039290921691909117905561010f565b600080546001600160a01b038381166001600160a01b0319831681178455604051919092169283917f8be0079c531659141344cd1fd0a4f28419497f9722a3daafe3b4186f6b6457e09190a35050565b6000602082840312156100f157600080fd5b81516001600160a01b038116811461010857600080fd5b9392505050565b6104a28061011e6000396000f3fe6080604052600436106100865760003560e01c80638da5cb5b116100595780638da5cb5b1461010e578063b6a1b6a514610140578063cde38cdf14610160578063dbd8c05714610180578063f2fde38b1461019657600080fd5b80631209b1f61461008b57806315981650146100b457806367dd74ca146100d6578063715018a6146100f9575b600080fd5b34801561009757600080fd5b506100a160035481565b6040519081526020015b60405180910390f35b3480156100c057600080fd5b506100d46100cf3660046103dd565b6101b6565b005b6100e96100e43660046103dd565b6101c3565b60405190151581526020016100ab565b34801561010557600080fd5b506100d461022f565b34801561011a57600080fd5b506000546001600160a01b03165b6040516001600160a01b0390911681526020016100ab565b34801561014c57600080fd5b50600154610128906001600160a01b031681565b34801561016c57600080fd5b506100d461017b3660046103f6565b610243565b34801561018c57600080fd5b506100a160025481565b3480156101a257600080fd5b506100d46101b13660046103f6565b61026d565b6101be6102ab565b600355565b6000816003546101d3919061043c565b341461021e5760405162461bcd60e51b8152602060048201526015602482015274125b98dbdc9c9958dd08185b5bdd5b9d081cd95b9d605a1b60448201526064015b60405180910390fd5b610227346102d8565b506001919050565b6102376102ab565b610241600061038d565b565b61024b6102ab565b600180546001600160a01b0319166001600160a01b0392909216919091179055565b6102756102ab565b6001600160a01b03811661029f57604051631e4fbdf760e01b815260006004820152602401610215565b6102a88161038d565b50565b6000546001600160a01b031633146102415760405163118cdaa760e01b8152336004820152602401610215565b6001546040516000916001600160a01b03169061c35090849084818181858888f193505050503d806000811461032a576040519150601f19603f3d011682016040523d82523d6000602084013e61032f565b606091505b50509050806103725760405162461bcd60e51b815260206004820152600f60248201526e151c985b9cd9995c8819985a5b1959608a1b6044820152606401610215565b81600260008282546103849190610459565b90915550505050565b600080546001600160a01b038381166001600160a01b0319831681178455604051919092169283917f8be0079c531659141344cd1fd0a4f28419497f9722a3daafe3b4186f6b6457e09190a35050565b6000602082840312156103ef57600080fd5b5035919050565b60006020828403121561040857600080fd5b81356001600160a01b038116811461041f57600080fd5b9392505050565b634e487b7160e01b600052601160045260246000fd5b808202811582820484141761045357610453610426565b92915050565b808201808211156104535761045361042656fea2646970667358221220849d34f257d25c7241ff92b3d6a23962fc4bedcc6c269421e14f78fe6835e1fc64736f6c63430008140033","linkReferences":{}},"methodIdentifiers":{"buyTicket(uint256)":"67dd74ca","owner()":"8da5cb5b","renounceOwnership()":"715018a6","revenueCollector()":"b6a1b6a5","setRevenueCollector(address)":"cde38cdf","setTicketPrice(uint256)":"15981650","ticketPrice()":"1209b1f6","totalRevenueCollected()":"dbd8c057","transferOwnership(address)":"f2fde38b"},"id":62}