{"abi":[{"type":"constructor","inputs":[{"name":"_revenueCollector","type":"address","internalType":"address"}],"stateMutability":"nonpayable"},{"type":"function","name":"buyTicket","inputs":[{"name":"_amount","type":"uint256","internalType":"uint256"}],"outputs":[{"name":"","type":"bool","internalType":"bool"}],"stateMutability":"payable"},{"type":"function","name":"owner","inputs":[],"outputs":[{"name":"","type":"address","internalType":"address"}],"stateMutability":"view"},{"type":"function","name":"renounceOwnership","inputs":[],"outputs":[],"stateMutability":"nonpayable"},{"type":"function","name":"revenueCollector","inputs":[],"outputs":[{"name":"","type":"address","internalType":"address"}],"stateMutability":"view"},{"type":"function","name":"setRevenueCollector","inputs":[{"name":"_revenueCollector","type":"address","internalType":"address"}],"outputs":[],"stateMutability":"nonpayable"},{"type":"function","name":"setTicketPrice","inputs":[{"name":"_price","type":"uint256","internalType":"uint256"}],"outputs":[],"stateMutability":"nonpayable"},{"type":"function","name":"ticketPrice","inputs":[],"outputs":[{"name":"","type":"uint256","internalType":"uint256"}],"stateMutability":"view"},{"type":"function","name":"totalRevenueCollected","inputs":[],"outputs":[{"name":"","type":"uint256","internalType":"uint256"}],"stateMutability":"view"},{"type":"function","name":"transferOwnership","inputs":[{"name":"newOwner","type":"address","internalType":"address"}],"outputs":[],"stateMutability":"nonpayable"},{"type":"event","name":"OwnershipTransferred","inputs":[{"name":"previousOwner","type":"address","indexed":true,"internalType":"address"},{"name":"newOwner","type":"address","indexed":true,"internalType":"address"}],"anonymous":false},{"type":"error","name":"OwnableInvalidOwner","inputs":[{"name":"owner","type":"address","internalType":"address"}]},{"type":"error","name":"OwnableUnauthorizedAccount","inputs":[{"name":"account","type":"address","internalType":"address"}]}],"bytecode":{"object":"0x6080346100d157601f61051e38819003918201601f19168301916001600160401b038311848410176100d6578084926020946040528339810103126100d157516001600160a01b0390818116908190036100d15733156100b85760005460018060a01b0319903382821617600055604051933391167f8be0079c531659141344cd1fd0a4f28419497f9722a3daafe3b4186f6b6457e0600080a36601353a6b394000600355600154161760015561043190816100ed8239f35b604051631e4fbdf760e01b815260006004820152602490fd5b600080fd5b634e487b7160e01b600052604160045260246000fdfe608060408181526004908136101561001657600080fd5b600092833560e01c9081631209b1f6146103b357508063159816501461039157806367dd74ca14610231578063715018a6146101d45780638da5cb5b146101ac578063b6a1b6a514610183578063cde38cdf1461013a578063dbd8c057146101175763f2fde38b1461008757600080fd5b34610113576020366003190112610113576001600160a01b0382358181169391929084900361010f576100b86103cf565b83156100f957505082546001600160a01b0319811683178455167f8be0079c531659141344cd1fd0a4f28419497f9722a3daafe3b4186f6b6457e08380a380f35b51631e4fbdf760e01b8152908101849052602490fd5b8480fd5b8280fd5b8382346101365781600319360112610136576020906002549051908152f35b5080fd5b50503461013657602036600319011261013657356001600160a01b03811690819003610136576101686103cf565b6bffffffffffffffffffffffff60a01b600154161760015580f35b83823461013657816003193601126101365760015490516001600160a01b039091168152602090f35b838234610136578160031936011261013657905490516001600160a01b039091168152602090f35b833461022e578060031936011261022e576101ed6103cf565b80546001600160a01b03198116825581906001600160a01b03167f8be0079c531659141344cd1fd0a4f28419497f9722a3daafe3b4186f6b6457e08280a380f35b80fd5b5082602036600319011261022e57823560035481810291818304149015171561037e57340361034357808080803460018060a01b036001541661c350f13d1561033e5767ffffffffffffffff3d81811161032b57845191601f8201601f19908116603f011683019081118382101761031857855281528260203d92013e5b156102e357600254903482018092116102d057602083836002555160018152f35b634e487b7160e01b815260118452602490fd5b815162461bcd60e51b8152602081850152600f60248201526e151c985b9cd9995c8819985a5b1959608a1b6044820152606490fd5b634e487b7160e01b855260418752602485fd5b634e487b7160e01b845260418652602484fd5b6102af565b815162461bcd60e51b81526020818501526015602482015274125b98dbdc9c9958dd08185b5bdd5b9d081cd95b9d605a1b6044820152606490fd5b634e487b7160e01b825260118452602482fd5b505034610136576020366003190112610136576103ac6103cf565b3560035580f35b8490346101365781600319360112610136576020906003548152f35b6000546001600160a01b031633036103e357565b60405163118cdaa760e01b8152336004820152602490fdfea26469706673582212200659a5126b63b33293a0d98f71c7245b07ce3c7bbed94a1eed516bd43fe48ec064736f6c63430008140033","linkReferences":{}},"methodIdentifiers":{"buyTicket(uint256)":"67dd74ca","owner()":"8da5cb5b","renounceOwnership()":"715018a6","revenueCollector()":"b6a1b6a5","setRevenueCollector(address)":"cde38cdf","setTicketPrice(uint256)":"15981650","ticketPrice()":"1209b1f6","totalRevenueCollected()":"dbd8c057","transferOwnership(address)":"f2fde38b"},"id":62}