{"abi":[{"type":"constructor","inputs":[{"name":"_superMemeRegistry","type":"address","internalType":"address"}],"stateMutability":"nonpayable"},{"type":"function","name":"createToken","inputs":[{"name":"_name","type":"string","internalType":"string"},{"name":"_symbol","type":"string","internalType":"string"},{"name":"_devLocked","type":"bool","internalType":"bool"},{"name":"_amount","type":"uint256","internalType":"uint256"},{"name":"_devAddress","type":"address","internalType":"address"},{"name":"_devLockDuration","type":"uint256","internalType":"uint256"},{"name":"_buyEth","type":"uint256","internalType":"uint256"}],"outputs":[{"name":"token","type":"address","internalType":"address"}],"stateMutability":"payable"},{"type":"function","name":"createTokenRevenue","inputs":[],"outputs":[{"name":"","type":"uint256","internalType":"uint256"}],"stateMutability":"view"},{"type":"function","name":"owner","inputs":[],"outputs":[{"name":"","type":"address","internalType":"address"}],"stateMutability":"view"},{"type":"function","name":"renounceOwnership","inputs":[],"outputs":[],"stateMutability":"nonpayable"},{"type":"function","name":"revenueCollector","inputs":[],"outputs":[{"name":"","type":"address","internalType":"address"}],"stateMutability":"view"},{"type":"function","name":"setCreateTokenRevenue","inputs":[{"name":"_createTokenRevenue","type":"uint256","internalType":"uint256"}],"outputs":[],"stateMutability":"nonpayable"},{"type":"function","name":"setRevenueCollector","inputs":[{"name":"_revenueCollector","type":"address","internalType":"address"}],"outputs":[],"stateMutability":"nonpayable"},{"type":"function","name":"setSuperMemeRegistry","inputs":[{"name":"_superMemeRegistry","type":"address","internalType":"address"}],"outputs":[],"stateMutability":"nonpayable"},{"type":"function","name":"superMemeRegistry","inputs":[],"outputs":[{"name":"","type":"address","internalType":"contract ISuperMemeRegistry"}],"stateMutability":"view"},{"type":"function","name":"tokenAddresses","inputs":[{"name":"","type":"uint256","internalType":"uint256"}],"outputs":[{"name":"","type":"address","internalType":"address"}],"stateMutability":"view"},{"type":"function","name":"transferOwnership","inputs":[{"name":"newOwner","type":"address","internalType":"address"}],"outputs":[],"stateMutability":"nonpayable"},{"type":"event","name":"OwnershipTransferred","inputs":[{"name":"previousOwner","type":"address","indexed":true,"internalType":"address"},{"name":"newOwner","type":"address","indexed":true,"internalType":"address"}],"anonymous":false},{"type":"event","name":"TokenCreated","inputs":[{"name":"tokenAddress","type":"address","indexed":true,"internalType":"address"},{"name":"devAddress","type":"address","indexed":true,"internalType":"address"},{"name":"amount","type":"uint256","indexed":false,"internalType":"uint256"},{"name":"devLocked","type":"bool","indexed":false,"internalType":"bool"},{"name":"tokenType","type":"uint256","indexed":false,"internalType":"uint256"}],"anonymous":false},{"type":"error","name":"OwnableInvalidOwner","inputs":[{"name":"owner","type":"address","internalType":"address"}]},{"type":"error","name":"OwnableUnauthorizedAccount","inputs":[{"name":"account","type":"address","internalType":"address"}]}],"bytecode":{"object":"0x6080346100d157601f61369c38819003918201601f19168301916001600160401b038311848410176100d6578084926020946040528339810103126100d157516001600160a01b0390818116908190036100d15733156100b85760005460018060a01b0319903382821617600055604051933391167f8be0079c531659141344cd1fd0a4f28419497f9722a3daafe3b4186f6b6457e0600080a36602d79883d2000060025560015416176001556135af90816100ed8239f35b604051631e4fbdf760e01b815260006004820152602490fd5b600080fd5b634e487b7160e01b600052604160045260246000fdfe604060808152600490813610156200001657600080fd5b600091823560e01c80631a4ab1c314620003385780633b527dd61462000317578063408a734414620002ec57806369c7fddf14620002c6578063715018a614620002685780637884f14614620002225780638da5cb5b14620001f8578063b6a1b6a514620001c9578063cde38cdf1462000183578063e5df8b84146200013b5763f2fde38b14620000a657600080fd5b34620001375760203660031901126200013757620000c362000906565b90620000ce6200096b565b6001600160a01b0391821692831562000121575050600054826001600160601b0360a01b821617600055167f8be0079c531659141344cd1fd0a4f28419497f9722a3daafe3b4186f6b6457e0600080a380f35b51631e4fbdf760e01b8152908101849052602490fd5b8280fd5b509134620001805760203660031901126200018057823592548310156200018057506200016a6020926200091d565b905491519160018060a01b039160031b1c168152f35b80fd5b8334620001805760203660031901126200018057620001a162000906565b620001ab6200096b565b60018060a01b03166001600160601b0360a01b600354161760035580f35b505034620001f45781600319360112620001f45760035490516001600160a01b039091168152602090f35b5080fd5b505034620001f45781600319360112620001f457905490516001600160a01b039091168152602090f35b83346200018057602036600319011262000180576200024062000906565b6200024a6200096b565b60018060a01b03166001600160601b0360a01b600154161760015580f35b83346200018057806003193601126200018057620002856200096b565b600080546001600160a01b0319811682556001600160a01b03167f8be0079c531659141344cd1fd0a4f28419497f9722a3daafe3b4186f6b6457e08280a380f35b838234620001f4576020366003190112620001f457620002e56200096b565b3560025580f35b505034620001f45781600319360112620001f45760015490516001600160a01b039091168152602090f35b505034620001f45781600319360112620001f4576020906002549051908152f35b509060e0366003190112620001375767ffffffffffffffff9180358381116200085a576200036a9036908301620008b4565b9360249485358581116200013757620003879036908501620008b4565b92604496873591821595861594858503620005b9576001600160a01b03608435818116999196908a81036200085657600254928334106200081e5760a43593620151808086101590816200080f575b8162000803575b508015620007f7575b8015620007ee575b15620007b357338d036200077a578b808080938d600354166207a120f13d1562000774578d3d6200042d620004238262000897565b925192836200085e565b81528c60203d92013e5b156200073f57808062000734575b806200072b575b8062000720575b15620005d957508c8860035416928d5196612b418089019389851090851117620005c7579188979593916200049897959362000a398a3960c4359660643593620009da565b039086f08015620005bd578316975b836001541698893b15620005b957908685928a51938491633a03244760e01b8352169b8c868301528a87830152606435809e83015288606483015282608483015281835a9260a493f18015620005af5762000589575b505080549168010000000000000000831015620005785750937f6268964f653fb671b504147c5e2a7e7f1cfd9512b665f4de66b2980551e3b76d9360609362000551848b98600160209e970190556200091d565b819291549060031b9189831b921b191617905587519283528983015286820152a351908152f35b634e487b7160e01b86526041825285fd5b81969296116200059e578752933880620004fd565b50634e487b7160e01b815260418552fd5b89513d89823e3d90fd5b8680fd5b87513d87823e3d90fd5b634e487b7160e01b8e5260418a528a8efd5b82809594939062000714575b8062000708575b80620006fe575b156200064c57508760035416908d8d5195612b418088019288841090841117620005c75791620006399593918897959362000a39893960c435998a9660643593620009da565b0391f08015620005bd57831697620004a7565b80620006f2575b80620006e6575b80620006dd575b15620006a6578760035416908d8d5195612b418088019288841090841117620005c75791620006399593918897959362000a39893960c435998a9660643593620009da565b508a5162461bcd60e51b815260208187015260128188015271496e76616c696420706172616d657465727360701b818f0152606490fd5b50811562000661565b5060c43515156200065a565b50606435151562000653565b50821515620005f3565b5060c4351515620005ec565b506064351515620005e5565b5060c4351562000453565b5083156200044c565b506064351562000445565b60648f6e151c985b9cd9995c8819985a5b1959608a1b8f91600f8c60208d95519562461bcd60e51b8752860152840152820152fd5b62000437565b8f888f60649260138d602072496e76616c696420646576206164647265737360681b94519562461bcd60e51b8752860152840152820152fd5b8f888f60649260158d60207424b73b30b634b2103637b1b590323ab930ba34b7b760591b94519562461bcd60e51b8752860152840152820152fd5b508415620003ee565b5061a8c08514620003e6565b905085061538620003dd565b62093a808711159150620003d6565b60648f71496e73756666696369656e742066756e647360701b8f9160128c60208d95519562461bcd60e51b8752860152840152820152fd5b8980fd5b8480fd5b90601f8019910116810190811067ffffffffffffffff8211176200088157604052565b634e487b7160e01b600052604160045260246000fd5b67ffffffffffffffff81116200088157601f01601f191660200190565b81601f820112156200090157803590620008ce8262000897565b92620008de60405194856200085e565b828452602083830101116200090157816000926020809301838601378301015290565b600080fd5b600435906001600160a01b03821682036200090157565b600454811015620009555760046000527f8a35acfbc15ff81a39ae7d344fd709f28e8600b4aa8c65c6b64bfe7fe36bd19b0190600090565b634e487b7160e01b600052603260045260246000fd5b6000546001600160a01b031633036200098057565b60405163118cdaa760e01b8152336004820152602490fd5b919082519283825260005b848110620009c5575050826000602080949584010152601f8019910116010190565b602081830181015184830182015201620009a3565b9492989796939060e09692620009fd62000a0c92610100808a5289019062000998565b90878203602089015262000998565b981515604086015260608501526001600160a01b0391821660808501521660a083015260c0820152015256fe60808060405262002b4180380380916200001a828562000d91565b833981019061010081830312620007da5780516001600160401b038111620007da57826200004a91830162000df6565b602082015190926001600160401b038211620007da576200006d91830162000df6565b6040820151928315158403620007da57606083015192620000916080820162000e43565b92620000a060a0830162000e43565b9060e060c08401519301519380519060018060401b0382116200079b5760035490600182811c9216801562000d86575b602083101462000c5c5781601f84931162000d14575b50602090601f831160011462000c895760009262000c7d575b50508160011b916000199060031b1c1916176003555b8051906001600160401b0382116200079b5760045490600182811c9216801562000c72575b602083101462000c5c5781601f84931162000bea575b50602090601f831160011462000b5b5760009262000b4f575b50508160011b916000199060031b1c1916176004555b60016005556aa56fa5b99019a5c8000000600655633b9aca00600755670214e8348c4f0000600e55601180546001600160a01b03199081163317909155600c8054610100600160a81b0319811660089490941b610100600160a81b0316939093179055600f8054909116734752ba5dbc23f44d87826276bf6fd6b1c372ad2417905530156200097b57600a5460ff8160a01c169182809362000b43575b62000ab7575b60ff161562000a3e5750506200026e906200023d3062000ea8565b630bebc2006009819055600a80546001600160a01b0319166001600160a01b03909616959095179094554262000e58565b600b558262000288575b604051611a719081620010b08239f35b620002969034101562000e66565b60026005541462000a2c5760026005558190828101808211620007f357620002be9062000f7c565b60019160035b60018111620009ff575080600019048311620007f357620002e792029062000f6e565b806203938702906203938782048103620007f357640574fbde600290808204620186a01490151715620007f3576729a2241af62c0000900490619c40820291808304619c401490151715620007f35762012ebc82046103e862012ebc840402046103e81462012ebc8304151715620007f357620186a06103e862012ebc84040204620003926200037d8262012ebc860462000e58565b916200038c8334101562000e66565b62001012565b600090803411600014620009f757620003ad91503462000f6e565b925b620003c262012ebc840460085462000e58565b600855620003d38160095462000e58565b90816009556007549182811015620009cf575b50506011546001600160a01b03163314159050620009c757600a546001600160a01b0316925b8015801562000994575b5050670de0b6b3a76400008181810204811482151715620007f3576001600160a01b038416156200097b57600a5460ff8160a01c16908180926200096f575b620008cf575b600c5460ff161562000858575050620004779082028462000f24565b600254916009546001810190818111620007f357620004a56200049e620004ac9362000f7c565b9162000f7c565b9062000f6e565b806203938702906203938782048103620007f357640574fbde600290808204620186a01490151715620007f3576729a2241af62c000090049384619c40810204619c401485151715620007f35762012ebc6040519204825283602083015260018060a01b031690827f23b8a9f7d1252cf262e22214b242cc92ed7ed7df9228726be4d037a26e08389460403093a46040519081527ecdd112a5bab661c199cefe1b6b407daede4238a9f24d764373bed654d7c22b602062012ebc619c403096020492a460ff600c541680620005a9575b506001600555600a805460ff60a01b191691151560a01b60ff60a01b169190911790553880808062000278565b156200082257620005bc600e5462001012565b620005cc600e5460085462000f6e565b600855600654600f546001600160a01b031680156200080957306000526001602052604060002081600052602052816040600020556040518281527f8c5be1e5ebec7d5bd14f71427d1e84f3dd0314c0f7b2291e5b200ac8c7c3b92560203092a36008549060018060a01b03600f54166103e84201804211620007f357839160c4606092604051948593849263f305d71960e01b845230600485015288602485015260006044850152600060648501526000608485015260a48401525af18015620007e757620007b1575b5060405160608101929091476001600160401b038511848610176200079b57600060609481927faf60794da385ef41a5f66c38529ba4f0581b8bca348871688b118d212b265881976040526024825262000771608460208401927f636f6e74726163742062616c616e636520616674657220616464206c697175698452636469747960e01b60408601526040519384916200075460208401976309710a9d60e41b8952604060248601525180938160648701528686019062000dd1565b6044830152601f8019910116810103606481018452018262000d91565b51906a636f6e736f6c652e6c6f675afa506040519182526020820152426040820152a1386200057c565b634e487b7160e01b600052604160045260246000fd5b606090813d8311620007df575b620007ca818362000d91565b81010312620007da573862000697565b600080fd5b503d620007be565b6040513d6000823e3d90fd5b634e487b7160e01b600052601160045260246000fd5b604051634a1406b160e11b815260006004820152602490fd5b60405162461bcd60e51b815260206004820152600e60248201526d4375727665206e6f7420646f6e6560901b6044820152606490fd5b6001600160a01b0316159081620008c6575b5080620008ba575b15620008a65760405162461bcd60e51b8152602060048201526006602482015265131bd8dad95960d21b6044820152606490fd5b620008b49082028462000f24565b62000477565b50600b54421062000872565b9050386200086a565b6001600160a01b03811680159081156200095b575b508062000952575b806200093e575b156200045b5760405162461bcd60e51b815260206004820152601b60248201527f446576204c6f636b65642043616e7420427579206f722053656c6c00000000006044820152606490fd5b506001600160a01b038616301415620008f3565b506001620008ec565b6001600160a01b03881614905038620008e4565b50600b54421062000455565b60405163ec442f0560e01b815260006004820152602490fd5b600080809381938290620009bd575b6001600160a01b03891690f115620007e757388062000416565b506108fc620009a3565b33926200040c565b620009ee935090620004a591600160ff19600c541617600c5562000f6e565b388080620003e6565b5092620003af565b9080600019048111620007f3576001821662000a22575b80029060011c620002c4565b8093029262000a16565b604051633ee5aeb560e01b8152600490fd5b6001600160a01b031615908162000aae575b508062000aa2575b1562000a8c5760405162461bcd60e51b8152602060048201526006602482015265131bd8dad95960d21b6044820152606490fd5b6200026e9062000a9c3062000ea8565b6200023d565b50600b54421062000a58565b90503862000a50565b6001600160a01b038216801590811562000b38575b508062000b2f575b8062000b26575b15620002225760405162461bcd60e51b815260206004820152601b60248201527f446576204c6f636b65642043616e7420427579206f722053656c6c00000000006044820152606490fd5b50600062000adb565b50600162000ad4565b905030143862000acc565b50600b5442106200021c565b01519050388062000169565b6004600090815293507f8a35acfbc15ff81a39ae7d344fd709f28e8600b4aa8c65c6b64bfe7fe36bd19b91905b601f198416851062000bce576001945083601f1981161062000bb4575b505050811b016004556200017f565b015160001960f88460031b161c1916905538808062000ba5565b8181015183556020948501946001909301929091019062000b88565b60046000529091507f8a35acfbc15ff81a39ae7d344fd709f28e8600b4aa8c65c6b64bfe7fe36bd19b601f840160051c81016020851062000c54575b90849392915b601f830160051c8201811062000c4457505062000150565b6000815585945060010162000c2c565b508062000c26565b634e487b7160e01b600052602260045260246000fd5b91607f16916200013a565b015190503880620000ff565b600360009081527fc2575a0e9e593c00f959f8c92f12db2869c3395a3b0502d05e2516446f71f85b9350601f198516905b81811062000cfb575090846001959493921062000ce1575b505050811b0160035562000115565b015160001960f88460031b161c1916905538808062000cd2565b9293602060018192878601518155019501930162000cba565b60036000529091507fc2575a0e9e593c00f959f8c92f12db2869c3395a3b0502d05e2516446f71f85b601f840160051c81016020851062000d7e575b90849392915b601f830160051c8201811062000d6e575050620000e6565b6000815585945060010162000d56565b508062000d50565b91607f1691620000d0565b601f909101601f19168101906001600160401b038211908210176200079b57604052565b6001600160401b0381116200079b57601f01601f191660200190565b60005b83811062000de55750506000910152565b818101518382015260200162000dd4565b81601f82011215620007da57805162000e0f8162000db5565b9262000e1f604051948562000d91565b81845260208284010111620007da5762000e40916020808501910162000dd1565b90565b51906001600160a01b0382168203620007da57565b91908201809211620007f357565b1562000e6e57565b60405162461bcd60e51b8152602060048201526012602482015271496e73756666696369656e742066756e647360701b6044820152606490fd5b6002546aa56fa5b99019a5c800000091828201809211620007f3576002919091556001600160a01b03169060009060008051602062002b21833981519152906020908462000f0e576aa56fa5b99019a5c7ffffff19600254016002555b604051908152a3565b8484528382526040842081815401905562000f05565b60008051602062002b21833981519152602060009262000f478560025462000e58565b6002556001600160a01b0316938415841462000f0e578060025403600255604051908152a3565b91908203918211620007f357565b80156200100c578080600114620010055760021462000fff576001908161013382101682600b8310161762000ff757906003815b80821162000fca57505081600019048111620007f3570290565b909280600019048111620007f35781841662000fed575b800292811c9062000fb0565b8092029162000fe1565b600391500a90565b50600890565b5050600190565b50600090565b60008080808460018060a01b03600c5460081c16620186a0f13d15620010a9573d6200103e8162000db5565b906200104e604051928362000d91565b8152600060203d92013e5b1562001072576200106d90600d5462000e58565b600d55565b60405162461bcd60e51b815260206004820152600f60248201526e151c985b9cd9995c8819985a5b1959608a1b6044820152606490fd5b6200105956fe608060408181526004918236101561001657600080fd5b600092833560e01c91826305202a6f146110715750816306fdde0314610f7c578163095ea7b314610f525781631694505e14610f2957816318160ddd14610f0a5781631c488b6a14610eeb57816323b872dd14610df7578163313ce56714610ddb57816333d06de914610dbc5781633610724e1461099f5781633764863c146109785781633ad10ef61461094f57816349bd5a5e146109265781634af18f4f14610906578163571fe016146108e75781636d0ef93c146108c857816370a08231146108915781638078e6b01461086e57816395d89b41146107535781639c08c0a21461073c578163a8c6acda14610719578163a9059cbb146106e8578163b1dfc95f146106c9578163b6a1b6a51461069c578163bf58390314610671578163c7a0206114610652578163dbd8c05714610633578163dd62ed3e146105ea578163de11c94a146105c1578163eced55261461059e578163ed9772b6146101a5575063f446c1d01461018557600080fd5b346101a157816003193601126101a15760209051620393878152f35b5080fd5b9190503461059a578060031936011261059a578135916101c3611411565b6101d260ff600c5416156113a8565b6101db8361180e565b906103e880830290838204148315171561058757620186a090046101ff8184611404565b9081471061055a573387526020928784528588205490670de0b6b3a764000091828902928984041489151715610547578211610517576024803585106104e85761024884611551565b33156104d357600a5460ff8160a01c16908180926104c8575b610443575b600c5460ff161561033d5750505050878093610299610291839561028b859633611887565b836113e1565b600854611404565b6008556102a889600954611404565b600955818115610334575b3390f11561032a577ecdd112a5bab661c199cefe1b6b407daede4238a9f24d764373bed654d7c22b90600254936102e86114c0565b93815190815285838201523390877fc3b2c4fcdf25a3a78c81bd9f335d8bab96fe7dd1288668b957ebdb1b70b4de39843093a4519485523094a4600160055580f35b82513d86823e3d90fd5b506108fc6102b3565b60018060a09d999d9c9896949b9a97959c1b03163314908161043b575b5080610430575b1561039157865162461bcd60e51b8152808a018b90526006818a015265131bd8dad95960d21b6044820152606490fd5b909193978599959396973033148015610429575b156103c6575050829361029961029185946103c1869533611887565b61028b565b909192935030158015610421575b156103f157505087809361029961029183956103c1859633611887565b875162461bcd60e51b8152918201869052600b908201526a2737903a3930b739b332b960a91b6044820152606490fd5b5060016103d4565b50846103a5565b50600b544210610361565b90503861035a565b6001600160a01b0381163381149081156104bf575b50806104b5575b806104ac575b1561026657895162461bcd60e51b8152808501899052601b818501527f446576204c6f636b65642043616e7420427579206f722053656c6c00000000006044820152606490fd5b50301515610465565b503033141561045f565b90501538610458565b50600b544210610261565b8751634b637e8f60e11b81529182018a905290fd5b875162461bcd60e51b8152918201869052600a9082015269131bddc81c99599d5b9960b21b6044820152606490fd5b865162461bcd60e51b8152908101859052600a6024820152694c6f7720746f6b656e7360b01b6044820152606490fd5b634e487b7160e01b8a526011825260248afd5b845162461bcd60e51b81526020818501526007602482015266098deee408aa8960cb1b6044820152606490fd5b634e487b7160e01b865260118252602486fd5b8280fd5b5050346101a157816003193601126101a15760209051670de0b6b3a76400008152f35b5050346101a157816003193601126101a15760115490516001600160a01b039091168152602090f35b5050346101a157806003193601126101a157806020926106086110d2565b6106106110ed565b6001600160a01b0391821683526001865283832091168252845220549051908152f35b5050346101a157816003193601126101a157602090600d549051908152f35b5050346101a157816003193601126101a1576020906008549051908152f35b5050346101a157816003193601126101a15760209061069560075460095490611404565b9051908152f35b5050346101a157816003193601126101a157600c54905160089190911c6001600160a01b03168152602090f35b5050346101a157816003193601126101a15760209051630bebc2008152f35b5050346101a157806003193601126101a1576020906107126107086110d2565b602435903361113b565b5160018152f35b82843461073957602036600319011261073957506106956020923561180e565b80fd5b83806003193601126107395761075061160b565b80f35b82843461073957806003193601126107395781519181845492600184811c91818616958615610864575b6020968785108114610851579087899a92868b999a9b5291826000146108275750506001146107cc575b85886107c8896107b9848a0385611103565b51928284938452830190611092565b0390f35b815286935091907f8a35acfbc15ff81a39ae7d344fd709f28e8600b4aa8c65c6b64bfe7fe36bd19b5b82841061080f57505050820101816107b96107c8886107a7565b8054848a0186015288955087949093019281016107f5565b60ff19168882015294151560051b870190940194508593506107b992506107c891508990506107a7565b634e487b7160e01b835260228a52602483fd5b92607f169261077d565b5050346101a157816003193601126101a15760209051673782dace9d9000008152f35b5050346101a15760203660031901126101a15760209181906001600160a01b036108b96110d2565b16815280845220549051908152f35b5050346101a157816003193601126101a1576020906009549051908152f35b5050346101a157816003193601126101a1576020906007549051908152f35b828434610739576020366003190112610739575061069560209235611535565b5050346101a157816003193601126101a15760105490516001600160a01b039091168152602090f35b5050346101a157816003193601126101a157600a5490516001600160a01b039091168152602090f35b5050346101a157816003193601126101a15760209060ff600a5460a01c1690519015158152f35b838360208060031936011261059a578335906109b9611411565b81908215610d8f576109d060ff600c5416156113a8565b6109d983611535565b6103e8808202908282041482151715610d7c57620186a090046109fc81836113e1565b90813410610d4457610a0d90611551565b803411600014610d3c57610a219034611404565b935b610a2f826008546113e1565b600855610a3e816009546113e1565b90816009556007549182811015610d10575b505050670de0b6b3a764000096878402978489041484151715610cfd573315610ce657600a5460ff8160a01c1690818092610cdb575b610c55575b600c5460ff1615610b6957505050610aa786979695963361182b565b7ecdd112a5bab661c199cefe1b6b407daede4238a9f24d764373bed654d7c22b60025492610ad36114c0565b92885190815284828201523390867f23b8a9f7d1252cf262e22214b242cc92ed7ed7df9228726be4d037a26e0838948b3093a487519485523094a460ff600c5416610b5c575b8015908115610b2c575b82600160055580f35b8280929181928290610b53575b3390f115610b4957818180610b23565b51903d90823e3d90fd5b506108fc610b39565b610b6461160b565b610b19565b9197939695939492916001600160a01b0316159081610c4d575b5080610c42575b15610bbb57845162461bcd60e51b81528088018790526006602482015265131bd8dad95960d21b6044820152606490fd5b9092959491939430158015610c3a575b15610be45750610bdf86979695963361182b565b610aa7565b3033148015610c33575b15610c025750610bdf86979695963361182b565b855162461bcd60e51b8152908101839052600b60248201526a2737903a3930b739b332b960a91b6044820152606490fd5b5086610bee565b506001610bcb565b50600b544210610b8a565b905089610b83565b6001600160a01b0381168015908115610cd1575b5080610cc8575b80610cbe575b15610a8b57875162461bcd60e51b8152808401869052601b60248201527f446576204c6f636b65642043616e7420427579206f722053656c6c00000000006044820152606490fd5b5030331415610c76565b50301515610c70565b905033148b610c69565b50600b544210610a86565b855163ec442f0560e01b8152908101879052602490fd5b634e487b7160e01b875260119052602486fd5b610d3393955090610d2d91600160ff19600c541617600c55611404565b90611404565b91878080610a50565b508593610a23565b865162461bcd60e51b8152808a018590526012602482015271496e73756666696369656e742066756e647360701b6044820152606490fd5b634e487b7160e01b875260118852602487fd5b8560649185519162461bcd60e51b835282015260086024820152670c08185b5bdd5b9d60c21b6044820152fd5b5050346101a157816003193601126101a157602090600e549051908152f35b5050346101a157816003193601126101a1576020905160128152f35b9050823461073957606036600319011261073957610e136110d2565b610e1b6110ed565b916044359360018060a01b038316808352600160205286832033845260205286832054916000198303610e57575b60208861071289898961113b565b868310610ebf578115610ea8573315610e915750825260016020908152868320338452815291869020908590039055829061071287610e49565b8751634a1406b160e11b8152908101849052602490fd5b875163e602df0560e01b8152908101849052602490fd5b8751637dc7a0d960e11b8152339181019182526020820193909352604081018790528291506060010390fd5b5050346101a157816003193601126101a157602090600b549051908152f35b5050346101a157816003193601126101a1576020906002549051908152f35b5050346101a157816003193601126101a157600f5490516001600160a01b039091168152602090f35b5050346101a157806003193601126101a157602090610712610f726110d2565b6024359033611315565b8284346107395780600319360112610739578151918160035492600184811c91818616958615611067575b6020968785108114610851578899509688969785829a529182600014611040575050600114610fe4575b5050506107c892916107b9910385611103565b9190869350600383527fc2575a0e9e593c00f959f8c92f12db2869c3395a3b0502d05e2516446f71f85b5b82841061102857505050820101816107b96107c8610fd1565b8054848a01860152889550879490930192810161100f565b60ff19168782015293151560051b860190930193508492506107b991506107c89050610fd1565b92607f1692610fa7565b8490346101a157816003193601126101a15760209060ff600c541615158152f35b919082519283825260005b8481106110be575050826000602080949584010152601f8019910116010190565b60208183018101518483018201520161109d565b600435906001600160a01b03821682036110e857565b600080fd5b602435906001600160a01b03821682036110e857565b90601f8019910116810190811067ffffffffffffffff82111761112557604052565b634e487b7160e01b600052604160045260246000fd5b91906001600160a01b0380841680156112fc578183169182156112e357600a549060ff8260a01c16918280936112d8575b611255575b600c5460ff161561118c57505050505061118a92611943565b565b168214908161124d575b5080611242575b156111d05760405162461bcd60e51b8152602060048201526006602482015265131bd8dad95960d21b6044820152606490fd5b3014801561123a575b156111e8575061118a92611943565b30148015611232575b156111ff5761118a92611943565b60405162461bcd60e51b815260206004820152600b60248201526a2737903a3930b739b332b960a91b6044820152606490fd5b5060006111f1565b5060006111d9565b50600b54421061119d565b905038611196565b8181168085149081156112ce575b50806112c4575b806112ba575b156111715760405162461bcd60e51b815260206004820152601b60248201527f446576204c6f636b65642043616e7420427579206f722053656c6c00000000006044820152606490fd5b5030851415611270565b503084141561126a565b9050851438611263565b50600b54421061116c565b60405163ec442f0560e01b815260006004820152602490fd5b604051634b637e8f60e11b815260006004820152602490fd5b6001600160a01b0390811691821561138f57169182156113765760207f8c5be1e5ebec7d5bd14f71427d1e84f3dd0314c0f7b2291e5b200ac8c7c3b925918360005260018252604060002085600052825280604060002055604051908152a3565b604051634a1406b160e11b815260006004820152602490fd5b60405163e602df0560e01b815260006004820152602490fd5b156113af57565b60405162461bcd60e51b815260206004820152600a602482015269437572766520646f6e6560b01b6044820152606490fd5b919082018092116113ee57565b634e487b7160e01b600052601160045260246000fd5b919082039182116113ee57565b600260055414611422576002600555565b604051633ee5aeb560e01b8152600490fd5b80156114ba5780806001146114b3576002146114ad576001908161013382101682600b831016176114a557906003815b80821161147c575050816000190481116113ee570290565b9092806000190481116113ee5781841661149c575b800292811c90611464565b80920291611491565b600391500a90565b50600890565b5050600190565b50600090565b60095460018101908181116113ee57610d2d6114de6114e493611434565b91611434565b620393879080820291820481036113ee57640574fbde600290808204620186a014901517156113ee576729a2241af62c00009004619c40908181029181830414901517156113ee5762012ebc900490565b6114e490610d2d6114de61154c60095493846113e1565b611434565b6000808080808560018060a01b03600c5460081c16620186a0f1903d15611605573d9067ffffffffffffffff82116115f1576040519161159b601f8201601f191660200184611103565b825260203d92013e5b156115ba576115b590600d546113e1565b600d55565b60405162461bcd60e51b815260206004820152600f60248201526e151c985b9cd9995c8819985a5b1959608a1b6044820152606490fd5b634e487b7160e01b81526041600452602490fd5b506115a4565b60ff600c5416156117d857611621600e54611551565b61162f600e54600854611404565b6008556006549060018060a01b0361164c8382600f541630611315565b60085490600f5416926103e84201938442116113ee57829160409182519063f305d71960e01b825230600483015282602483015260009788604484015288606484015288608484015260a48301528160c48160609889945af180156117ce579085916117a1575b50508151954785880167ffffffffffffffff81118982101761178d579782917faf60794da385ef41a5f66c38529ba4f0581b8bca348871688b118d212b26588198998652602482527f636f6e74726163742062616c616e636520616674657220616464206c697175696020830152636469747960e01b8683015261176a8651809261175660208301956309710a9d60e41b87528a60248501526064840190611092565b90604483015203601f198101835282611103565b51906a636f6e736f6c652e6c6f675afa50815192835260208301524290820152a1565b634e487b7160e01b83526041600452602483fd5b813d83116117c7575b6117b48183611103565b810103126117c35783386116b3565b8580fd5b503d6117aa565b83513d89823e3d90fd5b60405162461bcd60e51b815260206004820152600e60248201526d4375727665206e6f7420646f6e6560901b6044820152606490fd5b6114e490610d2d6114de6118256009549384611404565b92611434565b600080516020611a1c833981519152602060009261184b856002546113e1565b6002556001600160a01b031693841584146118725780600254036002555b604051908152a3565b84845283825260408420818154019055611869565b9091906001600160a01b03811690816118d15750600080516020611a1c8339815191526020846118bc600095966002546113e1565b6002555b8060025403600255604051908152a3565b92600082815280602052604081205494828610611912575081816040600080516020611a1c83398151915294600097988760209652838652039120556118c0565b60405163391434e360e21b81526001600160a01b039190911660048201526024810186905260448101839052606490fd5b6001600160a01b03808216929091836119aa5750600080516020611a1c83398151915291602091611976866002546113e1565b6002555b169384611992578060025403600255604051908152a3565b84600052600082526040600020818154019055611869565b600090848252816020526040822054908682106119e95750918160408760209588600080516020611a1c8339815191529896528387520391205561197a565b60405163391434e360e21b81526001600160a01b03919091166004820152602481019190915260448101869052606490fdfeddf252ad1be2c89b69c2b068fc378daa952ba7f163c4a11628f55a4df523b3efa2646970667358221220ffdcad7a65733d150585acd46fa7612076557bf46ee7cd9c379b704bcd794c3164736f6c63430008140033ddf252ad1be2c89b69c2b068fc378daa952ba7f163c4a11628f55a4df523b3efa2646970667358221220f5dae129fb9ff7a0a2223521793d295c79a2b294ad29a3a86ce4bb62e5f914da64736f6c63430008140033","linkReferences":{}},"methodIdentifiers":{"createToken(string,string,bool,uint256,address,uint256,uint256)":"1a4ab1c3","createTokenRevenue()":"3b527dd6","owner()":"8da5cb5b","renounceOwnership()":"715018a6","revenueCollector()":"b6a1b6a5","setCreateTokenRevenue(uint256)":"69c7fddf","setRevenueCollector(address)":"cde38cdf","setSuperMemeRegistry(address)":"7884f146","superMemeRegistry()":"408a7344","tokenAddresses(uint256)":"e5df8b84","transferOwnership(address)":"f2fde38b"},"id":41}