{"abi":[{"type":"constructor","inputs":[{"name":"_superMemeRegistry","type":"address","internalType":"address"}],"stateMutability":"nonpayable"},{"type":"function","name":"createToken","inputs":[{"name":"_name","type":"string","internalType":"string"},{"name":"_symbol","type":"string","internalType":"string"},{"name":"_devLocked","type":"bool","internalType":"bool"},{"name":"_amount","type":"uint256","internalType":"uint256"},{"name":"_devAddress","type":"address","internalType":"address"},{"name":"_devLockDuration","type":"uint256","internalType":"uint256"},{"name":"_buyEth","type":"uint256","internalType":"uint256"}],"outputs":[{"name":"token","type":"address","internalType":"address"}],"stateMutability":"payable"},{"type":"function","name":"createTokenRevenue","inputs":[],"outputs":[{"name":"","type":"uint256","internalType":"uint256"}],"stateMutability":"view"},{"type":"function","name":"owner","inputs":[],"outputs":[{"name":"","type":"address","internalType":"address"}],"stateMutability":"view"},{"type":"function","name":"renounceOwnership","inputs":[],"outputs":[],"stateMutability":"nonpayable"},{"type":"function","name":"revenueCollector","inputs":[],"outputs":[{"name":"","type":"address","internalType":"address"}],"stateMutability":"view"},{"type":"function","name":"setCreateTokenRevenue","inputs":[{"name":"_createTokenRevenue","type":"uint256","internalType":"uint256"}],"outputs":[],"stateMutability":"nonpayable"},{"type":"function","name":"setRevenueCollector","inputs":[{"name":"_revenueCollector","type":"address","internalType":"address"}],"outputs":[],"stateMutability":"nonpayable"},{"type":"function","name":"setSuperMemeRegistry","inputs":[{"name":"_superMemeRegistry","type":"address","internalType":"address"}],"outputs":[],"stateMutability":"nonpayable"},{"type":"function","name":"superMemeRegistry","inputs":[],"outputs":[{"name":"","type":"address","internalType":"contract ISuperMemeRegistry"}],"stateMutability":"view"},{"type":"function","name":"tokenAddresses","inputs":[{"name":"","type":"uint256","internalType":"uint256"}],"outputs":[{"name":"","type":"address","internalType":"address"}],"stateMutability":"view"},{"type":"function","name":"transferOwnership","inputs":[{"name":"newOwner","type":"address","internalType":"address"}],"outputs":[],"stateMutability":"nonpayable"},{"type":"event","name":"OwnershipTransferred","inputs":[{"name":"previousOwner","type":"address","indexed":true,"internalType":"address"},{"name":"newOwner","type":"address","indexed":true,"internalType":"address"}],"anonymous":false},{"type":"event","name":"TokenCreated","inputs":[{"name":"tokenAddress","type":"address","indexed":true,"internalType":"address"},{"name":"devAddress","type":"address","indexed":true,"internalType":"address"},{"name":"amount","type":"uint256","indexed":false,"internalType":"uint256"},{"name":"devLocked","type":"bool","indexed":false,"internalType":"bool"},{"name":"tokenType","type":"uint256","indexed":false,"internalType":"uint256"}],"anonymous":false},{"type":"error","name":"OwnableInvalidOwner","inputs":[{"name":"owner","type":"address","internalType":"address"}]},{"type":"error","name":"OwnableUnauthorizedAccount","inputs":[{"name":"account","type":"address","internalType":"address"}]}],"bytecode":{"object":"0x60806040526602d79883d2000060025534801561001b57600080fd5b5060405161367838038061367883398101604081905261003a916100df565b338061006057604051631e4fbdf760e01b81526000600482015260240160405180910390fd5b6100698161008f565b50600180546001600160a01b0319166001600160a01b039290921691909117905561010f565b600080546001600160a01b038381166001600160a01b0319831681178455604051919092169283917f8be0079c531659141344cd1fd0a4f28419497f9722a3daafe3b4186f6b6457e09190a35050565b6000602082840312156100f157600080fd5b81516001600160a01b038116811461010857600080fd5b9392505050565b61355a8061011e6000396000f3fe608060405260043610620000a95760003560e01c80637884f146116200006c5780637884f146146200016a5780638da5cb5b146200018f578063b6a1b6a514620001af578063cde38cdf14620001d1578063e5df8b8414620001f6578063f2fde38b146200021b57600080fd5b80631a4ab1c314620000ae5780633b527dd614620000e2578063408a7344146200010957806369c7fddf146200012b578063715018a61462000152575b600080fd5b620000c5620000bf3660046200091f565b62000240565b6040516001600160a01b0390911681526020015b60405180910390f35b348015620000ef57600080fd5b50620000fa60025481565b604051908152602001620000d9565b3480156200011657600080fd5b50600154620000c5906001600160a01b031681565b3480156200013857600080fd5b50620001506200014a366004620009d2565b620006dc565b005b3480156200015f57600080fd5b5062000150620006eb565b3480156200017757600080fd5b506200015062000189366004620009ec565b62000703565b3480156200019c57600080fd5b506000546001600160a01b0316620000c5565b348015620001bc57600080fd5b50600354620000c5906001600160a01b031681565b348015620001de57600080fd5b5062000150620001f0366004620009ec565b6200072f565b3480156200020357600080fd5b50620000c562000215366004620009d2565b6200075b565b3480156200022857600080fd5b50620001506200023a366004620009ec565b62000786565b60006002543410156200028f5760405162461bcd60e51b8152602060048201526012602482015271496e73756666696369656e742066756e647360701b60448201526064015b60405180910390fd5b620151808310158015620002a6575062093a808311155b8015620002bf5750620002bd620151808462000a11565b155b80620002cc57508261a8c0145b80620002d6575082155b6200031c5760405162461bcd60e51b815260206004820152601560248201527424b73b30b634b2103637b1b590323ab930ba34b7b760591b604482015260640162000286565b6001600160a01b03841633146200036c5760405162461bcd60e51b8152602060048201526013602482015272496e76616c696420646576206164647265737360681b604482015260640162000286565b6003546002546040516000926001600160a01b0316916207a1209184818181858888f193505050503d8060008114620003c2576040519150601f19603f3d011682016040523d82523d6000602084013e620003c7565b606091505b50509050806200040c5760405162461bcd60e51b815260206004820152600f60248201526e151c985b9cd9995c8819985a5b1959608a1b604482015260640162000286565b8615801562000419575085155b801562000424575083155b80156200042f575082155b1562000499578888888888600360009054906101000a90046001600160a01b03168989604051620004609062000849565b6200047398979695949392919062000a7c565b604051809103906000f08015801562000490573d6000803e3d6000fd5b509150620005bb565b868015620004a75750600086115b8015620004b45750600083115b8015620004c15750600084115b156200052457828989898989600360009054906101000a90046001600160a01b03168a8a604051620004f39062000849565b6200050698979695949392919062000a7c565b6040518091039082f090508015801562000490573d6000803e3d6000fd5b86158015620005335750600086115b8015620005405750600083115b80156200054b575083155b156200057d57828989898989600360009054906101000a90046001600160a01b03168a8a604051620004f39062000849565b60405162461bcd60e51b8152602060048201526012602482015271496e76616c696420706172616d657465727360701b604482015260640162000286565b600154604051633a03244760e01b81526001600160a01b03848116600483015287811660248301526044820189905289151560648301526000608483015290911690633a0324479060a401600060405180830381600087803b1580156200062157600080fd5b505af115801562000636573d6000803e3d6000fd5b50506004805460018101825560009182527f8a35acfbc15ff81a39ae7d344fd709f28e8600b4aa8c65c6b64bfe7fe36bd19b0180546001600160a01b0319166001600160a01b03878116918217909255604080518c81528d1515602082015290810193909352908916935091507f6268964f653fb671b504147c5e2a7e7f1cfd9512b665f4de66b2980551e3b76d9060600160405180910390a350979650505050505050565b620006e6620007ca565b600255565b620006f5620007ca565b620007016000620007f9565b565b6200070d620007ca565b600180546001600160a01b0319166001600160a01b0392909216919091179055565b62000739620007ca565b600380546001600160a01b0319166001600160a01b0392909216919091179055565b600481815481106200076c57600080fd5b6000918252602090912001546001600160a01b0316905081565b62000790620007ca565b6001600160a01b038116620007bc57604051631e4fbdf760e01b81526000600482015260240162000286565b620007c781620007f9565b50565b6000546001600160a01b03163314620007015760405163118cdaa760e01b815233600482015260240162000286565b600080546001600160a01b038381166001600160a01b0319831681178455604051919092169283917f8be0079c531659141344cd1fd0a4f28419497f9722a3daafe3b4186f6b6457e09190a35050565b612a3d8062000ae883390190565b634e487b7160e01b600052604160045260246000fd5b600082601f8301126200087f57600080fd5b813567ffffffffffffffff808211156200089d576200089d62000857565b604051601f8301601f19908116603f01168101908282118183101715620008c857620008c862000857565b81604052838152866020858801011115620008e257600080fd5b836020870160208301376000602085830101528094505050505092915050565b80356001600160a01b03811681146200091a57600080fd5b919050565b600080600080600080600060e0888a0312156200093b57600080fd5b873567ffffffffffffffff808211156200095457600080fd5b620009628b838c016200086d565b985060208a01359150808211156200097957600080fd5b50620009888a828b016200086d565b965050604088013580151581146200099f57600080fd5b945060608801359350620009b66080890162000902565b925060a0880135915060c0880135905092959891949750929550565b600060208284031215620009e557600080fd5b5035919050565b600060208284031215620009ff57600080fd5b62000a0a8262000902565b9392505050565b60008262000a2f57634e487b7160e01b600052601260045260246000fd5b500690565b6000815180845260005b8181101562000a5c5760208185018101518683018201520162000a3e565b506000602082860101526020601f19601f83011685010191505092915050565b600061010080835262000a928184018c62000a34565b9050828103602084015262000aa8818b62000a34565b9815156040840152505060608101959095526001600160a01b0393841660808601529190921660a084015260c083019190915260e0909101529291505056fe60806040526aa56fa5b99019a5c8000000600655633b9aca00600755670214e8348c4f0000600e5560405162002a3d38038062002a3d833981016040819052620000499162000d1f565b8787600362000059838262000e72565b50600462000068828262000e72565b5050600160055550601180546001600160a01b03199081163317909155600c80546001600160a01b03861661010002610100600160a81b0319909116179055600f8054909116734752ba5dbc23f44d87826276bf6fd6b1c372ad24179055600654620000d69030906200018c565b630bebc200600955600a80546001600160a01b0319166001600160a01b03861617905562000105824262000f54565b600b5584156200017e57803410156200015a5760405162461bcd60e51b8152602060048201526012602482015271496e73756666696369656e742066756e647360701b60448201526064015b60405180910390fd5b620001668534620001ca565b600a805460ff60a01b1916600160a01b881515021790555b505050505050505062001144565b6001600160a01b038216620001b85760405163ec442f0560e01b81526000600482015260240162000151565b620001c6600083836200045a565b5050565b620001d462000646565b6000620001e18362000671565b90506000620186a0620001f76103e88462000f70565b62000203919062000f8a565b9050600062000213828462000f54565b9050808410156200025c5760405162461bcd60e51b8152602060048201526012602482015271496e73756666696369656e742066756e647360701b604482015260640162000151565b620002678262000714565b60008185116200027957600062000285565b62000285828662000fad565b905083600860008282546200029b919062000f54565b925050819055508560096000828254620002b6919062000f54565b909155505060075460095410620002f657600c805460ff19166001179055600954620002e490879062000fad565b600754620002f3919062000fad565b95505b6011546000906001600160a01b0316331462000313573362000320565b600a546001600160a01b03165b9050811562000362576040516001600160a01b0382169083156108fc029084906000818181858888f1935050505015801562000360573d6000803e3d6000fd5b505b62000381816200037b89670de0b6b3a764000062000f70565b6200018c565b60006200038d60025490565b905060006200039d600162000671565b60408051898152602081018590529192506001600160a01b0385169130918c917f23b8a9f7d1252cf262e22214b242cc92ed7ed7df9228726be4d037a26e083894910160405180910390a4306001600160a01b031682827ecdd112a5bab661c199cefe1b6b407daede4238a9f24d764373bed654d7c22b8c6040516200042591815260200190565b60405180910390a4600c5460ff1615620004435762000443620007d5565b50505050505050620001c66200098960201b60201c565b600a54600160a01b900460ff168015620004755750600b5442105b156200052057600a546001600160a01b0384811691161480620004a55750600a546001600160a01b038381169116145b8015620004bb57506001600160a01b0383163014155b8015620004d157506001600160a01b0382163014155b15620005205760405162461bcd60e51b815260206004820152601b60248201527f446576204c6f636b65642043616e7420427579206f722053656c6c0000000000604482015260640162000151565b600c5460ff16156200053e576200053983838362000990565b505050565b600a546001600160a01b038481169116148015620005655750600a54600160a01b900460ff165b8015620005735750600b5442105b15620005ab5760405162461bcd60e51b8152602060048201526006602482015265131bd8dad95960d21b604482015260640162000151565b6001600160a01b038316301480620005ca57506001600160a01b038316155b15620005dd576200053983838362000990565b6001600160a01b038216301480620005fc57506001600160a01b038216155b156200060f576200053983838362000990565b60405162461bcd60e51b815260206004820152600b60248201526a2737903a3930b739b332b960a91b604482015260640162000151565b6002600554036200066a57604051633ee5aeb560e01b815260040160405180910390fd5b6002600555565b6009546000908162000684848362000f54565b9050600062012ebc620006a1670de0b6b3a7640000600362000f70565b620006ae600386620010c0565b620006bb600386620010c0565b620006c7919062000fad565b620006d6906203938762000f70565b620006e590620186a062000f70565b620006f1919062000f8a565b620006ff90619c4062000f70565b6200070b919062000f8a565b95945050505050565b600c5460405160009161010090046001600160a01b031690620186a090849084818181858888f193505050503d80600081146200076e576040519150601f19603f3d011682016040523d82523d6000602084013e62000773565b606091505b5050905080620007b85760405162461bcd60e51b815260206004820152600f60248201526e151c985b9cd9995c8819985a5b1959608a1b604482015260640162000151565b81600d6000828254620007cc919062000f54565b90915550505050565b600c5460ff166200081a5760405162461bcd60e51b815260206004820152600e60248201526d4375727665206e6f7420646f6e6560901b604482015260640162000151565b600e54620008289062000714565b600e54600860008282546200083e919062000fad565b9091555050600654600f54620008609030906001600160a01b03168362000ac3565b600854600f546001600160a01b031663f305d7198230856000808062000889426103e862000f54565b60405160e089901b6001600160e01b03191681526001600160a01b039687166004820152602481019590955260448501939093526064840191909152909216608482015260a481019190915260c40160606040518083038185885af1158015620008f7573d6000803e3d6000fd5b50505050506040513d601f19601f820116820180604052508101906200091e9190620010d8565b5050506200094660405180606001604052806024815260200162002a19602491394762000ad2565b6040805182815260208101849052428183015290517faf60794da385ef41a5f66c38529ba4f0581b8bca348871688b118d212b2658819181900360600190a15050565b6001600555565b6001600160a01b038316620009bf578060026000828254620009b3919062000f54565b9091555062000a339050565b6001600160a01b0383166000908152602081905260409020548181101562000a145760405163391434e360e21b81526001600160a01b0385166004820152602481018290526044810183905260640162000151565b6001600160a01b03841660009081526020819052604090209082900390555b6001600160a01b03821662000a515760028054829003905562000a70565b6001600160a01b03821660009081526020819052604090208054820190555b816001600160a01b0316836001600160a01b03167fddf252ad1be2c89b69c2b068fc378daa952ba7f163c4a11628f55a4df523b3ef8360405162000ab691815260200190565b60405180910390a3505050565b62000539838383600162000b1f565b620001c6828260405160240162000aeb92919062001107565b60408051601f198184030181529190526020810180516001600160e01b039081166309710a9d60e41b1790915262000bfb16565b6001600160a01b03841662000b4b5760405163e602df0560e01b81526000600482015260240162000151565b6001600160a01b03831662000b7757604051634a1406b160e11b81526000600482015260240162000151565b6001600160a01b038085166000908152600160209081526040808320938716835292905220829055801562000bf557826001600160a01b0316846001600160a01b03167f8c5be1e5ebec7d5bd14f71427d1e84f3dd0314c0f7b2291e5b200ac8c7c3b9258460405162000bec91815260200190565b60405180910390a35b50505050565b62000c118162000c1460201b62000e701760201c565b50565b80516a636f6e736f6c652e6c6f67602083016000808483855afa5050505050565b634e487b7160e01b600052604160045260246000fd5b60005b8381101562000c6857818101518382015260200162000c4e565b50506000910152565b600082601f83011262000c8357600080fd5b81516001600160401b038082111562000ca05762000ca062000c35565b604051601f8301601f19908116603f0116810190828211818310171562000ccb5762000ccb62000c35565b8160405283815286602085880101111562000ce557600080fd5b62000cf884602083016020890162000c4b565b9695505050505050565b80516001600160a01b038116811462000d1a57600080fd5b919050565b600080600080600080600080610100898b03121562000d3d57600080fd5b88516001600160401b038082111562000d5557600080fd5b62000d638c838d0162000c71565b995060208b015191508082111562000d7a57600080fd5b5062000d898b828c0162000c71565b9750506040890151801515811462000da057600080fd5b60608a0151909650945062000db860808a0162000d02565b935062000dc860a08a0162000d02565b60c08a015160e0909a0151989b979a5095989497939692505050565b600181811c9082168062000df957607f821691505b60208210810362000e1a57634e487b7160e01b600052602260045260246000fd5b50919050565b601f8211156200053957600081815260208120601f850160051c8101602086101562000e495750805b601f850160051c820191505b8181101562000e6a5782815560010162000e55565b505050505050565b81516001600160401b0381111562000e8e5762000e8e62000c35565b62000ea68162000e9f845462000de4565b8462000e20565b602080601f83116001811462000ede576000841562000ec55750858301515b600019600386901b1c1916600185901b17855562000e6a565b600085815260208120601f198616915b8281101562000f0f5788860151825594840194600190910190840162000eee565b508582101562000f2e5787850151600019600388901b60f8161c191681555b5050505050600190811b01905550565b634e487b7160e01b600052601160045260246000fd5b8082018082111562000f6a5762000f6a62000f3e565b92915050565b808202811582820484141762000f6a5762000f6a62000f3e565b60008262000fa857634e487b7160e01b600052601260045260246000fd5b500490565b8181038181111562000f6a5762000f6a62000f3e565b600181815b808511156200100457816000190482111562000fe85762000fe862000f3e565b8085161562000ff657918102915b93841c939080029062000fc8565b509250929050565b6000826200101d5750600162000f6a565b816200102c5750600062000f6a565b8160018114620010455760028114620010505762001070565b600191505062000f6a565b60ff84111562001064576200106462000f3e565b50506001821b62000f6a565b5060208310610133831016604e8410600b841016171562001095575081810a62000f6a565b620010a1838362000fc3565b8060001904821115620010b857620010b862000f3e565b029392505050565b6000620010d160ff8416836200100c565b9392505050565b600080600060608486031215620010ee57600080fd5b8351925060208401519150604084015190509250925092565b60408152600083518060408401526200112881606085016020880162000c4b565b602083019390935250601f91909101601f191601606001919050565b6118c580620011546000396000f3fe6080604052600436106101e35760003560e01c806370a0823111610102578063bf58390311610095578063de11c94a11610064578063de11c94a1461054d578063eced55261461056d578063ed9772b614610589578063f446c1d0146105a957600080fd5b8063bf583903146104c6578063c7a02061146104db578063dbd8c057146104f1578063dd62ed3e1461050757600080fd5b8063a8c6acda116100d1578063a8c6acda14610449578063a9059cbb14610469578063b1dfc95f14610489578063b6a1b6a5146104a157600080fd5b806370a08231146103da5780638078e6b01461041057806395d89b411461042c5780639c08c0a21461044157600080fd5b806333d06de91161017a57806349bd5a5e1161014957806349bd5a5e1461036e5780634af18f4f1461038e578063571fe016146103ae5780636d0ef93c146103c457600080fd5b806333d06de9146103025780633610724e146103185780633764863c1461032d5780633ad10ef61461034e57600080fd5b806318160ddd116101b657806318160ddd146102915780631c488b6a146102b057806323b872dd146102c6578063313ce567146102e657600080fd5b806305202a6f146101e857806306fdde0314610217578063095ea7b3146102395780631694505e14610259575b600080fd5b3480156101f457600080fd5b50600c546102029060ff1681565b60405190151581526020015b60405180910390f35b34801561022357600080fd5b5061022c6105c0565b60405161020e919061153e565b34801561024557600080fd5b50610202610254366004611574565b610652565b34801561026557600080fd5b50600f54610279906001600160a01b031681565b6040516001600160a01b03909116815260200161020e565b34801561029d57600080fd5b506002545b60405190815260200161020e565b3480156102bc57600080fd5b506102a2600b5481565b3480156102d257600080fd5b506102026102e136600461159e565b61066c565b3480156102f257600080fd5b506040516012815260200161020e565b34801561030e57600080fd5b506102a2600e5481565b61032b6103263660046115da565b610690565b005b34801561033957600080fd5b50600a5461020290600160a01b900460ff1681565b34801561035a57600080fd5b50600a54610279906001600160a01b031681565b34801561037a57600080fd5b50601054610279906001600160a01b031681565b34801561039a57600080fd5b506102a26103a93660046115da565b610936565b3480156103ba57600080fd5b506102a260075481565b3480156103d057600080fd5b506102a260095481565b3480156103e657600080fd5b506102a26103f53660046115f3565b6001600160a01b031660009081526020819052604090205490565b34801561041c57600080fd5b506102a2673782dace9d90000081565b34801561043857600080fd5b5061022c6109c5565b61032b6109d4565b34801561045557600080fd5b506102a26104643660046115da565b610b77565b34801561047557600080fd5b50610202610484366004611574565b610bb9565b34801561049557600080fd5b506102a2630bebc20081565b3480156104ad57600080fd5b50600c546102799061010090046001600160a01b031681565b3480156104d257600080fd5b506102a2610bc7565b3480156104e757600080fd5b506102a260085481565b3480156104fd57600080fd5b506102a2600d5481565b34801561051357600080fd5b506102a261052236600461160e565b6001600160a01b03918216600090815260016020908152604080832093909416825291909152205490565b34801561055957600080fd5b50601154610279906001600160a01b031681565b34801561057957600080fd5b506102a2670de0b6b3a764000081565b34801561059557600080fd5b5061032b6105a4366004611641565b610bde565b3480156105b557600080fd5b506102a26203938781565b6060600380546105cf90611663565b80601f01602080910402602001604051908101604052809291908181526020018280546105fb90611663565b80156106485780601f1061061d57610100808354040283529160200191610648565b820191906000526020600020905b81548152906001019060200180831161062b57829003601f168201915b5050505050905090565b600033610660818585610e91565b60019150505b92915050565b60003361067a858285610ea3565b610685858585610f21565b506001949350505050565b610698610f80565b600081116106d85760405162461bcd60e51b81526020600482015260086024820152670c08185b5bdd5b9d60c21b60448201526064015b60405180910390fd5b600c5460ff16156107185760405162461bcd60e51b815260206004820152600a602482015269437572766520646f6e6560b01b60448201526064016106cf565b600061072382610936565b90506000620186a06107376103e8846116b3565b61074191906116ca565b9050600061074f82846116ec565b9050803410156107965760405162461bcd60e51b8152602060048201526012602482015271496e73756666696369656e742066756e647360701b60448201526064016106cf565b61079f82610faa565b60008134116107af5760006107b9565b6107b982346116ff565b905083600860008282546107cd91906116ec565b9250508190555084600960008282546107e691906116ec565b90915550506007546009541061082157600c805460ff191660011790556009546108119086906116ff565b60075461081e91906116ff565b94505b61083c3361083787670de0b6b3a76400006116b3565b611065565b600061084760025490565b905060006108556001610936565b6040805188815260208101859052919250339130918a917f23b8a9f7d1252cf262e22214b242cc92ed7ed7df9228726be4d037a26e083894910160405180910390a4306001600160a01b031682827ecdd112a5bab661c199cefe1b6b407daede4238a9f24d764373bed654d7c22b8a6040516108d391815260200190565b60405180910390a4600c5460ff16156108ee576108ee6109d4565b821561092357604051339084156108fc029085906000818181858888f19350505050158015610921573d6000803e3d6000fd5b505b5050505050506109336001600555565b50565b6009546000908161094784836116ec565b9050600062012ebc610962670de0b6b3a764000060036116b3565b61096d6003866117f6565b6109786003866117f6565b61098291906116ff565b61098f90620393876116b3565b61099c90620186a06116b3565b6109a691906116ca565b6109b290619c406116b3565b6109bc91906116ca565b95945050505050565b6060600480546105cf90611663565b600c5460ff16610a175760405162461bcd60e51b815260206004820152600e60248201526d4375727665206e6f7420646f6e6560901b60448201526064016106cf565b610a22600e54610faa565b600e5460086000828254610a3691906116ff565b9091555050600654600f54610a569030906001600160a01b031683610e91565b600854600f546001600160a01b031663f305d71982308560008080610a7d426103e86116ec565b60405160e089901b6001600160e01b03191681526001600160a01b039687166004820152602481019590955260448501939093526064840191909152909216608482015260a481019190915260c40160606040518083038185885af1158015610aea573d6000803e3d6000fd5b50505050506040513d601f19601f82011682018060405250810190610b0f9190611805565b505050610b3460405180606001604052806024815260200161186c602491394761109b565b6040805182815260208101849052428183015290517faf60794da385ef41a5f66c38529ba4f0581b8bca348871688b118d212b2658819181900360600190a15050565b60095460009081610b8884836116ff565b9050600062012ebc610ba3670de0b6b3a764000060036116b3565b610bae6003856117f6565b6109786003876117f6565b600033610660818585610f21565b6000600954600754610bd991906116ff565b905090565b610be6610f80565b600c5460ff1615610c265760405162461bcd60e51b815260206004820152600a602482015269437572766520646f6e6560b01b60448201526064016106cf565b6000610c3183610b77565b90506000620186a0610c456103e8846116b3565b610c4f91906116ca565b90506000610c5d82846116ff565b905080471015610c995760405162461bcd60e51b8152602060048201526007602482015266098deee408aa8960cb1b60448201526064016106cf565b610cab85670de0b6b3a76400006116b3565b336000908152602081905260409020541015610cf65760405162461bcd60e51b815260206004820152600a6024820152694c6f7720746f6b656e7360b01b60448201526064016106cf565b83811015610d335760405162461bcd60e51b815260206004820152600a602482015269131bddc81c99599d5b9960b21b60448201526064016106cf565b610d3c82610faa565b610d5733610d5287670de0b6b3a76400006116b3565b6110e0565b610d6182826116ec565b60086000828254610d7291906116ff565b925050819055508460096000828254610d8b91906116ff565b9091555050604051339082156108fc029083906000818181858888f19350505050158015610dbd573d6000803e3d6000fd5b506000610dc960025490565b90506000610dd76001610936565b6040805187815260208101859052919250339130918a917fc3b2c4fcdf25a3a78c81bd9f335d8bab96fe7dd1288668b957ebdb1b70b4de39910160405180910390a4306001600160a01b031682827ecdd112a5bab661c199cefe1b6b407daede4238a9f24d764373bed654d7c22b8a604051610e5591815260200190565b60405180910390a45050505050610e6c6001600555565b5050565b80516a636f6e736f6c652e6c6f67602083016000808483855afa5050505050565b610e9e8383836001611116565b505050565b6001600160a01b038381166000908152600160209081526040808320938616835292905220546000198114610f1b5781811015610f0c57604051637dc7a0d960e11b81526001600160a01b038416600482015260248101829052604481018390526064016106cf565b610f1b84848484036000611116565b50505050565b6001600160a01b038316610f4b57604051634b637e8f60e11b8152600060048201526024016106cf565b6001600160a01b038216610f755760405163ec442f0560e01b8152600060048201526024016106cf565b610e9e8383836111eb565b600260055403610fa357604051633ee5aeb560e01b815260040160405180910390fd5b6002600555565b600c5460405160009161010090046001600160a01b031690620186a090849084818181858888f193505050503d8060008114611002576040519150601f19603f3d011682016040523d82523d6000602084013e611007565b606091505b505090508061104a5760405162461bcd60e51b815260206004820152600f60248201526e151c985b9cd9995c8819985a5b1959608a1b60448201526064016106cf565b81600d600082825461105c91906116ec565b90915550505050565b6001600160a01b03821661108f5760405163ec442f0560e01b8152600060048201526024016106cf565b610e6c600083836111eb565b610e6c82826040516024016110b1929190611833565b60408051601f198184030181529190526020810180516001600160e01b03166309710a9d60e41b1790526113bb565b6001600160a01b03821661110a57604051634b637e8f60e11b8152600060048201526024016106cf565b610e6c826000836111eb565b6001600160a01b0384166111405760405163e602df0560e01b8152600060048201526024016106cf565b6001600160a01b03831661116a57604051634a1406b160e11b8152600060048201526024016106cf565b6001600160a01b0380851660009081526001602090815260408083209387168352929052208290558015610f1b57826001600160a01b0316846001600160a01b03167f8c5be1e5ebec7d5bd14f71427d1e84f3dd0314c0f7b2291e5b200ac8c7c3b925846040516111dd91815260200190565b60405180910390a350505050565b600a54600160a01b900460ff1680156112055750600b5442105b156112aa57600a546001600160a01b03848116911614806112335750600a546001600160a01b038381169116145b801561124857506001600160a01b0383163014155b801561125d57506001600160a01b0382163014155b156112aa5760405162461bcd60e51b815260206004820152601b60248201527f446576204c6f636b65642043616e7420427579206f722053656c6c000000000060448201526064016106cf565b600c5460ff16156112c057610e9e8383836113c4565b600a546001600160a01b0384811691161480156112e65750600a54600160a01b900460ff165b80156112f35750600b5442105b156113295760405162461bcd60e51b8152602060048201526006602482015265131bd8dad95960d21b60448201526064016106cf565b6001600160a01b03831630148061134757506001600160a01b038316155b1561135757610e9e8383836113c4565b6001600160a01b03821630148061137557506001600160a01b038216155b1561138557610e9e8383836113c4565b60405162461bcd60e51b815260206004820152600b60248201526a2737903a3930b739b332b960a91b60448201526064016106cf565b61093381610e70565b6001600160a01b0383166113ef5780600260008282546113e491906116ec565b909155506114619050565b6001600160a01b038316600090815260208190526040902054818110156114425760405163391434e360e21b81526001600160a01b038516600482015260248101829052604481018390526064016106cf565b6001600160a01b03841660009081526020819052604090209082900390555b6001600160a01b03821661147d5760028054829003905561149c565b6001600160a01b03821660009081526020819052604090208054820190555b816001600160a01b0316836001600160a01b03167fddf252ad1be2c89b69c2b068fc378daa952ba7f163c4a11628f55a4df523b3ef836040516114e191815260200190565b60405180910390a3505050565b6114f6611855565b565b6000815180845260005b8181101561151e57602081850181015186830182015201611502565b506000602082860101526020601f19601f83011685010191505092915050565b60208152600061155160208301846114f8565b9392505050565b80356001600160a01b038116811461156f57600080fd5b919050565b6000806040838503121561158757600080fd5b61159083611558565b946020939093013593505050565b6000806000606084860312156115b357600080fd5b6115bc84611558565b92506115ca60208501611558565b9150604084013590509250925092565b6000602082840312156115ec57600080fd5b5035919050565b60006020828403121561160557600080fd5b61155182611558565b6000806040838503121561162157600080fd5b61162a83611558565b915061163860208401611558565b90509250929050565b6000806040838503121561165457600080fd5b50508035926020909101359150565b600181811c9082168061167757607f821691505b60208210810361169757634e487b7160e01b600052602260045260246000fd5b50919050565b634e487b7160e01b600052601160045260246000fd5b80820281158282048414176106665761066661169d565b6000826116e757634e487b7160e01b600052601260045260246000fd5b500490565b808201808211156106665761066661169d565b818103818111156106665761066661169d565b600181815b8085111561174d5781600019048211156117335761173361169d565b8085161561174057918102915b93841c9390800290611717565b509250929050565b60008261176457506001610666565b8161177157506000610666565b81600181146117875760028114611791576117ad565b6001915050610666565b60ff8411156117a2576117a261169d565b50506001821b610666565b5060208310610133831016604e8410600b84101617156117d0575081810a610666565b6117da8383611712565b80600019048211156117ee576117ee61169d565b029392505050565b600061155160ff841683611755565b60008060006060848603121561181a57600080fd5b8351925060208401519150604084015190509250925092565b60408152600061184660408301856114f8565b90508260208301529392505050565b634e487b7160e01b600052605160045260246000fdfe636f6e74726163742062616c616e636520616674657220616464206c6971756964697479a2646970667358221220a54096f18cd3306d27083477ae3e4cb463eabe5a8ecf8313f4e4ebc9380cda1d64736f6c63430008140033636f6e74726163742062616c616e636520616674657220616464206c6971756964697479a2646970667358221220ef0dbee4204597fe35463cfde4a39f051dafc0fd92b40b73d390a47baa52174964736f6c63430008140033","linkReferences":{}},"methodIdentifiers":{"createToken(string,string,bool,uint256,address,uint256,uint256)":"1a4ab1c3","createTokenRevenue()":"3b527dd6","owner()":"8da5cb5b","renounceOwnership()":"715018a6","revenueCollector()":"b6a1b6a5","setCreateTokenRevenue(uint256)":"69c7fddf","setRevenueCollector(address)":"cde38cdf","setSuperMemeRegistry(address)":"7884f146","superMemeRegistry()":"408a7344","tokenAddresses(uint256)":"e5df8b84","transferOwnership(address)":"f2fde38b"},"id":41}