{"abi":[{"type":"constructor","inputs":[{"name":"_superMemeRegistry","type":"address","internalType":"address"}],"stateMutability":"nonpayable"},{"type":"function","name":"createToken","inputs":[{"name":"_name","type":"string","internalType":"string"},{"name":"_symbol","type":"string","internalType":"string"},{"name":"_devAddress","type":"address","internalType":"address"}],"outputs":[{"name":"token","type":"address","internalType":"address"}],"stateMutability":"payable"},{"type":"function","name":"createTokenRevenue","inputs":[],"outputs":[{"name":"","type":"uint256","internalType":"uint256"}],"stateMutability":"view"},{"type":"function","name":"owner","inputs":[],"outputs":[{"name":"","type":"address","internalType":"address"}],"stateMutability":"view"},{"type":"function","name":"renounceOwnership","inputs":[],"outputs":[],"stateMutability":"nonpayable"},{"type":"function","name":"revenueCollector","inputs":[],"outputs":[{"name":"","type":"address","internalType":"address"}],"stateMutability":"view"},{"type":"function","name":"setCreateTokenRevenue","inputs":[{"name":"_createTokenRevenue","type":"uint256","internalType":"uint256"}],"outputs":[],"stateMutability":"nonpayable"},{"type":"function","name":"setRevenueCollector","inputs":[{"name":"_revenueCollector","type":"address","internalType":"address"}],"outputs":[],"stateMutability":"nonpayable"},{"type":"function","name":"setSuperMemeRegistry","inputs":[{"name":"_superMemeRegistry","type":"address","internalType":"address"}],"outputs":[],"stateMutability":"nonpayable"},{"type":"function","name":"superMemeRegistry","inputs":[],"outputs":[{"name":"","type":"address","internalType":"contract ISuperMemeRegistry"}],"stateMutability":"view"},{"type":"function","name":"tokenAddresses","inputs":[{"name":"","type":"uint256","internalType":"uint256"}],"outputs":[{"name":"","type":"address","internalType":"address"}],"stateMutability":"view"},{"type":"function","name":"transferOwnership","inputs":[{"name":"newOwner","type":"address","internalType":"address"}],"outputs":[],"stateMutability":"nonpayable"},{"type":"event","name":"OwnershipTransferred","inputs":[{"name":"previousOwner","type":"address","indexed":true,"internalType":"address"},{"name":"newOwner","type":"address","indexed":true,"internalType":"address"}],"anonymous":false},{"type":"event","name":"TokenCreated","inputs":[{"name":"tokenAddress","type":"address","indexed":true,"internalType":"address"},{"name":"devAddress","type":"address","indexed":true,"internalType":"address"},{"name":"amount","type":"uint256","indexed":false,"internalType":"uint256"},{"name":"devLocked","type":"bool","indexed":false,"internalType":"bool"},{"name":"tokenType","type":"uint256","indexed":false,"internalType":"uint256"}],"anonymous":false},{"type":"error","name":"OwnableInvalidOwner","inputs":[{"name":"owner","type":"address","internalType":"address"}]},{"type":"error","name":"OwnableUnauthorizedAccount","inputs":[{"name":"account","type":"address","internalType":"address"}]}],"bytecode":{"object":"0x6080346100d157601f612f7f38819003918201601f19168301916001600160401b038311848410176100d6578084926020946040528339810103126100d157516001600160a01b0390818116908190036100d15733156100b85760005460018060a01b0319903382821617600055604051933391167f8be0079c531659141344cd1fd0a4f28419497f9722a3daafe3b4186f6b6457e0600080a36602d79883d200006002556001541617600155612e9290816100ed8239f35b604051631e4fbdf760e01b815260006004820152602490fd5b600080fd5b634e487b7160e01b600052604160045260246000fdfe608060408181526004803610156200001657600080fd5b600092833560e01c9081633b527dd6146200063b57508063408a7344146200061057806369c7fddf14620005ea578063715018a6146200058c5780637884f14614620005465780638da5cb5b146200051c578063afd8fd5f14620001fa578063b6a1b6a514620001cb578063cde38cdf1462000185578063e5df8b84146200013d5763f2fde38b14620000a857600080fd5b34620001395760203660031901126200013957620000c562000659565b90620000d062000766565b6001600160a01b0391821692831562000123575050600054826001600160601b0360a01b821617600055167f8be0079c531659141344cd1fd0a4f28419497f9722a3daafe3b4186f6b6457e0600080a380f35b51631e4fbdf760e01b8152908101849052602490fd5b8280fd5b509134620001825760203660031901126200018257823592548310156200018257506200016c60209262000718565b905491519160018060a01b039160031b1c168152f35b80fd5b8334620001825760203660031901126200018257620001a362000659565b620001ad62000766565b60018060a01b03166001600160601b0360a01b600354161760035580f35b505034620001f65781600319360112620001f65760035490516001600160a01b039091168152602090f35b5080fd5b50906060366003190112620001395767ffffffffffffffff823581811162000439576200022b9036908501620006cb565b9260249081358381116200051857620002489036908301620006cb565b6001600160a01b0395604435878116959291908690036200051457600254803410620004dd57338703620004a55789808080938c600354166207a120f13d156200049f573d6200029881620006ae565b90620002a78a51928362000675565b81528a60203d92013e5b156200046b578760035416875192612687928385019385851087861117620004595785949392620002f86060936200030793620007d6893960808752608087019062000793565b90858203602087015262000793565b92898b8201520152039088f080156200044f578616958254680100000000000000008110156200043d5790620003478260018b9796959401855562000718565b81549060031b90838b831b921b191617905560015416803b156200043957849060a4885180978193633a03244760e01b83528c888401528a89840152816044840152816064840152600360848401525af180156200042f57620003e7575b50505050827f6268964f653fb671b504147c5e2a7e7f1cfd9512b665f4de66b2980551e3b76d606060209685519080825288820152600386820152a351908152f35b83116200041e5750508252827f6268964f653fb671b504147c5e2a7e7f1cfd9512b665f4de66b2980551e3b76d60606020620003a5565b634e487b7160e01b87526041905285fd5b86513d8a823e3d90fd5b8480fd5b634e487b7160e01b8952604184528489fd5b85513d89823e3d90fd5b634e487b7160e01b8d5260418852888dfd5b865162461bcd60e51b8152602081860152600f818701526e151c985b9cd9995c8819985a5b1959608a1b6044820152606490fd5b620002b1565b875162461bcd60e51b815260208187015260138188015272496e76616c696420646576206164647265737360681b6044820152606490fd5b875162461bcd60e51b815260208187015260128188015271496e73756666696369656e742066756e647360701b6044820152606490fd5b8880fd5b8680fd5b505034620001f65781600319360112620001f657905490516001600160a01b039091168152602090f35b83346200018257602036600319011262000182576200056462000659565b6200056e62000766565b60018060a01b03166001600160601b0360a01b600154161760015580f35b83346200018257806003193601126200018257620005a962000766565b80546001600160a01b03198116825581906001600160a01b03167f8be0079c531659141344cd1fd0a4f28419497f9722a3daafe3b4186f6b6457e08280a380f35b838234620001f6576020366003190112620001f6576200060962000766565b3560025580f35b505034620001f65781600319360112620001f65760015490516001600160a01b039091168152602090f35b849034620001f65781600319360112620001f6576020906002548152f35b600435906001600160a01b03821682036200067057565b600080fd5b90601f8019910116810190811067ffffffffffffffff8211176200069857604052565b634e487b7160e01b600052604160045260246000fd5b67ffffffffffffffff81116200069857601f01601f191660200190565b81601f820112156200067057803590620006e582620006ae565b92620006f5604051948562000675565b828452602083830101116200067057816000926020809301838601378301015290565b600454811015620007505760046000527f8a35acfbc15ff81a39ae7d344fd709f28e8600b4aa8c65c6b64bfe7fe36bd19b0190600090565b634e487b7160e01b600052603260045260246000fd5b6000546001600160a01b031633036200077b57565b60405163118cdaa760e01b8152336004820152602490fd5b919082519283825260005b848110620007c0575050826000602080949584010152601f8019910116010190565b6020818301810151848301820152016200079e56fe608060405262002687803803806200001781620003f8565b9283398101608082820312620003f35781516001600160401b039190828111620003f35781620000499185016200041e565b926020918282015190848211620003f357620000679183016200041e565b936200008460606200007c6040850162000490565b930162000490565b938151818111620002f3576003908154906001948583811c93168015620003e8575b88841014620003d2578190601f938481116200037c575b508890848311600114620003155760009262000309575b505060001982851b1c191690851b1782555b8751928311620002f35760049586548581811c91168015620002e8575b82821014620002d35782811162000288575b50809184116001146200021a57508293949596976000936200020e575b505082841b92600019911b1c19161783555b600555633b9aca006006556aa56fa5b99019a5c8000000600755670214e8348c4f0000600d55601080546001600160a81b0319163317600160a01b179055600b80546001600160a01b03199081166001600160a01b0395861617909155600e80548216734752ba5dbc23f44d87826276bf6fd6b1c372ad2417905592913015620001f65750620001d430620004a5565b630bebc2006009551690600a541617600a55604051611ed19081620007b68239f35b60249060006040519163ec442f0560e01b8352820152fd5b01519150388062000132565b9190601f198416988760005283600020936000905b8b82106200027057505084869798999a1062000255575b50505050811b01835562000144565b01519060f884600019921b161c191690553880808062000246565b8088859782949686015181550196019301906200022f565b87600052816000208380870160051c820192848810620002c9575b0160051c019086905b828110620002bc57505062000115565b60008155018690620002ac565b92508192620002a3565b602288634e487b7160e01b6000525260246000fd5b90607f169062000103565b634e487b7160e01b600052604160045260246000fd5b015190503880620000d4565b90879350601f19831691866000528a6000209260005b8c8282106200036557505084116200034c575b505050811b018255620000e6565b015160001983871b60f8161c191690553880806200033e565b8385015186558b979095019493840193016200032b565b90915084600052886000208480850160051c8201928b8610620003c8575b918991869594930160051c01915b828110620003b8575050620000bd565b60008155859450899101620003a8565b925081926200039a565b634e487b7160e01b600052602260045260246000fd5b92607f1692620000a6565b600080fd5b6040519190601f01601f191682016001600160401b03811183821017620002f357604052565b919080601f84011215620003f35782516001600160401b038111620002f35760209062000454601f8201601f19168301620003f8565b92818452828287010111620003f35760005b8181106200047c57508260009394955001015290565b858101830151848201840152820162000466565b51906001600160a01b0382168203620003f357565b60ff80600a5460a01c1680809162000702575b15620005725750620004ca8262000712565b6000918280526011602052816040842054166200053b575b6001600160a01b03168252601160205260408220541662000502575b505b565b601254906aa56fa5b99019a5c8000000820180921162000527575060125538620004fe565b634e487b7160e01b81526011600452602490fd5b6012546aa56fa5b99019a5c7ffffff1981019081116200055e57601255620004e2565b634e487b7160e01b84526011600452602484fd5b80620006f3575b156200061c5750301580620005fa575b620005ef57600e546001600160a01b039081168015929091908315620005e2575b505050620005b457565b60405162461bcd60e51b8152602060048201526006602482015265131bd8dad95960d21b6044820152606490fd5b16149050388080620005aa565b620005009062000712565b506001600160a01b038116600090815260208190526040902054151562000589565b30158015620006ea575b156200063757620004ca8262000712565b6001600160a01b038216913083148015620006e1575b15620006ae576200065e9062000712565b6000918280526011602052816040842054166200068b575b82526011602052604082205416620005025750565b6012546aa56fa5b99019a5c7ffffff1981019081116200055e5760125562000676565b60405162461bcd60e51b815260206004820152600b60248201526a2737903a3930b739b332b960a91b6044820152606490fd5b5082156200064d565b50600162000626565b508060105460a01c1662000579565b508160105460a01c1615620004b8565b6002546aa56fa5b99019a5c8000000918282018092116200079f576002919091556001600160a01b0316906000907fddf252ad1be2c89b69c2b068fc378daa952ba7f163c4a11628f55a4df523b3ef906020908462000789576aa56fa5b99019a5c7ffffff19600254016002555b604051908152a3565b8484528382526040842081815401905562000780565b634e487b7160e01b600052601160045260246000fdfe608060408181526004918236101561001657600080fd5b600092833560e01c91826304c07954146111585750816305202a6f1461113157816306e5ef92146110d857816306fdde0314610fe3578163095ea7b314610fb95781630d15fd7714610f9a5781631694505e14610f7157816318160ddd14610f5257816323b872dd14610e5e578163313ce56714610e4257816333d06de914610e235781633ad10ef614610dfa5781633d4196ec14610dd357816349bd5a5e14610daa5781634af18f4f14610d8a578163571fe01614610d6b5781636bf52ffa14610b465781636d0ef93c14610b2757816370a0823114610af05781637b00b3e314610ab25781638078e6b014610a8f57816395d89b411461098c5781639c08c0a214610975578163a4ce25a71461063b578163a8c6acda14610618578163a9059cbb146105e7578163b010853014610597578163b1dfc95f14610578578163b6a1b6a51461054f578163c7a0206114610530578163dbd8c05714610511578163dd62ed3e146104c8578163de11c94a1461049f578163eced55261461047c578163ed9772b6146101d1575063f446c1d0146101b157600080fd5b346101cd57816003193601126101cd5760209051620393878152f35b5080fd5b919050346104785780600319360112610478578135916101ef6113b7565b60ff60105460a01c166104435761020e60ff600a5460a01c161561137e565b610217836116ec565b906103e880830290838204148315171561043057620186a0900461023b818461132e565b90814710610403573387526020928784528588205490670de0b6b3a7640000918289029289840414891517156103f05782116103c057602435841061039057610283836114fd565b331561037957508780936102ae6102a683956102a085963361191c565b83611351565b60085461132e565b6008553382526011865260ff8883205416610365575b6102d08960095461132e565b60095581811561035c575b3390f115610352577ecdd112a5bab661c199cefe1b6b407daede4238a9f24d764373bed654d7c22b9060025493610310611466565b93815190815285838201523390877fc3b2c4fcdf25a3a78c81bd9f335d8bab96fe7dd1288668b957ebdb1b70b4de39843093a4519485523094a4600160055580f35b82513d86823e3d90fd5b506108fc6102db565b6103718960125461132e565b6012556102c4565b8651634b637e8f60e11b8152908101899052602490fd5b865162461bcd60e51b8152908101859052600a602482015269131bddc81c99599d5b9960b21b6044820152606490fd5b865162461bcd60e51b8152908101859052600a6024820152694c6f7720746f6b656e7360b01b6044820152606490fd5b634e487b7160e01b8a526011825260248afd5b845162461bcd60e51b81526020818501526007602482015266098deee408aa8960cb1b6044820152606490fd5b634e487b7160e01b865260118252602486fd5b6020606492519162461bcd60e51b8352820152601060248201526f10dbdb5b5d5b9a5d1e481b1bd8dad95960821b6044820152fd5b8280fd5b5050346101cd57816003193601126101cd5760209051670de0b6b3a76400008152f35b5050346101cd57816003193601126101cd5760105490516001600160a01b039091168152602090f35b5050346101cd57806003193601126101cd57806020926104e6611193565b6104ee6111ae565b6001600160a01b0391821683526001865283832091168252845220549051908152f35b5050346101cd57816003193601126101cd57602090600c549051908152f35b5050346101cd57816003193601126101cd576020906008549051908152f35b5050346101cd57816003193601126101cd57600b5490516001600160a01b039091168152602090f35b5050346101cd57816003193601126101cd5760209051630bebc2008152f35b5050346101cd5760203660031901126101cd576105e0602092826105b9611193565b916105c96002546007549061132e565b6001600160a01b039093168152808652205461135e565b9051908152f35b5050346101cd57806003193601126101cd57602090610611610607611193565b6024359033611245565b5160018152f35b82843461063857602036600319011261063857506105e0602092356116ec565b80fd5b905060603660031901126104785780359160249081359160443561065d6113b7565b85156109485761067560ff600a5460a01c161561137e565b61067e866114e1565b936103e880860290868204148615171561093657620186a090046106a28187611351565b918083029083820414831517156109245761271090046106c2818461132e565b3481116108ed5784101590816108d9575b50156108ac576106e2906114fd565b808211156108a3576106f39161132e565b905b61070184600854611351565b6008556010546001600160a01b039190339083160361089c5781600a5416905b61072d88600954611351565b600955670de0b6b3a7640000880292670de0b6b3a763ffff198985040161088a57821696871561087657505087929161076591611709565b600954600654111561085e575b8481158015610830575b5091905052601160205260ff818620541661081c575b6002549261079e611466565b928251908152846020820152857f23b8a9f7d1252cf262e22214b242cc92ed7ed7df9228726be4d037a26e083894843093a4519283527ecdd112a5bab661c199cefe1b6b407daede4238a9f24d764373bed654d7c22b60203094a460ff600a5460a01c1661080f575b600160055580f35b6108176115b4565b610807565b61082884601254611351565b601255610792565b8392839283928390610855575bf11561084c578438848161077c565b513d85823e3d90fd5b506108fc61083d565b600a805460ff60a01b1916600160a01b179055610772565b855163ec442f0560e01b81529081018a9052fd5b50634e487b7160e01b89526011875288fd5b3390610721565b505085906106f5565b845162461bcd60e51b815260208189015260088186015267536c69707061676560c01b6044820152606490fd5b6108e4915083611351565b831115386106d3565b865162461bcd60e51b81526020818b015260128188015271496e73756666696369656e742066756e647360701b6044820152606490fd5b634e487b7160e01b8a5260118852848afd5b634e487b7160e01b8952601187528389fd5b825162461bcd60e51b8152602081870152600881840152670c08185b5bdd5b9d60c21b6044820152606490fd5b8380600319360112610638576109896115b4565b80f35b8383346101cd57816003193601126101cd57805191809380549160019083821c92828516948515610a85575b6020958686108114610a7257858952908115610a4e57506001146109f6575b6109f287876109e8828c038361120d565b51918291826111c4565b0390f35b81529295507f8a35acfbc15ff81a39ae7d344fd709f28e8600b4aa8c65c6b64bfe7fe36bd19b5b828410610a3b57505050826109f2946109e8928201019486806109d7565b8054868501880152928601928101610a1d565b60ff19168887015250505050151560051b83010192506109e8826109f286806109d7565b634e487b7160e01b845260228352602484fd5b93607f16936109b8565b5050346101cd57816003193601126101cd5760209051673782dace9d9000008152f35b5050346101cd5760203660031901126101cd5760209160ff9082906001600160a01b03610add611193565b1681526011855220541690519015158152f35b5050346101cd5760203660031901126101cd5760209181906001600160a01b03610b18611193565b16815280845220549051908152f35b5050346101cd57816003193601126101cd576020906009549051908152f35b90503461047857826003193601126104785733835260208381528284205415610d3a57610b786002546007549061132e565b9233855260119182815260ff828720541615600014610c4a5760ff60105460a01c1615610c08579085610bc592338252848152828220600160ff1982541617905552852054601254611351565b91826012558260011b9280840460021490151715610bf85750501015610be85780f35b6010805460ff60a01b1916905580f35b634e487b7160e01b855252602483fd5b8390606492519162461bcd60e51b8352820152601b60248201527f53656c6c696e6720697320616c726561647920756e6c6f636b656400000000006044820152fd5b60ff60105460a01c16610cf85733865282815260ff828720541615610cc4579085610c8c9233825284815282822060ff1981541690555285205460125461132e565b91826012558260011b9280840460021490151715610bf857505010610cae5780f35b6010805460ff60a01b1916600160a01b17905580f35b8390606492519162461bcd60e51b8352820152600f60248201526e4e6f20766f746520746f206c6f636b60881b6044820152fd5b8390606492519162461bcd60e51b8352820152601960248201527f53656c6c696e6720697320616c7265616479206c6f636b6564000000000000006044820152fd5b606492519162461bcd60e51b8352820152600e60248201526d139bc81d1bdad95b9cc81a195b1960921b6044820152fd5b5050346101cd57816003193601126101cd576020906006549051908152f35b82843461063857602036600319011261063857506105e0602092356114e1565b5050346101cd57816003193601126101cd57600f5490516001600160a01b039091168152602090f35b5050346101cd57816003193601126101cd5760209060ff60105460a01c1690519015158152f35b5050346101cd57816003193601126101cd57600a5490516001600160a01b039091168152602090f35b5050346101cd57816003193601126101cd57602090600d549051908152f35b5050346101cd57816003193601126101cd576020905160128152f35b9050823461063857606036600319011261063857610e7a611193565b610e826111ae565b916044359360018060a01b038316808352600160205286832033845260205286832054916000198303610ebe575b602088610611898989611245565b868310610f26578115610f0f573315610ef85750825260016020908152868320338452815291869020908590039055829061061187610eb0565b8751634a1406b160e11b8152908101849052602490fd5b875163e602df0560e01b8152908101849052602490fd5b8751637dc7a0d960e11b8152339181019182526020820193909352604081018790528291506060010390fd5b5050346101cd57816003193601126101cd576020906002549051908152f35b5050346101cd57816003193601126101cd57600e5490516001600160a01b039091168152602090f35b5050346101cd57816003193601126101cd576020906012549051908152f35b5050346101cd57806003193601126101cd57602090610611610fd9611193565b602435903361129b565b91905034610478578260031936011261047857805191836003549060019082821c9282811680156110ce575b60209586861082146110bb57508488529081156110995750600114611040575b6109f286866109e8828b038361120d565b929550600383527fc2575a0e9e593c00f959f8c92f12db2869c3395a3b0502d05e2516446f71f85b5b82841061108657505050826109f2946109e892820101943861102f565b8054868501880152928601928101611069565b60ff191687860152505050151560051b83010192506109e8826109f23861102f565b634e487b7160e01b845260229052602483fd5b93607f169361100f565b8284346106385780600319360112610638576110f96002546007549061132e565b906012549060648202918083046064149015171561111e576020846105e0858561135e565b634e487b7160e01b815260118552602490fd5b5050346101cd57816003193601126101cd5760209060ff600a5460a01c1690519015158152f35b849084346104785760203660031901126104785760209260ff91906001600160a01b03611183611193565b1681526011855220541615158152f35b600435906001600160a01b03821682036111a957565b600080fd5b602435906001600160a01b03821682036111a957565b6020808252825181830181905290939260005b8281106111f957505060409293506000838284010152601f8019910116010190565b8181018601518482016040015285016111d7565b90601f8019910116810190811067ffffffffffffffff82111761122f57604052565b634e487b7160e01b600052604160045260246000fd5b91906001600160a01b0380841615611282578116156112695761126792611abe565b565b60405163ec442f0560e01b815260006004820152602490fd5b604051634b637e8f60e11b815260006004820152602490fd5b6001600160a01b0390811691821561131557169182156112fc5760207f8c5be1e5ebec7d5bd14f71427d1e84f3dd0314c0f7b2291e5b200ac8c7c3b925918360005260018252604060002085600052825280604060002055604051908152a3565b604051634a1406b160e11b815260006004820152602490fd5b60405163e602df0560e01b815260006004820152602490fd5b9190820391821161133b57565b634e487b7160e01b600052601160045260246000fd5b9190820180921161133b57565b8115611368570490565b634e487b7160e01b600052601260045260246000fd5b1561138557565b60405162461bcd60e51b815260206004820152600a602482015269437572766520646f6e6560b01b6044820152606490fd5b6002600554146113c8576002600555565b604051633ee5aeb560e01b8152600490fd5b801561146057808060011461145957600214611453576001908161013382101682600b8310161761144b57906003815b8082116114225750508160001904811161133b570290565b90928060001904811161133b57818416611442575b800292811c9061140a565b80920291611437565b600391500a90565b50600890565b5050600190565b50600090565b600954600181019081811161133b5761148a611484611490936113da565b916113da565b9061132e565b6203938790808202918204810361133b57640574fbde600290808204620186a0149015171561133b576729a2241af62c00009004619c409081810291818304149015171561133b5762012ebc900490565b6114909061148a6114846114f86009549384611351565b6113da565b6000808080808560018060a01b03600b5416620186a0f1903d156115ae573d9067ffffffffffffffff821161159a5760405191611544601f8201601f19166020018461120d565b825260203d92013e5b156115635761155e90600c54611351565b600c55565b60405162461bcd60e51b815260206004820152600f60248201526e151c985b9cd9995c8819985a5b1959608a1b6044820152606490fd5b634e487b7160e01b81526041600452602490fd5b5061154d565b60ff600a5460a01c16156116b6576115cd600d546114fd565b6115db600d5460085461132e565b8060085560075481606060018060a01b036115fb8482600e54163061129b565b600e541660c46040518094819363f305d71960e01b835230600484015287602484015260006044840152600060648401523060848401524260a48401525af180156116aa5761167f575b507faf60794da385ef41a5f66c38529ba4f0581b8bca348871688b118d212b265881916060916040519182526020820152426040820152a1565b606090813d81116116a3575b611695818361120d565b810103126111a95738611645565b503d61168b565b6040513d6000823e3d90fd5b60405162461bcd60e51b815260206004820152600e60248201526d4375727665206e6f7420646f6e6560901b6044820152606490fd5b6114909061148a611484611703600954938461132e565b926113da565b9060ff80600a5460a01c1680809161190d575b156117935750909161172e8382611c6b565b600080526011602052600080516020611e7c83398151915254821661177f575b6001600160a01b03166000908152601160205260409020541661176e5750565b61177a90601254611351565b601255565b61178b8360125461132e565b60125561174e565b806118ff575b156118345750301580611813575b61180a5750600e546001600160a01b0390811680159290919083156117fe575b5050506117d057565b60405162461bcd60e51b8152602060048201526006602482015265131bd8dad95960d21b6044820152606490fd5b161490503880806117c7565b61126791611c6b565b506001600160a01b03821660009081526020819052604090205415156117a7565b9091301580156118f7575b1561184e5761172e8382611c6b565b6001600160a01b0381169030821480156118ef575b156118bc578361187291611c6b565b600080526011602052600080516020611e7c8339815191525482166118a8575b60005260116020526040600020541661176e5750565b6118b48360125461132e565b601255611892565b60405162461bcd60e51b815260206004820152600b60248201526a2737903a3930b739b332b960a91b6044820152606490fd5b508115611863565b50600161183f565b508060105460a01c16611799565b508160105460a01c161561171c565b9060ff80600a5460a01c16808091611aaf575b15611995575090916119418382611cc7565b6001600160a01b03166000908152601160205260409020548116611981575b600080526011602052600080516020611e7c833981519152541661176e5750565b61198d8260125461132e565b601255611960565b80611aa1575b15611a1d57506001600160a01b0382811692909190308414806119eb575b6119de575050600e54168091149081156119d5575b506117d057565b905015386119ce565b9091506112679250611cc7565b5060008080526020527fad3228b676f7d3cd4284a5443f17f1962b36e491b30a40b2405849e597ba5fb55415156119b9565b90916001600160a01b03811690833083148015611a99575b15611a7857611a4391611cc7565b6000526011602052806040600020541661198157600080526011602052600080516020611e7c833981519152541661176e5750565b5030158015611a91575b156118bc5783611a4391611cc7565b506001611a82565b508215611a35565b508060105460a01c1661199b565b508160105460a01c161561192f565b60ff9182600a5460a01c16808091611c5c575b15611b2e5750611ae2848284611d83565b6001600160a01b039182166000908152601160205260409020548316611b1a575b1660005260116020526040600020541661176e5750565b611b268460125461132e565b601255611b03565b909391929080611c4e575b15611b9c57506001600160a01b038281169290919030841480611b83575b611b7557505080600e54168092149283156117fe575050506117d057565b909250611267939150611d83565b5082851660005260006020526040600020541515611b57565b90929091906001600160a01b0390818316853082148015611c46575b15611bf55782611bca92939495611d83565b60005260116020528260406000205416611b1a571660005260116020526040600020541661176e5750565b50918116923084148015611c3e575b156118bc57611c14918691611d83565b600052601160205281604060002054166118a85760005260116020526040600020541661176e5750565b508315611c04565b508115611bb8565b508060105460a01c16611b39565b508360105460a01c1615611ad1565b600080516020611e5c8339815191526020600092611c8b85600254611351565b6002556001600160a01b03169384158414611cb25780600254036002555b604051908152a3565b84845283825260408420818154019055611ca9565b9091906001600160a01b0381169081611d115750600080516020611e5c833981519152602084611cfc60009596600254611351565b6002555b8060025403600255604051908152a3565b92600082815280602052604081205494828610611d52575081816040600080516020611e5c8339815191529460009798876020965283865203912055611d00565b60405163391434e360e21b81526001600160a01b039190911660048201526024810186905260448101839052606490fd5b6001600160a01b0380821692909183611dea5750600080516020611e5c83398151915291602091611db686600254611351565b6002555b169384611dd2578060025403600255604051908152a3565b84600052600082526040600020818154019055611ca9565b60009084825281602052604082205490868210611e295750918160408760209588600080516020611e5c83398151915298965283875203912055611dba565b60405163391434e360e21b81526001600160a01b03919091166004820152602481019190915260448101869052606490fdfeddf252ad1be2c89b69c2b068fc378daa952ba7f163c4a11628f55a4df523b3ef4ad3b33220dddc71b994a52d72c06b10862965f7d926534c05c00fb7e819e7b7a2646970667358221220d148278f054b9027594eaa7dab7ac1e24629b253b3a62b064a21480fdcaa1af364736f6c63430008140033a2646970667358221220eada0b856a4619a644b86a4d0e3039f718c33101eb9a285929c56fc0b776fa5f64736f6c63430008140033","linkReferences":{}},"methodIdentifiers":{"createToken(string,string,address)":"afd8fd5f","createTokenRevenue()":"3b527dd6","owner()":"8da5cb5b","renounceOwnership()":"715018a6","revenueCollector()":"b6a1b6a5","setCreateTokenRevenue(uint256)":"69c7fddf","setRevenueCollector(address)":"cde38cdf","setSuperMemeRegistry(address)":"7884f146","superMemeRegistry()":"408a7344","tokenAddresses(uint256)":"e5df8b84","transferOwnership(address)":"f2fde38b"},"id":41}