{"abi":[{"type":"constructor","inputs":[{"name":"_stakingToken","type":"address","internalType":"address"}],"stateMutability":"nonpayable"},{"type":"function","name":"FIFTEEN_DAYS","inputs":[],"outputs":[{"name":"","type":"uint256","internalType":"uint256"}],"stateMutability":"view"},{"type":"function","name":"FIFTEEN_DAYS_BONUS","inputs":[],"outputs":[{"name":"","type":"uint256","internalType":"uint256"}],"stateMutability":"view"},{"type":"function","name":"ONE_MONTH","inputs":[],"outputs":[{"name":"","type":"uint256","internalType":"uint256"}],"stateMutability":"view"},{"type":"function","name":"ONE_MONTH_BONUS","inputs":[],"outputs":[{"name":"","type":"uint256","internalType":"uint256"}],"stateMutability":"view"},{"type":"function","name":"SIX_MONTHS","inputs":[],"outputs":[{"name":"","type":"uint256","internalType":"uint256"}],"stateMutability":"view"},{"type":"function","name":"SIX_MONTHS_BONUS","inputs":[],"outputs":[{"name":"","type":"uint256","internalType":"uint256"}],"stateMutability":"view"},{"type":"function","name":"THREE_MONTHS","inputs":[],"outputs":[{"name":"","type":"uint256","internalType":"uint256"}],"stateMutability":"view"},{"type":"function","name":"THREE_MONTHS_BONUS","inputs":[],"outputs":[{"name":"","type":"uint256","internalType":"uint256"}],"stateMutability":"view"},{"type":"function","name":"_calculateRewards","inputs":[{"name":"_tokenId","type":"uint256","internalType":"uint256"}],"outputs":[{"name":"","type":"uint256","internalType":"uint256"}],"stateMutability":"view"},{"type":"function","name":"approve","inputs":[{"name":"to","type":"address","internalType":"address"},{"name":"tokenId","type":"uint256","internalType":"uint256"}],"outputs":[],"stateMutability":"nonpayable"},{"type":"function","name":"balanceOf","inputs":[{"name":"owner","type":"address","internalType":"address"}],"outputs":[{"name":"","type":"uint256","internalType":"uint256"}],"stateMutability":"view"},{"type":"function","name":"claimReward","inputs":[{"name":"_tokenId","type":"uint256","internalType":"uint256"}],"outputs":[{"name":"","type":"uint256","internalType":"uint256"}],"stateMutability":"nonpayable"},{"type":"function","name":"collectRevenue","inputs":[],"outputs":[],"stateMutability":"payable"},{"type":"function","name":"getApproved","inputs":[{"name":"tokenId","type":"uint256","internalType":"uint256"}],"outputs":[{"name":"","type":"address","internalType":"address"}],"stateMutability":"view"},{"type":"function","name":"getStakeInfo","inputs":[{"name":"tokenId","type":"uint256","internalType":"uint256"}],"outputs":[{"name":"","type":"tuple","internalType":"struct SuperMemePublicStaking.StakeInfo","components":[{"name":"amount","type":"uint256","internalType":"uint256"},{"name":"lockEnd","type":"uint256","internalType":"uint256"},{"name":"revenueShareBonus","type":"uint256","internalType":"uint256"},{"name":"sharesAmount","type":"uint256","internalType":"uint256"},{"name":"rewardIndex","type":"uint256","internalType":"uint256"},{"name":"earned","type":"uint256","internalType":"uint256"}]}],"stateMutability":"view"},{"type":"function","name":"isApprovedForAll","inputs":[{"name":"owner","type":"address","internalType":"address"},{"name":"operator","type":"address","internalType":"address"}],"outputs":[{"name":"","type":"bool","internalType":"bool"}],"stateMutability":"view"},{"type":"function","name":"name","inputs":[],"outputs":[{"name":"","type":"string","internalType":"string"}],"stateMutability":"view"},{"type":"function","name":"nextTokenId","inputs":[],"outputs":[{"name":"","type":"uint256","internalType":"uint256"}],"stateMutability":"view"},{"type":"function","name":"ownerOf","inputs":[{"name":"tokenId","type":"uint256","internalType":"uint256"}],"outputs":[{"name":"","type":"address","internalType":"address"}],"stateMutability":"view"},{"type":"function","name":"rewardIndex","inputs":[],"outputs":[{"name":"","type":"uint256","internalType":"uint256"}],"stateMutability":"view"},{"type":"function","name":"safeTransferFrom","inputs":[{"name":"from","type":"address","internalType":"address"},{"name":"to","type":"address","internalType":"address"},{"name":"tokenId","type":"uint256","internalType":"uint256"}],"outputs":[],"stateMutability":"nonpayable"},{"type":"function","name":"safeTransferFrom","inputs":[{"name":"from","type":"address","internalType":"address"},{"name":"to","type":"address","internalType":"address"},{"name":"tokenId","type":"uint256","internalType":"uint256"},{"name":"data","type":"bytes","internalType":"bytes"}],"outputs":[],"stateMutability":"nonpayable"},{"type":"function","name":"setApprovalForAll","inputs":[{"name":"operator","type":"address","internalType":"address"},{"name":"approved","type":"bool","internalType":"bool"}],"outputs":[],"stateMutability":"nonpayable"},{"type":"function","name":"stake","inputs":[{"name":"amount","type":"uint256","internalType":"uint256"},{"name":"lockPeriod","type":"uint256","internalType":"uint256"}],"outputs":[{"name":"","type":"uint256","internalType":"uint256"}],"stateMutability":"nonpayable"},{"type":"function","name":"stakeInfo","inputs":[{"name":"","type":"uint256","internalType":"uint256"}],"outputs":[{"name":"amount","type":"uint256","internalType":"uint256"},{"name":"lockEnd","type":"uint256","internalType":"uint256"},{"name":"revenueShareBonus","type":"uint256","internalType":"uint256"},{"name":"sharesAmount","type":"uint256","internalType":"uint256"},{"name":"rewardIndex","type":"uint256","internalType":"uint256"},{"name":"earned","type":"uint256","internalType":"uint256"}],"stateMutability":"view"},{"type":"function","name":"stakingToken","inputs":[],"outputs":[{"name":"","type":"address","internalType":"contract IERC20"}],"stateMutability":"view"},{"type":"function","name":"supportsInterface","inputs":[{"name":"interfaceId","type":"bytes4","internalType":"bytes4"}],"outputs":[{"name":"","type":"bool","internalType":"bool"}],"stateMutability":"view"},{"type":"function","name":"symbol","inputs":[],"outputs":[{"name":"","type":"string","internalType":"string"}],"stateMutability":"view"},{"type":"function","name":"tokenByIndex","inputs":[{"name":"index","type":"uint256","internalType":"uint256"}],"outputs":[{"name":"","type":"uint256","internalType":"uint256"}],"stateMutability":"view"},{"type":"function","name":"tokenOfOwnerByIndex","inputs":[{"name":"owner","type":"address","internalType":"address"},{"name":"index","type":"uint256","internalType":"uint256"}],"outputs":[{"name":"","type":"uint256","internalType":"uint256"}],"stateMutability":"view"},{"type":"function","name":"tokenURI","inputs":[{"name":"tokenId","type":"uint256","internalType":"uint256"}],"outputs":[{"name":"","type":"string","internalType":"string"}],"stateMutability":"view"},{"type":"function","name":"totalStaked","inputs":[],"outputs":[{"name":"","type":"uint256","internalType":"uint256"}],"stateMutability":"view"},{"type":"function","name":"totalSupply","inputs":[],"outputs":[{"name":"","type":"uint256","internalType":"uint256"}],"stateMutability":"view"},{"type":"function","name":"transferFrom","inputs":[{"name":"from","type":"address","internalType":"address"},{"name":"to","type":"address","internalType":"address"},{"name":"tokenId","type":"uint256","internalType":"uint256"}],"outputs":[],"stateMutability":"nonpayable"},{"type":"function","name":"unstake","inputs":[{"name":"tokenId","type":"uint256","internalType":"uint256"}],"outputs":[],"stateMutability":"nonpayable"},{"type":"event","name":"Approval","inputs":[{"name":"owner","type":"address","indexed":true,"internalType":"address"},{"name":"approved","type":"address","indexed":true,"internalType":"address"},{"name":"tokenId","type":"uint256","indexed":true,"internalType":"uint256"}],"anonymous":false},{"type":"event","name":"ApprovalForAll","inputs":[{"name":"owner","type":"address","indexed":true,"internalType":"address"},{"name":"operator","type":"address","indexed":true,"internalType":"address"},{"name":"approved","type":"bool","indexed":false,"internalType":"bool"}],"anonymous":false},{"type":"event","name":"Claimed","inputs":[{"name":"user","type":"address","indexed":true,"internalType":"address"},{"name":"amount","type":"uint256","indexed":false,"internalType":"uint256"}],"anonymous":false},{"type":"event","name":"Staked","inputs":[{"name":"user","type":"address","indexed":true,"internalType":"address"},{"name":"amount","type":"uint256","indexed":false,"internalType":"uint256"},{"name":"lockPeriod","type":"uint256","indexed":false,"internalType":"uint256"},{"name":"tokenId","type":"uint256","indexed":false,"internalType":"uint256"}],"anonymous":false},{"type":"event","name":"Transfer","inputs":[{"name":"from","type":"address","indexed":true,"internalType":"address"},{"name":"to","type":"address","indexed":true,"internalType":"address"},{"name":"tokenId","type":"uint256","indexed":true,"internalType":"uint256"}],"anonymous":false},{"type":"event","name":"Unstaked","inputs":[{"name":"user","type":"address","indexed":true,"internalType":"address"},{"name":"amount","type":"uint256","indexed":false,"internalType":"uint256"},{"name":"tokenId","type":"uint256","indexed":false,"internalType":"uint256"}],"anonymous":false},{"type":"error","name":"ERC721EnumerableForbiddenBatchMint","inputs":[]},{"type":"error","name":"ERC721IncorrectOwner","inputs":[{"name":"sender","type":"address","internalType":"address"},{"name":"tokenId","type":"uint256","internalType":"uint256"},{"name":"owner","type":"address","internalType":"address"}]},{"type":"error","name":"ERC721InsufficientApproval","inputs":[{"name":"operator","type":"address","internalType":"address"},{"name":"tokenId","type":"uint256","internalType":"uint256"}]},{"type":"error","name":"ERC721InvalidApprover","inputs":[{"name":"approver","type":"address","internalType":"address"}]},{"type":"error","name":"ERC721InvalidOperator","inputs":[{"name":"operator","type":"address","internalType":"address"}]},{"type":"error","name":"ERC721InvalidOwner","inputs":[{"name":"owner","type":"address","internalType":"address"}]},{"type":"error","name":"ERC721InvalidReceiver","inputs":[{"name":"receiver","type":"address","internalType":"address"}]},{"type":"error","name":"ERC721InvalidSender","inputs":[{"name":"sender","type":"address","internalType":"address"}]},{"type":"error","name":"ERC721NonexistentToken","inputs":[{"name":"tokenId","type":"uint256","internalType":"uint256"}]},{"type":"error","name":"ERC721OutOfBoundsIndex","inputs":[{"name":"owner","type":"address","internalType":"address"},{"name":"index","type":"uint256","internalType":"uint256"}]},{"type":"error","name":"ReentrancyGuardReentrantCall","inputs":[]}],"bytecode":{"object":"0x60a0346200036a57601f601f196001600160401b036200210138819003848101841686018381118782101762000354578692829160405283396020958691810103126200036a57516001600160a01b03811693908490036200036a57620000656200036f565b92601184527014dd5c195c93595b5954dd185ad9539195607a1b868501526200008d6200036f565b90600582526414d353919560da1b8783015284519084821162000354576000918254966001978881811c9116801562000349575b8b8210146200033557908187849311620002e2575b508a908783116001146200027f57859262000273575b5050600019600383901b1c191690871b1782555b82519485116200025f5785548681811c9116801562000254575b898210146200024057848111620001f8575b508793851160011462000193575083949596509262000187575b5050600019600383901b1c191690821b1781555b600a55608052604051611d7190816200039082396080518181816106e801528181610ba60152610fb70152f35b01519050388062000146565b8493929193169685845280842093905b888210620001e05750508385969710620001c6575b505050811b0181556200015a565b015160001960f88460031b161c19169055388080620001b8565b808785968294968601518155019501930190620001a3565b8683528883208580880160051c8201928b891062000236575b0160051c019087905b8281106200022a5750506200012c565b8481550187906200021a565b9250819262000211565b634e487b7160e01b83526022600452602483fd5b90607f16906200011a565b634e487b7160e01b82526041600452602482fd5b015190503880620000ec565b90848a9416918680528c8720928d88905b828210620002ca5750508411620002b0575b505050811b01825562000100565b015160001960f88460031b161c19169055388080620002a2565b8385015186558d979095019493840193018e62000290565b9091508480528a85208780850160051c8201928d86106200032b575b918b91869594930160051c01915b8281106200031c575050620000d6565b8781558594508b91016200030c565b92508192620002fe565b634e487b7160e01b85526022600452602485fd5b90607f1690620000c1565b634e487b7160e01b600052604160045260246000fd5b600080fd5b60408051919082016001600160401b03811183821017620003545760405256fe60806040908082526004918236101561001757600080fd5b600091823560e01c90816301ffc9a71461148e5750806306fdde03146113c3578063081812fc14611387578063095ea7b3146112aa57806309813482146111ee57806318160ddd146111d057806320988cef146111b357806323b872dd1461119b5780632cbcf2ff1461117e5780632e17de7814610da55780632f745c5914610d2157806342842e0e14610cf95780634e53357214610c9b5780634f6ccce714610c465780636352211e14610c15578063696b338814610bfa57806370a0823114610bd557806372f702f314610b9257806375794a3c14610b745780637b0472f014610654578063817b1cd21461063657806395d89b411461052057806396c01a3014610505578063a22cb46514610463578063ae169a5014610443578063b88d4fde146103b9578063ba579c741461039c578063bc0547e314610372578063c80156a914610357578063c87b56dd14610306578063c881acc7146102e5578063e985e9c514610298578063e9ee2fa91461027a578063ecbefab71461025d5763ed14d17e146101a657600080fd5b81600319360112610259576101b9611b5f565b600e54156102245750670de0b6b3a764000080340290348204143415171561021157600f549081156101fe57906101f39104600d54611b52565b600d556001600a5580f35b634e487b7160e01b835260128452602483fd5b506011602492634e487b7160e01b835252fd5b5162461bcd60e51b8152602081840152601060248201526f4e6f207374616b656420746f6b656e7360801b6044820152606490fd5b5080fd5b5034610259578160031936011261025957602090516276a7008152f35b5034610259578160031936011261025957602090600d549051908152f35b503461025957806003193601126102595760ff816020936102b7611554565b6102bf61156f565b6001600160a01b0391821683526005875283832091168252855220549151911615158152f35b508290346103025782600319360112610302576020925051908152f35b8280fd5b5034610259576020366003190112610259576103256103539335611a89565b50818151610332816115ec565b5280519161033f836115ec565b825251918291602083526020830190611514565b0390f35b50346102595781600319360112610259576020905160088152f35b509034610399576020366003190112610399575061039260209235611cc7565b9051908152f35b80fd5b50346102595781600319360112610259576020905162ed4e008152f35b50829034610302576080366003190112610302576103d5611554565b6103dd61156f565b846064359467ffffffffffffffff86116102595736602387011215610259578501359461041561040c8761162a565b95519586611608565b858552366024878301011161025957856104409660246020930183880137850101526044359161193a565b80f35b509034610399576020366003190112610399575061039260209235611bdb565b5082903461030257806003193601126103025761047e611554565b9060243591821515809303610501576001600160a01b03169283156104ec5750338452600560205280842083855260205280842060ff1981541660ff8416179055519081527f17307eab39ab6107e8899845ad3d59bd9653f200f220920489ca2b5937696c3160203392a380f35b836024925191630b61174360e31b8352820152fd5b8480fd5b50346102595781600319360112610259576020905160028152f35b5090346103995780600319360112610399578151918160019283549384811c9181861695861561062c575b6020968785108114610619578899509688969785829a5291826000146105f2575050600114610597575b5050506103539291610588910385611608565b51928284938452830190611514565b91908693508083527fb10e2d527612073b26eecdfd717e6a320cf44b4afac2b0732d9fcbe2b7fa0cf65b8284106105da5750505082010181610588610353610575565b8054848a0186015288955087949093019281016105c1565b60ff19168782015293151560051b8601909301935084925061058891506103539050610575565b634e487b7160e01b835260228a52602483fd5b92607f169261054b565b5034610259578160031936011261025957602090600e549051908152f35b508290346103025780600319360112610302578135602492833590610677611b5f565b681b1ae4d6e2ef500000831115610b23576213c6808214808015610b17575b8015610b0b575b8015610aff575b15610ac75760019015610a8d57506001955b84516323b872dd60e01b815233838201523087820152604481018590526020976001600160a01b0397918981606481877f00000000000000000000000000000000000000000000000000000000000000008e165af1908115610a83578491610a56575b5015610a22576107298187611b29565b9161073683600f54611b52565b600f5561074587600e54611b52565b600e55600b549860001990818b146109305760018b01600b553315610a0c57908b918b8752600283528a872054168b8b821594851595866109db575b33808c5260038352838c2080546001019055848c5260028352838c2080546001600160a01b031916821790558490867fddf252ad1be2c89b69c2b068fc378daa952ba7f163c4a11628f55a4df523b3ef8e80a4156109545760099150600854928a5252808c892055600160401b811015610942578c6108098260016108229401600855611ac4565b90919082549060031b91821b91600019901b1916179055565b33036108f8575b506108e457509260059288928a956108418842611b52565b8a600d5494600c82519a6108548c6115ba565b8d8c52808c01948552838c0195865260608c0196875260808c0197885260a08c0199838b5283525220975188555160018801555160028701555160038601555190840155519101556108a584611c95565b82519182528482015282828201527fb4caaf29adda3eefee3ad552a8e85058589bf834c7466cae4ee58787f70589ed60603392a26001600a5551908152f35b87516339e3563760e11b8152808601859052fd5b61090133611646565b9081019081116109305733865260068c528986208187528c528a8a8720558a865260078c52898620558b610829565b634e487b7160e01b8652601187528286fd5b634e487b7160e01b8852604189528488fd5b89338503610966575b50505050610822565b60069261097286611646565b9480835260078452818320548681036109a6575b508252812055838a52528b88209088528d52868b8120558b8b8e8961095d565b878452858552828420878552855282842054888552868652838520828652865280848620558452600785528284205538610986565b600084815260046020526040902080546001600160a01b0319169055848b5260038252828b20868154019055610781565b8951633250574960e11b81528088018790528390fd5b865162461bcd60e51b81528085018a9052600f818401526e151c985b9cd9995c8819985a5b1959608a1b6044820152606490fd5b610a7691508a3d8c11610a7c575b610a6e8183611608565b810190611b11565b8a610719565b503d610a64565b88513d86823e3d90fd5b62278d008303610aa157506002955b6106b6565b6276a7008303610ab3575080956106b6565b9562ed4e008303610a9c57600896506106b6565b845162461bcd60e51b815260208184015260138188015272125b9d985b1a59081b1bd8dac81c195c9a5bd9606a1b6044820152606490fd5b5062ed4e0083146106a4565b506276a700831461069d565b5062278d008314610696565b608490602686602087519362461bcd60e51b85528401528201527f5374616b6520616d6f756e74206d7573742062652067726561746572207468616044820152656e207a65726f60d01b6064820152fd5b5034610259578160031936011261025957602090600b549051908152f35b5034610259578160031936011261025957517f00000000000000000000000000000000000000000000000000000000000000006001600160a01b03168152602090f35b503461025957602036600319011261025957602090610392610bf5611554565b611646565b50346102595781600319360112610259576020905160018152f35b5090346103995760203660031901126103995750610c3560209235611a89565b90516001600160a01b039091168152f35b50823461030257602036600319011261030257803592600854841015610c8057602083610c7286611ac4565b91905490519160031b1c8152f35b6044939192519263295f44f760e21b84528301526024820152fd5b50829034610302576020366003190112610302578060c09383358152600c60205220805492600182015492600283015490600560038501549385015494015494815196875260208701528501526060840152608083015260a0820152f35b50346102595761044090610d0c36611585565b91925192610d19846115ec565b85845261193a565b509034610399578160031936011261039957610d3b611554565b9260243590610d4985611646565b821015610d7957506001600160a01b03909316815260066020908152828220938252928352819020549051908152f35b925163295f44f760e21b81526001600160a01b0390941692840192835260208301525081906040010390fd5b50346102595760209081600319360112610302578335610dc481611a89565b6001600160a01b0390610dda9082163314611b82565b818552600c845282852090835191610df1836115ba565b80548352600181015480878501526002820154868501526005600383015492606086019384528a8101546080870152015460a0850152421061114457610e4490610e3a85611bdb565b5051600f54611bce565b600f55610e548251600e54611bce565b600e5582865260028552808487205416801590811580611111575b8589526002885286892080546001600160a01b03191690558589837fddf252ad1be2c89b69c2b068fc378daa952ba7f163c4a11628f55a4df523b3ef8280a48215611090575050600854848852600987528086892055600160401b81101561107d5784610809826001610ee59401600855611ac4565b6008546000199081810190811161106a5785895260098852610f0a878a205491611ac4565b90549060031b1c610f1e8161080984611ac4565b895260098852868920558488528786812055600854801561105757810190610f4582611ac4565b909182549160031b1b1916905560085561104057828652600c85528386208681556001810187905560028101879055600381018790558088018790556005018690558151845163a9059cbb60e01b815233988101988952602089019190915295968591879182908a90829060400103927f0000000000000000000000000000000000000000000000000000000000000000165af1948515611036577f7fc4727e062e336010f2c282598ef5f14facb3de68cf8195c2f23e1454b2b74e9495611019575b50519382519485528401523392a280f35b61102f90863d8811610a7c57610a6e8183611608565b5038611008565b83513d88823e3d90fd5b8351637e27328960e01b8152808801849052602490fd5b634e487b7160e01b895260318a52602489fd5b634e487b7160e01b895260118a52602489fd5b634e487b7160e01b885260418952602488fd5b61109b575b50610ee5565b6110a481611646565b9085895260078852868920548281036110da575b5085895288878120558852600687528588209088528652868581205538611095565b818a5260068952878a20838b528952878a2054828b5260068a52888b20828c528a5280898c20558a5260078952878a2055386110b8565b600086815260046020526040902080546001600160a01b0319169055818952600388528689208054600019019055610e6f565b845162461bcd60e51b815280890187905260146024820152732637b1b5903832b934b7b2103737ba1037bb32b960611b6044820152606490fd5b5034610259578160031936011261025957602090516213c6808152f35b8234610399576104406111ad36611585565b9161167f565b50346102595781600319360112610259576020905162278d008152f35b50346102595781600319360112610259576020906008549051908152f35b50823461030257602036600319011261030257818360c09460a08351611213816115ba565b8281528260208201528285820152826060820152826080820152015282358152600c60205220825191611245836115ba565b81549384845260018301546020850190815260028401549082860191825260a0600560038701549560608901968752870154966080890197885201549601958652825196875251602087015251908501525160608401525160808301525160a0820152f35b508290346103025780600319360112610302576112c5611554565b916024356112d281611a89565b33151580611374575b8061134b575b611335576001600160a01b039485169482918691167f8c5be1e5ebec7d5bd14f71427d1e84f3dd0314c0f7b2291e5b200ac8c7c3b9258880a48452602052822080546001600160a01b031916909117905580f35b835163a9fbf51f60e01b81523381850152602490fd5b506001600160a01b03811686526005602090815284872033885290528386205460ff16156112e1565b506001600160a01b0381163314156112db565b508234610302576020366003190112610302579182602093356113a981611a89565b50825283528190205490516001600160a01b039091168152f35b50903461039957806003193601126103995781519181825492600184811c91818616958615611484575b6020968785108114610619578899509688969785829a5291826000146105f2575050600114611429575050506103539291610588910385611608565b91908693508280527f290decd9548b62a8d60345a988386fc84ba6bc95484008f6362f93160ef3e5635b82841061146c5750505082010181610588610353610575565b8054848a018601528895508794909301928101611453565b92607f16926113ed565b83908534610302576020366003190112610302573563ffffffff60e01b8116809103610302576020925063780e9d6360e01b81149081156114d1575b5015158152f35b6380ac58cd60e01b811491508115611503575b81156114f2575b50836114ca565b6301ffc9a760e01b149050836114eb565b635b5e139f60e01b811491506114e4565b919082519283825260005b848110611540575050826000602080949584010152601f8019910116010190565b60208183018101518483018201520161151f565b600435906001600160a01b038216820361156a57565b600080fd5b602435906001600160a01b038216820361156a57565b606090600319011261156a576001600160a01b0390600435828116810361156a5791602435908116810361156a579060443590565b60c0810190811067ffffffffffffffff8211176115d657604052565b634e487b7160e01b600052604160045260246000fd5b6020810190811067ffffffffffffffff8211176115d657604052565b90601f8019910116810190811067ffffffffffffffff8211176115d657604052565b67ffffffffffffffff81116115d657601f01601f191660200190565b6001600160a01b0316801561166657600052600360205260406000205490565b6040516322718ad960e21b815260006004820152602490fd5b6001600160a01b038281169391841561192157600094838652602095600287526040968488832054169633151580611893575b5087158015611860575b84845260038352898420805460010190558784526002835289842080546001600160a01b0319168617905587858a7fddf252ad1be2c89b69c2b068fc378daa952ba7f163c4a11628f55a4df523b3ef8780a4156117e45760085487845260098352808a852055600160401b8110156117d057876108098260016117429401600855611ac4565b83880361177e575b50505050169283830361175d5750505050565b6064945051926364283d7b60e01b8452600484015260248301526044820152fd5b61178790611646565b6000198101939084116117bc5782916007918a945260068152838320858452815287848420558783525220553880808061174a565b634e487b7160e01b83526011600452602483fd5b634e487b7160e01b84526041600452602484fd5b878414611742576117f488611646565b8784526007835289842054818103611829575b50878452838a8120558884526006835289842090845282528289812055611742565b898552600684528a852082865284528a8520548a8652600685528b86208287528552808c8720558552600784528a85205538611807565b600088815260046020526040902080546001600160a01b03191690558884526003835289842080546000190190556116bc565b806118e0575b156118a457386116b2565b8887896118c1576024915190637e27328960e01b82526004820152fd5b905163177e802f60e01b81523360048201526024810191909152604490fd5b503388148015611905575b8061189957508683526004825233868a8520541614611899565b5087835260058252888320338452825260ff89842054166118eb565b604051633250574960e11b815260006004820152602490fd5b61194583838361167f565b813b611952575b50505050565b604051630a85bd0160e11b8082523360048301526001600160a01b039283166024830152604482019490945260806064820152602095929091169390929083906119a0906084830190611514565b039285816000958187895af1849181611a49575b50611a14575050503d600014611a0c573d6119ce8161162a565b906119dc6040519283611608565b81528091843d92013e5b80519283611a0757604051633250574960e11b815260048101849052602490fd5b019050fd5b5060606119e6565b919450915063ffffffff60e01b1603611a3157503880808061194c565b60249060405190633250574960e11b82526004820152fd5b9091508681813d8311611a82575b611a618183611608565b8101031261050157516001600160e01b0319811681036105015790386119b4565b503d611a57565b6000818152600260205260409020546001600160a01b0316908115611aac575090565b60249060405190637e27328960e01b82526004820152fd5b600854811015611afb5760086000527ff3f7a9fe364faab93b216da50a3214154f22a0a2b415b23a84c8169e8b636ee30190600090565b634e487b7160e01b600052603260045260246000fd5b9081602091031261156a5751801515810361156a5790565b81810292918115918404141715611b3c57565b634e487b7160e01b600052601160045260246000fd5b91908201809211611b3c57565b6002600a5414611b70576002600a55565b604051633ee5aeb560e01b8152600490fd5b15611b8957565b60405162461bcd60e51b815260206004820152601b60248201527f4e6f7420746865206f776e6572206f662074686973207374616b6500000000006044820152606490fd5b91908203918211611b3c57565b611be3611b5f565b611bff611bef82611a89565b6001600160a01b03163314611b82565b6005600091808352600c602052611c196040842091611c95565b019081549182158015611c5e575b5050506040518181527fd8138f8a3f377c5259ca548e70e4c2de94f129f5a11036a15b69513cba2b426a60203392a2906001600a55565b82809255838291611c8b575b8280929181923390f115611c7f578080611c27565b604051903d90823e3d90fd5b6108fc9150611c6a565b80600052600c602052611cac604060002091611cc7565b611cbb60058301918254611b52565b90556004600d54910155565b600052600c602052670de0b6b3a7640000611d376040600020611d3160405191611cf0836115ba565b80548352600181015460208401526002810154604084015260038101549283606082015260a060056004840154938460808501520154910152600d54611bce565b90611b29565b049056fea264697066735822122002d11d160ae6cdc7af3e0305564460babd2ed2634e0e60882001cea5611d6e6f64736f6c63430008140033","linkReferences":{}},"methodIdentifiers":{"FIFTEEN_DAYS()":"2cbcf2ff","FIFTEEN_DAYS_BONUS()":"696b3388","ONE_MONTH()":"20988cef","ONE_MONTH_BONUS()":"96c01a30","SIX_MONTHS()":"ba579c74","SIX_MONTHS_BONUS()":"c80156a9","THREE_MONTHS()":"ecbefab7","THREE_MONTHS_BONUS()":"c881acc7","_calculateRewards(uint256)":"bc0547e3","approve(address,uint256)":"095ea7b3","balanceOf(address)":"70a08231","claimReward(uint256)":"ae169a50","collectRevenue()":"ed14d17e","getApproved(uint256)":"081812fc","getStakeInfo(uint256)":"09813482","isApprovedForAll(address,address)":"e985e9c5","name()":"06fdde03","nextTokenId()":"75794a3c","ownerOf(uint256)":"6352211e","rewardIndex()":"e9ee2fa9","safeTransferFrom(address,address,uint256)":"42842e0e","safeTransferFrom(address,address,uint256,bytes)":"b88d4fde","setApprovalForAll(address,bool)":"a22cb465","stake(uint256,uint256)":"7b0472f0","stakeInfo(uint256)":"4e533572","stakingToken()":"72f702f3","supportsInterface(bytes4)":"01ffc9a7","symbol()":"95d89b41","tokenByIndex(uint256)":"4f6ccce7","tokenOfOwnerByIndex(address,uint256)":"2f745c59","tokenURI(uint256)":"c87b56dd","totalStaked()":"817b1cd2","totalSupply()":"18160ddd","transferFrom(address,address,uint256)":"23b872dd","unstake(uint256)":"2e17de78"},"id":59}