{"abi":[{"type":"constructor","inputs":[{"name":"_stakingToken","type":"address","internalType":"address"}],"stateMutability":"nonpayable"},{"type":"function","name":"FIFTEEN_DAYS","inputs":[],"outputs":[{"name":"","type":"uint256","internalType":"uint256"}],"stateMutability":"view"},{"type":"function","name":"FIFTEEN_DAYS_BONUS","inputs":[],"outputs":[{"name":"","type":"uint256","internalType":"uint256"}],"stateMutability":"view"},{"type":"function","name":"ONE_MONTH","inputs":[],"outputs":[{"name":"","type":"uint256","internalType":"uint256"}],"stateMutability":"view"},{"type":"function","name":"ONE_MONTH_BONUS","inputs":[],"outputs":[{"name":"","type":"uint256","internalType":"uint256"}],"stateMutability":"view"},{"type":"function","name":"SIX_MONTHS","inputs":[],"outputs":[{"name":"","type":"uint256","internalType":"uint256"}],"stateMutability":"view"},{"type":"function","name":"SIX_MONTHS_BONUS","inputs":[],"outputs":[{"name":"","type":"uint256","internalType":"uint256"}],"stateMutability":"view"},{"type":"function","name":"THREE_MONTHS","inputs":[],"outputs":[{"name":"","type":"uint256","internalType":"uint256"}],"stateMutability":"view"},{"type":"function","name":"THREE_MONTHS_BONUS","inputs":[],"outputs":[{"name":"","type":"uint256","internalType":"uint256"}],"stateMutability":"view"},{"type":"function","name":"_calculateRewards","inputs":[{"name":"_tokenId","type":"uint256","internalType":"uint256"}],"outputs":[{"name":"","type":"uint256","internalType":"uint256"}],"stateMutability":"view"},{"type":"function","name":"approve","inputs":[{"name":"to","type":"address","internalType":"address"},{"name":"tokenId","type":"uint256","internalType":"uint256"}],"outputs":[],"stateMutability":"nonpayable"},{"type":"function","name":"balanceOf","inputs":[{"name":"owner","type":"address","internalType":"address"}],"outputs":[{"name":"","type":"uint256","internalType":"uint256"}],"stateMutability":"view"},{"type":"function","name":"claimReward","inputs":[{"name":"_tokenId","type":"uint256","internalType":"uint256"}],"outputs":[{"name":"","type":"uint256","internalType":"uint256"}],"stateMutability":"nonpayable"},{"type":"function","name":"collectRevenue","inputs":[],"outputs":[],"stateMutability":"payable"},{"type":"function","name":"getApproved","inputs":[{"name":"tokenId","type":"uint256","internalType":"uint256"}],"outputs":[{"name":"","type":"address","internalType":"address"}],"stateMutability":"view"},{"type":"function","name":"getStakeInfo","inputs":[{"name":"tokenId","type":"uint256","internalType":"uint256"}],"outputs":[{"name":"","type":"tuple","internalType":"struct SuperMemePublicStaking.StakeInfo","components":[{"name":"amount","type":"uint256","internalType":"uint256"},{"name":"lockEnd","type":"uint256","internalType":"uint256"},{"name":"revenueShareBonus","type":"uint256","internalType":"uint256"},{"name":"sharesAmount","type":"uint256","internalType":"uint256"},{"name":"rewardIndex","type":"uint256","internalType":"uint256"},{"name":"earned","type":"uint256","internalType":"uint256"}]}],"stateMutability":"view"},{"type":"function","name":"isApprovedForAll","inputs":[{"name":"owner","type":"address","internalType":"address"},{"name":"operator","type":"address","internalType":"address"}],"outputs":[{"name":"","type":"bool","internalType":"bool"}],"stateMutability":"view"},{"type":"function","name":"name","inputs":[],"outputs":[{"name":"","type":"string","internalType":"string"}],"stateMutability":"view"},{"type":"function","name":"nextTokenId","inputs":[],"outputs":[{"name":"","type":"uint256","internalType":"uint256"}],"stateMutability":"view"},{"type":"function","name":"ownerOf","inputs":[{"name":"tokenId","type":"uint256","internalType":"uint256"}],"outputs":[{"name":"","type":"address","internalType":"address"}],"stateMutability":"view"},{"type":"function","name":"rewardIndex","inputs":[],"outputs":[{"name":"","type":"uint256","internalType":"uint256"}],"stateMutability":"view"},{"type":"function","name":"safeTransferFrom","inputs":[{"name":"from","type":"address","internalType":"address"},{"name":"to","type":"address","internalType":"address"},{"name":"tokenId","type":"uint256","internalType":"uint256"}],"outputs":[],"stateMutability":"nonpayable"},{"type":"function","name":"safeTransferFrom","inputs":[{"name":"from","type":"address","internalType":"address"},{"name":"to","type":"address","internalType":"address"},{"name":"tokenId","type":"uint256","internalType":"uint256"},{"name":"data","type":"bytes","internalType":"bytes"}],"outputs":[],"stateMutability":"nonpayable"},{"type":"function","name":"setApprovalForAll","inputs":[{"name":"operator","type":"address","internalType":"address"},{"name":"approved","type":"bool","internalType":"bool"}],"outputs":[],"stateMutability":"nonpayable"},{"type":"function","name":"stake","inputs":[{"name":"amount","type":"uint256","internalType":"uint256"},{"name":"lockPeriod","type":"uint256","internalType":"uint256"}],"outputs":[{"name":"","type":"uint256","internalType":"uint256"}],"stateMutability":"nonpayable"},{"type":"function","name":"stakeInfo","inputs":[{"name":"","type":"uint256","internalType":"uint256"}],"outputs":[{"name":"amount","type":"uint256","internalType":"uint256"},{"name":"lockEnd","type":"uint256","internalType":"uint256"},{"name":"revenueShareBonus","type":"uint256","internalType":"uint256"},{"name":"sharesAmount","type":"uint256","internalType":"uint256"},{"name":"rewardIndex","type":"uint256","internalType":"uint256"},{"name":"earned","type":"uint256","internalType":"uint256"}],"stateMutability":"view"},{"type":"function","name":"stakingToken","inputs":[],"outputs":[{"name":"","type":"address","internalType":"contract IERC20"}],"stateMutability":"view"},{"type":"function","name":"supportsInterface","inputs":[{"name":"interfaceId","type":"bytes4","internalType":"bytes4"}],"outputs":[{"name":"","type":"bool","internalType":"bool"}],"stateMutability":"view"},{"type":"function","name":"symbol","inputs":[],"outputs":[{"name":"","type":"string","internalType":"string"}],"stateMutability":"view"},{"type":"function","name":"tokenByIndex","inputs":[{"name":"index","type":"uint256","internalType":"uint256"}],"outputs":[{"name":"","type":"uint256","internalType":"uint256"}],"stateMutability":"view"},{"type":"function","name":"tokenOfOwnerByIndex","inputs":[{"name":"owner","type":"address","internalType":"address"},{"name":"index","type":"uint256","internalType":"uint256"}],"outputs":[{"name":"","type":"uint256","internalType":"uint256"}],"stateMutability":"view"},{"type":"function","name":"tokenURI","inputs":[{"name":"tokenId","type":"uint256","internalType":"uint256"}],"outputs":[{"name":"","type":"string","internalType":"string"}],"stateMutability":"view"},{"type":"function","name":"totalStaked","inputs":[],"outputs":[{"name":"","type":"uint256","internalType":"uint256"}],"stateMutability":"view"},{"type":"function","name":"totalSupply","inputs":[],"outputs":[{"name":"","type":"uint256","internalType":"uint256"}],"stateMutability":"view"},{"type":"function","name":"transferFrom","inputs":[{"name":"from","type":"address","internalType":"address"},{"name":"to","type":"address","internalType":"address"},{"name":"tokenId","type":"uint256","internalType":"uint256"}],"outputs":[],"stateMutability":"nonpayable"},{"type":"function","name":"unstake","inputs":[{"name":"tokenId","type":"uint256","internalType":"uint256"}],"outputs":[],"stateMutability":"nonpayable"},{"type":"event","name":"Approval","inputs":[{"name":"owner","type":"address","indexed":true,"internalType":"address"},{"name":"approved","type":"address","indexed":true,"internalType":"address"},{"name":"tokenId","type":"uint256","indexed":true,"internalType":"uint256"}],"anonymous":false},{"type":"event","name":"ApprovalForAll","inputs":[{"name":"owner","type":"address","indexed":true,"internalType":"address"},{"name":"operator","type":"address","indexed":true,"internalType":"address"},{"name":"approved","type":"bool","indexed":false,"internalType":"bool"}],"anonymous":false},{"type":"event","name":"Claimed","inputs":[{"name":"user","type":"address","indexed":true,"internalType":"address"},{"name":"amount","type":"uint256","indexed":false,"internalType":"uint256"}],"anonymous":false},{"type":"event","name":"Staked","inputs":[{"name":"user","type":"address","indexed":true,"internalType":"address"},{"name":"amount","type":"uint256","indexed":false,"internalType":"uint256"},{"name":"lockPeriod","type":"uint256","indexed":false,"internalType":"uint256"},{"name":"tokenId","type":"uint256","indexed":false,"internalType":"uint256"}],"anonymous":false},{"type":"event","name":"Transfer","inputs":[{"name":"from","type":"address","indexed":true,"internalType":"address"},{"name":"to","type":"address","indexed":true,"internalType":"address"},{"name":"tokenId","type":"uint256","indexed":true,"internalType":"uint256"}],"anonymous":false},{"type":"event","name":"Unstaked","inputs":[{"name":"user","type":"address","indexed":true,"internalType":"address"},{"name":"amount","type":"uint256","indexed":false,"internalType":"uint256"},{"name":"tokenId","type":"uint256","indexed":false,"internalType":"uint256"}],"anonymous":false},{"type":"error","name":"ERC721EnumerableForbiddenBatchMint","inputs":[]},{"type":"error","name":"ERC721IncorrectOwner","inputs":[{"name":"sender","type":"address","internalType":"address"},{"name":"tokenId","type":"uint256","internalType":"uint256"},{"name":"owner","type":"address","internalType":"address"}]},{"type":"error","name":"ERC721InsufficientApproval","inputs":[{"name":"operator","type":"address","internalType":"address"},{"name":"tokenId","type":"uint256","internalType":"uint256"}]},{"type":"error","name":"ERC721InvalidApprover","inputs":[{"name":"approver","type":"address","internalType":"address"}]},{"type":"error","name":"ERC721InvalidOperator","inputs":[{"name":"operator","type":"address","internalType":"address"}]},{"type":"error","name":"ERC721InvalidOwner","inputs":[{"name":"owner","type":"address","internalType":"address"}]},{"type":"error","name":"ERC721InvalidReceiver","inputs":[{"name":"receiver","type":"address","internalType":"address"}]},{"type":"error","name":"ERC721InvalidSender","inputs":[{"name":"sender","type":"address","internalType":"address"}]},{"type":"error","name":"ERC721NonexistentToken","inputs":[{"name":"tokenId","type":"uint256","internalType":"uint256"}]},{"type":"error","name":"ERC721OutOfBoundsIndex","inputs":[{"name":"owner","type":"address","internalType":"address"},{"name":"index","type":"uint256","internalType":"uint256"}]},{"type":"error","name":"ReentrancyGuardReentrantCall","inputs":[]}],"bytecode":{"object":"0x60a06040523480156200001157600080fd5b50604051620023bf380380620023bf8339810160408190526200003491620000b6565b6040518060400160405280601181526020017014dd5c195c93595b5954dd185ad9539195607a1b8152506040518060400160405280600581526020016414d353919560da1b81525081600090816200008d91906200018d565b5060016200009c82826200018d565b50506001600a55506001600160a01b031660805262000259565b600060208284031215620000c957600080fd5b81516001600160a01b0381168114620000e157600080fd5b9392505050565b634e487b7160e01b600052604160045260246000fd5b600181811c908216806200011357607f821691505b6020821081036200013457634e487b7160e01b600052602260045260246000fd5b50919050565b601f8211156200018857600081815260208120601f850160051c81016020861015620001635750805b601f850160051c820191505b8181101562000184578281556001016200016f565b5050505b505050565b81516001600160401b03811115620001a957620001a9620000e8565b620001c181620001ba8454620000fe565b846200013a565b602080601f831160018114620001f95760008415620001e05750858301515b600019600386901b1c1916600185901b17855562000184565b600085815260208120601f198616915b828110156200022a5788860151825594840194600190910190840162000209565b5085821015620002495787850151600019600388901b60f8161c191681555b5050505050600190811b01905550565b60805161213c62000283600039600081816104f701528181610a570152610d8b015261213c6000f3fe6080604052600436106102045760003560e01c806372f702f311610118578063ba579c74116100a0578063c881acc71161006f578063c881acc71461065b578063e985e9c514610670578063e9ee2fa914610690578063ecbefab7146106a6578063ed14d17e146106bd57600080fd5b8063ba579c74146105ef578063bc0547e314610606578063c80156a914610626578063c87b56dd1461063b57600080fd5b806395d89b41116100e757806395d89b411461056557806396c01a301461057a578063a22cb4651461058f578063ae169a50146105af578063b88d4fde146105cf57600080fd5b806372f702f3146104e557806375794a3c146105195780637b0472f01461052f578063817b1cd21461054f57600080fd5b80632cbcf2ff1161019b5780634e5335721161016a5780634e533572146103f35780634f6ccce7146104705780636352211e14610490578063696b3388146104b057806370a08231146104c557600080fd5b80632cbcf2ff1461037c5780632e17de78146103935780632f745c59146103b357806342842e0e146103d357600080fd5b806309813482116101d757806309813482146102ba57806318160ddd1461032657806320988cef1461034557806323b872dd1461035c57600080fd5b806301ffc9a71461020957806306fdde031461023e578063081812fc14610260578063095ea7b314610298575b600080fd5b34801561021557600080fd5b50610229610224366004611caf565b6106c5565b60405190151581526020015b60405180910390f35b34801561024a57600080fd5b506102536106d6565b6040516102359190611d1c565b34801561026c57600080fd5b5061028061027b366004611d2f565b610768565b6040516001600160a01b039091168152602001610235565b3480156102a457600080fd5b506102b86102b3366004611d5f565b610791565b005b3480156102c657600080fd5b506102da6102d5366004611d2f565b6107a0565b6040516102359190600060c082019050825182526020830151602083015260408301516040830152606083015160608301526080830151608083015260a083015160a083015292915050565b34801561033257600080fd5b506008545b604051908152602001610235565b34801561035157600080fd5b5061033762278d0081565b34801561036857600080fd5b506102b8610377366004611d89565b610832565b34801561038857600080fd5b506103376213c68081565b34801561039f57600080fd5b506102b86103ae366004611d2f565b6108c2565b3480156103bf57600080fd5b506103376103ce366004611d5f565b610b0e565b3480156103df57600080fd5b506102b86103ee366004611d89565b610b73565b3480156103ff57600080fd5b5061044361040e366004611d2f565b600c60205260009081526040902080546001820154600283015460038401546004850154600590950154939492939192909186565b604080519687526020870195909552938501929092526060840152608083015260a082015260c001610235565b34801561047c57600080fd5b5061033761048b366004611d2f565b610b93565b34801561049c57600080fd5b506102806104ab366004611d2f565b610bec565b3480156104bc57600080fd5b50610337600181565b3480156104d157600080fd5b506103376104e0366004611dc5565b610bf7565b3480156104f157600080fd5b506102807f000000000000000000000000000000000000000000000000000000000000000081565b34801561052557600080fd5b50610337600b5481565b34801561053b57600080fd5b5061033761054a366004611de0565b610c3f565b34801561055b57600080fd5b50610337600e5481565b34801561057157600080fd5b50610253610f7d565b34801561058657600080fd5b50610337600281565b34801561059b57600080fd5b506102b86105aa366004611e10565b610f8c565b3480156105bb57600080fd5b506103376105ca366004611d2f565b610f97565b3480156105db57600080fd5b506102b86105ea366004611e5d565b6110a0565b3480156105fb57600080fd5b5061033762ed4e0081565b34801561061257600080fd5b50610337610621366004611d2f565b6110b7565b34801561063257600080fd5b50610337600881565b34801561064757600080fd5b50610253610656366004611d2f565b611144565b34801561066757600080fd5b50610337600481565b34801561067c57600080fd5b5061022961068b366004611f39565b6111b9565b34801561069c57600080fd5b50610337600d5481565b3480156106b257600080fd5b506103376276a70081565b6102b86111e7565b60006106d082611273565b92915050565b6060600080546106e590611f6c565b80601f016020809104026020016040519081016040528092919081815260200182805461071190611f6c565b801561075e5780601f106107335761010080835404028352916020019161075e565b820191906000526020600020905b81548152906001019060200180831161074157829003601f168201915b5050505050905090565b600061077382611298565b506000828152600460205260409020546001600160a01b03166106d0565b61079c8282336112d1565b5050565b6107d96040518060c001604052806000815260200160008152602001600081526020016000815260200160008152602001600081525090565b506000908152600c6020908152604091829020825160c08101845281548152600182015492810192909252600281015492820192909252600382015460608201526004820154608082015260059091015460a082015290565b6001600160a01b03821661086157604051633250574960e11b8152600060048201526024015b60405180910390fd5b600061086e8383336112de565b9050836001600160a01b0316816001600160a01b0316146108bc576040516364283d7b60e01b81526001600160a01b0380861660048301526024820184905282166044820152606401610858565b50505050565b336108cc82610bec565b6001600160a01b0316146109225760405162461bcd60e51b815260206004820152601b60248201527f4e6f7420746865206f776e6572206f662074686973207374616b6500000000006044820152606401610858565b6000818152600c6020908152604091829020825160c08101845281548152600182015492810183905260028201549381019390935260038101546060840152600481015460808401526005015460a08301524210156109ba5760405162461bcd60e51b81526020600482015260146024820152732637b1b5903832b934b7b2103737ba1037bb32b960611b6044820152606401610858565b6109c382610f97565b508060600151600f60008282546109da9190611fbc565b90915550508051600e80546000906109f3908490611fbc565b90915550610a029050826112eb565b6000828152600c602052604080822082815560018101839055600281018390556003810183905560048082018490556005909101929092558251905163a9059cbb60e01b8152339281019290925260248201527f00000000000000000000000000000000000000000000000000000000000000006001600160a01b03169063a9059cbb906044016020604051808303816000875af1158015610aa8573d6000803e3d6000fd5b505050506040513d601f19601f82011682018060405250810190610acc9190611fcf565b508051604080519182526020820184905233917f7fc4727e062e336010f2c282598ef5f14facb3de68cf8195c2f23e1454b2b74e910160405180910390a25050565b6000610b1983610bf7565b8210610b4a5760405163295f44f760e21b81526001600160a01b038416600482015260248101839052604401610858565b506001600160a01b03919091166000908152600660209081526040808320938352929052205490565b610b8e838383604051806020016040528060008152506110a0565b505050565b6000610b9e60085490565b8210610bc75760405163295f44f760e21b81526000600482015260248101839052604401610858565b60088281548110610bda57610bda611fec565b90600052602060002001549050919050565b60006106d082611298565b60006001600160a01b038216610c23576040516322718ad960e21b815260006004820152602401610858565b506001600160a01b031660009081526003602052604090205490565b6000610c49611326565b681b1ae4d6e2ef5000008311610cb05760405162461bcd60e51b815260206004820152602660248201527f5374616b6520616d6f756e74206d7573742062652067726561746572207468616044820152656e207a65726f60d01b6064820152608401610858565b6213c680821480610cc3575062278d0082145b80610cd057506276a70082145b80610cdd575062ed4e0082145b610d1f5760405162461bcd60e51b8152602060048201526013602482015272125b9d985b1a59081b1bd8dac81c195c9a5bd9606a1b6044820152606401610858565b60016213c67f198301610d3457506001610d66565b62278d008303610d4657506002610d66565b6276a7008303610d5857506004610d66565b62ed4e008303610d66575060085b6040516323b872dd60e01b8152336004820152306024820152604481018590526000907f00000000000000000000000000000000000000000000000000000000000000006001600160a01b0316906323b872dd906064016020604051808303816000875af1158015610ddc573d6000803e3d6000fd5b505050506040513d601f19601f82011682018060405250810190610e009190611fcf565b905080610e415760405162461bcd60e51b815260206004820152600f60248201526e151c985b9cd9995c8819985a5b1959608a1b6044820152606401610858565b6000610e4d8387612002565b905080600f6000828254610e619190612019565b9250508190555085600e6000828254610e7a9190612019565b9091555050600b805460009182610e908361202c565b919050559050610ea03382611350565b6040518060c001604052808881526020018742610ebd9190612019565b815260208082018790526040808301869052600d5460608085019190915260006080948501819052868152600c845282902085518155928501516001840155908401516002830155830151600382015590820151600482015560a090910151600590910155610f2b816113b5565b604080518881526020810188905290810182905233907fb4caaf29adda3eefee3ad552a8e85058589bf834c7466cae4ee58787f70589ed9060600160405180910390a293505050506106d06001600a55565b6060600180546106e590611f6c565b61079c3383836113f0565b6000610fa1611326565b33610fab83610bec565b6001600160a01b0316146110015760405162461bcd60e51b815260206004820152601b60248201527f4e6f7420746865206f776e6572206f662074686973207374616b6500000000006044820152606401610858565b6000828152600c60205260409020611018836113b5565b6005810154801561105957600060058301819055604051339183156108fc02918491818181858888f19350505050158015611057573d6000803e3d6000fd5b505b60405181815233907fd8138f8a3f377c5259ca548e70e4c2de94f129f5a11036a15b69513cba2b426a9060200160405180910390a291505061109b6001600a55565b919050565b6110ab848484610832565b6108bc8484848461148f565b6000818152600c60209081526040808320815160c0810183528154815260018201549381019390935260028101549183019190915260038101546060830181905260048201546080840181905260059092015460a0840152600d549091670de0b6b3a7640000916111289190611fbc565b6111329083612002565b61113c9190612045565b949350505050565b606061114f82611298565b50600061116760408051602081019091526000815290565b9050600081511161118757604051806020016040528060008152506111b2565b80611191846115b8565b6040516020016111a2929190612067565b6040516020818303038152906040525b9392505050565b6001600160a01b03918216600090815260056020908152604080832093909416825291909152205460ff1690565b6111ef611326565b6000600e54116112345760405162461bcd60e51b815260206004820152601060248201526f4e6f207374616b656420746f6b656e7360801b6044820152606401610858565b600f54349061124b670de0b6b3a764000083612002565b6112559190612045565b600d60008282546112669190612019565b90915550506001600a5550565b60006001600160e01b0319821663780e9d6360e01b14806106d057506106d08261164b565b6000818152600260205260408120546001600160a01b0316806106d057604051637e27328960e01b815260048101849052602401610858565b610b8e838383600161169b565b600061113c8484846117a1565b60006112fa60008360006112de565b90506001600160a01b03811661079c57604051637e27328960e01b815260048101839052602401610858565b6002600a540361134957604051633ee5aeb560e01b815260040160405180910390fd5b6002600a55565b6001600160a01b03821661137a57604051633250574960e11b815260006004820152602401610858565b6000611388838360006112de565b90506001600160a01b03811615610b8e576040516339e3563760e11b815260006004820152602401610858565b6000818152600c602052604090206113cc826110b7565b8160050160008282546113df9190612019565b9091555050600d5460049091015550565b6001600160a01b03821661142257604051630b61174360e31b81526001600160a01b0383166004820152602401610858565b6001600160a01b03838116600081815260056020908152604080832094871680845294825291829020805460ff191686151590811790915591519182527f17307eab39ab6107e8899845ad3d59bd9653f200f220920489ca2b5937696c31910160405180910390a3505050565b6001600160a01b0383163b156108bc57604051630a85bd0160e11b81526001600160a01b0384169063150b7a02906114d1903390889087908790600401612096565b6020604051808303816000875af192505050801561150c575060408051601f3d908101601f19168201909252611509918101906120d3565b60015b611575573d80801561153a576040519150601f19603f3d011682016040523d82523d6000602084013e61153f565b606091505b50805160000361156d57604051633250574960e11b81526001600160a01b0385166004820152602401610858565b805181602001fd5b6001600160e01b03198116630a85bd0160e11b146115b157604051633250574960e11b81526001600160a01b0385166004820152602401610858565b5050505050565b606060006115c58361186e565b600101905060008167ffffffffffffffff8111156115e5576115e5611e47565b6040519080825280601f01601f19166020018201604052801561160f576020820181803683370190505b5090508181016020015b600019016f181899199a1a9b1b9c1cb0b131b232b360811b600a86061a8153600a850494508461161957509392505050565b60006001600160e01b031982166380ac58cd60e01b148061167c57506001600160e01b03198216635b5e139f60e01b145b806106d057506301ffc9a760e01b6001600160e01b03198316146106d0565b80806116af57506001600160a01b03821615155b156117715760006116bf84611298565b90506001600160a01b038316158015906116eb5750826001600160a01b0316816001600160a01b031614155b80156116fe57506116fc81846111b9565b155b156117275760405163a9fbf51f60e01b81526001600160a01b0384166004820152602401610858565b811561176f5783856001600160a01b0316826001600160a01b03167f8c5be1e5ebec7d5bd14f71427d1e84f3dd0314c0f7b2291e5b200ac8c7c3b92560405160405180910390a45b505b5050600090815260046020526040902080546001600160a01b0319166001600160a01b0392909216919091179055565b6000806117af858585611946565b90506001600160a01b03811661180c5761180784600880546000838152600960205260408120829055600182018355919091527ff3f7a9fe364faab93b216da50a3214154f22a0a2b415b23a84c8169e8b636ee30155565b61182f565b846001600160a01b0316816001600160a01b03161461182f5761182f8185611a3f565b6001600160a01b03851661184b5761184684611ad0565b61113c565b846001600160a01b0316816001600160a01b03161461113c5761113c8585611b7f565b60008072184f03e93ff9f4daa797ed6e38ed64bf6a1f0160401b83106118ad5772184f03e93ff9f4daa797ed6e38ed64bf6a1f0160401b830492506040015b6d04ee2d6d415b85acef810000000083106118d9576d04ee2d6d415b85acef8100000000830492506020015b662386f26fc1000083106118f757662386f26fc10000830492506010015b6305f5e100831061190f576305f5e100830492506008015b612710831061192357612710830492506004015b60648310611935576064830492506002015b600a83106106d05760010192915050565b6000828152600260205260408120546001600160a01b039081169083161561197357611973818486611bcf565b6001600160a01b038116156119b15761199060008560008061169b565b6001600160a01b038116600090815260036020526040902080546000190190555b6001600160a01b038516156119e0576001600160a01b0385166000908152600360205260409020805460010190555b60008481526002602052604080822080546001600160a01b0319166001600160a01b0389811691821790925591518793918516917fddf252ad1be2c89b69c2b068fc378daa952ba7f163c4a11628f55a4df523b3ef91a4949350505050565b6000611a4a83610bf7565b600083815260076020526040902054909150808214611a9d576001600160a01b03841660009081526006602090815260408083208584528252808320548484528184208190558352600790915290208190555b5060009182526007602090815260408084208490556001600160a01b039094168352600681528383209183525290812055565b600854600090611ae290600190611fbc565b60008381526009602052604081205460088054939450909284908110611b0a57611b0a611fec565b906000526020600020015490508060088381548110611b2b57611b2b611fec565b6000918252602080832090910192909255828152600990915260408082208490558582528120556008805480611b6357611b636120f0565b6001900381819060005260206000200160009055905550505050565b60006001611b8c84610bf7565b611b969190611fbc565b6001600160a01b039093166000908152600660209081526040808320868452825280832085905593825260079052919091209190915550565b611bda838383611c33565b610b8e576001600160a01b038316611c0857604051637e27328960e01b815260048101829052602401610858565b60405163177e802f60e01b81526001600160a01b038316600482015260248101829052604401610858565b60006001600160a01b0383161580159061113c5750826001600160a01b0316846001600160a01b03161480611c6d5750611c6d84846111b9565b8061113c5750506000908152600460205260409020546001600160a01b03908116911614919050565b6001600160e01b031981168114611cac57600080fd5b50565b600060208284031215611cc157600080fd5b81356111b281611c96565b60005b83811015611ce7578181015183820152602001611ccf565b50506000910152565b60008151808452611d08816020860160208601611ccc565b601f01601f19169290920160200192915050565b6020815260006111b26020830184611cf0565b600060208284031215611d4157600080fd5b5035919050565b80356001600160a01b038116811461109b57600080fd5b60008060408385031215611d7257600080fd5b611d7b83611d48565b946020939093013593505050565b600080600060608486031215611d9e57600080fd5b611da784611d48565b9250611db560208501611d48565b9150604084013590509250925092565b600060208284031215611dd757600080fd5b6111b282611d48565b60008060408385031215611df357600080fd5b50508035926020909101359150565b8015158114611cac57600080fd5b60008060408385031215611e2357600080fd5b611e2c83611d48565b91506020830135611e3c81611e02565b809150509250929050565b634e487b7160e01b600052604160045260246000fd5b60008060008060808587031215611e7357600080fd5b611e7c85611d48565b9350611e8a60208601611d48565b925060408501359150606085013567ffffffffffffffff80821115611eae57600080fd5b818701915087601f830112611ec257600080fd5b813581811115611ed457611ed4611e47565b604051601f8201601f19908116603f01168101908382118183101715611efc57611efc611e47565b816040528281528a6020848701011115611f1557600080fd5b82602086016020830137600060208483010152809550505050505092959194509250565b60008060408385031215611f4c57600080fd5b611f5583611d48565b9150611f6360208401611d48565b90509250929050565b600181811c90821680611f8057607f821691505b602082108103611fa057634e487b7160e01b600052602260045260246000fd5b50919050565b634e487b7160e01b600052601160045260246000fd5b818103818111156106d0576106d0611fa6565b600060208284031215611fe157600080fd5b81516111b281611e02565b634e487b7160e01b600052603260045260246000fd5b80820281158282048414176106d0576106d0611fa6565b808201808211156106d0576106d0611fa6565b60006001820161203e5761203e611fa6565b5060010190565b60008261206257634e487b7160e01b600052601260045260246000fd5b500490565b60008351612079818460208801611ccc565b83519083019061208d818360208801611ccc565b01949350505050565b6001600160a01b03858116825284166020820152604081018390526080606082018190526000906120c990830184611cf0565b9695505050505050565b6000602082840312156120e557600080fd5b81516111b281611c96565b634e487b7160e01b600052603160045260246000fdfea2646970667358221220ab164e6b1ed9c15ecd0201c930f79c3e1e0e6972f7a7d92789fa442eebbdc23f64736f6c63430008140033","linkReferences":{}},"methodIdentifiers":{"FIFTEEN_DAYS()":"2cbcf2ff","FIFTEEN_DAYS_BONUS()":"696b3388","ONE_MONTH()":"20988cef","ONE_MONTH_BONUS()":"96c01a30","SIX_MONTHS()":"ba579c74","SIX_MONTHS_BONUS()":"c80156a9","THREE_MONTHS()":"ecbefab7","THREE_MONTHS_BONUS()":"c881acc7","_calculateRewards(uint256)":"bc0547e3","approve(address,uint256)":"095ea7b3","balanceOf(address)":"70a08231","claimReward(uint256)":"ae169a50","collectRevenue()":"ed14d17e","getApproved(uint256)":"081812fc","getStakeInfo(uint256)":"09813482","isApprovedForAll(address,address)":"e985e9c5","name()":"06fdde03","nextTokenId()":"75794a3c","ownerOf(uint256)":"6352211e","rewardIndex()":"e9ee2fa9","safeTransferFrom(address,address,uint256)":"42842e0e","safeTransferFrom(address,address,uint256,bytes)":"b88d4fde","setApprovalForAll(address,bool)":"a22cb465","stake(uint256,uint256)":"7b0472f0","stakeInfo(uint256)":"4e533572","stakingToken()":"72f702f3","supportsInterface(bytes4)":"01ffc9a7","symbol()":"95d89b41","tokenByIndex(uint256)":"4f6ccce7","tokenOfOwnerByIndex(address,uint256)":"2f745c59","tokenURI(uint256)":"c87b56dd","totalStaked()":"817b1cd2","totalSupply()":"18160ddd","transferFrom(address,address,uint256)":"23b872dd","unstake(uint256)":"2e17de78"},"id":59}