{"abi":[{"type":"constructor","inputs":[{"name":"_stakingToken","type":"address","internalType":"address"},{"name":"_tgeDate","type":"uint256","internalType":"uint256"}],"stateMutability":"nonpayable"},{"type":"function","name":"ADVISOR","inputs":[],"outputs":[{"name":"","type":"address","internalType":"address"}],"stateMutability":"view"},{"type":"function","name":"AIRDROP","inputs":[],"outputs":[{"name":"","type":"address","internalType":"address"}],"stateMutability":"view"},{"type":"function","name":"AIRDROP_AMOUNT","inputs":[],"outputs":[{"name":"","type":"uint256","internalType":"uint256"}],"stateMutability":"view"},{"type":"function","name":"DEVELOPMENT","inputs":[],"outputs":[{"name":"","type":"address","internalType":"address"}],"stateMutability":"view"},{"type":"function","name":"DEVELOPMENT_AMOUNT","inputs":[],"outputs":[{"name":"","type":"uint256","internalType":"uint256"}],"stateMutability":"view"},{"type":"function","name":"LIQUIDITY","inputs":[],"outputs":[{"name":"","type":"address","internalType":"address"}],"stateMutability":"view"},{"type":"function","name":"LIQUIDITY_AMOUNT","inputs":[],"outputs":[{"name":"","type":"uint256","internalType":"uint256"}],"stateMutability":"view"},{"type":"function","name":"MARKETING","inputs":[],"outputs":[{"name":"","type":"address","internalType":"address"}],"stateMutability":"view"},{"type":"function","name":"MARKETING_AMOUNT","inputs":[],"outputs":[{"name":"","type":"uint256","internalType":"uint256"}],"stateMutability":"view"},{"type":"function","name":"TEAM","inputs":[],"outputs":[{"name":"","type":"address","internalType":"address"}],"stateMutability":"view"},{"type":"function","name":"TEAM_AMOUNT","inputs":[],"outputs":[{"name":"","type":"uint256","internalType":"uint256"}],"stateMutability":"view"},{"type":"function","name":"TREASURY","inputs":[],"outputs":[{"name":"","type":"address","internalType":"address"}],"stateMutability":"view"},{"type":"function","name":"TREASURY_AMOUNT","inputs":[],"outputs":[{"name":"","type":"uint256","internalType":"uint256"}],"stateMutability":"view"},{"type":"function","name":"addAdvisor","inputs":[{"name":"advisor","type":"address","internalType":"address"},{"name":"amount","type":"uint256","internalType":"uint256"},{"name":"_cliffDuration","type":"uint256","internalType":"uint256"},{"name":"_vestingDuration","type":"uint256","internalType":"uint256"}],"outputs":[],"stateMutability":"nonpayable"},{"type":"function","name":"advisorVestingSchedule","inputs":[{"name":"","type":"address","internalType":"address"}],"outputs":[{"name":"cliffEnd","type":"uint256","internalType":"uint256"},{"name":"vestingEnd","type":"uint256","internalType":"uint256"},{"name":"totalAmount","type":"uint256","internalType":"uint256"}],"stateMutability":"view"},{"type":"function","name":"advisors","inputs":[{"name":"","type":"uint256","internalType":"uint256"}],"outputs":[{"name":"","type":"address","internalType":"address"}],"stateMutability":"view"},{"type":"function","name":"airdropLocks","inputs":[{"name":"","type":"uint256","internalType":"uint256"}],"outputs":[{"name":"","type":"uint256","internalType":"uint256"}],"stateMutability":"view"},{"type":"function","name":"allTimeRevenueCollected","inputs":[],"outputs":[{"name":"","type":"uint256","internalType":"uint256"}],"stateMutability":"view"},{"type":"function","name":"allTimeRewardsDistributed","inputs":[],"outputs":[{"name":"","type":"uint256","internalType":"uint256"}],"stateMutability":"view"},{"type":"function","name":"balance","inputs":[{"name":"","type":"address","internalType":"address"}],"outputs":[{"name":"","type":"uint256","internalType":"uint256"}],"stateMutability":"view"},{"type":"function","name":"calculateRewardsEarned","inputs":[{"name":"account","type":"address","internalType":"address"}],"outputs":[{"name":"","type":"uint256","internalType":"uint256"}],"stateMutability":"view"},{"type":"function","name":"claim","inputs":[],"outputs":[{"name":"","type":"uint256","internalType":"uint256"}],"stateMutability":"nonpayable"},{"type":"function","name":"collectRevenue","inputs":[],"outputs":[],"stateMutability":"payable"},{"type":"function","name":"developmentLocks","inputs":[{"name":"","type":"uint256","internalType":"uint256"}],"outputs":[{"name":"","type":"uint256","internalType":"uint256"}],"stateMutability":"view"},{"type":"function","name":"getUnlockedAmount","inputs":[{"name":"account","type":"address","internalType":"address"}],"outputs":[{"name":"","type":"uint256","internalType":"uint256"}],"stateMutability":"view"},{"type":"function","name":"lastUnstakeTime","inputs":[{"name":"","type":"address","internalType":"address"}],"outputs":[{"name":"","type":"uint256","internalType":"uint256"}],"stateMutability":"view"},{"type":"function","name":"marketingLocks","inputs":[{"name":"","type":"uint256","internalType":"uint256"}],"outputs":[{"name":"","type":"uint256","internalType":"uint256"}],"stateMutability":"view"},{"type":"function","name":"owner","inputs":[],"outputs":[{"name":"","type":"address","internalType":"address"}],"stateMutability":"view"},{"type":"function","name":"renounceOwnership","inputs":[],"outputs":[],"stateMutability":"nonpayable"},{"type":"function","name":"stake","inputs":[{"name":"amount","type":"uint256","internalType":"uint256"}],"outputs":[],"stateMutability":"nonpayable"},{"type":"function","name":"stakingToken","inputs":[],"outputs":[{"name":"","type":"address","internalType":"contract IERC20"}],"stateMutability":"view"},{"type":"function","name":"teamLocks","inputs":[{"name":"","type":"uint256","internalType":"uint256"}],"outputs":[{"name":"","type":"uint256","internalType":"uint256"}],"stateMutability":"view"},{"type":"function","name":"tgeDate","inputs":[],"outputs":[{"name":"","type":"uint256","internalType":"uint256"}],"stateMutability":"view"},{"type":"function","name":"totalSupply","inputs":[],"outputs":[{"name":"","type":"uint256","internalType":"uint256"}],"stateMutability":"view"},{"type":"function","name":"totalUnlockedAndClaimed","inputs":[{"name":"","type":"address","internalType":"address"}],"outputs":[{"name":"","type":"uint256","internalType":"uint256"}],"stateMutability":"view"},{"type":"function","name":"transferOwnership","inputs":[{"name":"newOwner","type":"address","internalType":"address"}],"outputs":[],"stateMutability":"nonpayable"},{"type":"function","name":"treasuryLocks","inputs":[{"name":"","type":"uint256","internalType":"uint256"}],"outputs":[{"name":"","type":"uint256","internalType":"uint256"}],"stateMutability":"view"},{"type":"function","name":"unstake","inputs":[],"outputs":[],"stateMutability":"nonpayable"},{"type":"function","name":"vestingSchedule","inputs":[{"name":"","type":"address","internalType":"address"}],"outputs":[{"name":"cliffEnd","type":"uint256","internalType":"uint256"},{"name":"vestingEnd","type":"uint256","internalType":"uint256"},{"name":"totalAmount","type":"uint256","internalType":"uint256"}],"stateMutability":"view"},{"type":"event","name":"OwnershipTransferred","inputs":[{"name":"previousOwner","type":"address","indexed":true,"internalType":"address"},{"name":"newOwner","type":"address","indexed":true,"internalType":"address"}],"anonymous":false},{"type":"error","name":"OwnableInvalidOwner","inputs":[{"name":"owner","type":"address","internalType":"address"}]},{"type":"error","name":"OwnableUnauthorizedAccount","inputs":[{"name":"account","type":"address","internalType":"address"}]},{"type":"error","name":"ReentrancyGuardReentrantCall","inputs":[]}],"bytecode":{"object":"0x60a0346200047d576200199c601f38829003908101601f19168301906001600160401b038211848310176200048257808491604094859485528339810103126200047d5781516001600160a01b038082169390918490036200047d576020809101513315620004655760008054336001600160a01b03198216811783559194167f8be0079c531659141344cd1fd0a4f28419497f9722a3daafe3b4186f6b6457e08580a3600190818055620000b362000498565b6301e133808082526303c2670091828682015284875b600281106200044b57505050620000df62000498565b908152818582015283865b6002811062000431575050506200010062000498565b9062278d0091828152818682015284875b6002811062000417575050506200012762000498565b908282528582015283865b60028110620003fd575050506200014862000498565b9080825284820152845b60028110620003e55750506002939495608052806018558362000192600a546200018c620001818286620004d8565b94600b5490620004d8565b620004d8565b6200019c620004b8565b928352848301908152878301906a7c13bc4b2c133c56000000825273ffff2a9e9a7e8b738e3a18538cffbc101a397419885260158652888820935184555184840155519101556018548362000208600c546200018c620001fd8286620004d8565b94600d5490620004d8565b62000212620004b8565b928352848301908152878301906aa56fa5b99019a5c8000000825273a902ffcc625d8dcacaf08d00f96b32c5d6a6ebe788526015865288882093518455518484015551910155601854836200027e600e546200018c620002738286620004d8565b94600f5490620004d8565b62000288620004b8565b928352848301908152878301906a422ca8b0a00a4250000000825273dcb265a5ce660611bc1da882d8a42733d88c13238852601586528888209351845551848401555191015560185483620002f46010546200018c620002e98286620004d8565b9460115490620004d8565b620002fe620004b8565b928352848301908152878301906a4a723dc6b40b8a9a000000825273bd7784d02c6590e68fed3098e354e7cbd232adc48852601586528888209351845551848401555191015560185493856200036b6012546200018c62000360828a620004d8565b9860135490620004d8565b9162000376620004b8565b9687528487019283526015828801956a18d0bf423c03d8de000000875273538c08af3e3cd67eeb4fb45970d3520f58537ba483525220945185555190840155519101555161149f9081620004fd8239608051818181610533015281816108a701528181610a840152610ea30152f35b815162ffffff16601282015590840190830162000152565b8663ffffffff845116930192816010015501849062000132565b8763ffffffff84511693019281600e015501859062000111565b8663ffffffff84511693019281600c0155018490620000ea565b8763ffffffff84511693019281600a0155018590620000c9565b8351631e4fbdf760e01b815260006004820152602490fd5b600080fd5b634e487b7160e01b600052604160045260246000fd5b60408051919082016001600160401b038111838210176200048257604052565b60405190606082016001600160401b038111838210176200048257604052565b91908201809211620004e657565b634e487b7160e01b600052601160045260246000fdfe608060408181526004918236101561001657600080fd5b600092833560e01c918263109bc4a714610d365750816318160ddd14610d185781631dece9d714610cec5781631e0783c014610ccd5781631fa0d62114610c9e5781632484dc0814610c7f5781632861c7d114610c505781632b5b687214610c2a5781632c84a54014610c0b5781632d2c556514610bdc5781632def662014610a06578163331e03a8146109ce578163420d4a02146109a85781634e71d92d1461098b578163514a5c051461095f578163661e7ac414610930578163715018a6146108d657816372f702f3146108925781637fbd1b5a1461086c57816384776a2d1461083d57816387b18193146108115781638918ac82146107eb5781638b086764146107a05781638b32f62a1461077a5781638da5cb5b1461075257816390298ab91461072c578163a07929d114610700578163a694fc3a14610496578163b5bfea6614610470578163bb88d0a614610444578163cecdc6aa14610415578163cfd108af146103dd578163d1521d4314610381578163d42f5f3c14610340578163e3d670d714610308578163e530a7d0146102d9578163ed14d17e146102bf578163f2fde38b14610234575063ffff6b04146101d257600080fd5b34610230576020366003190112610230579081906001600160a01b036101f6610fed565b1681526015602052209061022c825491600260018501549401549051938493846040919493926060820195825260208201520152565b0390f35b5080fd5b9050346102bb5760203660031901126102bb5761024f610fed565b90610258611055565b6001600160a01b039182169283156102a557505082546001600160a01b0319811683178455167f8be0079c531659141344cd1fd0a4f28419497f9722a3daafe3b4186f6b6457e08380a380f35b51631e4fbdf760e01b8152908101849052602490fd5b8280fd5b83806003193601126102d6576102d3611181565b80f35b80fd5b5050346102305781600319360112610230576020905173bd7784d02c6590e68fed3098e354e7cbd232adc48152f35b5050346102305760203660031901126102305760209181906001600160a01b03610330610fed565b1681526002845220549051908152f35b9050346102bb5760203660031901126102bb5735916017548310156102d6575061036b602092611008565b905491519160018060a01b039160031b1c168152f35b505034610230576020366003190112610230579081906001600160a01b036103a7610fed565b1681526014602052209061022c825491600260018501549401549051938493846040919493926060820195825260208201520152565b5050346102305760203660031901126102305760209181906001600160a01b03610405610fed565b1681526016845220549051908152f35b5050346102305781600319360112610230576020905173ffff2a9e9a7e8b738e3a18538cffbc101a3974198152f35b9050346102bb5760203660031901126102bb573560028110156102bb5760209250600a01549051908152f35b505034610230578160031936011261023057602090516a4a723dc6b40b8a9a0000008152f35b838334610230576020806003193601126102bb5783359373ffff2a9e9a7e8b738e3a18538cffbc101a397419331480156106e3575b80156106c6575b80156106a9575b801561068c575b8015610676575b156106355784836104f7336113ec565b0151036105e85782516323b872dd60e01b81523382820190815230602082015260408101879052949586959091908490829081906060010381897f00000000000000000000000000000000000000000000000000000000000000006001600160a01b03165af19081156105de579161057e6105a592601696959489916105b1575b50611110565b610587336113aa565b3387526002845285872061059c828254611081565b90558254611081565b90553384525281205580f35b6105d19150863d88116105d7575b6105c981836110d6565b8101906110f8565b8a610578565b503d6105bf565b85513d88823e3d90fd5b915162461bcd60e51b8152918201526024808201527f416d6f756e7420646f6573206e6f74206d617463682076657374696e6720616d6044820152631bdd5b9d60e21b6064820152608490fd5b915162461bcd60e51b815291820152601860248201527f4e6f7420656c696769626c6520666f722076657374696e6700000000000000006044820152606490fd5b50338452601482526001838520015415156104e7565b5073538c08af3e3cd67eeb4fb45970d3520f58537ba433146104e0565b5073bd7784d02c6590e68fed3098e354e7cbd232adc433146104d9565b5073dcb265a5ce660611bc1da882d8a42733d88c132333146104d2565b5073a902ffcc625d8dcacaf08d00f96b32c5d6a6ebe733146104cb565b9050346102bb5760203660031901126102bb573560028110156102bb5760209250601201549051908152f35b505034610230578160031936011261023057602090516a422ca8b0a00a42500000008152f35b505034610230578160031936011261023057905490516001600160a01b039091168152602090f35b505034610230578160031936011261023057602090516a7c13bc4b2c133c560000008152f35b505034610230576020366003190112610230576107e46020926107de836107c5610fed565b6001600160a01b03811684526007875292205491611367565b90611081565b9051908152f35b505034610230578160031936011261023057602090516a3b8e97d229a2d5480000008152f35b9050346102bb5760203660031901126102bb573560028110156102bb5760209250600c01549051908152f35b505034610230578160031936011261023057602090517384dc3e5ec35a358742bf6fb2461104856439ea6c8152f35b505034610230578160031936011261023057602090516aa56fa5b99019a5c80000008152f35b505034610230578160031936011261023057517f00000000000000000000000000000000000000000000000000000000000000006001600160a01b03168152602090f35b83346102d657806003193601126102d6576108ef611055565b80546001600160a01b03198116825581906001600160a01b03167f8be0079c531659141344cd1fd0a4f28419497f9722a3daafe3b4186f6b6457e08280a380f35b5050346102305781600319360112610230576020905173dcb265a5ce660611bc1da882d8a42733d88c13238152f35b9050346102bb5760203660031901126102bb573560028110156102bb5760209250601001549051908152f35b5050346102305781600319360112610230576020906107e46111dc565b505034610230576020366003190112610230576020906107e46109c9610fed565b6112cd565b5050346102305760203660031901126102305760209181906001600160a01b036109f6610fed565b1681526003845220549051908152f35b919050346102bb57826003193601126102bb57600260015414610bcf5760026001553383526020600281528184205415610b9d57610a43336112cd565b92610a4d336113ec565b51421115610b5c578315610b2657610a636111dc565b50825163a9059cbb60e01b81523382820152602481018590528281604481897f00000000000000000000000000000000000000000000000000000000000000006001600160a01b03165af18015610b1c5791610af6949391601693610aff575b5033875260028252838720610ad98782546111cf565b9055610ae68682546111cf565b9055338652528320918254611081565b90556001805580f35b610b1590833d85116105d7576105c981836110d6565b5038610ac3565b84513d88823e3d90fd5b915162461bcd60e51b8152918201526012602482015271139bc81d5b9b1bd8dad95908185b5bdd5b9d60721b6044820152606490fd5b915162461bcd60e51b815291820152601860248201527f436c69666620706572696f64206e6f74207265616368656400000000000000006044820152606490fd5b905162461bcd60e51b815291820152600e60248201526d139bdd081cdd185ad959081e595d60921b6044820152606490fd5b51633ee5aeb560e01b8152fd5b5050346102305781600319360112610230576020905173a902ffcc625d8dcacaf08d00f96b32c5d6a6ebe78152f35b5050346102305781600319360112610230576020906009549051908152f35b505034610230578160031936011261023057602090516a18d0bf423c03d8de0000008152f35b50503461023057816003193601126102305760209051736f72b3530271be8ae09cee65d05836e9720df8808152f35b5050346102305781600319360112610230576020906018549051908152f35b5050346102305781600319360112610230576020905173538c08af3e3cd67eeb4fb45970d3520f58537ba48152f35b5050346102305781600319360112610230576020906008549051908152f35b9050346102bb5760203660031901126102bb573560028110156102bb5760209250600e01549051908152f35b9050346102bb57826003193601126102bb5760209250549051908152f35b915034610fe9576080366003190112610fe957610d51610fed565b60243591604435606435947384dc3e5ec35a358742bf6fb2461104856439ea6c3303610f9a575060018060a01b039283811691828952602096601488526001898b200154610f5f578015610f1c5760175468010000000000000000811015610f0957928896949260028c610e05610e3c95610dd7896001610e9f9f9d9b01601755611008565b81549060031b908c8b831b921b1916179055610e0060185495610dfa8188611081565b96611081565b611081565b8d5193610e11856110a4565b84528a84019081528d808501928b845288815260148d522093518455516001840155519101556113aa565b80895260028552878920610e51858254611081565b9055610e5e848354611081565b825588526016845286882088905586516323b872dd60e01b815233918101918252306020830152604082019390935291938492839189918391606090910190565b03927f0000000000000000000000000000000000000000000000000000000000000000165af1918215610efc576102d393508492610edf575b5050611110565b610ef59250803d106105d7576105c981836110d6565b3880610ed8565b50505051903d90823e3d90fd5b634e487b7160e01b8b526041865260248bfd5b885162461bcd60e51b8152808601899052601860248201527f496e76616c69642076657374696e67206475726174696f6e00000000000000006044820152606490fd5b885162461bcd60e51b8152808601899052601560248201527410591d9a5cdbdc88185b1c9958591e481859191959605a1b6044820152606490fd5b62461bcd60e51b8152602083820152602560248201527f4f6e6c792061647669736f72792063616e2061646420616e6f746865722061646044820152643b34b9b7b960d91b6064820152608490fd5b8380fd5b600435906001600160a01b038216820361100357565b600080fd5b60175481101561103f5760176000527fc624b66cc0138b8fabc209247f72d758e1cf3343756d543badbf24212bed8c150190600090565b634e487b7160e01b600052603260045260246000fd5b6000546001600160a01b0316330361106957565b60405163118cdaa760e01b8152336004820152602490fd5b9190820180921161108e57565b634e487b7160e01b600052601160045260246000fd5b6060810190811067ffffffffffffffff8211176110c057604052565b634e487b7160e01b600052604160045260246000fd5b90601f8019910116810190811067ffffffffffffffff8211176110c057604052565b90816020910312611003575180151581036110035790565b1561111757565b60405162461bcd60e51b815260206004820152600f60248201526e151c985b9cd9995c8819985a5b1959608a1b6044820152606490fd5b8181029291811591840414171561108e57565b811561116b570490565b634e487b7160e01b600052601260045260246000fd5b60045480156111cc57670de0b6b3a764000080340290348204143415171561108e576111b8916111b091611161565b600554611081565b6005556111c734600854611081565b600855565b50565b9190820391821161108e57565b6000903382526002602052604082205415611294576111fa336113aa565b3382526007602052604082208054908161121357509150565b839055828080808433620f4240f13d15611288573d67ffffffffffffffff811161127457611262929394604051916112556020601f19601f84011601846110d6565b825260203d92013e611110565b61126e81600954611081565b60095590565b634e487b7160e01b85526041600452602485fd5b61126291929350611110565b60405162461bcd60e51b81526020600482015260116024820152704e6f74207374616b656420796574203a2960781b6044820152606490fd5b6112d6816113ec565b80518042106000146112ea57505050600090565b6020820151428111611314575050506001600160a01b031660009081526002602052604090205490565b9161133f6113296113449361136496956111cf565b9160406113378251426111cf565b91015161114e565b611161565b6001600160a01b03909116600090815260166020526040902054906111cf565b90565b60018060a01b03166000526002602052670de0b6b3a76400006113a66040600020546113a06005546006602052604060002054906111cf565b9061114e565b0490565b6113b381611367565b9060018060a01b0316908160005260076020526113d66040600020918254611081565b9055600554906000526006602052604060002055565b60406002818051936113fd856110a4565b600080865260208087018290529583018190526001600160a01b039091168082526014865282822060010154156114575781526014855220825193611441856110a4565b8154855260018201549085015201549082015290565b506015855220825193611441856110a456fea2646970667358221220ef95e44d85a74d8dd6287ccf2d9d899cf3ff43ea5891c96f4ee4b74c33ce992364736f6c63430008140033","linkReferences":{}},"methodIdentifiers":{"ADVISOR()":"84776a2d","AIRDROP()":"1fa0d621","AIRDROP_AMOUNT()":"2b5b6872","DEVELOPMENT()":"661e7ac4","DEVELOPMENT_AMOUNT()":"90298ab9","LIQUIDITY()":"2861c7d1","LIQUIDITY_AMOUNT()":"8918ac82","MARKETING()":"e530a7d0","MARKETING_AMOUNT()":"b5bfea66","TEAM()":"cecdc6aa","TEAM_AMOUNT()":"8b32f62a","TREASURY()":"2d2c5565","TREASURY_AMOUNT()":"7fbd1b5a","addAdvisor(address,uint256,uint256,uint256)":"109bc4a7","advisorVestingSchedule(address)":"d1521d43","advisors(uint256)":"d42f5f3c","airdropLocks(uint256)":"a07929d1","allTimeRevenueCollected()":"1e0783c0","allTimeRewardsDistributed()":"2c84a540","balance(address)":"e3d670d7","calculateRewardsEarned(address)":"8b086764","claim()":"4e71d92d","collectRevenue()":"ed14d17e","developmentLocks(uint256)":"1dece9d7","getUnlockedAmount(address)":"420d4a02","lastUnstakeTime(address)":"331e03a8","marketingLocks(uint256)":"514a5c05","owner()":"8da5cb5b","renounceOwnership()":"715018a6","stake(uint256)":"a694fc3a","stakingToken()":"72f702f3","teamLocks(uint256)":"bb88d0a6","tgeDate()":"2484dc08","totalSupply()":"18160ddd","totalUnlockedAndClaimed(address)":"cfd108af","transferOwnership(address)":"f2fde38b","treasuryLocks(uint256)":"87b18193","unstake()":"2def6620","vestingSchedule(address)":"ffff6b04"},"id":58}