{"abi":[{"type":"constructor","inputs":[{"name":"_stakingToken","type":"address","internalType":"address"},{"name":"_tgeDate","type":"uint256","internalType":"uint256"}],"stateMutability":"nonpayable"},{"type":"function","name":"ADVISOR","inputs":[],"outputs":[{"name":"","type":"address","internalType":"address"}],"stateMutability":"view"},{"type":"function","name":"AIRDROP","inputs":[],"outputs":[{"name":"","type":"address","internalType":"address"}],"stateMutability":"view"},{"type":"function","name":"AIRDROP_AMOUNT","inputs":[],"outputs":[{"name":"","type":"uint256","internalType":"uint256"}],"stateMutability":"view"},{"type":"function","name":"DEVELOPMENT","inputs":[],"outputs":[{"name":"","type":"address","internalType":"address"}],"stateMutability":"view"},{"type":"function","name":"DEVELOPMENT_AMOUNT","inputs":[],"outputs":[{"name":"","type":"uint256","internalType":"uint256"}],"stateMutability":"view"},{"type":"function","name":"LIQUIDITY","inputs":[],"outputs":[{"name":"","type":"address","internalType":"address"}],"stateMutability":"view"},{"type":"function","name":"LIQUIDITY_AMOUNT","inputs":[],"outputs":[{"name":"","type":"uint256","internalType":"uint256"}],"stateMutability":"view"},{"type":"function","name":"MARKETING","inputs":[],"outputs":[{"name":"","type":"address","internalType":"address"}],"stateMutability":"view"},{"type":"function","name":"MARKETING_AMOUNT","inputs":[],"outputs":[{"name":"","type":"uint256","internalType":"uint256"}],"stateMutability":"view"},{"type":"function","name":"TEAM","inputs":[],"outputs":[{"name":"","type":"address","internalType":"address"}],"stateMutability":"view"},{"type":"function","name":"TEAM_AMOUNT","inputs":[],"outputs":[{"name":"","type":"uint256","internalType":"uint256"}],"stateMutability":"view"},{"type":"function","name":"TREASURY","inputs":[],"outputs":[{"name":"","type":"address","internalType":"address"}],"stateMutability":"view"},{"type":"function","name":"TREASURY_AMOUNT","inputs":[],"outputs":[{"name":"","type":"uint256","internalType":"uint256"}],"stateMutability":"view"},{"type":"function","name":"addAdvisor","inputs":[{"name":"advisor","type":"address","internalType":"address"},{"name":"amount","type":"uint256","internalType":"uint256"},{"name":"_cliffDuration","type":"uint256","internalType":"uint256"},{"name":"_vestingDuration","type":"uint256","internalType":"uint256"}],"outputs":[],"stateMutability":"nonpayable"},{"type":"function","name":"advisorVestingSchedule","inputs":[{"name":"","type":"address","internalType":"address"}],"outputs":[{"name":"cliffEnd","type":"uint256","internalType":"uint256"},{"name":"vestingEnd","type":"uint256","internalType":"uint256"},{"name":"totalAmount","type":"uint256","internalType":"uint256"}],"stateMutability":"view"},{"type":"function","name":"advisors","inputs":[{"name":"","type":"uint256","internalType":"uint256"}],"outputs":[{"name":"","type":"address","internalType":"address"}],"stateMutability":"view"},{"type":"function","name":"airdropLocks","inputs":[{"name":"","type":"uint256","internalType":"uint256"}],"outputs":[{"name":"","type":"uint256","internalType":"uint256"}],"stateMutability":"view"},{"type":"function","name":"allTimeRevenueCollected","inputs":[],"outputs":[{"name":"","type":"uint256","internalType":"uint256"}],"stateMutability":"view"},{"type":"function","name":"allTimeRewardsDistributed","inputs":[],"outputs":[{"name":"","type":"uint256","internalType":"uint256"}],"stateMutability":"view"},{"type":"function","name":"balance","inputs":[{"name":"","type":"address","internalType":"address"}],"outputs":[{"name":"","type":"uint256","internalType":"uint256"}],"stateMutability":"view"},{"type":"function","name":"calculateRewardsEarned","inputs":[{"name":"account","type":"address","internalType":"address"}],"outputs":[{"name":"","type":"uint256","internalType":"uint256"}],"stateMutability":"view"},{"type":"function","name":"claim","inputs":[],"outputs":[{"name":"","type":"uint256","internalType":"uint256"}],"stateMutability":"nonpayable"},{"type":"function","name":"collectRevenue","inputs":[],"outputs":[],"stateMutability":"payable"},{"type":"function","name":"developmentLocks","inputs":[{"name":"","type":"uint256","internalType":"uint256"}],"outputs":[{"name":"","type":"uint256","internalType":"uint256"}],"stateMutability":"view"},{"type":"function","name":"getUnlockedAmount","inputs":[{"name":"account","type":"address","internalType":"address"}],"outputs":[{"name":"","type":"uint256","internalType":"uint256"}],"stateMutability":"view"},{"type":"function","name":"lastUnstakeTime","inputs":[{"name":"","type":"address","internalType":"address"}],"outputs":[{"name":"","type":"uint256","internalType":"uint256"}],"stateMutability":"view"},{"type":"function","name":"marketingLocks","inputs":[{"name":"","type":"uint256","internalType":"uint256"}],"outputs":[{"name":"","type":"uint256","internalType":"uint256"}],"stateMutability":"view"},{"type":"function","name":"owner","inputs":[],"outputs":[{"name":"","type":"address","internalType":"address"}],"stateMutability":"view"},{"type":"function","name":"renounceOwnership","inputs":[],"outputs":[],"stateMutability":"nonpayable"},{"type":"function","name":"stake","inputs":[{"name":"amount","type":"uint256","internalType":"uint256"}],"outputs":[],"stateMutability":"nonpayable"},{"type":"function","name":"stakingToken","inputs":[],"outputs":[{"name":"","type":"address","internalType":"contract IERC20"}],"stateMutability":"view"},{"type":"function","name":"teamLocks","inputs":[{"name":"","type":"uint256","internalType":"uint256"}],"outputs":[{"name":"","type":"uint256","internalType":"uint256"}],"stateMutability":"view"},{"type":"function","name":"tgeDate","inputs":[],"outputs":[{"name":"","type":"uint256","internalType":"uint256"}],"stateMutability":"view"},{"type":"function","name":"totalSupply","inputs":[],"outputs":[{"name":"","type":"uint256","internalType":"uint256"}],"stateMutability":"view"},{"type":"function","name":"totalUnlockedAndClaimed","inputs":[{"name":"","type":"address","internalType":"address"}],"outputs":[{"name":"","type":"uint256","internalType":"uint256"}],"stateMutability":"view"},{"type":"function","name":"transferOwnership","inputs":[{"name":"newOwner","type":"address","internalType":"address"}],"outputs":[],"stateMutability":"nonpayable"},{"type":"function","name":"treasuryLocks","inputs":[{"name":"","type":"uint256","internalType":"uint256"}],"outputs":[{"name":"","type":"uint256","internalType":"uint256"}],"stateMutability":"view"},{"type":"function","name":"unstake","inputs":[],"outputs":[],"stateMutability":"nonpayable"},{"type":"function","name":"vestingSchedule","inputs":[{"name":"","type":"address","internalType":"address"}],"outputs":[{"name":"cliffEnd","type":"uint256","internalType":"uint256"},{"name":"vestingEnd","type":"uint256","internalType":"uint256"},{"name":"totalAmount","type":"uint256","internalType":"uint256"}],"stateMutability":"view"},{"type":"event","name":"OwnershipTransferred","inputs":[{"name":"previousOwner","type":"address","indexed":true,"internalType":"address"},{"name":"newOwner","type":"address","indexed":true,"internalType":"address"}],"anonymous":false},{"type":"error","name":"OwnableInvalidOwner","inputs":[{"name":"owner","type":"address","internalType":"address"}]},{"type":"error","name":"OwnableUnauthorizedAccount","inputs":[{"name":"account","type":"address","internalType":"address"}]},{"type":"error","name":"ReentrancyGuardReentrantCall","inputs":[]}],"bytecode":{"object":"0x60e06040526301e1338060a09081526303c2670060c0526200002690600a9060026200062b565b50604080518082019091526301e1338081526303c2670060208201526200005290600c9060026200062b565b506040805180820190915262278d0081526303c2670060208201526200007d90600e9060026200062b565b506040805180820190915262278d0081526303c267006020820152620000a89060109060026200062b565b506040805180820190915262278d008082526020820152620000cf90601290600262000676565b50348015620000dd57600080fd5b5060405162001d9638038062001d968339810160408190526200010091620006c5565b33806200012757604051631e4fbdf760e01b81526000600482015260240160405180910390fd5b62000132816200015b565b50600180556001600160a01b038216608052601881905562000153620001ab565b505062000729565b600080546001600160a01b038381166001600160a01b0319831681178455604051919092169283917f8be0079c531659141344cd1fd0a4f28419497f9722a3daafe3b4186f6b6457e09190a35050565b6040805160608101909152600a546018548291620001c99162000701565b8152600a54600b54601854602090930192620001e6919062000701565b620001f2919062000701565b81526a7c13bc4b2c133c5600000060209182015273ffff2a9e9a7e8b738e3a18538cffbc101a3974196000526015815281517ff08dd71cb1427c7fa78c129905a6299c60ef6edb3e22569fb7a818f7b9340e97558101517ff08dd71cb1427c7fa78c129905a6299c60ef6edb3e22569fb7a818f7b9340e98556040908101517ff08dd71cb1427c7fa78c129905a6299c60ef6edb3e22569fb7a818f7b9340e9955805160608101909152600c546018548291620002af9162000701565b8152600c54600d54601854602090930192620002cc919062000701565b620002d8919062000701565b81526aa56fa5b99019a5c800000060209182015273a902ffcc625d8dcacaf08d00f96b32c5d6a6ebe76000526015815281517f5e14c69c61c434fd15cdd7b70ffd8227ecc657169ee19cbf2e38b4ea61339781558101517f5e14c69c61c434fd15cdd7b70ffd8227ecc657169ee19cbf2e38b4ea61339782556040908101517f5e14c69c61c434fd15cdd7b70ffd8227ecc657169ee19cbf2e38b4ea6133978355805160608101909152600e546018548291620003959162000701565b8152600e54600f54601854602090930192620003b2919062000701565b620003be919062000701565b81526a422ca8b0a00a425000000060209182015273dcb265a5ce660611bc1da882d8a42733d88c13236000526015815281517fa3a4ddf1efc0be3a4ab3021a9888e14acbec483f3cf438bf2fdc0f808bd0265e558101517fa3a4ddf1efc0be3a4ab3021a9888e14acbec483f3cf438bf2fdc0f808bd0265f556040908101517fa3a4ddf1efc0be3a4ab3021a9888e14acbec483f3cf438bf2fdc0f808bd026605580516060810190915260105460185482916200047b9162000701565b815260105460115460185460209093019262000498919062000701565b620004a4919062000701565b81526a4a723dc6b40b8a9a00000060209182015273bd7784d02c6590e68fed3098e354e7cbd232adc46000526015815281517ffca04cb4064292f4e4db9a9714e471ffe0f2e70f1a21ed566fd739685ac4b632558101517ffca04cb4064292f4e4db9a9714e471ffe0f2e70f1a21ed566fd739685ac4b633556040908101517ffca04cb4064292f4e4db9a9714e471ffe0f2e70f1a21ed566fd739685ac4b634558051606081019091526012546018548291620005619162000701565b81526012546013546018546020909301926200057e919062000701565b6200058a919062000701565b81526a18d0bf423c03d8de00000060209182015273538c08af3e3cd67eeb4fb45970d3520f58537ba46000526015815281517f7b63e3d961c736a4a9e561dab9013599d3c66a3aa65249908d3872cbcfcc9d53558101517f7b63e3d961c736a4a9e561dab9013599d3c66a3aa65249908d3872cbcfcc9d5455604001517f7b63e3d961c736a4a9e561dab9013599d3c66a3aa65249908d3872cbcfcc9d5555565b826002810192821562000664579160200282015b8281111562000664578251829063ffffffff169055916020019190600101906200063f565b5062000672929150620006ae565b5090565b826002810192821562000664579160200282015b8281111562000664578251829062ffffff169055916020019190600101906200068a565b5b80821115620006725760008155600101620006af565b60008060408385031215620006d957600080fd5b82516001600160a01b0381168114620006f157600080fd5b6020939093015192949293505050565b808201808211156200072357634e487b7160e01b600052601160045260246000fd5b92915050565b60805161163c6200075a6000396000818161047701528181610a1301528181610be00152610fea015261163c6000f3fe6080604052600436106102305760003560e01c806384776a2d1161012e578063bb88d0a6116100ab578063e3d670d71161006f578063e3d670d7146106e6578063e530a7d014610713578063ed14d17e1461073b578063f2fde38b14610743578063ffff6b041461076357600080fd5b8063bb88d0a6146105fa578063cecdc6aa1461061a578063cfd108af14610642578063d1521d431461066f578063d42f5f3c146106c657600080fd5b80638da5cb5b116100f25780638da5cb5b1461055e57806390298ab91461057c578063a07929d11461059b578063a694fc3a146105bb578063b5bfea66146105db57600080fd5b806384776a2d146104b857806387b18193146104e05780638918ac82146105005780638b0867641461051f5780638b32f62a1461053f57600080fd5b80632d2c5565116101bc578063514a5c0511610180578063514a5c0514610408578063661e7ac414610428578063715018a61461045057806372f702f3146104655780637fbd1b5a1461049957600080fd5b80632d2c5565146103695780632def662014610391578063331e03a8146103a6578063420d4a02146103d35780634e71d92d146103f357600080fd5b80631fa0d621116102035780631fa0d621146102b65780632484dc08146102f65780632861c7d11461030c5780632b5b6872146103345780632c84a5401461035357600080fd5b8063109bc4a71461023557806318160ddd146102575780631dece9d7146102805780631e0783c0146102a0575b600080fd5b34801561024157600080fd5b506102556102503660046114d9565b61079f565b005b34801561026357600080fd5b5061026d60045481565b6040519081526020015b60405180910390f35b34801561028c57600080fd5b5061026d61029b366004611512565b610aa6565b3480156102ac57600080fd5b5061026d60085481565b3480156102c257600080fd5b506102de73538c08af3e3cd67eeb4fb45970d3520f58537ba481565b6040516001600160a01b039091168152602001610277565b34801561030257600080fd5b5061026d60185481565b34801561031857600080fd5b506102de736f72b3530271be8ae09cee65d05836e9720df88081565b34801561034057600080fd5b5061026d6a18d0bf423c03d8de00000081565b34801561035f57600080fd5b5061026d60095481565b34801561037557600080fd5b506102de73a902ffcc625d8dcacaf08d00f96b32c5d6a6ebe781565b34801561039d57600080fd5b50610255610abd565b3480156103b257600080fd5b5061026d6103c136600461152b565b60036020526000908152604090205481565b3480156103df57600080fd5b5061026d6103ee36600461152b565b610cc0565b3480156103ff57600080fd5b5061026d610d84565b34801561041457600080fd5b5061026d610423366004611512565b610e8e565b34801561043457600080fd5b506102de73dcb265a5ce660611bc1da882d8a42733d88c132381565b34801561045c57600080fd5b50610255610e9e565b34801561047157600080fd5b506102de7f000000000000000000000000000000000000000000000000000000000000000081565b3480156104a557600080fd5b5061026d6aa56fa5b99019a5c800000081565b3480156104c457600080fd5b506102de7384dc3e5ec35a358742bf6fb2461104856439ea6c81565b3480156104ec57600080fd5b5061026d6104fb366004611512565b610eb0565b34801561050c57600080fd5b5061026d6a3b8e97d229a2d54800000081565b34801561052b57600080fd5b5061026d61053a36600461152b565b610ec0565b34801561054b57600080fd5b5061026d6a7c13bc4b2c133c5600000081565b34801561056a57600080fd5b506000546001600160a01b03166102de565b34801561058857600080fd5b5061026d6a422ca8b0a00a425000000081565b3480156105a757600080fd5b5061026d6105b6366004611512565b610ef4565b3480156105c757600080fd5b506102556105d6366004611512565b610f04565b3480156105e757600080fd5b5061026d6a4a723dc6b40b8a9a00000081565b34801561060657600080fd5b5061026d610615366004611512565b6110d9565b34801561062657600080fd5b506102de73ffff2a9e9a7e8b738e3a18538cffbc101a39741981565b34801561064e57600080fd5b5061026d61065d36600461152b565b60166020526000908152604090205481565b34801561067b57600080fd5b506106ab61068a36600461152b565b60146020526000908152604090208054600182015460029092015490919083565b60408051938452602084019290925290820152606001610277565b3480156106d257600080fd5b506102de6106e1366004611512565b6110e9565b3480156106f257600080fd5b5061026d61070136600461152b565b60026020526000908152604090205481565b34801561071f57600080fd5b506102de73bd7784d02c6590e68fed3098e354e7cbd232adc481565b610255611113565b34801561074f57600080fd5b5061025561075e36600461152b565b611173565b34801561076f57600080fd5b506106ab61077e36600461152b565b60156020526000908152604090208054600182015460029092015490919083565b337384dc3e5ec35a358742bf6fb2461104856439ea6c146108155760405162461bcd60e51b815260206004820152602560248201527f4f6e6c792061647669736f72792063616e2061646420616e6f746865722061646044820152643b34b9b7b960d91b60648201526084015b60405180910390fd5b6001600160a01b038416600090815260146020526040902060010154156108765760405162461bcd60e51b815260206004820152601560248201527410591d9a5cdbdc88185b1c9958591e481859191959605a1b604482015260640161080c565b600081116108c65760405162461bcd60e51b815260206004820152601860248201527f496e76616c69642076657374696e67206475726174696f6e0000000000000000604482015260640161080c565b601780546001810182556000919091527fc624b66cc0138b8fabc209247f72d758e1cf3343756d543badbf24212bed8c150180546001600160a01b0319166001600160a01b0386161790556040805160608101909152601854819061092c90859061155c565b81526020018284601854610940919061155c565b61094a919061155c565b815260209081018590526001600160a01b03861660009081526014825260409081902083518155918301516001830155919091015160029091015561098e846111b1565b6001600160a01b038416600090815260026020526040812080548592906109b690849061155c565b9250508190555082600460008282546109cf919061155c565b90915550506001600160a01b03848116600090815260166020526040808220829055516323b872dd60e01b81523360048201523060248201526044810186905290917f000000000000000000000000000000000000000000000000000000000000000016906323b872dd906064016020604051808303816000875af1158015610a5c573d6000803e3d6000fd5b505050506040513d601f19601f82011682018060405250810190610a80919061156f565b905080610a9f5760405162461bcd60e51b815260040161080c90611591565b5050505050565b600e8160028110610ab657600080fd5b0154905081565b610ac5611206565b33600090815260026020526040902054610b125760405162461bcd60e51b815260206004820152600e60248201526d139bdd081cdd185ad959081e595d60921b604482015260640161080c565b6000610b1d33610cc0565b9050610b2833611230565b4211610b765760405162461bcd60e51b815260206004820152601860248201527f436c69666620706572696f64206e6f7420726561636865640000000000000000604482015260640161080c565b60008111610bbb5760405162461bcd60e51b8152602060048201526012602482015271139bc81d5b9b1bd8dad95908185b5bdd5b9d60721b604482015260640161080c565b610bc3610d84565b5060405163a9059cbb60e01b8152336004820152602481018290527f00000000000000000000000000000000000000000000000000000000000000006001600160a01b03169063a9059cbb906044016020604051808303816000875af1158015610c31573d6000803e3d6000fd5b505050506040513d601f19601f82011682018060405250810190610c55919061156f565b503360009081526002602052604081208054839290610c759084906115ba565b925050819055508060046000828254610c8e91906115ba565b90915550503360009081526016602052604081208054839290610cb290849061155c565b90915550506001805550565b565b600080610ccc83611242565b8051909150421015610ce15750600092915050565b80602001514210610d095750506001600160a01b031660009081526002602052604090205490565b80516020820151600091610d1c916115ba565b8251909150600090610d2e90426115ba565b905060166000866001600160a01b03166001600160a01b031681526020019081526020016000205482828560400151610d6791906115cd565b610d7191906115e4565b610d7b91906115ba565b95945050505050565b33600090815260026020526040812054610dd45760405162461bcd60e51b81526020600482015260116024820152704e6f74207374616b656420796574203a2960781b604482015260640161080c565b610ddd336111b1565b336000908152600760205260409020548015610e89573360008181526007602052604080822082905551909190620f424090849084818181858888f193505050503d8060008114610e4a576040519150601f19603f3d011682016040523d82523d6000602084013e610e4f565b606091505b5050905080610e705760405162461bcd60e51b815260040161080c90611591565b8160096000828254610e82919061155c565b9091555050505b919050565b60108160028110610ab657600080fd5b610ea661130b565b610cbe6000611338565b600c8160028110610ab657600080fd5b6000610ecb82611388565b6001600160a01b038316600090815260076020526040902054610eee919061155c565b92915050565b60128160028110610ab657600080fd5b610f0d336113dd565b610f595760405162461bcd60e51b815260206004820152601860248201527f4e6f7420656c696769626c6520666f722076657374696e670000000000000000604482015260640161080c565b6000610f6433611242565b905081816040015114610fc55760405162461bcd60e51b8152602060048201526024808201527f416d6f756e7420646f6573206e6f74206d617463682076657374696e6720616d6044820152631bdd5b9d60e21b606482015260840161080c565b6040516323b872dd60e01b8152336004820152306024820152604481018390526000907f00000000000000000000000000000000000000000000000000000000000000006001600160a01b0316906323b872dd906064016020604051808303816000875af115801561103b573d6000803e3d6000fd5b505050506040513d601f19601f8201168201806040525081019061105f919061156f565b90508061107e5760405162461bcd60e51b815260040161080c90611591565b611087336111b1565b33600090815260026020526040812080548592906110a690849061155c565b9250508190555082600460008282546110bf919061155c565b909155505033600090815260166020526040812055505050565b600a8160028110610ab657600080fd5b601781815481106110f957600080fd5b6000918252602090912001546001600160a01b0316905081565b60045434906000036111225750565b600454611137670de0b6b3a7640000836115cd565b61114191906115e4565b60056000828254611152919061155c565b92505081905550806008600082825461116b919061155c565b909155505050565b61117b61130b565b6001600160a01b0381166111a557604051631e4fbdf760e01b81526000600482015260240161080c565b6111ae81611338565b50565b6111ba81611388565b6001600160a01b038216600090815260076020526040812080549091906111e290849061155c565b90915550506005546001600160a01b03909116600090815260066020526040902055565b60026001540361122957604051633ee5aeb560e01b815260040160405180910390fd5b6002600155565b600061123b82611242565b5192915050565b61126660405180606001604052806000815260200160008152602001600081525090565b6001600160a01b038216600090815260146020526040902060010154156112c957506001600160a01b0316600090815260146020908152604091829020825160608101845281548152600182015492810192909252600201549181019190915290565b506001600160a01b0316600090815260156020908152604091829020825160608101845281548152600182015492810192909252600201549181019190915290565b6000546001600160a01b03163314610cbe5760405163118cdaa760e01b815233600482015260240161080c565b600080546001600160a01b038381166001600160a01b0319831681178455604051919092169283917f8be0079c531659141344cd1fd0a4f28419497f9722a3daafe3b4186f6b6457e09190a35050565b6001600160a01b0381166000908152600260209081526040808320546006909252822054600554670de0b6b3a7640000916113c2916115ba565b6113cc90836115cd565b6113d691906115e4565b9392505050565b60006001600160a01b03821673ffff2a9e9a7e8b738e3a18538cffbc101a397419148061142657506001600160a01b03821673a902ffcc625d8dcacaf08d00f96b32c5d6a6ebe7145b8061144d57506001600160a01b03821673dcb265a5ce660611bc1da882d8a42733d88c1323145b8061147457506001600160a01b03821673bd7784d02c6590e68fed3098e354e7cbd232adc4145b8061149b57506001600160a01b03821673538c08af3e3cd67eeb4fb45970d3520f58537ba4145b80610eee5750506001600160a01b0316600090815260146020526040902060010154151590565b80356001600160a01b0381168114610e8957600080fd5b600080600080608085870312156114ef57600080fd5b6114f8856114c2565b966020860135965060408601359560600135945092505050565b60006020828403121561152457600080fd5b5035919050565b60006020828403121561153d57600080fd5b6113d6826114c2565b634e487b7160e01b600052601160045260246000fd5b80820180821115610eee57610eee611546565b60006020828403121561158157600080fd5b815180151581146113d657600080fd5b6020808252600f908201526e151c985b9cd9995c8819985a5b1959608a1b604082015260600190565b81810381811115610eee57610eee611546565b8082028115828204841417610eee57610eee611546565b60008261160157634e487b7160e01b600052601260045260246000fd5b50049056fea26469706673582212209314bbfd6426b9c06081d86215d96d49e26bd0230ef2e65dfa53b68feb04333064736f6c63430008140033","linkReferences":{}},"methodIdentifiers":{"ADVISOR()":"84776a2d","AIRDROP()":"1fa0d621","AIRDROP_AMOUNT()":"2b5b6872","DEVELOPMENT()":"661e7ac4","DEVELOPMENT_AMOUNT()":"90298ab9","LIQUIDITY()":"2861c7d1","LIQUIDITY_AMOUNT()":"8918ac82","MARKETING()":"e530a7d0","MARKETING_AMOUNT()":"b5bfea66","TEAM()":"cecdc6aa","TEAM_AMOUNT()":"8b32f62a","TREASURY()":"2d2c5565","TREASURY_AMOUNT()":"7fbd1b5a","addAdvisor(address,uint256,uint256,uint256)":"109bc4a7","advisorVestingSchedule(address)":"d1521d43","advisors(uint256)":"d42f5f3c","airdropLocks(uint256)":"a07929d1","allTimeRevenueCollected()":"1e0783c0","allTimeRewardsDistributed()":"2c84a540","balance(address)":"e3d670d7","calculateRewardsEarned(address)":"8b086764","claim()":"4e71d92d","collectRevenue()":"ed14d17e","developmentLocks(uint256)":"1dece9d7","getUnlockedAmount(address)":"420d4a02","lastUnstakeTime(address)":"331e03a8","marketingLocks(uint256)":"514a5c05","owner()":"8da5cb5b","renounceOwnership()":"715018a6","stake(uint256)":"a694fc3a","stakingToken()":"72f702f3","teamLocks(uint256)":"bb88d0a6","tgeDate()":"2484dc08","totalSupply()":"18160ddd","totalUnlockedAndClaimed(address)":"cfd108af","transferOwnership(address)":"f2fde38b","treasuryLocks(uint256)":"87b18193","unstake()":"2def6620","vestingSchedule(address)":"ffff6b04"},"id":60}