{"abi":[{"type":"constructor","inputs":[{"name":"_superMemeRegistry","type":"address","internalType":"address"}],"stateMutability":"nonpayable"},{"type":"function","name":"createToken","inputs":[{"name":"_name","type":"string","internalType":"string"},{"name":"_symbol","type":"string","internalType":"string"},{"name":"_amount","type":"uint256","internalType":"uint256"},{"name":"_devAddress","type":"address","internalType":"address"},{"name":"_buyEth","type":"uint256","internalType":"uint256"}],"outputs":[{"name":"token","type":"address","internalType":"address"}],"stateMutability":"payable"},{"type":"function","name":"createTokenRevenue","inputs":[],"outputs":[{"name":"","type":"uint256","internalType":"uint256"}],"stateMutability":"view"},{"type":"function","name":"owner","inputs":[],"outputs":[{"name":"","type":"address","internalType":"address"}],"stateMutability":"view"},{"type":"function","name":"renounceOwnership","inputs":[],"outputs":[],"stateMutability":"nonpayable"},{"type":"function","name":"revenueCollector","inputs":[],"outputs":[{"name":"","type":"address","internalType":"address"}],"stateMutability":"view"},{"type":"function","name":"setCreateTokenRevenue","inputs":[{"name":"_createTokenRevenue","type":"uint256","internalType":"uint256"}],"outputs":[],"stateMutability":"nonpayable"},{"type":"function","name":"setRevenueCollector","inputs":[{"name":"_revenueCollector","type":"address","internalType":"address"}],"outputs":[],"stateMutability":"nonpayable"},{"type":"function","name":"setSuperMemeRegistry","inputs":[{"name":"_superMemeRegistry","type":"address","internalType":"contract ISuperMemeRegistry"}],"outputs":[],"stateMutability":"nonpayable"},{"type":"function","name":"superMemeRegistry","inputs":[],"outputs":[{"name":"","type":"address","internalType":"contract ISuperMemeRegistry"}],"stateMutability":"view"},{"type":"function","name":"tokenAddresses","inputs":[{"name":"","type":"uint256","internalType":"uint256"}],"outputs":[{"name":"","type":"address","internalType":"address"}],"stateMutability":"view"},{"type":"function","name":"transferOwnership","inputs":[{"name":"newOwner","type":"address","internalType":"address"}],"outputs":[],"stateMutability":"nonpayable"},{"type":"event","name":"OwnershipTransferred","inputs":[{"name":"previousOwner","type":"address","indexed":true,"internalType":"address"},{"name":"newOwner","type":"address","indexed":true,"internalType":"address"}],"anonymous":false},{"type":"event","name":"TokenCreated","inputs":[{"name":"tokenAddress","type":"address","indexed":true,"internalType":"address"},{"name":"devAddress","type":"address","indexed":true,"internalType":"address"},{"name":"amount","type":"uint256","indexed":false,"internalType":"uint256"},{"name":"devLocked","type":"bool","indexed":false,"internalType":"bool"},{"name":"tokenType","type":"uint256","indexed":false,"internalType":"uint256"}],"anonymous":false},{"type":"error","name":"OwnableInvalidOwner","inputs":[{"name":"owner","type":"address","internalType":"address"}]},{"type":"error","name":"OwnableUnauthorizedAccount","inputs":[{"name":"account","type":"address","internalType":"address"}]}],"bytecode":{"object":"0x60806040526602d79883d2000060025534801561001b57600080fd5b50604051613edf380380613edf83398101604081905261003a916100df565b338061006057604051631e4fbdf760e01b81526000600482015260240160405180910390fd5b6100698161008f565b50600180546001600160a01b0319166001600160a01b039290921691909117905561010f565b600080546001600160a01b038381166001600160a01b0319831681178455604051919092169283917f8be0079c531659141344cd1fd0a4f28419497f9722a3daafe3b4186f6b6457e09190a35050565b6000602082840312156100f157600080fd5b81516001600160a01b038116811461010857600080fd5b9392505050565b613dc18061011e6000396000f3fe608060405260043610620000a95760003560e01c80637884f146116200006c5780637884f146146200016a5780638da5cb5b146200018f578063b6a1b6a514620001af578063cde38cdf14620001d1578063e5df8b8414620001f6578063f2fde38b146200021b57600080fd5b80630795551d14620000ae5780633b527dd614620000e2578063408a7344146200010957806369c7fddf146200012b578063715018a61462000152575b600080fd5b620000c5620000bf366004620007fa565b62000240565b6040516001600160a01b0390911681526020015b60405180910390f35b348015620000ef57600080fd5b50620000fa60025481565b604051908152602001620000d9565b3480156200011657600080fd5b50600154620000c5906001600160a01b031681565b3480156200013857600080fd5b50620001506200014a3660046200088b565b620005be565b005b3480156200015f57600080fd5b5062000150620005cd565b3480156200017757600080fd5b506200015062000189366004620008a5565b620005e5565b3480156200019c57600080fd5b506000546001600160a01b0316620000c5565b348015620001bc57600080fd5b50600354620000c5906001600160a01b031681565b348015620001de57600080fd5b5062000150620001f0366004620008a5565b62000611565b3480156200020357600080fd5b50620000c5620002153660046200088b565b6200063d565b3480156200022857600080fd5b50620001506200023a366004620008a5565b62000668565b60006002543410156200028f5760405162461bcd60e51b8152602060048201526012602482015271496e73756666696369656e742066756e647360701b60448201526064015b60405180910390fd5b6001600160a01b0383163314620002df5760405162461bcd60e51b8152602060048201526013602482015272496e76616c696420646576206164647265737360681b604482015260640162000286565b6003546002546040516000926001600160a01b0316916207a1209184818181858888f193505050503d806000811462000335576040519150601f19603f3d011682016040523d82523d6000602084013e6200033a565b606091505b50509050806200037f5760405162461bcd60e51b815260206004820152600f60248201526e151c985b9cd9995c8819985a5b1959608a1b604482015260640162000286565b841580156200038c575082155b15620003f25786868686600360009054906101000a90046001600160a01b031687604051620003bb906200072b565b620003cc9695949392919062000914565b604051809103906000f080158015620003e9573d6000803e3d6000fd5b509150620004a0565b600085118015620004035750600083115b1562000462578287878787600360009054906101000a90046001600160a01b03168860405162000433906200072b565b620004449695949392919062000914565b6040518091039082f0905080158015620003e9573d6000803e3d6000fd5b60405162461bcd60e51b8152602060048201526012602482015271496e76616c696420706172616d657465727360701b604482015260640162000286565b600480546001808201835560008381527f8a35acfbc15ff81a39ae7d344fd709f28e8600b4aa8c65c6b64bfe7fe36bd19b90920180546001600160a01b0319166001600160a01b038781169182179092558254604051633a03244760e01b8152958601919091528882166024860152604485018a9052606485019390935260848401919091521690633a0324479060a401600060405180830381600087803b1580156200054c57600080fd5b505af115801562000561573d6000803e3d6000fd5b5050604080518881526000602082015260018183015290516001600160a01b038881169450861692507f6268964f653fb671b504147c5e2a7e7f1cfd9512b665f4de66b2980551e3b76d9181900360600190a35095945050505050565b620005c8620006ac565b600255565b620005d7620006ac565b620005e36000620006db565b565b620005ef620006ac565b600180546001600160a01b0319166001600160a01b0392909216919091179055565b6200061b620006ac565b600380546001600160a01b0319166001600160a01b0392909216919091179055565b600481815481106200064e57600080fd5b6000918252602090912001546001600160a01b0316905081565b62000672620006ac565b6001600160a01b0381166200069e57604051631e4fbdf760e01b81526000600482015260240162000286565b620006a981620006db565b50565b6000546001600160a01b03163314620005e35760405163118cdaa760e01b815233600482015260240162000286565b600080546001600160a01b038381166001600160a01b0319831681178455604051919092169283917f8be0079c531659141344cd1fd0a4f28419497f9722a3daafe3b4186f6b6457e09190a35050565b613421806200096b83390190565b634e487b7160e01b600052604160045260246000fd5b600082601f8301126200076157600080fd5b813567ffffffffffffffff808211156200077f576200077f62000739565b604051601f8301601f19908116603f01168101908282118183101715620007aa57620007aa62000739565b81604052838152866020858801011115620007c457600080fd5b836020870160208301376000602085830101528094505050505092915050565b6001600160a01b0381168114620006a957600080fd5b600080600080600060a086880312156200081357600080fd5b853567ffffffffffffffff808211156200082c57600080fd5b6200083a89838a016200074f565b965060208801359150808211156200085157600080fd5b5062000860888289016200074f565b9450506040860135925060608601356200087a81620007e4565b949793965091946080013592915050565b6000602082840312156200089e57600080fd5b5035919050565b600060208284031215620008b857600080fd5b8135620008c581620007e4565b9392505050565b6000815180845260005b81811015620008f457602081850181015186830182015201620008d6565b506000602082860101526020601f19601f83011685010191505092915050565b60c0815260006200092960c0830189620008cc565b82810360208401526200093d8189620008cc565b604084019790975250506001600160a01b03938416606082015291909216608082015260a001529291505056fe6080604052633b9aca00600655673782dace9d9000006007556aa56fa5b99019a5c80000006008556103e8600e55620186a0600f55670214e8348c4f00006010556040516200342138038062003421833981016040819052620000629162000df1565b8585600362000072838262000f20565b50600462000081828262000f20565b505060016005555060208054336001600160a01b031991821617909155600a80549091166001600160a01b038416179055600854620000c290309062000177565b630bebc2006009556011805462010000600160b01b031916754752ba5dbc23f44d87826276bf6fd6b1c372ad240000179055601e80546001600160a01b0319166001600160a01b03851617905583156200016b57803410156200015f5760405162461bcd60e51b815260206004820152601060248201526f092dce6eaccccd2c6d2cadce8408aa8960831b60448201526064015b60405180910390fd5b6200016b8482620001b5565b505050505050620011e7565b6001600160a01b038216620001a35760405163ec442f0560e01b81526000600482015260240162000156565b620001b160008383620005b9565b5050565b620001bf62000672565b6000620001cc836200069d565b90506000600f54600e5483620001e3919062001002565b620001ef919062001022565b90506000620001ff828462001045565b905080841015620002465760405162461bcd60e51b815260206004820152601060248201526f092dce6eaccccd2c6d2cadce8408aa8960831b604482015260640162000156565b620002518262000740565b6000818511620002635760006200026f565b6200026f82866200105b565b90508015620002b557601e546040516001600160a01b039091169082156108fc029083906000818181858888f19350505050158015620002b3573d6000803e3d6000fd5b505b600160136000828254620002ca919062001045565b9091555050601e54601354600090815260146020526040902080546001600160a01b0319166001600160a01b039092169190911790556200030c83866200105b565b60138054600090815260156020908152604080832094909455601e80546001600160a01b0390811684526018835285842094548554600181018755958552838520909501949094555490921681526019909152206200036c84876200105b565b81546001810183556000928352602080842090910191909155601e546001600160a01b03168252601b9052604081208054869290620003ad90849062001045565b9250508190555083600d6000828254620003c8919062001045565b925050819055508285601760006001601354620003e691906200105b565b81526020019081526020016000205462000401919062001045565b6200040d91906200105b565b601354600090815260176020526040812080549091906200043090849062001045565b9091555050601e546200044c906001600160a01b0316620007fb565b601e546001600160a01b03166000908152601c6020526040812080548892906200047890849062001045565b92505081905550856009600082825462000493919062001045565b9091555050601e54620004c3906001600160a01b0316620004bd88670de0b6b3a764000062001002565b62000177565b6000620004cf60025490565b90506000620004df60016200069d565b601e5460408051898152602081018690529293506001600160a01b039091169130918b917f23b8a9f7d1252cf262e22214b242cc92ed7ed7df9228726be4d037a26e083894910160405180910390a4306001600160a01b031682827ecdd112a5bab661c199cefe1b6b407daede4238a9f24d764373bed654d7c22b8b6040516200056b91815260200190565b60405180910390a4600654600954106200058d576011805460ff191660011790555b60115460ff1615620005a357620005a36200093d565b505050505050620001b162000ab260201b60201c565b60115460ff1615620005d757620005d283838362000ab9565b505050565b6001600160a01b038316301480620005f657506001600160a01b038316155b156200060957620005d283838362000ab9565b6001600160a01b0382163014806200062857506001600160a01b038216155b156200063b57620005d283838362000ab9565b60405162461bcd60e51b815260206004820152600b60248201526a2737903a3930b739b332b960a91b604482015260640162000156565b6002600554036200069657604051633ee5aeb560e01b815260040160405180910390fd5b6002600555565b60095460009081620006b0848362001045565b9050600062012ebc620006cd670de0b6b3a7640000600362001002565b620006da6003866200116e565b620006e76003866200116e565b620006f391906200105b565b62000702906203938762001002565b6200071190620186a062001002565b6200071d919062001022565b6200072b90619c4062001002565b62000737919062001022565b95945050505050565b600a546040516000916001600160a01b03169061c35090849084818181858888f193505050503d806000811462000794576040519150601f19603f3d011682016040523d82523d6000602084013e62000799565b606091505b5050905080620007de5760405162461bcd60e51b815260206004820152600f60248201526e151c985b9cd9995c8819985a5b1959608a1b604482015260640162000156565b81600b6000828254620007f2919062001045565b90915550505050565b6001600160a01b0381166000908152601860209081526040808320805482518185028101850190935280835291929091908301828280156200085d57602002820191906000526020600020905b81548152602001906001019080831162000848575b505050506001600160a01b0384166000908152601a602052604081209293506200088992915062000cd1565b60005b8151811015620005d2576000828281518110620008ad57620008ad62001186565b6020908102919091018101516000818152601583526040808220546001600160a01b0389168352601b90945281205491935090620008ee6127108462001002565b620008fa919062001022565b6001600160a01b0387166000908152601a60209081526040822080546001810182559083529120015550829150620009349050816200119c565b9150506200088c565b60115460ff16620009825760405162461bcd60e51b815260206004820152600e60248201526d4375727665206e6f7420646f6e6560901b604482015260640162000156565b601054620009909062000740565b601054600d6000828254620009a691906200105b565b9091555050600d54600854601154620009d19030906201000090046001600160a01b03168362000bec565b60115460405163f305d71960e01b8152306004820152602481018390526000604482018190526064820181905260848201524260a4820152620100009091046001600160a01b03169063f305d71990849060c40160606040518083038185885af115801562000a44573d6000803e3d6000fd5b50505050506040513d601f19601f8201168201806040525081019062000a6b9190620011b8565b50506040805184815260208101849052428183015290517faf60794da385ef41a5f66c38529ba4f0581b8bca348871688b118d212b26588192509081900360600190a15050565b6001600555565b6001600160a01b03831662000ae857806002600082825462000adc919062001045565b9091555062000b5c9050565b6001600160a01b0383166000908152602081905260409020548181101562000b3d5760405163391434e360e21b81526001600160a01b0385166004820152602481018290526044810183905260640162000156565b6001600160a01b03841660009081526020819052604090209082900390555b6001600160a01b03821662000b7a5760028054829003905562000b99565b6001600160a01b03821660009081526020819052604090208054820190555b816001600160a01b0316836001600160a01b03167fddf252ad1be2c89b69c2b068fc378daa952ba7f163c4a11628f55a4df523b3ef8360405162000bdf91815260200190565b60405180910390a3505050565b620005d283838360016001600160a01b03841662000c215760405163e602df0560e01b81526000600482015260240162000156565b6001600160a01b03831662000c4d57604051634a1406b160e11b81526000600482015260240162000156565b6001600160a01b038085166000908152600160209081526040808320938716835292905220829055801562000ccb57826001600160a01b0316846001600160a01b03167f8c5be1e5ebec7d5bd14f71427d1e84f3dd0314c0f7b2291e5b200ac8c7c3b9258460405162000cc291815260200190565b60405180910390a35b50505050565b508054600082559060005260206000209081019062000cf1919062000cf4565b50565b5b8082111562000d0b576000815560010162000cf5565b5090565b634e487b7160e01b600052604160045260246000fd5b600082601f83011262000d3757600080fd5b81516001600160401b038082111562000d545762000d5462000d0f565b604051601f8301601f19908116603f0116810190828211818310171562000d7f5762000d7f62000d0f565b8160405283815260209250868385880101111562000d9c57600080fd5b600091505b8382101562000dc0578582018301518183018401529082019062000da1565b600093810190920192909252949350505050565b80516001600160a01b038116811462000dec57600080fd5b919050565b60008060008060008060c0878903121562000e0b57600080fd5b86516001600160401b038082111562000e2357600080fd5b62000e318a838b0162000d25565b9750602089015191508082111562000e4857600080fd5b5062000e5789828a0162000d25565b9550506040870151935062000e6f6060880162000dd4565b925062000e7f6080880162000dd4565b915060a087015190509295509295509295565b600181811c9082168062000ea757607f821691505b60208210810362000ec857634e487b7160e01b600052602260045260246000fd5b50919050565b601f821115620005d257600081815260208120601f850160051c8101602086101562000ef75750805b601f850160051c820191505b8181101562000f185782815560010162000f03565b505050505050565b81516001600160401b0381111562000f3c5762000f3c62000d0f565b62000f548162000f4d845462000e92565b8462000ece565b602080601f83116001811462000f8c576000841562000f735750858301515b600019600386901b1c1916600185901b17855562000f18565b600085815260208120601f198616915b8281101562000fbd5788860151825594840194600190910190840162000f9c565b508582101562000fdc5787850151600019600388901b60f8161c191681555b5050505050600190811b01905550565b634e487b7160e01b600052601160045260246000fd5b80820281158282048414176200101c576200101c62000fec565b92915050565b6000826200104057634e487b7160e01b600052601260045260246000fd5b500490565b808201808211156200101c576200101c62000fec565b818103818111156200101c576200101c62000fec565b600181815b80851115620010b257816000190482111562001096576200109662000fec565b80851615620010a457918102915b93841c939080029062001076565b509250929050565b600082620010cb575060016200101c565b81620010da575060006200101c565b8160018114620010f35760028114620010fe576200111e565b60019150506200101c565b60ff84111562001112576200111262000fec565b50506001821b6200101c565b5060208310610133831016604e8410600b841016171562001143575081810a6200101c565b6200114f838362001071565b806000190482111562001166576200116662000fec565b029392505050565b60006200117f60ff841683620010ba565b9392505050565b634e487b7160e01b600052603260045260246000fd5b600060018201620011b157620011b162000fec565b5060010190565b600080600060608486031215620011ce57600080fd5b8351925060208401519150604084015190509250925092565b61222a80620011f76000396000f3fe6080604052600436106102ae5760003560e01c80639c08c0a211610175578063c7a02061116100dc578063de11c94a11610095578063f36bdef61161006f578063f36bdef614610846578063f446c1d014610873578063f66bf2291461088a578063f66f8aa9146108a557600080fd5b8063de11c94a146107f4578063eced552614610814578063ee7a83171461083057600080fd5b8063c7a0206114610740578063c8ad5a3914610756578063ca7030751461076c578063dbd8c05714610782578063dcbaf9b814610798578063dd62ed3e146107ae57600080fd5b8063ae5213ce1161012e578063ae5213ce14610687578063b1dfc95f146106bd578063b317435c146106d5578063b6a1b6a5146106eb578063bdf862391461070b578063bf5839031461072b57600080fd5b80639c08c0a2146105d65780639e835b02146105de5780639ff8a55c146105f4578063a9059cbb14610621578063a929eef114610641578063ad91be261461065757600080fd5b80634af18f4f116102195780638078e6b0116101d25780638078e6b01461050c578063858381af1461052857806387b3686b1461054757806395d89b4114610567578063973566c21461057c57806399c4dd5b146105ac57600080fd5b80634af18f4f14610455578063571fe01614610475578063590e1ae31461048b5780636ac4daf6146104a05780636d0ef93c146104c057806370a08231146104d657600080fd5b806329b4f7511161026b57806329b4f751146103a1578063313ce567146103ce57806333d06de9146103ea5780633610724e146104005780633ad10ef61461041557806349bd5a5e1461043557600080fd5b806305202a6f146102b357806306fdde03146102e2578063095ea7b3146103045780631694505e1461032457806318160ddd1461036257806323b872dd14610381575b600080fd5b3480156102bf57600080fd5b506011546102cd9060ff1681565b60405190151581526020015b60405180910390f35b3480156102ee57600080fd5b506102f76108d2565b6040516102d99190611ea7565b34801561031057600080fd5b506102cd61031f366004611f11565b610964565b34801561033057600080fd5b5060115461034a906201000090046001600160a01b031681565b6040516001600160a01b0390911681526020016102d9565b34801561036e57600080fd5b506002545b6040519081526020016102d9565b34801561038d57600080fd5b506102cd61039c366004611f3b565b61097e565b3480156103ad57600080fd5b506103736103bc366004611f77565b601c6020526000908152604090205481565b3480156103da57600080fd5b50604051601281526020016102d9565b3480156103f657600080fd5b5061037360105481565b61041361040e366004611f92565b6109a2565b005b34801561042157600080fd5b50601e5461034a906001600160a01b031681565b34801561044157600080fd5b5060125461034a906001600160a01b031681565b34801561046157600080fd5b50610373610470366004611f92565b610e67565b34801561048157600080fd5b5061037360065481565b34801561049757600080fd5b50610413610ef6565b3480156104ac57600080fd5b506103736104bb366004611f11565b6114f4565b3480156104cc57600080fd5b5061037360095481565b3480156104e257600080fd5b506103736104f1366004611f77565b6001600160a01b031660009081526020819052604090205490565b34801561051857600080fd5b50610373673782dace9d90000081565b34801561053457600080fd5b506011546102cd90610100900460ff1681565b34801561055357600080fd5b50610373610562366004611f11565b611525565b34801561057357600080fd5b506102f7611541565b34801561058857600080fd5b506102cd610597366004611f92565b60166020526000908152604090205460ff1681565b3480156105b857600080fd5b506105c1611550565b604080519283526020830191909152016102d9565b610413611648565b3480156105ea57600080fd5b50610373600e5481565b34801561060057600080fd5b5061037361060f366004611f92565b60156020526000908152604090205481565b34801561062d57600080fd5b506102cd61063c366004611f11565b6117b1565b34801561064d57600080fd5b50610373600c5481565b34801561066357600080fd5b506102cd610672366004611f77565b601d6020526000908152604090205460ff1681565b34801561069357600080fd5b5061034a6106a2366004611f92565b6014602052600090815260409020546001600160a01b031681565b3480156106c957600080fd5b50610373630bebc20081565b3480156106e157600080fd5b50610373600f5481565b3480156106f757600080fd5b50600a5461034a906001600160a01b031681565b34801561071757600080fd5b50610373610726366004611f11565b6117bf565b34801561073757600080fd5b506103736117db565b34801561074c57600080fd5b50610373600d5481565b34801561076257600080fd5b50610373601f5481565b34801561077857600080fd5b5061037360135481565b34801561078e57600080fd5b50610373600b5481565b3480156107a457600080fd5b5061037361271081565b3480156107ba57600080fd5b506103736107c9366004611fab565b6001600160a01b03918216600090815260016020908152604080832093909416825291909152205490565b34801561080057600080fd5b5060205461034a906001600160a01b031681565b34801561082057600080fd5b50610373670de0b6b3a764000081565b34801561083c57600080fd5b5061037360075481565b34801561085257600080fd5b50610373610861366004611f92565b60176020526000908152604090205481565b34801561087f57600080fd5b506103736203938781565b34801561089657600080fd5b50610373662386f26fc1000081565b3480156108b157600080fd5b506103736108c0366004611f77565b601b6020526000908152604090205481565b6060600380546108e190611fde565b80601f016020809104026020016040519081016040528092919081815260200182805461090d90611fde565b801561095a5780601f1061092f5761010080835404028352916020019161095a565b820191906000526020600020905b81548152906001019060200180831161093d57829003601f168201915b5050505050905090565b6000336109728185856117f2565b60019150505b92915050565b60003361098c858285611804565b610997858585611882565b506001949350505050565b6109aa6118e1565b336000908152601d602052604090205460ff16156109fa5760405162461bcd60e51b81526020600482015260086024820152671499599d5b99195960c21b60448201526064015b60405180910390fd5b60115460ff1615610a3a5760405162461bcd60e51b815260206004820152600a602482015269437572766520646f6e6560b01b60448201526064016109f1565b60008111610a755760405162461bcd60e51b81526020600482015260086024820152670c08185b5bdd5b9d60c21b60448201526064016109f1565b601154610100900460ff1615610abb5760405162461bcd60e51b815260206004820152600b60248201526a526566756e64206f6e6c7960a81b60448201526064016109f1565b6103e860135410610b0e5760405162461bcd60e51b815260206004820152601760248201527f42757920636f756e74206c696d6974207265616368656400000000000000000060448201526064016109f1565b6000610b1982610e67565b90506000600f54600e5483610b2e919061202e565b610b389190612045565b90506000610b468284612067565b905080341015610b8b5760405162461bcd60e51b815260206004820152601060248201526f092dce6eaccccd2c6d2cadce8408aa8960831b60448201526064016109f1565b610b948261190b565b6000813411610ba4576000610bae565b610bae823461207a565b90506000339050600160136000828254610bc89190612067565b9091555050601354600090815260146020526040902080546001600160a01b0319166001600160a01b038316179055610c01843461207a565b601380546000908152601560209081526040808320949094556001600160a01b038516808352601882528483209354845460018101865594845282842090940193909355918152601990915220610c58853461207a565b815460018101835560009283526020808420909101919091556001600160a01b0383168252601b9052604081208054879290610c95908490612067565b9250508190555084600d6000828254610cae9190612067565b925050819055508334601760006001601354610cca919061207a565b815260200190815260200160002054610ce39190612067565b610ced919061207a565b60135460009081526017602052604081208054909190610d0e908490612067565b90915550610d1d9050816119c0565b6001600160a01b0381166000908152601c602052604081208054889290610d45908490612067565b925050819055508560096000828254610d5e9190612067565b90915550610d7f905081610d7a88670de0b6b3a764000061202e565b611af3565b6000610d8a60025490565b90506000610d986001610e67565b60408051898152602081018590529192506001600160a01b0385169130918b917f23b8a9f7d1252cf262e22214b242cc92ed7ed7df9228726be4d037a26e083894910160405180910390a4306001600160a01b031682827ecdd112a5bab661c199cefe1b6b407daede4238a9f24d764373bed654d7c22b8b604051610e1f91815260200190565b60405180910390a460065460095410610e40576011805460ff191660011790555b60115460ff1615610e5357610e53611648565b50505050505050610e646001600555565b50565b60095460009081610e788483612067565b9050600062012ebc610e93670de0b6b3a7640000600361202e565b610e9e600386612171565b610ea9600386612171565b610eb3919061207a565b610ec0906203938761202e565b610ecd90620186a061202e565b610ed79190612045565b610ee390619c4061202e565b610eed9190612045565b95945050505050565b610efe6118e1565b33600090815260186020526040902054610f435760405162461bcd60e51b81526020600482015260066024820152654e6f2062757960d01b60448201526064016109f1565b336000908152601d602052604090205460ff1615610f8e5760405162461bcd60e51b81526020600482015260086024820152671499599d5b99195960c21b60448201526064016109f1565b60115460ff1615610fce5760405162461bcd60e51b815260206004820152600a602482015269437572766520646f6e6560b01b60448201526064016109f1565b600080610fd9611550565b9092509050610fe88183612067565b3360009081526020819052604090205410156110345760405162461bcd60e51b815260206004820152600b60248201526a4c6f772062616c616e636560a81b60448201526064016109f1565b336000908152601b60205260409020544781111561107e5760405162461bcd60e51b8152602060048201526007602482015266098deee408aa8960cb1b60448201526064016109f1565b6000600f54600e5483611091919061202e565b61109b9190612045565b905060006110a98486612067565b336000908152602081905260408120549192509082106110ca5760006110e5565b336000908152602081905260409020546110e590839061207a565b90506110f08361190b565b6110fa3387611b2d565b61110e33306111098489612067565b611882565b3360009081526018602090815260408083208054825181850281018501909352808352919290919083018282801561116557602002820191906000526020600020905b815481526020019060010190808311611151575b5050505050905060005b815181101561134857600082828151811061118c5761118c612180565b602090810291909101810151600081815260179092526040808320546013548452908320549193506111bd9161207a565b6013549091505b828110611332576000818152601460205260409020546001600160a01b03161561133257808314611332576000818152601460205260409020546001600160a01b031633148061123857506000818152601460209081526040808320546001600160a01b03168352601d90915290205460ff165b61132057336000908152601a602052604081208054612710918d918890811061126357611263612180565b9060005260206000200154611278919061202e565b6112829190612045565b6000838152601560205260408120549192509084906112a290849061202e565b6112ac9190612045565b90506112c0670de0b6b3a764000082612045565b6000848152601460209081526040808320546001600160a01b03168352601c909152812080549091906112f4908490612067565b909155505060008381526014602052604090205461131d9030906001600160a01b031683611882565b50505b8061132a81612196565b9150506111c4565b5050508080611340906121ad565b91505061116f565b50336000908152601d60209081526040808320805460ff19166001179055601c909152812055611380670de0b6b3a764000087612045565b60066000828254611391919061207a565b90915550506006546326be3680106113b3576011805461ff0019166101001790555b60006113bf858761207a565b604051909150339082156108fc029083906000818181858888f193505050501580156113ef573d6000803e3d6000fd5b5085600d6000828254611402919061207a565b9250508190555087600c600082825461141b9190612067565b909155506114339050670de0b6b3a764000089612045565b60096000828254611444919061207a565b909155505060025460006114586001610e67565b60408051858152602081018c9052919250339130918d917f128ae0c4639a89c99f68205faaca05d6676db3d20d9019de94292e9088c9a58b910160405180910390a4306001600160a01b031682827ecdd112a5bab661c199cefe1b6b407daede4238a9f24d764373bed654d7c22b8d6040516114d691815260200190565b60405180910390a4505050505050505050506114f26001600555565b565b6018602052816000526040600020818154811061151057600080fd5b90600052602060002001600091509150505481565b6019602052816000526040600020818154811061151057600080fd5b6060600480546108e190611fde565b336000908152601c6020908152604080832054600954601b909352908320548392908361158262039387619c4061202e565b61158f90620186a061202e565b670de0b6b3a76400006115a58462012ebc61202e565b6115b090600361202e565b6115ba919061202e565b6115c49190612045565b90506000816115d4600386612171565b6115de919061207a565b905060006115eb82611b63565b905060006115f9828761207a565b9050868111156116065750855b6000611612828961207a565b905061162682670de0b6b3a764000061202e565b61163882670de0b6b3a764000061202e565b9950995050505050505050509091565b60115460ff1661168b5760405162461bcd60e51b815260206004820152600e60248201526d4375727665206e6f7420646f6e6560901b60448201526064016109f1565b61169660105461190b565b601054600d60008282546116aa919061207a565b9091555050600d546008546011546116d39030906201000090046001600160a01b0316836117f2565b60115460405163f305d71960e01b8152306004820152602481018390526000604482018190526064820181905260848201524260a4820152620100009091046001600160a01b03169063f305d71990849060c40160606040518083038185885af1158015611745573d6000803e3d6000fd5b50505050506040513d601f19601f8201168201806040525081019061176a91906121c6565b50506040805184815260208101849052428183015290517faf60794da385ef41a5f66c38529ba4f0581b8bca348871688b118d212b26588192509081900360600190a15050565b600033610972818585611882565b601a602052816000526040600020818154811061151057600080fd5b60006009546006546117ed919061207a565b905090565b6117ff8383836001611bce565b505050565b6001600160a01b03838116600090815260016020908152604080832093861683529290522054600019811461187c578181101561186d57604051637dc7a0d960e11b81526001600160a01b038416600482015260248101829052604481018390526064016109f1565b61187c84848484036000611bce565b50505050565b6001600160a01b0383166118ac57604051634b637e8f60e11b8152600060048201526024016109f1565b6001600160a01b0382166118d65760405163ec442f0560e01b8152600060048201526024016109f1565b6117ff838383611ca3565b60026005540361190457604051633ee5aeb560e01b815260040160405180910390fd5b6002600555565b600a546040516000916001600160a01b03169061c35090849084818181858888f193505050503d806000811461195d576040519150601f19603f3d011682016040523d82523d6000602084013e611962565b606091505b50509050806119a55760405162461bcd60e51b815260206004820152600f60248201526e151c985b9cd9995c8819985a5b1959608a1b60448201526064016109f1565b81600b60008282546119b79190612067565b90915550505050565b6001600160a01b038116600090815260186020908152604080832080548251818502810185019093528083529192909190830182828015611a2057602002820191906000526020600020905b815481526020019060010190808311611a0c575b505050506001600160a01b0384166000908152601a60205260408120929350611a4a929150611e75565b60005b81518110156117ff576000828281518110611a6a57611a6a612180565b6020908102919091018101516000818152601583526040808220546001600160a01b0389168352601b90945281205491935090611aa96127108461202e565b611ab39190612045565b6001600160a01b0387166000908152601a60209081526040822080546001810182559083529120015550829150611aeb9050816121ad565b915050611a4d565b6001600160a01b038216611b1d5760405163ec442f0560e01b8152600060048201526024016109f1565b611b2960008383611ca3565b5050565b6001600160a01b038216611b5757604051634b637e8f60e11b8152600060048201526024016109f1565b611b2982600083611ca3565b6000806003611b73846001612067565b611b7d9190612045565b9050825b80821015611bc75750806003611b9882600261202e565b611ba2848061202e565b611bac9087612045565b611bb69190612067565b611bc09190612045565b9150611b81565b9392505050565b6001600160a01b038416611bf85760405163e602df0560e01b8152600060048201526024016109f1565b6001600160a01b038316611c2257604051634a1406b160e11b8152600060048201526024016109f1565b6001600160a01b038085166000908152600160209081526040808320938716835292905220829055801561187c57826001600160a01b0316846001600160a01b03167f8c5be1e5ebec7d5bd14f71427d1e84f3dd0314c0f7b2291e5b200ac8c7c3b92584604051611c9591815260200190565b60405180910390a350505050565b60115460ff1615611cb9576117ff838383611d4b565b6001600160a01b038316301480611cd757506001600160a01b038316155b15611ce7576117ff838383611d4b565b6001600160a01b038216301480611d0557506001600160a01b038216155b15611d15576117ff838383611d4b565b60405162461bcd60e51b815260206004820152600b60248201526a2737903a3930b739b332b960a91b60448201526064016109f1565b6001600160a01b038316611d76578060026000828254611d6b9190612067565b90915550611de89050565b6001600160a01b03831660009081526020819052604090205481811015611dc95760405163391434e360e21b81526001600160a01b038516600482015260248101829052604481018390526064016109f1565b6001600160a01b03841660009081526020819052604090209082900390555b6001600160a01b038216611e0457600280548290039055611e23565b6001600160a01b03821660009081526020819052604090208054820190555b816001600160a01b0316836001600160a01b03167fddf252ad1be2c89b69c2b068fc378daa952ba7f163c4a11628f55a4df523b3ef83604051611e6891815260200190565b60405180910390a3505050565b5080546000825590600052602060002090810190610e6491905b80821115611ea35760008155600101611e8f565b5090565b600060208083528351808285015260005b81811015611ed457858101830151858201604001528201611eb8565b506000604082860101526040601f19601f8301168501019250505092915050565b80356001600160a01b0381168114611f0c57600080fd5b919050565b60008060408385031215611f2457600080fd5b611f2d83611ef5565b946020939093013593505050565b600080600060608486031215611f5057600080fd5b611f5984611ef5565b9250611f6760208501611ef5565b9150604084013590509250925092565b600060208284031215611f8957600080fd5b611bc782611ef5565b600060208284031215611fa457600080fd5b5035919050565b60008060408385031215611fbe57600080fd5b611fc783611ef5565b9150611fd560208401611ef5565b90509250929050565b600181811c90821680611ff257607f821691505b60208210810361201257634e487b7160e01b600052602260045260246000fd5b50919050565b634e487b7160e01b600052601160045260246000fd5b808202811582820484141761097857610978612018565b60008261206257634e487b7160e01b600052601260045260246000fd5b500490565b8082018082111561097857610978612018565b8181038181111561097857610978612018565b600181815b808511156120c85781600019048211156120ae576120ae612018565b808516156120bb57918102915b93841c9390800290612092565b509250929050565b6000826120df57506001610978565b816120ec57506000610978565b8160018114612102576002811461210c57612128565b6001915050610978565b60ff84111561211d5761211d612018565b50506001821b610978565b5060208310610133831016604e8410600b841016171561214b575081810a610978565b612155838361208d565b806000190482111561216957612169612018565b029392505050565b6000611bc760ff8416836120d0565b634e487b7160e01b600052603260045260246000fd5b6000816121a5576121a5612018565b506000190190565b6000600182016121bf576121bf612018565b5060010190565b6000806000606084860312156121db57600080fd5b835192506020840151915060408401519050925092509256fea26469706673582212202c1371d034c15d4beac392a0ccf15fc590d99a280b24dd9ac277faf92b42731d64736f6c63430008140033a2646970667358221220cda6baa8c35307c2de56f74c61765408389980c30254175fe3ec3f59e26bd24164736f6c63430008140033","linkReferences":{}},"methodIdentifiers":{"createToken(string,string,uint256,address,uint256)":"0795551d","createTokenRevenue()":"3b527dd6","owner()":"8da5cb5b","renounceOwnership()":"715018a6","revenueCollector()":"b6a1b6a5","setCreateTokenRevenue(uint256)":"69c7fddf","setRevenueCollector(address)":"cde38cdf","setSuperMemeRegistry(address)":"7884f146","superMemeRegistry()":"408a7344","tokenAddresses(uint256)":"e5df8b84","transferOwnership(address)":"f2fde38b"},"id":43}