{"abi":[{"type":"function","name":"A","inputs":[],"outputs":[{"name":"","type":"uint256","internalType":"uint256"}],"stateMutability":"view"},{"type":"function","name":"MAX_SALE_SUPPLY","inputs":[],"outputs":[{"name":"","type":"uint256","internalType":"uint256"}],"stateMutability":"view"},{"type":"function","name":"SCALE","inputs":[],"outputs":[{"name":"","type":"uint256","internalType":"uint256"}],"stateMutability":"view"},{"type":"function","name":"TOTAL_ETHER","inputs":[],"outputs":[{"name":"","type":"uint256","internalType":"uint256"}],"stateMutability":"view"},{"type":"function","name":"calculateTokensForEth","inputs":[{"name":"scaledSupply","type":"uint256","internalType":"uint256"},{"name":"loopVar","type":"uint256","internalType":"uint256"},{"name":"ethAmount","type":"uint256","internalType":"uint256"}],"outputs":[{"name":"","type":"uint256","internalType":"uint256"}],"stateMutability":"view"},{"type":"function","name":"scaledLiquidityThreshold","inputs":[],"outputs":[{"name":"","type":"uint256","internalType":"uint256"}],"stateMutability":"view"}],"bytecode":{"object":"0x60808060405234610025576aa56fa5b99019a5c80000006000556102ed908161002b8239f35b600080fdfe608060408181526004918236101561001657600080fd5b600092833560e01c918263571fe016146101dd575081636e59a9d4146100e9575080638078e6b0146100c7578063b1dfc95f146100a9578063eced5526146100875763f446c1d01461006757600080fd5b3461008357816003193601126100835760209051620393878152f35b5080fd5b503461008357816003193601126100835760209051670de0b6b3a76400008152f35b503461008357816003193601126100835760209051630bebc2008152f35b503461008357816003193601126100835760209051673782dace9d9000008152f35b919050346101d95760603660031901126101d957602480359280359291859190604435610129865b61012361011d896101fb565b916101fb565b9061029d565b620393879080820291820481036101c757640574fbde600290808204620186a014901517156101b5576729a2241af62c00009004619c40908181029181830414901517156101b55762012ebc9004908082116101ab57906101899161029d565b926101296101a18861019b818a6102aa565b9a6102aa565b9896919491610111565b6020898751908152f35b634e487b7160e01b8552601184528285fd5b634e487b7160e01b8652601185528386fd5b8280fd5b84903461008357816003193601126100835780633b9aca0060209252f35b80156102975780806001146102905760021461028a576001908161013382101682600b8310161761028257906003815b80821161025957505081600019048111610243570290565b634e487b7160e01b600052601160045260246000fd5b90928060001904811161024357818416610279575b800292811c9061022b565b8092029161026e565b600391500a90565b50600890565b5050600190565b50600090565b9190820391821161024357565b919082018092116102435756fea26469706673582212204bb1b5e754f56bac11cf26af1d014c0dfe1e732eafd23f1cdb5483a72767522b64736f6c63430008140033","linkReferences":{}},"methodIdentifiers":{"A()":"f446c1d0","MAX_SALE_SUPPLY()":"571fe016","SCALE()":"eced5526","TOTAL_ETHER()":"8078e6b0","calculateTokensForEth(uint256,uint256,uint256)":"6e59a9d4","scaledLiquidityThreshold()":"b1dfc95f"},"id":61}