{"abi":[{"type":"function","name":"A","inputs":[],"outputs":[{"name":"","type":"uint256","internalType":"uint256"}],"stateMutability":"view"},{"type":"function","name":"MAX_SALE_SUPPLY","inputs":[],"outputs":[{"name":"","type":"uint256","internalType":"uint256"}],"stateMutability":"view"},{"type":"function","name":"SCALE","inputs":[],"outputs":[{"name":"","type":"uint256","internalType":"uint256"}],"stateMutability":"view"},{"type":"function","name":"TOTAL_ETHER","inputs":[],"outputs":[{"name":"","type":"uint256","internalType":"uint256"}],"stateMutability":"view"},{"type":"function","name":"calculateTokensForEth","inputs":[{"name":"scaledSupply","type":"uint256","internalType":"uint256"},{"name":"loopVar","type":"uint256","internalType":"uint256"},{"name":"ethAmount","type":"uint256","internalType":"uint256"}],"outputs":[{"name":"","type":"uint256","internalType":"uint256"}],"stateMutability":"view"},{"type":"function","name":"scaledLiquidityThreshold","inputs":[],"outputs":[{"name":"","type":"uint256","internalType":"uint256"}],"stateMutability":"view"}],"bytecode":{"object":"0x60806040526aa56fa5b99019a5c800000060005534801561001f57600080fd5b506103638061002f6000396000f3fe608060405234801561001057600080fd5b50600436106100625760003560e01c8063571fe016146100675780636e59a9d4146100845780638078e6b014610097578063b1dfc95f146100a6578063eced5526146100b1578063f446c1d0146100c0575b600080fd5b610072633b9aca0081565b60405190815260200160405180910390f35b61007261009236600461018c565b6100ca565b610072673782dace9d90000081565b610072630bebc20081565b610072670de0b6b3a764000081565b6100726203938781565b60008380825b600062012ebc6100e9670de0b6b3a764000060036101ce565b6100f46003876102cf565b6100ff6003876102cf565b61010991906102e5565b61011690620393876101ce565b61012390620186a06101ce565b61012d91906102f8565b61013990619c406101ce565b61014391906102f8565b9050858111156101535750610182565b61015d81876102e5565b9550829350868361016e919061031a565b925061017a878361031a565b9150506100d0565b9695505050505050565b6000806000606084860312156101a157600080fd5b505081359360208301359350604090920135919050565b634e487b7160e01b600052601160045260246000fd5b80820281158282048414176101e5576101e56101b8565b92915050565b600181815b8085111561022657816000190482111561020c5761020c6101b8565b8085161561021957918102915b93841c93908002906101f0565b509250929050565b60008261023d575060016101e5565b8161024a575060006101e5565b8160018114610260576002811461026a57610286565b60019150506101e5565b60ff84111561027b5761027b6101b8565b50506001821b6101e5565b5060208310610133831016604e8410600b84101617156102a9575081810a6101e5565b6102b383836101eb565b80600019048211156102c7576102c76101b8565b029392505050565b60006102de60ff84168361022e565b9392505050565b818103818111156101e5576101e56101b8565b60008261031557634e487b7160e01b600052601260045260246000fd5b500490565b808201808211156101e5576101e56101b856fea26469706673582212208bfaa601da2fad97c2eed40cadf7e925be80c1e16d0ee2ecf7594d04b29841ff64736f6c63430008140033","linkReferences":{}},"methodIdentifiers":{"A()":"f446c1d0","MAX_SALE_SUPPLY()":"571fe016","SCALE()":"eced5526","TOTAL_ETHER()":"8078e6b0","calculateTokensForEth(uint256,uint256,uint256)":"6e59a9d4","scaledLiquidityThreshold()":"b1dfc95f"},"id":61}